:1080000028470120311E0100B3BE0200051E0100F9
:10801000051E0100051E0100051E0100051E0100D0
:1080200000000000000000000000000041150100F9
:10803000051E010000000000E1140100051E010002
:10804000C9150100C9150100C9150100C9150100B4
:10805000C9150100C9150100C9150100C9150100A4
:10806000C9150100C9150100C9150100C915010094
:10807000C9150100C9150100C9150100C915010084
:10808000C9150100C9150100C9150100C915010074
:10809000C9150100C9150100C9150100C915010064
:1080A000C9150100C9150100C9150100C915010054
:1080B000C9150100C9150100C9150100C915010044
:1080C000C9150100C9150100C9150100C915010034
:1080D000C9150100C9150100C9150100C915010024
:1080E000C9150100C9150100C9150100C915010014
:1080F000C9150100C9150100C9150100C915010004
:10810000C9150100C9150100C9150100C9150100F3
:10811000C9150100C9150100C9150100C9150100E3
:10812000C9150100C9150100C9150100C9150100D3
:10813000C9150100C9150100C9150100C9150100C3
:04814000C91501005C
:04814400FFFFFFFF3B
:108148004FF0FF0C1CEAD0521EBF1CEAD15392EA32
:108158000C0F93EA0C0F6FD01A4480EA010C40020E
:1081680018BF5FEA41211ED04FF0006343EA501068
:1081780043EA5111A0FB01310CF00040B1F5000FAA
:108188003EBF490041EAD3715B0040EA010062F159
:108198007F02FD2A1DD8B3F1004F40EBC25008BF43
:1081A80020F00100704790F0000F0CF0004C08BF61
:1081B80049024CEA502040EA51207F3AC2BFD2F12E
:1081C800FF0340EAC250704740F400004FF000033C
:1081D800013A5DDC12F1190FDCBF00F00040704776
:1081E800C2F10002410021FA02F1C2F1200200FAB4
:1081F80002FC5FEA310040F1000053EA4C0308BF7B
:1082080020EADC70704792F0000F00F0004C02BFCB
:10821800400010F4000F013AF9D040EA0C0093F046
:10822800000F01F0004C02BF490011F4000F013BA0
:10823800F9D041EA0C018FE70CEAD15392EA0C0F0E
:1082480018BF93EA0C0F0AD030F0004C18BF31F079
:10825800004CD8D180EA010000F00040704790F04F
:10826800000F17BF90F0004F084691F0000F91F0F3
:10827800004F14D092EA0C0F01D142020FD193EAB9
:108288000C0F03D14B0218BF084608D180EA010041
:1082980000F0004040F0FE4040F40000704740F01D
:1082A800FE4040F44000704781F0004102E000BF0A
:1082B80083F0004330B54FEA41044FEA430594EA9E
:1082C800050F08BF90EA020F1FBF54EA000C55EAD9
:1082D800020C7FEA645C7FEA655C00F0E2804FEAAA
:1082E8005454D4EB5555B8BF6D420CDD2C4480EA8C
:1082F800020281EA030382EA000083EA010180EABC
:10830800020281EA0303362D88BF30BD11F0004F09
:108318004FEA01314FF4801C4CEA113102D040423F
:1083280061EB410113F0004F4FEA03334CEA13337A
:1083380002D0524263EB430394EA050F00F0A78092
:10834800A4F10104D5F1200E0DDB02FA0EFC22FA8D
:1083580005F2801841F1000103FA0EF2801843FA81
:1083680005F359410EE0A5F120050EF1200E012A72
:1083780003FA0EFC28BF4CF0020C43FA05F3C018B0
:1083880051EBE37101F0004507D54FF0000EDCF129
:10839800000C7EEB00006EEB0101B1F5801F1BD3D2
:1083A800B1F5001F0CD349085FEA30004FEA3C0CD6
:1083B80004F101044FEA445212F5800F80F09A80CC
:1083C800BCF1004F08BF5FEA500C50F1000041EBD0
:1083D800045141EA050130BD5FEA4C0C404141EBD4
:1083E8000101013C28BFB1F5801FE9D291F0000FCF
:1083F80004BF01460020B1FA81F308BF2033A3F17E
:108408000B03B3F120020CDA0C3208DD02F1140C74
:10841800C2F10C0201FA0CF021FA02F10CE002F1AF
:108428001402D8BFC2F1200C01FA02F120FA0CFCA8
:10843800DCBF41EA0C019040E41AA2BF01EB0451F1
:10844800294330BD6FEA04041F3C1CDA0C340EDCEF
:1084580004F11404C4F1200220FA04F001FA02F332
:1084680040EA030021FA04F345EA030130BDC4F1F0
:108478000C04C4F1200220FA02F001FA04F340EAE5
:108488000300294630BD21FA04F0294630BD94F096
:10849800000F83F4801306BF81F480110134013D7D
:1084A8004EE77FEA645C18BF7FEA655C29D094EAEE
:1084B800050F08BF90EA020F05D054EA000C04BF6C
:1084C8001946104630BD91EA030F1EBF0021002057
:1084D80030BD5FEA545C05D14000494128BF41F0F6
:1084E800004130BD14F580043CBF01F5801130BD5A
:1084F80001F0004545F0FE4141F470014FF00000E5
:1085080030BD7FEA645C1ABF194610467FEA655C95
:108518001CBF0B46024650EA013406BF52EA033537
:1085280091EA030F41F4002130BD00BF90F0000F25
:1085380004BF0021704730B54FF4806404F1320461
:108548004FF000054FF0000150E700BF90F0000F1A
:1085580004BF0021704730B54FF4806404F1320441
:1085680010F0004548BF40424FF000013EE700BF11
:1085780042004FEAE2014FEA31014FEA02701FBFA1
:1085880012F07F4393F07F4F81F06051704732F0D3
:108598007F4208BF704793F07F4F04BF41F400212A
:1085A800704730B54FF4607401F0004521F0004188
:1085B8001CE700BF50EA010208BF704730B54FF012
:1085C80000050AE050EA010208BF704730B511F013
:1085D800004502D5404261EB41014FF4806404F14B
:1085E80032045FEA915C3FF4D8AE4FF003025FEAD1
:1085F800DC0C18BF03325FEADC0C18BF033202EB55
:10860800DC02C2F1200300FA03FC20FA02F001FAAE
:1086180003FE40EA0E0021FA02F11444BDE600BF51
:1086280070B54FF0FF0C4CF4E06C1CEA11541DBF00
:108638001CEA135594EA0C0F95EA0C0F00F0DEF8CB
:108648002C4481EA030621EA4C5123EA4C5350EAB0
:10865800013518BF52EA033541F4801143F4801301
:1086680038D0A0FB02CE4FF00005E1FB02E506F092
:108678000042E0FB03E54FF00006E1FB03569CF0E7
:10868800000F18BF4EF0010EA4F1FF04B6F5007FED
:1086980064F5407404D25FEA4E0E6D4146EB06065F
:1086A80042EAC62141EA55514FEAC52040EA5E50E8
:1086B8004FEACE2EB4F1FD0C88BFBCF5E06F1ED892
:1086C800BEF1004F08BF5FEA500E50F1000041EBC9
:1086D800045170BD06F0004646EA010140EA020076
:1086E80081EA0301B4EB5C04C2BFD4EB0C0541EA98
:1086F800045170BD41F480114FF0000E013C00F3AD
:10870800AB8014F1360FDEBF002001F0004170BDD0
:10871800C4F10004203C35DA0C341BDC04F11404E9
:10872800C4F1200500FA05F320FA04F001FA05F275
:1087380040EA020001F0004221F0004110EBD37042
:1087480021FA04F642EB06015EEA430E08BF20EA6E
:10875800D37070BDC4F10C04C4F1200500FA04F311
:1087680020FA05F001FA04F240EA020001F00041A3
:1087780010EBD37041F100015EEA430E08BF20EA16
:10878800D37070BDC4F1200500FA05F24EEA020E5E
:1087980020FA04F301FA05F243EA020321FA04F08D
:1087A80001F0004121FA04F220EA020000EBD37044
:1087B8005EEA430E08BF20EAD37070BD94F0000F44
:1087C8000FD101F00046400041EB010111F4801F78
:1087D80008BF013CF7D041EA060195F0000F18BF29
:1087E800704703F00046520043EB030313F4801F65
:1087F80008BF013DF7D043EA0603704794EA0C0F1F
:108808000CEA135518BF95EA0C0F0CD050EA410634
:1088180018BF52EA4306D1D181EA030101F00041B1
:108828004FF0000070BD50EA410606BF10461946D9
:1088380052EA430619D094EA0C0F02D150EA0136E5
:1088480013D195EA0C0F05D152EA03361CBF104626
:1088580019460AD181EA030101F0004141F0FE41C5
:1088680041F470014FF0000070BD41F0FE4141F449
:10887800780170BD70B54FF0FF0C4CF4E06C1CEA49
:1088880011541DBF1CEA135594EA0C0F95EA0C0FFE
:1088980000F0A7F8A4EB050481EA030E52EA0335B9
:1088A8004FEA013100F088804FEA03334FF08055DA
:1088B80045EA131343EA12634FEA022245EA111507
:1088C80045EA10654FEA00260EF000419D4208BFB8
:1088D800964244F1FD0404F5407402D25B084FEA65
:1088E8003202B61A65EB03055B084FEA32024FF411
:1088F80080104FF4002CB6EB020E75EB030E22BF6E
:10890800B61A754640EA0C005B084FEA3202B6EB2D
:10891800020E75EB030E22BFB61A754640EA5C00DC
:108928005B084FEA3202B6EB020E75EB030E22BF6C
:10893800B61A754640EA9C005B084FEA3202B6EB6D
:10894800020E75EB030E22BFB61A754640EADC002C
:1089580055EA060E18D04FEA051545EA16754FEA8E
:1089680006164FEAC30343EA52734FEAC2025FEAAC
:108978001C1CC0D111F4801F0BD141EA00014FF03B
:1089880000004FF0004CB6E711F4801F04BF01430C
:108998000020B4F1FD0C88BFBCF5E06F3FF6AFAE28
:1089A800B5EB030C04BFB6EB020C5FEA500C50F1B8
:1089B800000041EB045170BD0EF0004E4EEA11313B
:1089C80014EB5C04C2BFD4EB0C0541EA045170BD42
:1089D80041F480114FF0000E013C90E645EA060E86
:1089E8008DE60CEA135594EA0C0F08BF95EA0C0FB4
:1089F8003FF43BAF94EA0C0F0AD150EA01347FF4FC
:108A080034AF95EA0C0F7FF425AF104619462CE7D2
:108A180095EA0C0F06D152EA03353FF4FDAE104635
:108A2800194622E750EA410618BF52EA43067FF486
:108A3800C5AE50EA41047FF40DAF52EA43057FF416
:108A4800EBAE12E74FF0FF3C06E000BF4FF0010C21
:108A580002E000BF4FF0010C4DF804CD4FEA410C85
:108A68007FEA6C5C4FEA430C18BF7FEA6C5C1BD052
:108A780001B050EA410C0CBF52EA430C91EA030FD3
:108A880002BF90EA020F0020704710F1000F91EA30
:108A9800030F58BF994208BF90422CBFD8176FEAFE
:108AA800E37040F0010070474FEA410C7FEA6C5CCC
:108AB80002D150EA013C07D14FEA430C7FEA6C5CD3
:108AC800D6D152EA033CD3D05DF8040B704700BFFF
:108AD8008446104662468C461946634600E000BF4D
:108AE80001B5FFF7B7FF002848BF10F1000F01BD1F
:108AF8004DF808EDFFF7F4FF0CBF012000205DF8EA
:108B080008FB00BF4DF808EDFFF7EAFF34BF01206E
:108B180000205DF808FB00BF4DF808EDFFF7E0FF07
:108B280094BF012000205DF808FB00BF4DF808ED58
:108B3800FFF7CEFF94BF012000205DF808FB00BFBF
:108B48004DF808EDFFF7C4FF34BF012000205DF8A1
:108B580008FB00BF4FEA410C7FEA6C5C02D150EA87
:108B6800013C0AD14FEA430C7FEA6C5C02D152EA1D
:108B7800033C02D14FF0000070474FF001007047EE
:108B88004FEA410212F5001215D211D56FF478732D
:108B9800B3EB625212D94FEAC12343F0004343EAD0
:108BA800505311F0004F23FA02F018BF40427047AB
:108BB8004FF00000704750EA013005D111F0004035
:108BC80008BF6FF0004070474FF00000704700BFCB
:108BD8004FEA4102B2F1E04324BFB3F5001CDCF1D7
:108BE800FE5C0DD901F0004C4FEAC0024CEA50700F
:108BF800B2F1004F40EB830008BF20F0010070473E
:108C080011F0804F21D113F13872BCBF01F0004040
:108C1800704741F480114FEA5252C2F11802C2F172
:108C2800200C10FA0CF320FA02F018BF40F00100F3
:108C38004FEAC1234FEAD32303FA0CFC40EA0C00A5
:108C480023FA02F34FEA4303CCE77FEA625307D1E2
:108C580050EA01331EBF4FF0FE4040F44000704719
:108C680001F0004040F0FE4040F40000704700BFB3
:108C780080F0004002E000BF81F0004142001FBFC9
:108C88005FEA410392EA030F7FEA226C7FEA236CD2
:108C98006AD04FEA1262D2EB1363C1BFD2184140C7
:108CA80048404140B8BF5B42192B88BF704710F05D
:108CB800004F40F4000020F07F4018BF404211F000
:108CC800004F41F4000121F07F4118BF494292EA68
:108CD800030F3FD0A2F1010241FA03FC10EB0C0094
:108CE800C3F1200301FA03F100F0004302D5494221
:108CF80060EB4000B0F5000F13D3B0F1807F06D3CE
:108D080040084FEA310102F10102FE2A51D2B1F1C5
:108D1800004F40EBC25008BF20F0010040EA0300BA
:108D28007047490040EB0000013A28BFB0F5000F3A
:108D3800EDD2B0FA80FCACF1080CB2EB0C0200FAF0
:108D48000CF0AABF00EBC25052421843BCBFD0403F
:108D58001843704792F0000F81F4000106BF80F4B9
:108D680000000132013BB5E74FEA41037FEA226C7C
:108D780018BF7FEA236C21D092EA030F04D092F047
:108D8800000F08BF0846704790EA010F1CBF00207B
:108D9800704712F07F4F04D1400028BF40F00040D8
:108DA800704712F100723CBF00F50000704700F0F8
:108DB800004343F0FE4040F4000070477FEA22621F
:108DC80016BF08467FEA23630146420206BF5FEAF0
:108DD800412390EA010F40F4800070474FF00003F0
:108DE80004E000BF10F0004348BF40425FEA000CB7
:108DF80008BF704743F0964301464FF000001CE05F
:108E080050EA010208BF70474FF000030AE000BFB4
:108E180050EA010208BF704711F0004302D54042F2
:108E280061EB41015FEA010C02BF84460146002064
:108E380043F0B64308BFA3F18053A3F50003BCFA7F
:108E48008CF2083AA3EBC25310DB01FA02FC63442C
:108E580000FA02FCC2F12002BCF1004F20FA02F233
:108E680043EB020008BF20F00100704702F1200226
:108E780001FA02FCC2F1200250EA4C0021FA02F287
:108E880043EB020008BF20EADC70704753B94AB9C7
:108E9800002908BF00281CBF4FF0FF314FF0FF30FA
:108EA80000F02AB8ADF1080C6DE904CE00F05DF8C9
:108EB800DDF804E0DDE9022304B07047D0B50022F4
:108EC8000B4B06460F46FFF7ABFB00F017F80446BE
:108ED800FFF72CFB0022074BFFF7A2FB02460B46CD
:108EE80030463946FFF7E4F900F008F82146D0BDCE
:108EF8000000F03D0000F041704700BF4A0011D269
:108F080012F5001211D20DD56FF47873B3EB6252DB
:108F18000ED44FEAC12343F0004343EA505323FAE7
:108F280002F070474FF00000704750EA013002D15C
:108F38004FF0FF3070474FF00000704738B50022FF
:108F4800002304460D46FFF7DDFD28B920462946D3
:108F5800BDE83840FFF7B2BF204605F10041FFF7F2
:108F6800ADFF404261EB410138BD2DE9F04786462F
:108F78008C460846089E154674461946002B40F054
:108F8800C1808542B2FA82F245D94AB1C2F12003C2
:108F980000FA02FC954094402EFA03F343EA0C0CC5
:108FA8004FEA154EA8B2230CBCFBFEF80EFB18CCFA
:108FB80008FB00F943EA0C43994528D9EB1808F156
:108FC800FF3704D2994502D9A8F102072B44A3EB35
:108FD8000903A4B2B3FBFEFC0EFB1C330CFB00F030
:108FE80044EA0344A04214D92C190CF1FF3304D2EB
:108FF800A04202D9ACF102032C44241A43EA0740E8
:109008001EB1D440002334607360BDE8F087474642
:10901800DDE76346F1E792BB431B01214FEA154E9A
:10902800AFB2200CB3FBFEFC0EFB1C330CFB07F8A5
:1090380040EA0343984561D9EB180CF1FF3004D29C
:10904800984502D9ACF102002B44A3EB0803A4B263
:10905800B3FBFEFC0EFB1C330CFB07F744EA03448E
:10906800A7424DD92C190CF1FF3304D2A74202D9DB
:10907800ACF102032C44E41B43EA0040C0E7C2F110
:1090880020039540944020FA03F12EFA03F34FEAA7
:10909800154E9040AFB20343B1FBFEFC0EFB1C1013
:1090A800190C0CFB07F841EA0041884522D96918D8
:1090B8000CF1FF3004D2884502D9ACF102002944F2
:1090C800A1EB08019BB2B1FBFEFC0EFB1C110CFBD3
:1090D80007F743EA01439F420ED9EB180CF1FF3121
:1090E80004D29F4202D9ACF102012B44DB1B41EAB6
:1090F800004193E76046E3E76146F7E76046A4E787
:109108006346B8E7834206D916B9002108467CE7CA
:10911800C6E900E0F9E7B3FA83F78FB9834201D3D0
:10912800724508D8BEEB020460EB030301209C469D
:109138001EB9002169E73846FAE7C6E9004CF8E7A6
:10914800C7F1200CBB400EFA07F522FA0CF42EFAF0
:109158000CF1BA401C4320FA0CF3B8404FEA14490A
:1091680001431FFA84FEB3FBF9F809FB18300B0C16
:1091780008FB0EFA43EA00439A4540D9E31808F180
:10918800FF3004D29A4502D9A8F102002344A3EB88
:109198000A0389B2B3FBF9F809FB183308FB0EFE82
:1091A80041EA03418E452CD9611808F1FF3304D2F6
:1091B8008E4502D9A8F10203214443EA0040A1EBFD
:1091C8000E01A0FB02984145CE46434602D306D184
:1091D8004D4504D20138B9EB020E68EB0403002EAA
:1091E800A7D0B5EB0E0261EB030101FA0CFC22FAE1
:1091F80007F3F9404CEA0303C6E9003199E7404612
:10920800C5E74346D9E710F8012B11F8013B012ABD
:1092180028BF9A42F7D0D01A7047034613F8012B9B
:10922800002AFBD1181A013870470000000000001E
:109238002DE9F04706460C4692B0002900F0BD80A3
:109248000F68002F00F0B9808D68D1F8048005F10F
:109258000409C1450AD80422AB49781927F081FCD2
:10926800A8B90423F360A36804331DE06B1D984577
:1092780010D2454580F0A1807B5D7819222B24D13E
:109288002146304612B0BDE8F04703F0FFBC6B1D25
:1092980098450ED305229D49781927F062FC30B90C
:1092A8000123F360A36805330120A36086E0C1456C
:1092B800DFD804229649781927F053FC0028D8D122
:1092C8000223F36001237361CDE72D2B03D0A3F1B3
:1092D8003002092A53D800230DF1080C67464FF0D5
:1092E800010EA8EB0505DFF82C82019310F8012B7D
:1092F800452A3CD82A2A10D9A2F12B01C9B20EFA64
:1093080001F111EA080F01D12E2A06D101333F2BB2
:109318000CF8012B01D0AB42E8D1002548336B444F
:10932800384601A903F8405C1FF0C4FADDF804A030
:109338008046BA45894640D071A3D3E90023FFF798
:10934800F5FBB0B9002240464946734BFFF7E4FBF2
:1093580090B940464946FFF713FC0823C6E9068939
:109368007061F360A368AAEB070A53449CE7652A77
:10937800CBE76FF00040F0E74FF00040EDE75B2BE4
:1093880058D1D4F80C90B9F57A7F16D209F10103B7
:10939800E3607B5D5B2B10D101352046A56021F091
:1093A8006DFAA368984506D9FA5C5D2A09D10027A9
:1093B800C4F80C9036E0013BA360002012B0BDE871
:1093C800F08700252F46013BA360206921F06DFA44
:1093D800A8460546002800F0A3804FB3C8F800004F
:1093E800C0F80480A36820460133A36021F046FA40
:1093F80021462846FFF71CFF002800F091802046F0
:1094080021F03CFAD4E90123934280F08C80226851
:10941800D35C2C2BD9D05D2B40F08580E368013BD1
:10942800E3607D602023C6E90273A36801333BE74C
:109438000746D7E77B2BC0D1D4F80C90B9F57A7FD3
:10944800BBD209F10103E3607B5D7B2BB5D101350C
:109458002046A56021F012FAA3689845ABD9FA5CBA
:109468007D2A03D10027C4F80C9047E000252F4639
:10947800A846013BA360206921F017FAA9460546D2
:1094880000284DD0002F49D0C9F80000C0F804903A
:10949800A36820460133A36021F0F0F9214628464D
:1094A80003F0F4FB00283BD0204621F0E7F92B69B4
:1094B800C5F810802B62D4E90123934230D2226888
:1094C800D25C3A2A2CD101332046A36021F0D6F988
:1094D80021462846FFF7ACFE10B3204621F0CEF90E
:1094E800D4E9012393421ED22268D35C2C2BC2D02C
:1094F8007D2B18D1E368013BE3607D60402392E750
:109508000000C0FFFFFFDF41913C0300963C0300D1
:109518009C3C0300E57F00040000E0C10746B7E774
:10952800002F3FF44AAF384603F0E4FC45E700BF9C
:109538002DE9F0410023042686B000AF0D46804691
:10954800C7E904337E60002800F0F880002900F0A5
:10955800F580062107F1100025F042FE0446A0B16F
:109568006D4688B06A467A4B4FF401515361794B86
:10957800C2E90630784842F8106F25F081FFAD4601
:1095880020461837BD46BDE8F081014607F11002B4
:10959800404625F022FE0446A0B16D4688B06A46D2
:1095A8006E4B53616B4BC2E9063442F8106F4FF4AF
:1095B8000151694825F064FFAD4607F1100025F018
:1095C80022FEDDE73A46012107F1100025F0CFFE23
:1095D800044620B16D4688B06A46614BE1E73C68B5
:1095E800E4B1042C1FD0052C0CBF0923FF232B70DA
:1095F80003213B1D07F1080207F1100025F0E5FEE5
:10960800044690B16D4688B06A46564B5361514B3B
:10961800C2E90630042342F8103FC8E700232C7043
:109628006B60AB60ACE70723E1E77B680146183362
:109638003B4403F8100C022207F108001FF0DEFA81
:109648002B78C0B2072B2CD0092B17D10F284BD958
:109658006C4688B06A46444B53613E4B93616FF049
:109668001503D361042342F8103F4FF401513A48DF
:1096780025F006FFA5466FF015049EE76C4688B0F6
:109688006A463A4B4FF4C4515361324B32489361A6
:10969800032342F8103F25F0F3FEA5466FF07F0440
:1096A8008BE70F28D4D8324BDFF8C88033F8100086
:1096B80000B3FEF74BFF24A3D3E90023FEF7B0FF66
:1096C800FFF786FA042668603146BB1907F10802DD
:1096D80007F110007E6025F078FE044660B16D4603
:1096E80088B06A46244B5CE7244BDFF8948033F853
:1096F8001000DDE72348E5E77B68014618333B4463
:1097080003F8100C022207F108001FF077FAC0B224
:109718000F280AD96C4688B06A461B4B53610D4B1B
:10972800C2E9063042F8106F9FE70130C0B2FFF778
:1097380059FB4146FEF704FDA8603EE76FF01504AB
:109748001EE700BFAFF300807B14AE47E17A2440E8
:10975800F799030023A50300341C0300249A03008F
:10976800549A03007A9A0300D69A0300AA9A03002F
:10977800A42B03000AD7A33FFE9A0300842B0300FF
:109788000AD723400AD7A3402D9B030000000000FE
:109798002DE9F04F1F469DB000230C4682460E92DD
:1097A80018934FF00008974B4FF000091D682846A2
:1097B800FFF733FD22468346179213782B2B3BD0B5
:1097C8002CD80D2B26D8082B26D8002B2FD00023D9
:1097D8000C93179E3378302B72D1737803F0DF0324
:1097E800582B63D10C9B17A9874A5046019318AB95
:1097F8000297009319AB1FF069FA10F007050446A9
:1098080035D0062D1AD10E9B0BB101361E6040468D
:10981800494637E0202BDAD10132CDE72D2BD6D1BE
:1098280001230C93531C17935378002BD1D10E9B13
:10983800002BECD01C60EAE70023F2E7189A3AB153
:1098480035211AA827F084FC189950461FF0D0FC3F
:10985800013D199A042D06D8DFE805F017032023E7
:109868001700DDE91A89210701D549F000490E9B47
:1098780013B1179B0E9A13600C9B002BC7D0404660
:1098880009F100411DB0BDE8F08FDDE91A8302F24D
:10989800334223F4801343EA0259E4E7DFF86C917A
:1098A800E1E76FF000494FF0FF38DCE7179B5A1CDF
:1098B80017925B78302BF9D0002BD8D0012300E029
:1098C8000023002704930A22179BCDE905770A9302
:1098D80017980678A6F13003D9B2092924D95A462F
:1098E800294627F03EF900282DD000203246059D54
:1098F80083460346652A01D0452A13D11DB9049A27
:10990800024394D00025179C621C179262782B2A78
:109918006ED02D2A72D04FF0000CA2F13001092927
:109928007AD91794002699E00599013008291790EB
:10993800D7BF069902FB073702FB01330693059B45
:1099480001330593C4E7179B03EB0B02179213F837
:109958000B20059BA3B383461D46A2F13003092BB8
:1099680012D90123C6E7179B01305A1C17925A785F
:10997800302AF8D0A2F13103082B00F2EA8483469A
:109988000020179B05460A93303A00F1010311D0D5
:109998009B4400EB050C2B460A21634512D12B187A
:1099A8000135082B054419DC06990A2303FB01231A
:1099B80006930023179A1846511C17915278CCE742
:1099C8000598D5E7082B03F1010303DC069E4E43F7
:1099D8000696E2E7102BD8BF4F43DEE70F2BDCBF1C
:1099E8000A2303FB0727E4E74FF0000B012386E770
:1099F8004FF0000CA21C1792A2788EE74FF0010CD2
:109A0800F8E700BF0C2B0300F42A03000000F07FE6
:109A1800179A511C17915278302AF9D0A2F13101C6
:109A280008293FF67FAF303A0792179A0D92179A96
:109A3800561C17965278A2F1300EBEF1090F38D98C
:109A48000D99761A082E44F61F6603DC07998E4294
:109A5800A8BF0E46BCF1000F00D07642002D4FD1B2
:109A6800049908437FF403AF002B7FF4E0AE692A22
:109A780029D026DC492A26D04E2A7FF4D8AE9D4923
:109A880017A827F00AFA00283FF4D1AE179B1B78D5
:109A9800282B2FD11AAA984917A827F012FA0528B7
:109AA80028D11B9BDDF8688043F0FF4949F4E009A1
:109AB800DDE6079E0A2101FB0621A1F1300207928B
:109AC800B5E76E2AD9E78D4917A827F0E6F90028E7
:109AD8003FF4ADAE179B17A88949013B179327F0B0
:109AE800DCF910B9179B01331793DFF818924FF080
:109AF8000008BCE6844820F0EBFA80468946B6E6C2
:109B0800A6EB0B0306982C460F93059B002B08BF6A
:109B18002B46102D0593A8BF1024FEF707FD092D2D
:109B28008046894614DCA6EB0B03002B3FF49FAE5E
:109B3800A6EB0B0379DD162B45DC0F9B42467349D8
:109B480001EBC3014B46D1E90001FEF769FDD4E7FB
:109B58006E4B03EBC40353E91223FEF761FD804605
:109B680089463846FEF7E2FC02460B46404649461F
:109B7800FEF7A0FB0F2D80468946D4DD2C1BA6EBF3
:109B88000B031C44002C26DC00F0A380644214F074
:109B98000F020AD05D4B4046494603EBC203D3E9A6
:109BA8000023FEF767FE80468946241100F0918065
:109BB8001F2C40F3B38022234FF000084FF0000918
:109BC800CAF8003053E6C5F12503A6EB0B02934211
:109BD80019DA2C1B144414F00F030AD04B494246DF
:109BE80001EBC3014B46D1E90001FEF719FD8046A0
:109BF800894634F00F046CD0B4F59A7F41DD2223F6
:109C0800CAF8003071E7C5F10F05404C42464B4693
:109C180004EBC501D1E90001FEF702FD0F9B5D1BB6
:109C280004EBC504D4E900238FE71633A6DBABEBBE
:109C38000602364B4046494603EBC203D3E90023EC
:109C4800FEF718FE59E7002306932223DFF8B490A5
:109C58004FF00008CAF80030189950461FF0C8FAAB
:109C6800069950461FF0C4FA059950461FF0C0FAED
:109C7800109950461FF0BCFA079950461FF0B8FAE1
:109C8800F5E50023241140464946214F0493012C51
:109C980022DC0BB180468946049BA9F154791C4902
:109CA800424601EBC3014B46D1E90001FEF7B8FC7F
:109CB800144B0A4680460B4016498B429FD8A1F5A3
:109CC80080118B4286BFDFF850904FF0FF3802F1C9
:109CD8005479002304934CE0E20704D5D7E9002324
:109CE800FEF79EFC0123049A64100837013204929F
:109CF800CDE700BF226A0300E02A03004C450300B9
:109D080033C103000000F07F64460300781E03009F
:109D1800501E03000000A07CFFFFEF7F14F010032B
:109D280040464946AB4F18BF6A2304930023E20715
:109D380004D5D7E90023FEF773FC0123641007F16B
:109D48000807F4D10BB180468946049B43B1C9F397
:109D58000A524946C2F16B03002B50DC6A23049374
:109D68000022002340464946FEF7C2FE00287FF441
:109D780022AF069B5046059A00932B460A991FF07E
:109D8800A1FA109000283FF43AAF0F9BABEB060BFB
:109D9800002BB4BF5B46002311930F9B23EAE373A8
:109DA8001493002307930593109B504659681FF09E
:109DB800DFF9069000283FF448AF109B0C301A6971
:109DC80003F10C010232920026F037FD1AAB42462D
:109DD8005046019319AB00934B46CDE90A891FF011
:109DE80041FD189000283FF430AF012150461FF084
:109DF800B3FA03460590D0B90023059325E71F2B36
:109E08000EDD342B4FF00008DBBF4FF0FF33C2F1FB
:109E18004B024FF05C799340D8BF03EA01099DE7F4
:109E28004FF0FF3202FA03F303EA080896E7199C99
:109E38001A9A002CA9BF119B149BE718149EB8BF4F
:109E48001E1B049BB8BF119FE41A634B1444C2F154
:109E58003602013C9C4280F2B0801B1B01251F2B5F
:109E6800A2EB0302CDBFC4F17F449D40002404F55A
:109E78007F04C2BF04F57B44E23405FA04F407EB1F
:109E8800020B049B16445F451E443B46A8BF5B4635
:109E9800B342A8BF3346002BC2BFABEB030BF61A85
:109EA800FF1A119B002B16DD1A46059950461FF024
:109EB80013FB059000289FD00146189A50461FF0C2
:109EC80061FA0D9000283FF4C0AE189950461FF073
:109ED8008FF90D9B1893BBF1000F71DC0F9B002BC2
:109EE80008DD149A504606991FF0F6FA06900028E5
:109EF8003FF4A9AE002E08DD3246069950461FF001
:109F080045FB069000283FF49EAE002F08DD3A4638
:109F1800059950461FF03AFB059000283FF495AE8E
:109F2800069A504618991FF09DFB079000283FF4A9
:109F38008CAEC36805990D930023C36027F0BDF864
:109F480000284BDA0D9B53EA080340F0BC80C9F3A4
:109F58001303002B40F0B78029F000431B0D1B05AD
:109F6800B3F1D66F40F2AF80079B5B6923B9079BBB
:109F78001B69012B40F3A7800122079950461FF067
:109F880005FB0599079027F098F8002840F39B8077
:109F980029F00043049A1B0D1B05002A79D0B3F160
:109FA800D66F6DD8B3F15C7F46D84FF000084FF0FC
:109FB80000092223CAF800304EE6002401255EE796
:109FC8005A46189950461FF0E1FA1890002885D192
:109FD8003BE600BF281E030002FCFFFFCB4640F013
:109FE800A3800D9AC9F31303002A40D0964A9342DE
:109FF80058D1049B42467BB9B8F1FF3F40F08980B5
:10A00800924B99453FF421AE914BDDF8108009EA57
:10A01800030303F580191FE68D4B09EA0303B3F127
:10A02800D46F16D918F101011BD1884A91453FF424
:10A038000CAE03F580198046864B404649460022FF
:10A04800FEF7EEFA0B468046894603437FF404AEDA
:10A05800AFE71E0D4FF0FF31C6F16B06B1408845E2
:10A06800E7D0002C5ED014EA0B0FE5D01EE0002BE1
:10A078004AD1B8F1000F8BD064B314EA0B0F2BE070
:10A08800A3F580134FF0FF386FEA13596FEA0959A7
:10A09800D2E7A3F580134FF0FF386FEA13596FEA40
:10A0A8000959D9E59CB114EA090F0CD0049A404625
:10A0B800494626F09DFD02460B46DDE90A01FEF7FA
:10A0C800F9F880468946049B002BB5D1C4E515EA0A
:10A0D800080FEAE718EA050FF5D0049A4046494602
:10A0E80026F086FD02460B46DDE90A01FEF7E0F898
:10A0F8000022002304460D46FEF7FAFC00287FF4F0
:10A1080054AFA046A946DEE7002CB6D115EA080FE1
:10A11800E2E724B114EA090F3FF49EADC6E718EA56
:10A12800050FF9E72A42A0E70599079826F0E0FF0E
:10A1380000224FF0804304460D46FEF7EDFC002850
:10A148006DD00D9B002B78D1B8F1000F56D1C9F313
:10A158001303002B59D100223F4B20462946FEF716
:10A16800D1FC002858D12046294600223B4BFEF757
:10A1780057FA04460D4605F1004308940993344BF9
:10A18800334A0BEA03030BEA02021593344B9A4253
:10A19800DDE9086740F09E80ABF1547940464946B6
:10A1A8001FF0F6FADDE90823FEF73AFA42464B4675
:10A1B800FEF780F80B46264980462A4A1940914204
:10A1C80054D90B9A214B9A4203D10A9B01333FF48D
:10A1D8003CADDFF878904FF0FF38189950461FF0E3
:10A1E80007F8069950461FF003F8059950461EF0E7
:10A1F800FFFF079950461EF0FBFFD5E5B8F1010FA8
:10A2080003D1B9F1000F3FF4D0AE174C0023124D23
:10A21800CDE908340024B2E70024104DABE70F4B1A
:10A22800204629460022FEF7FBF90D9B04460D4601
:10A23800002BA0D0CDE90845A1E7074C002325460F
:10A24800CDE908341C469AE7FFFF0F00FFFFEF7FB8
:10A258000000F07F000050390000F03F0000E03FB0
:10A268000000E07FFFFF9F7C0000F0BF03F15479FE
:10A27800049B4E46002BB0D129F00043159A1B0DC4
:10A288001B059A42A9D120462946FEF757FEC9F375
:10A298001306FEF797F90B4602462946204646EA7A
:10A2A8000806FEF705F80D9B04460D461E434AD0E6
:10A2B8002DA3D3E90023FEF725FC00287FF4CCACBE
:10A2C800204629462AA3D3E90023FEF739FC0028B3
:10A2D80083D0C1E4049B13B3159BB3F1D46F1ED88C
:10A2E8002046294624A3D3E90023FEF715FC90B1A4
:10A2F80029462046FEF702FE012838BF0120FEF756
:10A3080015F90D9B04460D46D3B901F1004312908F
:10A318001393DDE9126707F1D663159A9F1ADDE9F1
:10A328000A011FF035FA02460B4630463946FEF759
:10A3380077F9DDE90A23FDF7BDFF8046894697E7EF
:10A34800CDE91245E5E70EA3D3E90023FEF7DAFBD2
:10A35800BDE7652A3FF448AB452A3FF445AB0123E6
:10A36800FFF77EBBAFF300809535A094FFFFDF3F7A
:10A3780035E5AF350000E03F0000C0FFFFFFDF41DB
:10A388009535A094FFFFCF3F2DE9F04F144697B0C5
:10A398001D46476A8346239ECDE904457FB91020B0
:10A3A8001DF024FE0246CBF8240020B9A24BEA2176
:10A3B800A2481FF093FEC0E901770760C760DBF889
:10A3C8002430196859B15A680123584693404A60A5
:10A3D8008B601EF00DFFDBF8243000221A602B1E64
:10A3E800B7BF23F00043002301220593A8BF3360C1
:10A3F800059F934BB8BF3260BB4319D142F20F732C
:10A40800229A1360C7F31303234300F0E085249BCB
:10A4180053B98C4B21E08C4B08930833249A136072
:10A42800089817B0BDE8F08F864B08930333F5E71B
:10A43800DDE90423CDE90C23DDE90C01002200232A
:10A44800FEF756FB804650B10123229A1360249BE5
:10A4580013B17E4B249A13607D4B0893E0E714AB4D
:10A46800C7F30A565846019315AB0093DDE90C2350
:10A478001FF0F8F90390002E78D00D9BA6F2FF3656
:10A48800CDF84C80C3F3130343F07F53DDE90C018F
:10A4980043F44013194600226E4BFDF709FF60A3F1
:10A4A800D3E90023FEF7BCF85FA3D3E90023FDF747
:10A4B80001FF04460D463046FEF748F85CA3D3E991
:10A4C8000023FEF7ADF802460B4620462946FDF765
:10A4D800F1FE04460D46FEF753FB00220746002313
:10A4E80020462946FEF70EFB40B13846FEF72EF807
:10A4F80022462B46FEF7FCFA00B9013F162F54D826
:10A50800554B03EBC703DDE90C01D3E90023FEF744
:10A51800F9FA00284BD0013F00231293149B9B1B90
:10A528005A1E4CBFC3F1010300230A9245BF06938C
:10A53800002306930A93002F3BDB0A9B0F973B44AB
:10A548000A9300230B93209B092B00F28980052B8B
:10A55800C5BF043B002401242093209B023B032B0E
:10A5680000F28980DFE803F02D3A3859DDE91463F9
:10A578001E4406F23243202BC9BFC3F14003C3F186
:10A5880020039F4006F21243D8BF04FA03F006F1F5
:10A59800FF36C4BF24FA03F347EA0300FDF7C6FFFA
:10A5A8000122A1F1F873139274E70123B5E7129021
:10A5B800B4E7069BDB1B06937B420B9300230F93A8
:10A5C800C1E700230E93219B002B57DC01239946FA
:10A5D8001A46099321920CE00123F3E700230E9316
:10A5E800219BFB1803F1010909934B46012BB8BFC6
:10A5F8000123DBF824000021042202F114059D4206
:10A6080040D9416058461EF0B3FD089000283CD15F
:10A61800124B02464FF4D571CAE60123DFE700BFAB
:10A6280061436F63A787D23FB3C8608B288AC63F50
:10A63800FB799F501344D33F3DC1030054C103002D
:10A648000000F07F39C1030030C10300DD8603003C
:10A65800DC8603000000F83F781E0300C8C1030031
:10A66800012400230E9420934FF0FF3300229946D3
:10A6780009931223AEE701230E93F5E7219B994630
:10A688000993B6E701315200B7E7DBF82430B9F196
:10A698000E0F089A1A606FD8002C6DD0002F36DD87
:10A6A80007F00F02A04BF80503EBC203D3E900340F
:10A6B800CDE910344FEA271417D59C4B04F00F044A
:10A6C8004FF00308D3E90823DDE90C01FEF7D2F8BF
:10A6D800CDE90401954D5CB9DDE91023DDE90401FC
:10A6E800FEF7C8F8CDE904012BE04FF00208F1E7C6
:10A6F800E10709D508F10108DDE91001D5E90023D2
:10A70800FDF78EFFCDE9100164100835E3E700F08E
:10A7180007817C42844B854D4FF0020804F00F02FC
:10A72800241103EBC203DDE90C01D3E90023FDF793
:10A7380077FF0023CDE90401002C40F0E580002BD1
:10A74800D0D1129BDDE90445002B00F04C8100229A
:10A75800774B20462946FEF7D5F9002800F04381BB
:10A76800B9F1000F00F03F81099B002B00F3E48052
:10A77800DDE90C34CDE90434159B002B02DB0E2FE8
:10A7880040F342820E9A002A40F067820B9C002513
:10A79800DDF81880B8F1000F0DD00A9B002B0ADDF8
:10A7A8004345069AA8BF4346D21AA8EB0308069267
:10A7B8000A9AD31A0A930B9B0BB30E9B002B00F03B
:10A7C800A682002C00F0A1822946224658461EF097
:10A7D80083FE039A0146054658461EF0D3FD0399A9
:10A7E800064658461EF004FD0B9B1B1B0B9300F0FE
:10A7F80091820B9A314658461EF06EFE0390012155
:10A8080058461EF0A9FD0F9B0446002B00F08482D9
:10A818001A46014658461EF05FFE209B0446012B4F
:10A8280003DC049B002B00F07C820026236904EBE8
:10A838008303186926F0F2FBC0F120000F960A9BEB
:10A84800184410F01F0000F09182C0F12003042B7F
:10A8580040F38182C0F11C00069B034480440693A8
:10A868000A9B03440A93069B002B05DD1A460399AD
:10A8780058461EF08BFE03900A9B002B05DD2146EF
:10A888001A4658461EF082FE0446129B002B00F022
:10A8980076822146039826F010FC002880F26F8209
:10A8A80000230A22039958461EF0C4FC0E9B7E1E04
:10A8B8000390002B00F05C82002329460A225846A8
:10A8C8001EF0B8FC099B0546002B03DC209B022BDD
:10A8D80000F35E82B8F1000F05DD2946424658466E
:10A8E8001EF054FE05460F9B002B00F0D0826968CD
:10A8F80058461EF03DFC0746002840F07F820D4B6D
:10A90800024640F2EA2153E5E20706D508F10108BC
:10A91800D5E90023FDF784FE0123641008350BE711
:10A928004FF002080DE700BF781E0300501E030019
:10A938000000F03FC8C1030020460022AC4B294666
:10A94800FDF76EFE7E1E08F10108099CCDE90401A1
:10A958004046FDF7FBFDDDE90423FDF761FEA54B4D
:10A968000022FDF7A7FCA1F15073CDE91001119366
:10A97800002C3BD10022A04BDDE90401FDF798FC37
:10A9880002460B46CDE90423DDE91023FEF7D8F88B
:10A99800002840F05781DDE9102101F10043DDE98D
:10A9A8000401FEF7AFF800283FF4E2AE0024254684
:10A9B800219BDDF820A0DE434FF0000821465846D1
:10A9C8001EF016FC002D00F0A980B8F1000F05D08C
:10A9D800A84503D0414658461EF00AFC2946584669
:10A9E8001EF006FC9AE03E464C46B1E7834B03EB6B
:10A9F800C40353E90201089B1C440E9B002B4AD058
:10AA080002460B4600207E49FDF734FFDDE910239E
:10AA1800FDF74EFCDDF820A0CDE91001DDE90401C9
:10AA2800FEF7AEF80546FDF791FD024630350B46B8
:10AA3800DDE90401FDF73CFC0AF8015B02460B4620
:10AA4800CDE90401DDE91001FEF77AF8002865D1A7
:10AA580000206C49DDE90423FDF72AFC02460B4679
:10AA6800DDE91001FEF76CF8002840F00D81A245E1
:10AA780000F0EA8000225E4BDDE91001FDF7D0FD11
:10AA880000225B4BCDE91001DDE90401FDF7C8FDAB
:10AA9800CDE90401C2E7DDE91023FDF7C1FDA046B9
:10AAA800DDF820A0CDE91001DDE90401FEF768F822
:10AAB8000546FDF74BFD024630350B46DDE904013E
:10AAC800FDF7F6FB0AF8015B02460B46A245CDE905
:10AAD80004234FF0000223D1494BDDE91001FDF7B3
:10AAE800E9FB02460B46DDE90401FEF729F80028D8
:10AAF80040F0CA8000204249DDE91023FDF7D8FB69
:10AB080002460B46DDE90401FDF7FCFF70B1C246C1
:10AB180008F1FF381AF8013C302BF8D0374655E0D9
:10AB2800334BFDF77DFDCDE90401BDE7DDE90C34CC
:10AB3800CDE90434159B002BFFF628AE0E2F3FF706
:10AB480025AE2E4B03EBC703D3E90034CDE9063419
:10AB5800219B002B02DAB9F1000F64D0DDF820A0A8
:10AB6800DDE90445DDE9062320462946FDF782FE96
:10AB7800FEF706F80646FDF7E9FCDDE90623FDF7D2
:10AB88004FFD0246204606F130040B462946FDF7E4
:10AB98008FFB0AF8014B089C02460B46AAEB0404FB
:10ABA800A14540F08280FDF785FB04460D46DDE9AE
:10ABB8000623FDF7C5FF002865D120462946DDE9B3
:10ABC8000623FDF795FF08B1F3075CD403995846AF
:10ABD8001EF00EFB002301378AF80030229B1F600D
:10ABE800249B002B3FF41CACC3F800A018E400BF62
:10ABF8000000244000001C4000001440781E0300A0
:10AC08000000E03F0000F03FA24B03EBC703D3E98D
:10AC18000034CDE90634219B002B9FDAB9F1000FEF
:10AC28009CDC7FF4C3AE00229B4BDDE90601FDF7F7
:10AC3800F7FCDDE90423FDF779FF044600287FF4DB
:10AC4800B5AE3E462546B4E0DDE90C34CDE9043422
:10AC5800159B002B01DB0E2FD6DD209A012A36DC4E
:10AC6800139A82B303F233430B9CDDF81880069ADB
:10AC7800012158461A4406920A9A1A440A921EF06A
:10AC88006BFB054686E53E4653469A4613F8012D6A
:10AC9800392A06D1089A9A42F7D130220899013602
:10ACA8000A701A7801321A7038E700227B4BFDF7D8
:10ACB800B7FC0022002304460D46FDF719FF0028C3
:10ACC8003FF450AF82E7149BC3F13603CCE709F198
:10ACD800FF340B9BA34208DBB9F1000FA3EB04047C
:10ACE8000EDBDDF818804B46C1E70B9B0F9AE31A81
:10ACF8000B94DDF8188000241A444B460F92B6E7EF
:10AD0800069BA3EB09080023B1E7039E71E50B9AA4
:10AD1800039970E5039672E5209B012B17DC049BD1
:10AD2800ABB9059BC3F313039BB9059B23F00046FE
:10AD3800360D360536B1069B0126013306930A9B6C
:10AD480001330A930F9B002B7FF470AD0F960120FF
:10AD580075E50026F6E73FF486AD1C33069A1A44DB
:10AD6800984406920A9A1A440A927CE50346F4E744
:10AD7800099B002B2BDC209B022B09DC27E0B9F177
:10AD8800000F1DDC209B022B1ADD3E46CDF82490D7
:10AD9800099B002B7FF40CAE2146052258461EF075
:10ADA80049FA01460446039826F087F900287FF7F8
:10ADB800FFADDDF820A0312301360AF8013BFBE5A1
:10ADC8000E9B3E46CDF82490002B7FF483AD089F60
:10ADD8002146039825F05CFF089B00F13009099A89
:10ADE80007F8019BFB1A9A4240F3CB8000230A2202
:10ADF800039958461EF01EFA0390E9E72A6905F1FF
:10AE08000C010C300232920025F017FD0122394660
:10AE180058461EF0BBFB089BA846054603F1010AED
:10AE2800DDE9082313440A93049B03F001030B9301
:10AE38000AF1FF3321460398069325F029FF41467E
:10AE4800099000F13009039826F037F92A4621467F
:10AE5800074658461EF006FCC268014602B358462B
:10AE68001EF0C6F9002F3ADA0122039958461EF05F
:10AE78008DFB2146039026F020F9002803DC29D118
:10AE880019F0010F26D0B9F1390F1DD132E028464B
:10AE9800C1E700BF781E03000000144000002440F2
:10AEA8000E90039826F009F90E990C9058461EF05A
:10AEB8009FF90C9A5ABB209B53B90B9B43B9B9F124
:10AEC800390F17D0002F05DD099B03F1310901E087
:10AED800002F2ADADDF818A00AF8019B6EE5209BFE
:10AEE8003B4304D1049B03F00103002BBCD0B9F110
:10AEF800390F36D1069F392307F8013BBA46013F7F
:10AF08001AF8013C392B5AD001333B7056E5002F13
:10AF180006DB209B3B4306D1049B03F0010313B9D6
:10AF2800002AA1DCD6E7002AE1DC0A9B57460AF88A
:10AF3800019C53452ED000230A22039958461EF03F
:10AF480079F9A84503904FF000034FF00A024146F3
:10AF580058460BD11EF06EF9804605460AF1010AE3
:10AF680066E7DDF818A009F10109B5E71EF062F9F6
:10AF78002946804600230A2258461EF05BF90546FA
:10AF8800ECE7099B4FF00008002BCCBF1F460127B8
:10AF9800089B1F440122039958461EF0F7FA2146E0
:10AFA800039026F08AF80028A8DC02D119F0010FD6
:10AFB800A4D1BA4617F8013D302BFAD0FEE4089B1D
:10AFC800BB429BD13123089A01361370F6E4249BC7
:10AFD800002B7FF420AA014BFFF73FBA30C10300D2
:10AFE800F8B502F1080323F0070300AFADEB030D3A
:10AFF80005466846144625F020FC00236E460DF8E9
:10B0080004308AB06A46094B16625361084B4FF404
:10B018004351C2E90635074B07485362074B42F8CC
:10B02800103F1FF0EDFBBD46F8BD00BFC42B030069
:10B038009D2F030001030204241C030005000002E5
:10B048002DE9F047B2B00B7880460C4616AF092BB5
:10B0580000F2E181DFE813F00A004D005700AE016D
:10B06800DF01DF01DF01C401DF01D201C9696C46DC
:10B07800B64B49B188B016AAB548C2E90503D161F3
:10B08800042342F8103F5EE188B016AAB149B248DD
:10B09800C2E9051303234FF4C65142F8103F1FF0CD
:10B0A800AFFBA546AD4A07F1080307CA3B6083E832
:10B0B8000700AB4B8AB07B6016AAAA4B4FF43351FA
:10B0C8005361A94BA4489361A84BD3612123136210
:10B0D80040F201339384A64B42F8103F1FF090FBD7
:10B0E8003946A546404622F0A9FF7037BD46BDE85F
:10B0F800F0876C4688B0CB6916AA9E49516193497E
:10B10800C2E9061366E16D468AB0C969636916AA81
:10B118001362052398488D4E5061C2E906618E4836
:10B128004FF4235142F8103F1FF06AFBD4F81490F3
:10B13800AD46B9F1800F12D9DFF840A2514640461A
:10B14800A9F1800223F027F8051E32D033DBA9EBE2
:10B158000509B9F1800FF1D86FF0790A01E04FF0D5
:10B16800000A4A464046854923F018F8054610BBB0
:10B17800237B012B06D1238B40463B8107F1080135
:10B1880022F00EFFBAF1000F22D063696C468AB034
:10B1980016AAD36180237A4913620523C2E90516EA
:10B1A8004FF4215142F8103F6B481FF029FBA54688
:10B1B8009BE76FF00405237B012B06D1238B4046C8
:10B1C8003B8107F1080122F0EBFE002DC0F28880D8
:10B1D80062696A496B48FFF703FF68481FF081FB03
:10B1E800054658B96C4688B016AA674B4FF4C25149
:10B1F800C2E90536032342F8103FD5E763491FF03B
:10B2080074FB8046002866D01FF072FB002862D0CD
:10B21800D8F81080B8F1000F5DD040465C49FDF7C2
:10B22800F2FF8146A8B96C4688B016AA594B4A481D
:10B23800C2E9053603234FF4C65142F8103F1FF008
:10B24800DFFA4846A54623F09DFF284601F052FE46
:10B258004BE740465049FDF7D6FF804690B96C460B
:10B2680088B016AA4D4B4FF4C651C2E905360323E0
:10B27800394842F8103F1FF0C3FA4046A54623F06C
:10B2880084FFE2E7002362697B72642A3A72BB7228
:10B2980011D83A4907F10B0025F0CFFA07F1080455
:10B2A80007F118015722684625F0C7FA94E80F00FD
:10B2B80001F062FCC9E76C4688B016AA384BC2E9AF
:10B2C800053603234FF4C251234842F8103F1FF0BC
:10B2D80097FAA546B9E76C4688B016AA314BEEE74F
:10B2E80015F17A0F3FF451AF6C4688B00DF1580A4A
:10B2F800CAF81C50D14604252B4B4FF40151CAE91A
:10B30800053649F8105F4A4613481FF079FA274B6B
:10B318001148CAE9053603234A464FF4C651CAF80C
:10B3280010301FF06DFA4046A54622F05FFE002857
:10B338003FF4DBAE88B052461D4BCAF81C00CAE980
:10B34800053642F8105F4FF401512DE78C2F0300AA
:10B35800CD2B0300E92B0300241C0300101D030060
:10B368000100D204032C0300822F0300212C0300C8
:10B3780005000001432C0300642C0300F4EB0020BB
:10B38800862C0300D92C0300E42C0300632D030052
:10B39800092D0300052D0300142D0300102D0300B3
:10B3A8001C2D03004D2D0300672D03008B2D03007A
:10B3B800AC2D0300C9691A4B21B16C4688B016AA96
:10B3C80018485AE6A1886C4688B016AA1648C2E9F9
:10B3D8000503D16104234FF4035142F8103FE3E61B
:10B3E800C9690F4B21B16C4688B016AA0F4844E6CC
:10B3F800A1886C4688B016AA0D48E8E7CB69002BEF
:10B408003FF473AE6C4688B016AA0A4951610449E4
:10B41800C2E9061334E66C4688B016AA06496DE6FA
:10B428008C2F0300C92D0300E32D0300FC2D03001E
:10B43800162E03002F2E03004B2E03002DE9F04398
:10B448004FF0210887B0DFF86C9000AF064614462D
:10B458001D46C7E903233972C7F80090C7F804806E
:10B4680007F068F9BB7D2A462146B88223F003031A
:10B4780011486C46BB75FFF7B3FD8AB06A460F4B9F
:10B48800C2F8208053610E4B4FF43351C2E906399C
:10B4980040F2013393840B4B0B4842F8103F1FF0E6
:10B4A800AFF93946A546304622F036FD1C37BD4671
:10B4B800BDE8F083212C03006D2E03007A2E0300D3
:10B4C800A82F030005000001241C03002DE9F04FFC
:10B4D8009DB002AF07F11808044622F0C4FC5022C0
:10B4E8000021404625F0C9F901234246C7E908333F
:10B4F800002157483B1D1FF012FE054628B36E4633
:10B5080088B002AC534B25466361534B4FF401514D
:10B51800C4E90630042345F8103F2A464F481FF077
:10B528006FF94F4B2A4663614E4B4FF4C251A361EA
:10B5380003234A4823611FF063F96FF00905B546F4
:10B5480028466C37BD46BDE8F08F7E68DFF8089165
:10B55800DFF814A141483EB37369082B58D1B36989
:10B5680042495B6801204B6045F6073308804B80F1
:10B5780007F1080A1023524604310EF0B7FD6E4653
:10B588008AB002AB3A4AC3F81CA0C3E9052940F2C5
:10B5980001321A841A46374B4FF413512F4842F898
:10B5A800103F1FF02DF9B54678681FF0BAFD2F4BF4
:10B5B80017216363304B4046304AA36417F08AFB77
:10B5C800002839D06E4688B002AA2D4B4FF401519D
:10B5D80053612C4BC2E906300423204842F8103F3F
:10B5E8001FF00EF9B5462848E062FDF716FE042262
:10B5F80084F85E20254A0023E26480222449C4E9B5
:10B608000E33C4E915122063226584F8243097E7C5
:10B61800EB468AB002AA0821D3611823C2E90813AD
:10B628000623C2E905A94FF4415142F8103F1FF023
:10B63800E7F8DD4636688DE787F827000F231421E1
:10B64800144ACDF8008010481DF000F9CBE700BF80
:10B65800932E03009F2E03006A2F0300241C03006F
:10B66800BA2E0300762F0300FF2E0300B0EB002054
:10B67800E52E03000400000149B00000262F030056
:10B688002E2F03005C2F0300E0EB0020F4EC0020D9
:10B6980074EC0020532F030070B5114D1148124B64
:10B6A80029781B88027821F00C041C4382F00102DF
:10B6B80064B2027043F307237AB11C43E4B28C42AC
:10B6C80003D0204623F05BFD2C704FF48042BDE888
:10B6D8007040002305481AF0EFB924EA0304EDE7A7
:10B6E80075ED002074ED0020C8EB002090D10020FB
:10B6F80098B5012100AF4E230B4A0C48FFF79EFE78
:10B7080080B16C4688B06A46094B4FF403515361C7
:10B71800084BC2E906300423074842F8103F1FF0DF
:10B728007EF8A546BD4698BDB52F0300A0DF0020D2
:10B73800043003003D330300241C030098B503784C
:10B7480000AF1BB1032B21D0BD4698BD037A012B56
:10B758001AD0052BF8D11B4B6C468AB06A461A4999
:10B768001A4851611A49C2E9061340F20133138499
:10B77800184B4FF4135142F8103F1FF050F8A546EC
:10B78800154819F001FDDFE7144BE5E7017A144A83
:10B79800144B6C468AB0012908BF13466A46124901
:10B7A8000A4851610A49C2E9061340F20133138479
:10B7B800084B4FF4135142F8103F1FF030F8A546DC
:10B7C800C2E700BF3C3003005F300300241C0300C5
:10B7D8002133030004000001E4CE002023300300DD
:10B7E800503003005A300300833003002DE9F04144
:10B7F80000AF6D4688B06A460326B84BB84C536113
:10B8080094614FF4C651B74842F8106F1FF007F81B
:10B81800AD4612F091FB60B188B06A46B24B4FF466
:10B82800C251C2E90534AF4842F8106F1EF0F7FF65
:10B83800AD466D4688B06A460326AC4BDFF8B08249
:10B848005361C2F818804FF4C651A64842F8106FE9
:10B858001EF0E5FFAD4611F059FAF0B188B06A461E
:10B86800A44B4FF40151C2E905380423D06142F8D2
:10B87800103F9C481EF0D3FFAD466D4688B06A461F
:10B888009D4B4FF4C251C2E90534032342F8103FDF
:10B8980094481EF0C4FFAD4659E088B06A46974BFD
:10B8A8009048C2E905384FF4C65142F8106F1EF0AF
:10B8B800B6FF9348AD4623F0D6FD58B188B06A4626
:10B8C800904BD061C2E9053804234FF4035142F884
:10B8D800103FCEE74FF0FF324FF0FF338A4819F0A0
:10B8E80097FC88B06A46894B7E48C2E905384FF410
:10B8F800C65142F8106F1EF092FF0422844BAD46E9
:10B9080084481A8012F05AFB60B188B06A46824BAC
:10B918004FF4C251C2E90534724842F8106F1EF064
:10B928007EFFAD467D48FFF7D1FD054698B16E46CE
:10B9380088B06A467A4BD061C2E9053404234FF4D3
:10B948000151684842F8103F1EF069FFB5460020D3
:10B95800BD46BDE8F081734973481AF00BF84FF4FF
:10B968008042002370481AF0A7F8704970481AF00E
:10B9780001F84FF4A02200236D481AF09DF86D4994
:10B988006D4819F0F7FF4FF4A02200236A481AF017
:10B9980093F800F013FF694E604822F07BFA40B339
:10B9A800E84688B06A46664BC2E905340423D0618C
:10B9B8004FF401514B4842F8103F1EF030FFC54686
:10B9C8000135E9D0E84688B06A465E4B4FF403512A
:10B9D800C2E905343C23D3610423424842F8103FAE
:10B9E8001EF01DFFC54600214FF4F0101BF01EFA93
:10B9F800D2E7314649481EF006FF002836D1DFF865
:10BA08001C81404622F08FFB0246012130461FF080
:10BA18009DFC002837DA20F0A1FAE84688B00368D0
:10BA28006A464949D361C2E9051404234FF4015118
:10BA380042F8103F2B481EF0F2FEC546E84688B093
:10BA48006A46424B2748C2E9053403234FF4C651DE
:10BA580042F8103F1EF0E3FE3048C54622F0C6FA11
:10BA68000028ADD088B06A46394B9DE76D4688B04E
:10BA78006A46384BD061C2E9053404234FF40151BA
:10BA880042F8103F04E7404622F028FB50B110F17D
:10BA98000B0F07D0E84688B06A462F4BC2E9053439
:10BAA800D061C2E7F388D90708D5404622F052FB97
:10BAB80020B1E84688B06A46284BEFE7B6F9063069
:10BAC8001A074FD5E84688B06A46254BC2E90534BF
:10BAD80003234FF4C25142F8103FABE79430030000
:10BAE8004C330300241C0300BA300300E330030086
:10BAF8002D33030002310300A03103003831030065
:10BB080045B7000056310300E4CE0020833103001E
:10BB1800C8EB00202DA80200C2310300A0DF0020DE
:10BB2800EF310300A1B6000090D100202DC900001C
:10BB380060D1002085C8000030D1002098DF0020A7
:10BB48003A3203001832030072320300DA3203007B
:10BB5800F8320300583203008A320300A53203008A
:10BB6800C13203009B067FF54CAFE84688B06A46B1
:10BB7800004BABE7CD32030080B500AF88B06A4612
:10BB8800074B4FF4C2515361064B07489361032397
:10BB980042F8103F00231EF050FEBD4680BD00BF96
:10BBA8005C330300463A0300241C030080B500AF51
:10BBB80088B06A46074B08485361084BC2E906310A
:10BBC80004234FF4015142F8103F00231EF035FEC4
:10BBD800BD4680BD7B330300241C0300063A0300E6
:10BBE8002DE9F8436D4600AF88B016461C466A46F4
:10BBF8004FF00309294BDFF8A8805361C2F8188079
:10BC080000234FF4C651274842F8109F1EF015FE36
:10BC1800AD468EB988B06A46234B4FF4C651C2E987
:10BC28000538334642F8109F1E481EF006FE0020D5
:10BC3800AD46BD46BDE8F88354B988B06A461B4B8B
:10BC48004FF4C451C2E90538234642F8109FEBE788
:10BC58008AB06A46164BC2E90746C2E9053840F27F
:10BC680002439384134B4FF4335142F8103F0D486D
:10BC780000231EF0E2FDAD468AB06A460E4B210550
:10BC8800C2E905380D4B41F41351D36140F2013339
:10BC980013840B4B42F8103F3346C5E7A633030025
:10BCA800E3390300241C0300C3330300EA33030011
:10BCB8000D34030005000001E55E03003134030084
:10BCC80004000001F0B591B06C4600AF88B06A4638
:10BCD800474B4FF4C6515361464B47489361032382
:10BCE80042F8103F00231EF0A8FD4448A54607F17E
:10BCF8002C0409F0B9FF00211422204624F0BDFDD0
:10BD080001234FF0101287F82C303B633B744FF03F
:10BD1800C8737A633A4A07F10C00C7E901233B1D4F
:10BD28007B61FC6005F0F6F8364804F0B7FF07F1D0
:10BD380018021546344B03F1100614461868596862
:10BD4800083303C4B3422246F7D11B78294623702F
:10BD5800032004F0B3FF2D4C054690B16D4688B022
:10BD68006A462B4B4FF4C251C2E90534032342F80B
:10BD7800103F002320481EF060FDAD464437BD4605
:10BD8800F0BD0146042004F0FBFF78B16E4688B090
:10BD98006A46204B4FF4C251C2E9053403231648C2
:10BDA80042F8103F2B461EF048FDB546012005F02D
:10BDB800E3F880B16D4688B06A46174BD061C2E996
:10BDC800053404234FF4015142F8103F0A48002378
:10BDD8001EF033FDAD466D4688B06A460F4B4FF4F2
:10BDE800C651C2E90534032342F8103F0023C1E7D6
:10BDF80049340300333A0300241C0300F0C7002031
:10BE080018002800E8C70020DC1D0300BD39030026
:10BE18005D34030080340300A0340300C5340300FC
:10BE28002DE9F043B1B06D4616AF88B090461C4678
:10BE380016AA4FF00309304B304E53619661002328
:10BE48004FF4C6512E4842F8109F1EF0F6FCAD463E
:10BE5800002C4CD08AB016A82A4B0246C0E90536F9
:10BE6800294B2105C36140F201330384274B244841
:10BE780042F8103F41F4135143461EF0DEFC02B075
:10BE880016AA234B4FF4C651C2E905361C480023B5
:10BE980042F8109F1EF0D1FC642C2246AD4628BF04
:10BEA80064224FF000094146F81C3A7087F8019067
:10BEB80087F8029024F0C1FC572207F11001684668
:10BEC80024F0BBFC97E80F0000F084FD78B188B03F
:10BED80016AA104BD061C2E9053604234FF401516C
:10BEE80042F8103F06484B461EF0A7FCAD4601201D
:10BEF8006C37BD46BDE8F083D5340300D73903005D
:10BF0800241C0300E55E0300EF3403000400000175
:10BF1800FE3403001B35030070B503788AB004466D
:10BF28000E4607AD032B20D8DFE803F002191B1DCE
:10BF38001149284624F00DFE059563781E210493C7
:10BF4800A37830460393E3780C4A0293237901934C
:10BF580063790093A3791EF05BFD0AB070BD0849B0
:10BF6800E7E70849E5E70849E3E70A212846074AD9
:10BF78001EF04EFDE0E700BF4A3503006C350300B4
:10BF88005135030058350300623503003D6F030047
:10BF980080B588B0036800AF39461868FFF7BCFF62
:10BFA8008AB06A46094B4FF413515361084B09484C
:10BFB800C2E9063740F201331384074B42F8103FB9
:10BFC80000231EF03AFC2037BD4680BD8F350300A4
:10BFD8005C3A0300241C030004000001F0B589B09A
:10BFE80000AF0D46044620F0ADF93946FFF794FF3F
:10BFF8006E468AB06A46134B15625361124B13485A
:10C00800C2E9063740F201339384114B4FF43351A0
:10C0180042F8103F00231EF010FC0023B5460C2008
:10C028000C4A00FB03F156588D18B44206D1002380
:10C03800535002232B712437BD46F0BD0133052B25
:10C04800EFD1F8E7A4350300263A0300241C0300C7
:10C058000500000104E000202DE9F0410C468EB0F7
:10C0680000AF064620F06EF907F11801FFF754FFFC
:10C078003D4D07F11801C4B16E468AB06A463B4B84
:10C08800C2E90714C2E9053540F201339384384BFD
:10C098004FF4315142F8103F364800231EF0CDFBD3
:10C0A800B5463837BD46BDE8F081E8468AB06A46ED
:10C0B800314BD161C2E9053540F2013313842F4B6E
:10C0C8004FF4135142F8103F2A4823461EF0B5FB9F
:10C0D8004FF00C0CC5462A4A0CFB04F01358811883
:10C0E800002B3DD1165002226C4688B00A71CB80D5
:10C0F8000B816A4623491F485161234991610321F5
:10C1080042F8101F4FF4C6511EF097FBA5463A1D82
:10C1180094461E4B03F1100E1446186859680833EC
:10C1280003C473452246F7D11B7861462370304615
:10C138000023174A04F0AEFC0028B2D06C4688B041
:10C148006A46144BD061C2E9053504234FF4015106
:10C1580042F8103F074800231EF06FFBA546A0E7F2
:10C168000134052CB8D1D2E71C3A0300C5350300C9
:10C1780005000001241C0300E6350300040000014B
:10C1880004E00020F8350300C8390300DC1D030073
:10C1980004C800201D360300084A0023114610B5C4
:10C1A8001479844203D10C225343C85810BD01337B
:10C1B800052B02F10C02F3D10020F7E704E0002080
:10C1C8002DE9F04784B06D4604AF88B09246044626
:10C1D800884604AA4FF00309324B334E53619661E7
:10C1E80000234FF4C651314842F8109F1EF025FB3A
:10C1F800AD46B8F1000F11D0BAF1000F0ED084B9D6
:10C2080088B004AA2A4B4FF4C651C2E9053627481C
:10C21800234642F8109F1EF010FBAD466FF0150440
:10C228003CE000230C20234A00FB03F18D185158F1
:10C23800A1421ED12989002520464246CDE9015553
:10C2480000951FFA8AF30DF04DF8044630B3E8461E
:10C2580088B004AA184BD061C2E9053604234FF40C
:10C26800015142F8103F11482B461EF0E6FAC54628
:10C2780014E00133052BD7D16C4688B004AA0F4BC4
:10C288004FF4C251C2E905360323084842F8103F6B
:10C2980000231EF0D2FAA5466FF012042046BD46D0
:10C2A800BDE8F0874B3603006E3A0300241C0300F8
:10C2B8006236030004E00020AE3603008A3603002D
:10C2C80000B589B018B9002009B05DF804FB6946CB
:10C2D80009F08CFD0028F6DB9DF80030012BF2D127
:10C2E800054B0299F8221846013124F04CFC002233
:10C2F80080F8F820E8E700BF76ED00202DE9F04F40
:10C30800A1B0E84600AF88B005466A46B84BB94CBC
:10C318005361032394614FF4C65142F8103FB64865
:10C3280000231EF08AFA2846C5461FF0CEF807F10A
:10C33800380109F05BFD824688B388B06A46AF4B86
:10C34800D061C2E9053404234FF4015142F8103F8B
:10C358000023A9481EF071FA07F11002C546944659
:10C36800A74B03F1100E164618685968083303C620
:10C3780073453246F7D11B7861463370284604F07E
:10C3880061FB064600283ED1E84688B06A469D4BC8
:10C39800C2E90534032342F8103F334658E088B019
:10C3A8006A4697F839304FF004099749D361C2E9D2
:10C3B800051403464FF403518F4842F8109F1EF0AE
:10C3C8003CFAC54688B06E4697F83830B3468F4A6F
:10C3D800F361C6E905244BF8109F53465A464FF4BB
:10C3E800035185481EF029FAC54697F85430B546DA
:10C3F800874AF361C6E9052453465A464FF4035168
:10C40800C6F81090A5E78388DFF80892E84688B058
:10C418006A46A9F80C304FF0040A7F49D361C2E993
:10C42800051400234FF40351734842F810AF1EF06F
:10C4380004FA3146C54628461FF06BF8034630BB60
:10C4480088B06A467549C2E90514032142F8101FED
:10C458004FF4C25168481EF0F0F9C54628461FF04F
:10C4680095F880B16D4688B06A466D4BD061C2E9D7
:10C47800053404234FF4015142F8103F5E4800236D
:10C488001EF0DBF9AD468437BD46BDE8F08F2522A6
:10C49800006807F1580106F017FA8AB06A46614B3E
:10C4A8004FF41351C2E9053407F15803D36140F240
:10C4B800013313845C4B504842F8103F00231EF0B0
:10C4C800BCF942F602134FF0000BC5463146284628
:10C4D80007F108027B8187F808B01FF045F803468A
:10C4E80018B988B06A465149ADE783882846A9F843
:10C4F8000E301EF0EAFF49460CF078FF70B188B0A4
:10C508006A464B4BD061C2E905344FF401515B4692
:10C51800394842F810AF1EF090F9C54607F12402D9
:10C528009446444B03F1100E1646186859680833B0
:10C5380003C673453246F7D11B78614633702846E7
:10C5480004F080FA064620B9E84688B06A463A4BB5
:10C558001EE78388DFF8E4A0E84688B06A46AAF8B0
:10C568000C30D361042336492348C2E9051442F844
:10C57800103F4FF4035100231EF05FF93146C546C2
:10C5880028461EF0C6FF034618B988B06A462D49EA
:10C5980059E72522006807F1580106F095F98AB095
:10C5A8006A46294B4FF41351C2E9053407F1580381
:10C5B800D36140F2013313841B4B0F4842F8103FFC
:10C5C80000231EF03AF942F602134FF0000BC5465D
:10C5D8003146284607F10C02FB8187F80CB01EF0A3
:10C5E800C3FF0346A0BB88B06A4618492BE700BFC3
:10C5F800D3360300F2390300241C0300F13603008C
:10C60800ED1D0300663703001C37030034370300B1
:10C618004C370300CCC700208A370300A237030039
:10C628004F390300BD37030004000001D33703006E
:10C63800F1370300FE1D030012380300B0C70020C5
:10C64800363803004E380300693803007F3803008A
:10C6580083882846AAF80E301EF037FF51460CF0A2
:10C66800C5FE78B188B06A46474BD061C2E9053447
:10C6780004234FF4015142F8103F44485B461EF032
:10C68800DCF8C54628461EF020FF00260C21DFF8FE
:10C69800008101FB06F202EB080358F802208242EF
:10C6A8006ED1B9F80C20DA80BAF80C201A81FFF79D
:10C6B80007FE814600283FF4D1AE3649FCF7A3FDBA
:10C6C800034600283AD1EA4688B06A463249C2E9A8
:10C6D8000514032142F8101F4FF4C6512B481EF0D1
:10C6E800ACF80022D5460C2303FB0683E8468AB043
:10C6F8006E461A7140F2013B3246284BDFF8A0A083
:10C70800C6E90534C6F81C90A6F820B0002342F804
:10C7180010AF4FF413511D487A601EF08EF8C546CD
:10C72800B546204B7A68C6E905341F4B1F49F361AB
:10C73800A6F820B04B46C6F810A08BE60C22484657
:10C748001B4924F00EFAEA46034678B988B06A46CF
:10C7580018490E48C2E90514032142F8101F4FF486
:10C76800C6511EF06AF80122D546BCE788B06A4671
:10C77800114BC2E90534032342F8103F0023ABE70D
:10C788000136052E85D169E69D380300241C030077
:10C7980004E0002015350300BE3803002E390300DD
:10C7A80004000001E55E030042390300C024600074
:10C7B800D2380300DF380300FA380300B0B500AF01
:10C7C8006C4688B06A46124B124D536103231248D7
:10C7D80095614FF4C65142F8103F00231EF02DF822
:10C7E8000E48A54607F082FE78B188B06A460C4B21
:10C7F800D061C2E9053504234FF4015142F8103FD6
:10C80800054800231EF019F8A546BD46B0BD00BF77
:10C818007D3903003D3A0300241C0300CDBC000011
:10C828009A3903000346084611465A781AB1012A74
:10C8380005D000207047034A03331CF007B8024AAA
:10C848000333FAE77B3A03008D3A030003460846B0
:10C85800114623B118B15A781AB1012A05D000201F
:10C868007047034A03331BF0F1BF024B024AFAE751
:10C878007B3A0300A33A0300BA3A03002DE9F043D8
:10C88800224DE7B0224E234C00AF381D00F0F4F8DB
:10C89800804650B140F6CD4200231F4819F00CF9EC
:10C8A80007F5CE77BD46BDE8F0834FF4967207F1E1
:10C8B8006C01381DFFF7CAFF034678B9E84688B00F
:10C8C8006A461649C2E90514032142F8101F4FF4BD
:10C8D800C251134802F088FFC546D6E70121284611
:10C8E80007F16C02FEF7AAFD0028CED0E94688B011
:10C8F8006A460323C2E9056442F8103F4FF4C25167
:10C908004346074802F070FFCD46BEE7A0DF00208F
:10C91800F13A03007D3B030030D10020CD3A0300FB
:10C92800241C03002DE9F043254CE7B0254D264E85
:10C9380000AF381D00F0CEF850B140F6CD420023CC
:10C94800224819F033F907F5CE77BD46BDE8F083E4
:10C958004FF4967207F16C01381DFFF763FF8046AC
:10C9680080B9E94688B0694603230A46C1E9054506
:10C9780042F8103F4FF4C2510346304602F034FFEC
:10C98800CD46D6E7B879FFF707FC034690B9E846E5
:10C9980088B06A46B9790E4850610A48C2E906016A
:10C9A800042142F8101F4FF40151074802F01CFF00
:10C9B800C546BEE7424607F16C01FFF701FCB8E740
:10C9C8000C3B0300643B0300241C030060D10020DF
:10C9D800393B030084B070B504AC84E80F004FF015
:10C9E8002003EFF3118683F31288BFF36F8F1C4D7A
:10C9F8002B680C2B07D0672023F0EBFE0446C8B940
:10CA08006FF00B0023E000220023164818F052FBB9
:10CA1800044660B914492E23144A15481EF0C8F973
:10CA280014481EF0C5F92E2110481EF0BAF92B68DB
:10CA3800013B2B60672204A9201D23F0FEFE094854
:10CA4800214623F004FD00202B6801332B6086F378
:10CA58001188BFF36F8FBDE8704004B0704700BF06
:10CA680044E000206CCF0020A93B0300953B030065
:10CA7800C23B0300DF3B030070B5054618B34FF017
:10CA88002003EFF3118683F31288BFF36F8F002220
:10CA980000230E4818F00EFB044688B16722011DDA
:10CAA800284623F0CAFE204623F08CFE0020084AC0
:10CAB8001368013B136086F31188BFF36F8F70BD55
:10CAC8006FF03C00F7E76FF01500F8E76CCF002037
:10CAD80044E000202DE9F041044600AF00283CD096
:10CAE800002200231E4818F0E5FA0546002831D038
:10CAF8004FF02003EFF3118683F31288BFF36F8F93
:10CB08006722011D204623F098FEE8468AB06A464F
:10CB1800144B03345361144BD461936140F20133D5
:10CB28001384124B42F8103F00234FF4135110485E
:10CB380002F05AFE2846C54623F044FE00200D4A5E
:10CB48001368013B136086F31188BFF36F8FBD46EE
:10CB5800BDE8F0816FF03C00F5E76FF01500F6E7EF
:10CB680018CF0020FE3B0300793C030004000001BD
:10CB7800241C030040E0002084B02DE9F84300AFF6
:10CB880007F1200484E80F004FF02003EFF311862B
:10CB980083F31288BFF36F8F6C4688B06A46304BB8
:10CBA800DFF8C08053610323C2F8188042F8103FB1
:10CBB8002D4D00234FF4C6512C4802F015FE2B686A
:10CBC800A5460C2B07D06C2023F003FE0446C8B9F9
:10CBD8006FF00B003AE000220023254818F06AFAAB
:10CBE800044660B923498F23234A24481EF0E0F8FD
:10CBF80023481EF0DDF88F211F481EF0D2F82B685D
:10CC0800013B2B60672207F12001201D23F015FE50
:10CC1800E9468AB06A461B4BC2E9053807F1230387
:10CC2800D36140F201331384174B42F8103F0023BD
:10CC38004FF413510D4802F0D7FD0D48CD4621465B
:10CC480023F005FC00202B6801332B6086F3118844
:10CC5800BFF36F8FBD46BDE8F84304B0704700BF0F
:10CC68001E3C0300613C030040E00020241C03003C
:10CC780018CF0020A93B0300953B0300C23B0300EB
:10CC8800DF3B0300413C0300040000012DE9F047AD
:10CC98000A688B6806465C1CD018D35C0F46222BAA
:10CCA800144440F0E18025460023D1F804C0A91AB5
:10CCB800614580F0D9802978222919D1C3F101036F
:10CCC800281A3A69184490478146002800F0CC8019
:10CCD8008046AC4216D3002388F800301023012088
:10CCE800C6E903393B68ED1A0135BD60BDE8F08738
:10CCF8005C2905D10135A91A614580F0B580013359
:10CD08000135D4E723785C2B06D0013408F1010201
:10CD180088F800309046DCE76378752B0AD86D2BCD
:10CD28000FD8622B2AD023D82F2B39D05C2B37D0A1
:10CD3800222B35D048467B6998473B68E41ABC608B
:10CD480095E06E3B072BF5D801A252F823F000BFFF
:10CD580091CD00003DCD00003DCD00003DCD00004F
:10CD680099CD00003DCD0000A1CD0000AFCD000061
:10CD7800662BDFD10C2308F1010202E0082308F139
:10CD8800010202210C44C3E70A2308F10102F8E773
:10CD98000D2308F10102F4E7092308F10102F0E785
:10CDA80008F10102EDE72B1B052BC3DDA01C1DF0CC
:10CDB80046FDA0F55C43B3F5806F8246BAD3A0F573
:10CDC8005843B3F5806F2CD2A31DEB1A052BB1DDA8
:10CDD800A3795C2BAED1E379752BABD104F10800B4
:10CDE8001DF02DFDA0F55C43B3F5806FA2D20C2198
:10CDF800204BC0F3090003EA8A23034303F5803A72
:10CE0800F020042202F1FF3C58FA8CFCE0455FFA5E
:10CE18008AF320D1012A14BF034303F07F0342445D
:10CE2800B0E77F280BD9B0F5006F0CD3B0F5803F81
:10CE38000DD3B0F5881FBFF47DAF0621E0E70621CA
:10CE480000200122DEE70621C0200222DAE70621BF
:10CE5800E0200322D6E703F03F0363F07F030CF8DA
:10CE680001394FEA9A1AD1E7002C7FF466AF002007
:10CE78003CE700BF00FC0F00F8B50D46044600284B
:10CE880034D0002931D08468FAB9194E74B3236AB2
:10CE9800C3B1AB4221D005F1FF3C013B1CF8011F97
:10CEA8000F46725C02F00302012A13F8012F08BF33
:10CEB80001F12007B05C00F00300012808BF203210
:10CEC80097420FD02468E1E724687CB1216A21B138
:10CED8002846FCF798F90028F6D1236A002B08BFEA
:10CEE800002403E00029D9D1F7E70C462046F8BD15
:10CEF80002C0030070B504460F4D04B970BDE36865
:10CF08002668D90504D4A06870B920696B6888B907
:10CF1800E3689B0503D4206A08B16B6898472046EC
:10CF28006B6898473446E8E7FFF7E4FFE368DA05FB
:10CF3800EBD5EDE79847EBE710C800202DE9F04363
:10CF480005464FF0000989B02F4F0C4616460021C0
:10CF58001C2201A8984623F090FCC7E9009925B93E
:10CF68000024204609B0BDE8F083002C3DD0274BB3
:10CF7800CDE9015493E8070008AB03E907001DF069
:10CF880094FC0446002830D0019850B1039BE3B9C3
:10CF9800029B042B04D903221D4923F0E2FD88B12A
:10CFA80001A81DF06BFC01462046FCF741F9C8B109
:10CFB800B8F1000F0BD1002ED3D0019B039A134474
:10CFC8003360CEE703230393EAE74846E9E701A87D
:10CFD8001DF054FCDDE90223934203D2019AD35C8D
:10CFE800002BE8D02046FFF785FFDDE902239342B6
:10CFF80001D332B1531E0EB1EA183260C7E90053AB
:10D00800AEE71346F7E700BF48E0002010C800204D
:10D01800B33C03002DE9F04F91B0009302F00403F4
:10D028000193C2F3C20301330493830705460E46F6
:10D03800DDF86890029240F0FE81041D30B10729A6
:10D0480009D86FF01B0011B0BDE8F08F01F007069A
:10D05800341DC6F108064FF000084FF0040B009B82
:10D068004746591E4FF0FF324346DA46CDF80C804A
:10D078000DB1009820600498002800F3E1809C48D6
:10D08800DDF800C0844503D39A488445C0F0D880B1
:10D09800DDF808C0A4EB050E1CF0020F4FEA9E0055
:10D0A80000F0E9804FF0000CD3E07A2864D84B28D0
:10D0B8000FD8472860D829282FD825285BD05BD8D7
:10D0C80020287FD0A0F12309D9F1000343EB0903FD
:10D0D80078E0A0F14C0EBEF12E0F4DD8DFE80EF02F
:10D0E800724C4C4C4C4C4C4C4C4C4C4C4E4C4C4C50
:10D0F8004C4C4C4C4C5C4C4E4E5C5C5C724E6F4CD9
:10D10800724C184E184C4C817E4E4C4C4E4C7E0046
:10D11800002000234FF0040B3CE0A0F12A0E012070
:10D128005FFA8EFE00FA0EFE4FF6DA701EEA000F66
:10D1380048D11EF062502FD11EF0010342D0013CAD
:10D148005C44CBF1000E04EA0E04002D5ED0AAEB7D
:10D15800050EA6447645FFF474AF002868D1BAF1ED
:10D16800040F43D1E14659F8040B2060CC464FF038
:10D17800040A043426E0013A002323E011F8013CB4
:10D188006C2B30D1002011F8023C6C2B0346C1D126
:10D198004FF0080BDA46D2E70CF1070929F0070C23
:10D1A800073424F00704FCE802AB35B105982044A5
:10D1B800B0423FF646AFC4E900AB002308344FF055
:10D1C800080BDA4611F8010F002800F0BC80002B8C
:10D1D8007FF46BAF2528F5D1012301324FF0040B02
:10D1E800EFE7184695E700200346A8E7BAF1080FCD
:10D1F80040F09B800CF1070929F0070CFCE8029A23
:10D20800C4E9009A4FF0080A0834DBE780B9BAF19C
:10D21800040F02D10CF10409A8E7BAF1080F40F095
:10D2280084800CF1070929F0070909F1080CE9E7DE
:10D23800E14604980138049059F8040B009017E768
:10D248000298800748D54FF0010CA4EB050E4FEA71
:10D258009E00BEF5007F1DD3274940F27B23274A55
:10D2680027481DF0A5FD27481DF0A2FD40F27B21AF
:10D2780022481DF096FD0F2F0ED8002D46D007F13D
:10D28800400CEC440CF8200C0CF8102C03980130DE
:10D29800039020E00F2F0CD917494FF42073174A39
:10D2A80017481DF085FD18481DF082FD4FF42071C8
:10D2B800DEE7BDB107F1400EEE44C0B20EF8200C17
:10D2C8000EF8102CBCF1000FE0D060F07F000EF8D3
:10D2D800200C08F101080137C5F10800CC460434D8
:10D2E80005906FE7BCF1000F10D00136F3E700BFDF
:10D2F8005417030050C30300DC860300B73C030047
:10D30800C23B0300E53C0300063D030001980236DA
:10D318000028E0D10098CDE906310592FBF77DFFA2
:10D32800DDE90631059A0644D5E740F2C523434AAC
:10D33800434944481DF03CFD514643481DF038FD23
:10D3480040F2C52194E7631BB3F5806F0CD33C49C9
:10D3580040F2D123394A3B481DF02AFD3B481DF0D5
:10D3680027FD40F2D12183E71DB9A6F10804E01892
:10D3780069E6019A9B0828602B709DF80C30C2B1B1
:10D38800EB7085F80280B8F1000F05D0002208A8DC
:10D39800C5F1010C97420ED14FF0000AC5F1010307
:10D3A8000DF1200902930DF1300B574512D1601B86
:10D3B80049E66B70E5E710F8013B190608D504EB60
:10D3C8000C0E764503F07F03FFF43BAE04F8013BF7
:10D3D8000132DFE7B8F1000F03D099F90020002AE5
:10D3E80017DB019BD3B11AF80B2004F8012B00229C
:10D3F800029B981820448642FFF423AE99F8000057
:10D40800009904F8010B2046039223F016FA039AB8
:10D4180014440AF1010A09F10109C6E799F8002044
:10D4280055F822300093019B009845F82230FBF70D
:10D43800F4FE421CDCE76FF00D0004E6B73C030085
:10D44800DC860300C23B0300203D0300353D03009A
:10D458002DE9F04F95B000AF8A4604467A62BB6169
:10D4680058B9A9494FF46573A84AA9481DF0A0FC0A
:10D478004FF46571A5481DF094FCBB6F90F802B09D
:10D48800C3F3C0033B6141B9457800780BEB8000DA
:10D498002044554517D8A0EB040AE3787B61BBF11B
:10D4A800000F02D0BB6FD80716D47B6953BB7B6AC9
:10D4B8001BB151462046BA69984755462846543705
:10D4C800BD46BDE8F08F461C3046FBF7A6FE01308E
:10D4D80030440AF1010ADCE7237862683B629B006A
:10D4E800FB603B6AFA6104EB83097B6A002B40F01E
:10D4F8000481C8460026554609EB0B0AC24553D19C
:10D50800D94413E0BB6F9907D1D5237899463B627C
:10D518009B00FB60636804EB8909FB617B6A002B55
:10D528007CD15546BBF1000F51D15E46BB6F13F05D
:10D53800050F0CBF4FF0020B4FF0010B7B6909EB95
:10D54800430ABB6F03F002037B62D145B6D019F8DA
:10D55800021B19F8013C54F823806E4B984502D3FE
:10D568006D4B98453AD33B69002B44D0F8691DF0C0
:10D57800F7F900283FD0E8468AB06A46674B5361FE
:10D58800674B9361FB69C2E9073140F20133938429
:10D59800644B42F8103F00234FF43251624802F0C6
:10D5A80023F9023DC546D0E718F8013B54F823009B
:10D5B800FBF733FEFB6F01303BB1D7F880309E425A
:10D5C8003EBFFB6F23F816000136054496E7BB6F94
:10D5D80013F004061CBF7E6AD944A7E73B6923B150
:10D5E800F8691DF0BDF90028C5D1BB6FDA0705D46D
:10D5F800A5EB0B05A9E77B6A002BA6D04046FBF7F5
:10D608000CFEFB6F43B1D7F880309E423FBFFA6FE4
:10D61800431C22F816300136054496E7BBF1000F8B
:10D6280000F08480BB6F13F0040600F08280D846B7
:10D63800002607F140005A46494623F0FEF87B6968
:10D64800D9445B007B607B6909EB4303BB60BB6F1C
:10D6580003F002033B60BB6899456CD1B96F6378EE
:10D66800B86F890748BF002106EB030258BF4FEA8D
:10D678005801C507D2B200F1E28010F0040F14BFC0
:10D6880040460020FB616270A070E1702046BA69D4
:10D69800F9687B6A9847051EFFF610AF3B6A41465A
:10D6A8002370FB69BA6963707B6984F802B0E37020
:10D6B80007F140007B6A9847B0F10008C0F2EC809F
:10D6C800FB68AAEB0B01C91A7B684846C91ABA69F4
:10D6D8007B6A98470028C0F2E1804FF0000BA8440D
:10D6E80008EB000507F1300AB345C0F0AA80002115
:10D6F800BA6908467B6A9847E0E65E464FF000083C
:10D7080007F1300097E700BF4C3D0300B73C03002A
:10D71800C23B03005417030050C30300673D0300D6
:10D728004D3E030005000001E41B03005E46D84699
:10D7380085E7B04683E719F8021B594B19F8015CD5
:10D7480054F82500984202D3564B984216D33B69A9
:10D758002BB1F8691DF004F900287FF47CAF3B6811
:10D76800002B4AD00F2E3ED94F494FF489634F4AB8
:10D778004F481DF01DFB4FF489617BE63B692BB1D7
:10D78800F8691DF0EDF800287FF465AFBB6FDB0783
:10D798000BD50F2E27D9444940F23E43434A44480B
:10D7A8001DF006FB40F23E4164E6BB6F58077FF56B
:10D7B80052AFB8F10F0F09D93E4940F241433B4AF5
:10D7C8003B481DF0F5FA40F2414153E608F12803C1
:10D7D80007F1280208F1010103EB020808F8105CC0
:10D7E8005FFA81F837E706F1280307F12802711C70
:10D7F8009E1806F8205CCEB22DE7B8F10F0F09D9B4
:10D808002C4940F24B43294A29481DF0D1FA40F2ED
:10D818004B412FE608F1280307F1280208F101001F
:10D8280003EB020C07F1500308F1020853FA80F0E9
:10D838000CF8101C5FFA88F800F8105C0BE7002061
:10D8480020E71BF80A3054F8239087F82F30FB6F35
:10D85800FBB133F81B800121BA697B6A07F12F00FD
:10D86800984700281ADB0544B8F1000F06D148464E
:10D87800FBF7D3FC00F101081FFA88F84146484637
:10D88800BA697B6A9847002808DB05440BF1010B4D
:10D898002AE7D7F87C80DEE745460FE605460DE621
:10D8A8005417030050C303000E3E0300B73C0300A7
:10D8B800C23B03002D3E0300032808B506D91EF01D
:10D8C8004DFB092303604FF0FF3008BD044B03EB09
:10D8D8004013D3E8AF3F002BF1D00020F5E700BF9D
:10D8E80058E0002070B504460E461546FFF7E4FFE1
:10D8F80000280CDB074B610103EB441462683260BB
:10D908001DB101F10C021A442A60585870BD00205C
:10D91800FCE700BF50E0002010B500244FF0FF33B3
:10D928004FF0FF32144817F0CDF9144BD3E8AF2F5E
:10D938007AB10134042C03F12003F7D11EF00EFB59
:10D9480017234FF0FF3403600B4817F08BFA20467B
:10D9580010BDD3E8EF0F0130C3E8E10F0029F8D17B
:10D968000748630100EB4411C2504A600C33184465
:10D9780022F04DFDE8E700BF40CE002058E000202F
:10D9880050E0002010B404461046094B620103EB36
:10D9980044149950606040B1C46834B10C321344E7
:10D9A80010BC40F205121DF000B810BC704700BF53
:10D9B80050E0002030B50D49400100F108030B4448
:10D9C800D3E8AF2F82B1541ED3E8EF5F954204D15C
:10D9D800C3E8EC4FBCF1000FF6D1F1D1012A01BF29
:10D9E80000230A180B50536030BD00BF50E00020E0
:10D9F800014B1860704700BF1CC8002030B50025D7
:10DA080087B0CDE903010446009503A905480595AB
:10DA180000F060FDDDE904309842B8BF255407B036
:10DA280030BD00BFD5A9020070B50C46002934D01E
:10DA380002680B1F9B1AD90823F0070313445D885B
:10DA4800E8070DD4AF23154A154916481DF0B0F95B
:10DA5800214615481DF0ACF9AF2110481DF0A1F979
:10DA680010461CF0ECFF084432F83060801B8142FD
:10DA78000BD0B723094A0D490A481DF099F92146E8
:10DA88000B481DF095F9B721E7E725F001055D8002
:10DA98001046BDE870401DF08FB870BD773E03009A
:10DAA800983E0300C23B0300A93E0300E13E030089
:10DAB800073F03002DE9F8434B1E0B400F46144661
:10DAC800066810D0C1F1000909EA01094A46591E41
