:10800000084E0120A12E01007B0C0300752E0100FB
:10801000752E0100752E0100752E0100752E0100D0
:10802000000000000000000000000000D926010050
:10803000752E01000000000079260100752E010058
:10804000612701006127010061270100612701000C
:1080500061270100612701006127010061270100FC
:1080600061270100612701006127010061270100EC
:1080700061270100612701006127010061270100DC
:1080800061270100612701006127010061270100CC
:1080900061270100612701006127010061270100BC
:1080A00061270100612701006127010061270100AC
:1080B000612701006127010061270100612701009C
:1080C000612701006127010061270100612701008C
:1080D000612701006127010061270100612701007C
:1080E000612701006127010061270100612701006C
:1080F000612701006127010061270100612701005C
:10810000612701006127010061270100612701004B
:10811000612701006127010061270100612701003B
:10812000612701006127010061270100612701002B
:10813000612701006127010061270100612701001B
:0481400061270100B2
:04814400FFFFFFFF3B
:108148004FF0FF0C1CEAD0521EBF1CEAD15392EA32
:108158000C0F93EA0C0F6FD01A4480EA010C40020E
:1081680018BF5FEA41211ED04FF0006343EA501068
:1081780043EA5111A0FB01310CF00040B1F5000FAA
:108188003EBF490041EAD3715B0040EA010062F159
:108198007F02FD2A1DD8B3F1004F40EBC25008BF43
:1081A80020F00100704790F0000F0CF0004C08BF61
:1081B80049024CEA502040EA51207F3AC2BFD2F12E
:1081C800FF0340EAC250704740F400004FF000033C
:1081D800013A5DDC12F1190FDCBF00F00040704776
:1081E800C2F10002410021FA02F1C2F1200200FAB4
:1081F80002FC5FEA310040F1000053EA4C0308BF7B
:1082080020EADC70704792F0000F00F0004C02BFCB
:10821800400010F4000F013AF9D040EA0C0093F046
:10822800000F01F0004C02BF490011F4000F013BA0
:10823800F9D041EA0C018FE70CEAD15392EA0C0F0E
:1082480018BF93EA0C0F0AD030F0004C18BF31F079
:10825800004CD8D180EA010000F00040704790F04F
:10826800000F17BF90F0004F084691F0000F91F0F3
:10827800004F14D092EA0C0F01D142020FD193EAB9
:108288000C0F03D14B0218BF084608D180EA010041
:1082980000F0004040F0FE4040F40000704740F01D
:1082A800FE4040F44000704781F0004102E000BF0A
:1082B80083F0004330B54FEA41044FEA430594EA9E
:1082C800050F08BF90EA020F1FBF54EA000C55EAD9
:1082D800020C7FEA645C7FEA655C00F0E2804FEAAA
:1082E8005454D4EB5555B8BF6D420CDD2C4480EA8C
:1082F800020281EA030382EA000083EA010180EABC
:10830800020281EA0303362D88BF30BD11F0004F09
:108318004FEA01314FF4801C4CEA113102D040423F
:1083280061EB410113F0004F4FEA03334CEA13337A
:1083380002D0524263EB430394EA050F00F0A78092
:10834800A4F10104D5F1200E0DDB02FA0EFC22FA8D
:1083580005F2801841F1000103FA0EF2801843FA81
:1083680005F359410EE0A5F120050EF1200E012A72
:1083780003FA0EFC28BF4CF0020C43FA05F3C018B0
:1083880051EBE37101F0004507D54FF0000EDCF129
:10839800000C7EEB00006EEB0101B1F5801F1BD3D2
:1083A800B1F5001F0CD349085FEA30004FEA3C0CD6
:1083B80004F101044FEA445212F5800F80F09A80CC
:1083C800BCF1004F08BF5FEA500C50F1000041EBD0
:1083D800045141EA050130BD5FEA4C0C404141EBD4
:1083E8000101013C28BFB1F5801FE9D291F0000FCF
:1083F80004BF01460020B1FA81F308BF2033A3F17E
:108408000B03B3F120020CDA0C3208DD02F1140C74
:10841800C2F10C0201FA0CF021FA02F10CE002F1AF
:108428001402D8BFC2F1200C01FA02F120FA0CFCA8
:10843800DCBF41EA0C019040E41AA2BF01EB0451F1
:10844800294330BD6FEA04041F3C1CDA0C340EDCEF
:1084580004F11404C4F1200220FA04F001FA02F332
:1084680040EA030021FA04F345EA030130BDC4F1F0
:108478000C04C4F1200220FA02F001FA04F340EAE5
:108488000300294630BD21FA04F0294630BD94F096
:10849800000F83F4801306BF81F480110134013D7D
:1084A8004EE77FEA645C18BF7FEA655C29D094EAEE
:1084B800050F08BF90EA020F05D054EA000C04BF6C
:1084C8001946104630BD91EA030F1EBF0021002057
:1084D80030BD5FEA545C05D14000494128BF41F0F6
:1084E800004130BD14F580043CBF01F5801130BD5A
:1084F80001F0004545F0FE4141F470014FF00000E5
:1085080030BD7FEA645C1ABF194610467FEA655C95
:108518001CBF0B46024650EA013406BF52EA033537
:1085280091EA030F41F4002130BD00BF90F0000F25
:1085380004BF0021704730B54FF4806404F1320461
:108548004FF000054FF0000150E700BF90F0000F1A
:1085580004BF0021704730B54FF4806404F1320441
:1085680010F0004548BF40424FF000013EE700BF11
:1085780042004FEAE2014FEA31014FEA02701FBFA1
:1085880012F07F4393F07F4F81F06051704732F0D3
:108598007F4208BF704793F07F4F04BF41F400212A
:1085A800704730B54FF4607401F0004521F0004188
:1085B8001CE700BF50EA010208BF704730B54FF012
:1085C80000050AE050EA010208BF704730B511F013
:1085D800004502D5404261EB41014FF4806404F14B
:1085E80032045FEA915C3FF4D8AE4FF003025FEAD1
:1085F800DC0C18BF03325FEADC0C18BF033202EB55
:10860800DC02C2F1200300FA03FC20FA02F001FAAE
:1086180003FE40EA0E0021FA02F11444BDE600BF51
:1086280070B54FF0FF0C4CF4E06C1CEA11541DBF00
:108638001CEA135594EA0C0F95EA0C0F00F0DEF8CB
:108648002C4481EA030621EA4C5123EA4C5350EAB0
:10865800013518BF52EA033541F4801143F4801301
:1086680038D0A0FB02CE4FF00005E1FB02E506F092
:108678000042E0FB03E54FF00006E1FB03569CF0E7
:10868800000F18BF4EF0010EA4F1FF04B6F5007FED
:1086980064F5407404D25FEA4E0E6D4146EB06065F
:1086A80042EAC62141EA55514FEAC52040EA5E50E8
:1086B8004FEACE2EB4F1FD0C88BFBCF5E06F1ED892
:1086C800BEF1004F08BF5FEA500E50F1000041EBC9
:1086D800045170BD06F0004646EA010140EA020076
:1086E80081EA0301B4EB5C04C2BFD4EB0C0541EA98
:1086F800045170BD41F480114FF0000E013C00F3AD
:10870800AB8014F1360FDEBF002001F0004170BDD0
:10871800C4F10004203C35DA0C341BDC04F11404E9
:10872800C4F1200500FA05F320FA04F001FA05F275
:1087380040EA020001F0004221F0004110EBD37042
:1087480021FA04F642EB06015EEA430E08BF20EA6E
:10875800D37070BDC4F10C04C4F1200500FA04F311
:1087680020FA05F001FA04F240EA020001F00041A3
:1087780010EBD37041F100015EEA430E08BF20EA16
:10878800D37070BDC4F1200500FA05F24EEA020E5E
:1087980020FA04F301FA05F243EA020321FA04F08D
:1087A80001F0004121FA04F220EA020000EBD37044
:1087B8005EEA430E08BF20EAD37070BD94F0000F44
:1087C8000FD101F00046400041EB010111F4801F78
:1087D80008BF013CF7D041EA060195F0000F18BF29
:1087E800704703F00046520043EB030313F4801F65
:1087F80008BF013DF7D043EA0603704794EA0C0F1F
:108808000CEA135518BF95EA0C0F0CD050EA410634
:1088180018BF52EA4306D1D181EA030101F00041B1
:108828004FF0000070BD50EA410606BF10461946D9
:1088380052EA430619D094EA0C0F02D150EA0136E5
:1088480013D195EA0C0F05D152EA03361CBF104626
:1088580019460AD181EA030101F0004141F0FE41C5
:1088680041F470014FF0000070BD41F0FE4141F449
:10887800780170BD70B54FF0FF0C4CF4E06C1CEA49
:1088880011541DBF1CEA135594EA0C0F95EA0C0FFE
:1088980000F0A7F8A4EB050481EA030E52EA0335B9
:1088A8004FEA013100F088804FEA03334FF08055DA
:1088B80045EA131343EA12634FEA022245EA111507
:1088C80045EA10654FEA00260EF000419D4208BFB8
:1088D800964244F1FD0404F5407402D25B084FEA65
:1088E8003202B61A65EB03055B084FEA32024FF411
:1088F80080104FF4002CB6EB020E75EB030E22BF6E
:10890800B61A754640EA0C005B084FEA3202B6EB2D
:10891800020E75EB030E22BFB61A754640EA5C00DC
:108928005B084FEA3202B6EB020E75EB030E22BF6C
:10893800B61A754640EA9C005B084FEA3202B6EB6D
:10894800020E75EB030E22BFB61A754640EADC002C
:1089580055EA060E18D04FEA051545EA16754FEA8E
:1089680006164FEAC30343EA52734FEAC2025FEAAC
:108978001C1CC0D111F4801F0BD141EA00014FF03B
:1089880000004FF0004CB6E711F4801F04BF01430C
:108998000020B4F1FD0C88BFBCF5E06F3FF6AFAE28
:1089A800B5EB030C04BFB6EB020C5FEA500C50F1B8
:1089B800000041EB045170BD0EF0004E4EEA11313B
:1089C80014EB5C04C2BFD4EB0C0541EA045170BD42
:1089D80041F480114FF0000E013C90E645EA060E86
:1089E8008DE60CEA135594EA0C0F08BF95EA0C0FB4
:1089F8003FF43BAF94EA0C0F0AD150EA01347FF4FC
:108A080034AF95EA0C0F7FF425AF104619462CE7D2
:108A180095EA0C0F06D152EA03353FF4FDAE104635
:108A2800194622E750EA410618BF52EA43067FF486
:108A3800C5AE50EA41047FF40DAF52EA43057FF416
:108A4800EBAE12E74FF0FF3C06E000BF4FF0010C21
:108A580002E000BF4FF0010C4DF804CD4FEA410C85
:108A68007FEA6C5C4FEA430C18BF7FEA6C5C1BD052
:108A780001B050EA410C0CBF52EA430C91EA030FD3
:108A880002BF90EA020F0020704710F1000F91EA30
:108A9800030F58BF994208BF90422CBFD8176FEAFE
:108AA800E37040F0010070474FEA410C7FEA6C5CCC
:108AB80002D150EA013C07D14FEA430C7FEA6C5CD3
:108AC800D6D152EA033CD3D05DF8040B704700BFFF
:108AD8008446104662468C461946634600E000BF4D
:108AE80001B5FFF7B7FF002848BF10F1000F01BD1F
:108AF8004DF808EDFFF7F4FF0CBF012000205DF8EA
:108B080008FB00BF4DF808EDFFF7EAFF34BF01206E
:108B180000205DF808FB00BF4DF808EDFFF7E0FF07
:108B280094BF012000205DF808FB00BF4DF808ED58
:108B3800FFF7CEFF94BF012000205DF808FB00BFBF
:108B48004DF808EDFFF7C4FF34BF012000205DF8A1
:108B580008FB00BF4FEA410C7FEA6C5C02D150EA87
:108B6800013C0AD14FEA430C7FEA6C5C02D152EA1D
:108B7800033C02D14FF0000070474FF001007047EE
:108B88004FEA410212F5001215D211D56FF478732D
:108B9800B3EB625212D94FEAC12343F0004343EAD0
:108BA800505311F0004F23FA02F018BF40427047AB
:108BB8004FF00000704750EA013005D111F0004035
:108BC80008BF6FF0004070474FF00000704700BFCB
:108BD8004FEA4102B2F1E04324BFB3F5001CDCF1D7
:108BE800FE5C0DD901F0004C4FEAC0024CEA50700F
:108BF800B2F1004F40EB830008BF20F0010070473E
:108C080011F0804F21D113F13872BCBF01F0004040
:108C1800704741F480114FEA5252C2F11802C2F172
:108C2800200C10FA0CF320FA02F018BF40F00100F3
:108C38004FEAC1234FEAD32303FA0CFC40EA0C00A5
:108C480023FA02F34FEA4303CCE77FEA625307D1E2
:108C580050EA01331EBF4FF0FE4040F44000704719
:108C680001F0004040F0FE4040F40000704700BFB3
:108C780080F0004002E000BF81F0004142001FBFC9
:108C88005FEA410392EA030F7FEA226C7FEA236CD2
:108C98006AD04FEA1262D2EB1363C1BFD2184140C7
:108CA80048404140B8BF5B42192B88BF704710F05D
:108CB800004F40F4000020F07F4018BF404211F000
:108CC800004F41F4000121F07F4118BF494292EA68
:108CD800030F3FD0A2F1010241FA03FC10EB0C0094
:108CE800C3F1200301FA03F100F0004302D5494221
:108CF80060EB4000B0F5000F13D3B0F1807F06D3CE
:108D080040084FEA310102F10102FE2A51D2B1F1C5
:108D1800004F40EBC25008BF20F0010040EA0300BA
:108D28007047490040EB0000013A28BFB0F5000F3A
:108D3800EDD2B0FA80FCACF1080CB2EB0C0200FAF0
:108D48000CF0AABF00EBC25052421843BCBFD0403F
:108D58001843704792F0000F81F4000106BF80F4B9
:108D680000000132013BB5E74FEA41037FEA226C7C
:108D780018BF7FEA236C21D092EA030F04D092F047
:108D8800000F08BF0846704790EA010F1CBF00207B
:108D9800704712F07F4F04D1400028BF40F00040D8
:108DA800704712F100723CBF00F50000704700F0F8
:108DB800004343F0FE4040F4000070477FEA22621F
:108DC80016BF08467FEA23630146420206BF5FEAF0
:108DD800412390EA010F40F4800070474FF00003F0
:108DE80004E000BF10F0004348BF40425FEA000CB7
:108DF80008BF704743F0964301464FF000001CE05F
:108E080050EA010208BF70474FF000030AE000BFB4
:108E180050EA010208BF704711F0004302D54042F2
:108E280061EB41015FEA010C02BF84460146002064
:108E380043F0B64308BFA3F18053A3F50003BCFA7F
:108E48008CF2083AA3EBC25310DB01FA02FC63442C
:108E580000FA02FCC2F12002BCF1004F20FA02F233
:108E680043EB020008BF20F00100704702F1200226
:108E780001FA02FCC2F1200250EA4C0021FA02F287
:108E880043EB020008BF20EADC70704753B94AB9C7
:108E9800002908BF00281CBF4FF0FF314FF0FF30FA
:108EA80000F02AB8ADF1080C6DE904CE00F05DF8C9
:108EB800DDF804E0DDE9022304B07047D0B50022F4
:108EC8000B4B06460F46FFF7ABFB00F017F80446BE
:108ED800FFF72CFB0022074BFFF7A2FB02460B46CD
:108EE80030463946FFF7E4F900F008F82146D0BDCE
:108EF8000000F03D0000F041704700BF4A0011D269
:108F080012F5001211D20DD56FF47873B3EB6252DB
:108F18000ED44FEAC12343F0004343EA505323FAE7
:108F280002F070474FF00000704750EA013002D15C
:108F38004FF0FF3070474FF00000704738B50022FF
:108F4800002304460D46FFF7DDFD28B920462946D3
:108F5800BDE83840FFF7B2BF204605F10041FFF7F2
:108F6800ADFF404261EB410138BD2DE9F04786462F
:108F78008C460846089E154674461946002B40F054
:108F8800C1808542B2FA82F245D94AB1C2F12003C2
:108F980000FA02FC954094402EFA03F343EA0C0CC5
:108FA8004FEA154EA8B2230CBCFBFEF80EFB18CCFA
:108FB80008FB00F943EA0C43994528D9EB1808F156
:108FC800FF3704D2994502D9A8F102072B44A3EB35
:108FD8000903A4B2B3FBFEFC0EFB1C330CFB00F030
:108FE80044EA0344A04214D92C190CF1FF3304D2EB
:108FF800A04202D9ACF102032C44241A43EA0740E8
:109008001EB1D440002334607360BDE8F087474642
:10901800DDE76346F1E792BB431B01214FEA154E9A
:10902800AFB2200CB3FBFEFC0EFB1C330CFB07F8A5
:1090380040EA0343984561D9EB180CF1FF3004D29C
:10904800984502D9ACF102002B44A3EB0803A4B263
:10905800B3FBFEFC0EFB1C330CFB07F744EA03448E
:10906800A7424DD92C190CF1FF3304D2A74202D9DB
:10907800ACF102032C44E41B43EA0040C0E7C2F110
:1090880020039540944020FA03F12EFA03F34FEAA7
:10909800154E9040AFB20343B1FBFEFC0EFB1C1013
:1090A800190C0CFB07F841EA0041884522D96918D8
:1090B8000CF1FF3004D2884502D9ACF102002944F2
:1090C800A1EB08019BB2B1FBFEFC0EFB1C110CFBD3
:1090D80007F743EA01439F420ED9EB180CF1FF3121
:1090E80004D29F4202D9ACF102012B44DB1B41EAB6
:1090F800004193E76046E3E76146F7E76046A4E787
:109108006346B8E7834206D916B9002108467CE7CA
:10911800C6E900E0F9E7B3FA83F78FB9834201D3D0
:10912800724508D8BEEB020460EB030301209C469D
:109138001EB9002169E73846FAE7C6E9004CF8E7A6
:10914800C7F1200CBB400EFA07F522FA0CF42EFAF0
:109158000CF1BA401C4320FA0CF3B8404FEA14490A
:1091680001431FFA84FEB3FBF9F809FB18300B0C16
:1091780008FB0EFA43EA00439A4540D9E31808F180
:10918800FF3004D29A4502D9A8F102002344A3EB88
:109198000A0389B2B3FBF9F809FB183308FB0EFE82
:1091A80041EA03418E452CD9611808F1FF3304D2F6
:1091B8008E4502D9A8F10203214443EA0040A1EBFD
:1091C8000E01A0FB02984145CE46434602D306D184
:1091D8004D4504D20138B9EB020E68EB0403002EAA
:1091E800A7D0B5EB0E0261EB030101FA0CFC22FAE1
:1091F80007F3F9404CEA0303C6E9003199E7404612
:10920800C5E74346D9E710F8012B11F8013B012ABD
:1092180028BF9A42F7D0D01A7047034613F8012B9B
:10922800002AFBD1181A013870470000000000001E
:109238002DE9F04706460C4692B0002900F0BD80A3
:109248000F68002F00F0B9808D68D1F8048005F10F
:109258000409C1450AD80422AB4978192DF0F4FA5B
:10926800A8B90423F360A36804331DE06B1D984577
:1092780010D2454580F0A1807B5D7819222B24D13E
:109288002146304612B0BDE8F04703F0BDBE6B1D65
:1092980098450ED305229D4978192DF0D5FA30B995
:1092A8000123F360A36805330120A36086E0C1456C
:1092B800DFD80422964978192DF0C6FA0028D8D1AB
:1092C8000223F36001237361CDE72D2B03D0A3F1B3
:1092D8003002092A53D800230DF1080C67464FF0D5
:1092E800010EA8EB0505DFF82C82019310F8012B7D
:1092F800452A3CD82A2A10D9A2F12B01C9B20EFA64
:1093080001F111EA080F01D12E2A06D101333F2BB2
:109318000CF8012B01D0AB42E8D1002548336B444F
:10932800384601A903F8405C23F050FDDDF804A09D
:109338008046BA45894640D071A3D3E90023FFF798
:10934800F5FBB0B9002240464946734BFFF7E4FBF2
:1093580090B940464946FFF713FC0823C6E9068939
:109368007061F360A368AAEB070A53449CE7652A77
:10937800CBE76FF00040F0E74FF00040EDE75B2BE4
:1093880058D1D4F80C90B9F57A7F16D209F10103B7
:10939800E3607B5D5B2B10D101352046A56025F08D
:1093A800FAFCA368984506D9FA5C5D2A09D100271A
:1093B800C4F80C9036E0013BA360002012B0BDE871
:1093C800F08700252F46013BA360206925F0FAFCB1
:1093D800A8460546002800F0A3804FB3C8F800004F
:1093E800C0F80480A36820460133A36025F0D3FCAD
:1093F80021462846FFF71CFF002800F091802046F0
:1094080025F0C9FCD4E90123934280F08C802268BE
:10941800D35C2C2BD9D05D2B40F08580E368013BD1
:10942800E3607D602023C6E90273A36801333BE74C
:109438000746D7E77B2BC0D1D4F80C90B9F57A7FD3
:10944800BBD209F10103E3607B5D7B2BB5D101350C
:109458002046A56025F09FFCA3689845ABD9FA5C27
:109468007D2A03D10027C4F80C9047E000252F4639
:10947800A846013BA360206925F0A4FCA94605463F
:1094880000284DD0002F49D0C9F80000C0F804903A
:10949800A36820460133A36025F07DFC21462846B9
:1094A80003F0B2FD00283BD0204625F074FC2B6960
:1094B800C5F810802B62D4E90123934230D2226888
:1094C800D25C3A2A2CD101332046A36025F063FCF4
:1094D80021462846FFF7ACFE10B3204625F05BFC7A
:1094E800D4E9012393421ED22268D35C2C2BC2D02C
:1094F8007D2B18D1E368013BE3607D60402392E750
:109508000000C0FFFFFFDF41289A03002D9A0300E7
:10951800339A0300E57F00040000E0C10746B7E77F
:10952800002F3FF44AAF384603F0A2FE45E700BFDC
:109538002DE9F04188B06B4D00AFD5F860319968DE
:1095480011F001011DD140F603403A1D0AF084FFD5
:109558000446002840F0C0807C68E3681B786BB93B
:109568000CF056FC05F1D403D3E8AF2F02F0090242
:10957800D3E8EF1FC3E8E02F0028F9D1204614F004
:1095880001FE002141F203003A1D0AF065FF04467E
:10959800002840F0A1807B68534EDA68D2F80100B9
:1095A800D2F8051003C6184614F0ECFD214641F226
:1095B80001003A1D0AF050FF0446002840F08C8054
:1095C8007868C3685A7885F870205A88A5F8722098
:1095D8001A7985F87120B3F80720A5F87420B3F834
:1095E8000530A5F8763014F0CDFD214641F2020091
:1095F8003A1D0AF031FF044600286DD1D7F804C09F
:10960800DCF80C20531C413234461868596808337A
:1096180003C493422646F7D1604614F0B3FD0CF01C
:1096280035FE0446002857D195F88A3099061CD48F
:109638002E4B4FF48451FB6102232D48BB6107F187
:10964800180227F06BFC95F87C305A0654D4294B45
:109658004FF48251FB6102232548BB6107F11802D0
:1096680027F05CFC6FF0120436E0072140F6334027
:109678000AF0A4FE0646002800F04B8107210C30B2
:1096880014F006FF13234FF0010803700623C0F8F7
:10969800024084710471224680F80180C37031460B
:1096A80040F633400AF0D8FE0446A8B9414640F6D1
:1096B80031400AF083FE0646002800F02A81414620
:1096C8000C3029F05FFD2246314640F631400AF061
:1096D800C3FE04460028B6D020462037BD46BDE864
:1096E800F08100BF80C50020F8C50020B2BE03008D
:1096F800F0780300E0BE0300002142F2030007F106
:1097080008020AF0A9FE04460028E5D1BB68AC4E61
:10971800DA68D2F80100D2F8051003C6184614F02A
:1097280031FD214642F2020007F108020AF094FED8
:1097380004460028D0D1BC68E368B3F8012091B290
:1097480049B1D97839B1A5F80421DA78114606F17A
:1097580028002CF009FD204614F014FD95F87C60D3
:1097680016F0200618D1022140F66D400AF026FEB8
:109778000446002800F0CD8002210C3014F088FE49
:109788000123214603704670324640F66D400AF0C8
:1097980063FE044600289FD195F89C301B0713D51B
:1097A800002142F21C0007F108020AF055FE0446A7
:1097B800002891D1B868C368D3F80120D3F80530E0
:1097C800C5E9382314F0DEFC95F8D8309E0622D57A
:1097D800391DB81C0AF0C0FE044600287FF47CAF8F
:1097E800042142F224000AF0E9FD0646002800F0B0
:1097F800908004210C3014F04BFE7B8822460380B5
:10980800BB883146438042F224000AF025FE044614
:1098180000287FF461AF95F8D8305C0611D5002197
:1098280042F22A0007F108020AF016FE0446002850
:109838007FF452AFB868C3685B7885F8203114F0BC
:10984800A1FC082142F201000AF0B8FD04460028F4
:109858005FD008210C3014F01BFE95F8D81040F2A8
:10986800022311F0400F08BF0323024688074CBFAC
:1098780043F02C0043F00C008B0695F8D93048BF14
:1098880040F0400013F0090F95F8A23018BF40F4DB
:10989800006003F00603CE0748BF40F01000062B17
:1098A80008BF40F4C070002127F043FB2146002286
:1098B80042F201000AF0D0FD044600287FF40CAF04
:1098C80095F87C30B5F80411980625D4D1B941F241
:1098D800050007F108020AF0BFFD044600287FF4DE
:1098E800FBAEB5F80431BC684BB9E368B3F80120A6
:1098F800A5F804219A88334811462CF035FC2046F7
:1099080014F040FC082140F601400AF057FD0446D7
:1099180090B96FF06804DFE60029F3D12A4B4FF4C1
:109928008251FB6102232948BB6107F1180227F025
:10993800F5FA6FF00404CFE608210C3014F0A8FD06
:1099480095F8D8300246D90730D44FF00051204856
:1099580027F0EFFA2146002240F601400AF07CFD8C
:10996800044600287FF4B8AE01463A1D4FF6014080
:109978000AF072FD80B3174BFB6102234FF4845148
:109988001248BB6107F1180227F0C8FA27F02BFC30
:10999800044600287FF4A0AE0DF054FF04460028CA
:1099A8007FF49AAE0BF01CFD044695E602A1D1E9BE
:1099B8000001CDE7AFF3008090880002008000200E
:1099C80058C6002088C6002004BF0300F0780300B2
:1099D8001088000227BF03007B686D46DC688AB0E8
:1099E800B4F80130032B96BF424A434952F823107A
:1099F8006A46D3614FF4007340481384404BC2E970
:109A0800050142F8103F4FF413513E4827F086FAFB
:109A1800B4F80120AD46022AB4F8033048D1032B2C
:109A280046D8394A52F823106D468AB06A46D3613F
:109A38004FF4007335481384314BC2E9050142F8ED
:109A4800103F4FF413512F4827F068FAAD46637959
:109A5800A679032B98BF2E4AB4F80750D4F809000A
:109A68006C468CB094BF52F8231023496A46C2E969
:109A780007364FF40073DFF89CC09385264BC2E984
:109A880005C1C2E909504FF4735142F8103F1D480F
:109A980027F044FAA546786814F074FB00214FF6C5
:109AA80002403A1D0AF0D8FC044618B11B4B63E784
:109AB8001149B9E778681A4DC368B3F80130A5F8B9
:109AC800C13014F05FFB95F8C1305B077FF55EAFDE
:109AD80021464FF603403A1D0AF0BEFC08B1114B6F
:109AE8004AE77868C3685B7885F8C03014F04AFBA9
:109AF8004CE700BFF07F03000AB903004BBF030027
:109B080004000001F0780300E07F030064BF030055
:109B1800D07F03007CBF030007000001A9BF03003A
:109B280080C50020D2BF03000023F0B58DB000AF80
:109B3800C7E9043304230D4606467B60002800F07D
:109B4800E080002900F0DD80062107F110002BF0ED
:109B58009AF9044690B16D4688B06A466C4B4FF44A
:109B6800C251C2E9053003236A4842F8103F2BF07E
:109B7800DAFAAD4620463437BD46F0BD014607F156
:109B8800100230462BF07CF9044698B16D4688B037
:109B98006A46614BC2E9053403234FF4C2515D485C
:109BA80042F8103F2BF0BFFAAD4607F110002BF03A
:109BB8007DF9DFE73A46012107F110002BF02AFA78
:109BC800044620B16D4688B06A46544BE2E73C68CB
:109BD800ACB1042C18D0052C0CBF0923FF232B7023
:109BE80003213B1D07F1080207F110002BF040FA92
:109BF800044658B16D4688B06A46494BCAE7002307
:109C08002C706B60AB60B5E70723E8E77B6801461B
:109C180030333B4403F8280C022207F1080023F0F4
:109C280079FA2B78C0B2072B25D0092B15D10F282C
:109C380042D96C4688B06A463A4B53616FF01503B7
:109C4800936103234FF4C251324842F8103F2BF07E
:109C58006AFAA5466FF01504A7E7334B4FF4845111
:109C6800FB6202232B4807F12802BB626FF07F04D6
:109C78002BF059FA99E70F28DBD82C4B2C4E33F8E8
:109C88001000F0B1FEF762FC1FA3D3E90023FEF732
:109C9800C7FCFEF79DFF042168607B1807F10802E6
:109CA80007F1100079602BF0E3F9044658B16D46CE
:109CB80088B06A461F4B6DE71F4B204E33F81000E3
:109CC800DFE71F48E7E77B68014630333B4403F88A
:109CD800280C022207F1080023F01CFAC0B20F2852
:109CE80006D96C4688B06A46164BC2E90530A8E723
:109CF8000130C0B2FFF776F83146FEF721FAA860C6
:109D080053E76FF0150435E77B14AE47E17A24403A
:109D18006EFA03009879030097FA0300C3FA030068
:109D2800E5FA030039FB030011FB0300FC8A03007A
:109D38000AD7A33F5DFB0300DC8A03000AD7234050
:109D48000AD7A34088FB03002DE9F04F1F469DB0BA
:109D580000230C4682460E9218934FF00008974B4A
:109D68004FF000091D682846FFF757FA2246834638
:109D7800179213782B2B3BD02CD80D2B26D8082BD9
:109D880026D8002B2FD000230C93179E3378302B26
:109D980072D1737803F0DF03582B63D10C9B17A99A
:109DA800874A5046019318AB0297009319AB23F0EA
:109DB80019FA10F00705044635D0062D1AD10E9B66
:109DC8000BB101361E604046494637E0202BDAD1F8
:109DD8000132CDE72D2BD6D101230C93531C1793B9
:109DE8005378002BD1D10E9B002BECD01C60EAE7F6
:109DF8000023F2E7189A3AB135211AA82DF01BF87A
:109E08001899504623F080FC013D199A042D06D874
:109E1800DFE805F0170320231700DDE91A89210779
:109E280001D549F000490E9B13B1179B0E9A136098
:109E38000C9B002BC7D0404609F100411DB0BDE87E
:109E4800F08FDDE91A8302F2334223F4801343EAE8
:109E58000259E4E7DFF86C91E1E76FF000494FF051
:109E6800FF38DCE7179B5A1C17925B78302BF9D028
:109E7800002BD8D0012300E00023002704930A22F6
:109E8800179BCDE905770A9317980678A6F1300352
:109E9800D9B2092924D95A4629462CF0D5FC0028DC
:109EA8002DD000203246059D83460346652A01D001
:109EB800452A13D11DB9049A024394D00025179C52
:109EC800621C179262782B2A6ED02D2A72D04FF01E
:109ED800000CA2F1300109297AD91794002699E0DB
:109EE8000599013008291790D7BF069902FB073753
:109EF80002FB01330693059B01330593C4E7179BC7
:109F080003EB0B02179213F80B20059BA3B38346B0
:109F18001D46A2F13003092B12D90123C6E7179B6E
:109F280001305A1C17925A78302AF8D0A2F131031E
:109F3800082B00F2EA8483460020179B05460A9303
:109F4800303A00F1010311D09B4400EB050C2B467D
:109F58000A21634512D12B180135082B054419DC59
:109F680006990A2303FB012306930023179A184630
:109F7800511C17915278CCE70598D5E7082B03F1C7
:109F8800010303DC069E4E430696E2E7102BD8BF7A
:109F98004F43DEE70F2BDCBF0A2303FB0727E4E769
:109FA8004FF0000B012386E74FF0000CA21C17921C
:109FB800A2788EE74FF0010CF8E700BF648A03002F
:109FC8004C8A03000000F07F179A511C17915278B1
:109FD800302AF9D0A2F1310108293FF67FAF303A93
:109FE8000792179A0D92179A561C17965278A2F153
:109FF800300EBEF1090F38D90D99761A082E44F69D
:10A008001F6603DC07998E42A8BF0E46BCF1000FFD
:10A0180000D07642002D4FD1049908437FF403AF56
:10A02800002B7FF4E0AE692A29D026DC492A26D005
:10A038004E2A7FF4D8AE9D4917A82CF0A1FD002820
:10A048003FF4D1AE179B1B78282B2FD11AAA984919
:10A0580017A82CF0A9FD052828D11B9BDDF86880DE
:10A0680043F0FF4949F4E009DDE6079E0A2101FBB8
:10A078000621A1F130020792B5E76E2AD9E78D498A
:10A0880017A82CF07DFD00283FF4ADAE179B17A84C
:10A098008949013B17932CF073FD10B9179B0133C5
:10A0A8001793DFF818924FF00008BCE6844824F0B4
:10A0B8009BFA80468946B6E6A6EB0B0306982C4623
:10A0C8000F93059B002B08BF2B46102D0593A8BFA7
:10A0D8001024FEF72BFA092D8046894614DCA6EBDE
:10A0E8000B03002B3FF49FAEA6EB0B0379DD162B79
:10A0F80045DC0F9B4246734901EBC3014B46D1E94E
:10A108000001FEF78DFAD4E76E4B03EBC40353E965
:10A118001223FEF785FA804689463846FEF706FA86
:10A1280002460B4640464946FEF7C4F80F2D8046C6
:10A138008946D4DD2C1BA6EB0B031C44002C26DC23
:10A1480000F0A380644214F00F020AD05D4B404631
:10A15800494603EBC203D3E90023FEF78BFB804695
:10A168008946241100F091801F2C40F3B3802223EC
:10A178004FF000084FF00009CAF8003053E6C5F167
:10A188002503A6EB0B02934219DA2C1B144414F096
:10A198000F030AD04B49424601EBC3014B46D1E9B4
:10A1A8000001FEF73DFA8046894634F00F046CD072
:10A1B800B4F59A7F41DD2223CAF8003071E7C5F172
:10A1C8000F05404C42464B4604EBC501D1E900015E
:10A1D800FEF726FA0F9B5D1B04EBC504D4E90023A8
:10A1E8008FE71633A6DBABEB0602364B40464946F3
:10A1F80003EBC203D3E90023FEF73CFB59E7002336
:10A2080006932223DFF8B4904FF00008CAF8003014
:10A218001899504623F078FA0699504623F074FAB4
:10A228000599504623F070FA1099504623F06CFABD
:10A238000799504623F068FAF5E5002324114046B3
:10A248004946214F0493012C22DC0BB180468946F4
:10A25800049BA9F154791C49424601EBC3014B46C2
:10A26800D1E90001FEF7DCF9144B0A4680460B40A1
:10A2780016498B429FD8A1F580118B4286BFDFF823
:10A2880050904FF0FF3802F15479002304934CE0CA
:10A29800E20704D5D7E90023FEF7C2F90123049A9F
:10A2A8006410083701320492CDE700BFC4C9030027
:10A2B800388A0300D2A30300332004000000F07F93
:10A2C800EAA40300987C0300707C03000000A07CD3
:10A2D800FFFFEF7F14F0100340464946AB4F18BF0D
:10A2E8006A2304930023E20704D5D7E90023FEF785
:10A2F80097F90123641007F10807F4D10BB18046E0
:10A308008946049B43B1C9F30A524946C2F16B031B
:10A31800002B50DC6A230493002200234046494660
:10A32800FEF7E6FB00287FF422AF069B5046059A0D
:10A3380000932B460A9923F051FA109000283FF415
:10A348003AAF0F9BABEB060B002BB4BF5B46002369
:10A3580011930F9B23EAE373149300230793059348
:10A36800109B5046596823F08FF9069000283FF457
:10A3780048AF109B0C301A6903F10C0102329200AD
:10A388002CF0CEF81AAB42465046019319AB009315
:10A398004B46CDE90A8923F0F1FC189000283FF4D8
:10A3A80030AF0121504623F063FA03460590D0B937
:10A3B8000023059325E71F2B0EDD342B4FF00008F3
:10A3C800DBBF4FF0FF33C2F14B024FF05C79934093
:10A3D800D8BF03EA01099DE74FF0FF3202FA03F301
:10A3E80003EA080896E7199C1A9A002CA9BF119B42
:10A3F800149BE718149EB8BF1E1B049BB8BF119F7F
:10A40800E41A634B1444C2F13602013C9C4280F2C8
:10A41800B0801B1B01251F2BA2EB0302CDBFC4F18B
:10A428007F449D40002404F57F04C2BF04F57B44AB
:10A43800E23405FA04F407EB020B049B16445F456B
:10A448001E443B46A8BF5B46B342A8BF3346002B19
:10A45800C2BFABEB030BF61AFF1A119B002B16DDDC
:10A468001A460599504623F0C3FA059000289FD054
:10A478000146189A504623F011FA0D9000283FF42F
:10A48800C0AE1899504623F03FF90D9B1893BBF1C5
:10A49800000F71DC0F9B002B08DD149A50460699BB
:10A4A80023F0A6FA069000283FF4A9AE002E08DD96
:10A4B80032460699504623F0F5FA069000283FF4F4
:10A4C8009EAE002F08DD3A460599504623F0EAFA79
:10A4D800059000283FF495AE069A5046189923F047
:10A4E8004DFB079000283FF48CAEC36805990D9387
:10A4F8000023C3602CF054FC00284BDA0D9B53EA70
:10A50800080340F0BC80C9F31303002B40F0B78068
:10A5180029F000431B0D1B05B3F1D66F40F2AF8045
:10A52800079B5B6923B9079B1B69012B40F3A78035
:10A5380001220799504623F0B5FA059907902CF0A7
:10A548002FFC002840F39B8029F00043049A1B0D40
:10A558001B05002A79D0B3F1D66F6DD8B3F15C7FB3
:10A5680046D84FF000084FF000092223CAF80030FF
:10A578004EE6002401255EE75A461899504623F016
:10A5880091FA1890002885D13BE600BF487C03006B
:10A5980002FCFFFFCB4640F0A3800D9AC9F31303DA
:10A5A800002A40D0964A934258D1049B42467BB930
:10A5B800B8F1FF3F40F08980924B99453FF421AEB6
:10A5C800914BDDF8108009EA030303F580191FE6B3
:10A5D8008D4B09EA0303B3F1D46F16D918F10101C1
:10A5E8001BD1884A91453FF40CAE03F5801980468B
:10A5F800864B404649460022FEF712F80B46804635
:10A60800894603437FF404AEAFE71E0D4FF0FF31D8
:10A61800C6F16B06B1408845E7D0002C5ED014EA3D
:10A628000B0FE5D01EE0002B4AD1B8F1000F8BD0FC
:10A6380064B314EA0B0F2BE0A3F580134FF0FF3837
:10A648006FEA13596FEA0959D2E7A3F580134FF05F
:10A65800FF386FEA13596FEA0959D9E59CB114EA32
:10A66800090F0CD0049A404649462CF034F90246AA
:10A678000B46DDE90A01FDF71DFE80468946049B6D
:10A68800002BB5D1C4E515EA080FEAE718EA050F6B
:10A69800F5D0049A404649462CF01DF902460B466F
:10A6A800DDE90A01FDF704FE0022002304460D46F9
:10A6B800FEF71EFA00287FF454AFA046A946DEE74D
:10A6C800002CB6D115EA080FE2E724B114EA090F05
:10A6D8003FF49EADC6E718EA050FF9E72A42A0E75E
:10A6E800059907982CF077FB00224FF08043044629
:10A6F8000D46FEF711FA00286DD00D9B002B78D17E
:10A70800B8F1000F56D1C9F31303002B59D1002219
:10A718003F4B20462946FEF7F5F9002858D1204638
:10A72800294600223B4BFDF77BFF04460D4605F109
:10A73800004308940993344B334A0BEA03030BEAAA
:10A7480002021593344B9A42DDE9086740F09E8077
:10A75800ABF154794046494623F0A6FADDE90823CF
:10A76800FDF75EFF42464B46FDF7A4FD0B46264922
:10A7780080462A4A1940914254D90B9A214B9A4251
:10A7880003D10A9B01333FF43CADDFF878904FF0DA
:10A79800FF381899504622F0B7FF0699504622F024
:10A7A800B3FF0599504622F0AFFF0799504622F0B3
:10A7B800ABFFD5E5B8F1010F03D1B9F1000F3FF4B4
:10A7C800D0AE174C0023124DCDE908340024B2E76F
:10A7D8000024104DABE70F4B204629460022FDF719
:10A7E8001FFF0D9B04460D46002BA0D0CDE9084560
:10A7F800A1E7074C00232546CDE908341C469AE713
:10A80800FFFF0F00FFFFEF7F0000F07F00005039CF
:10A818000000F03F0000E03F0000E07FFFFF9F7C6A
:10A828000000F0BF03F15479049B4E46002BB0D1D1
:10A8380029F00043159A1B0D1B059A42A9D1204601
:10A848002946FEF77BFBC9F31306FDF7BBFE0B4653
:10A8580002462946204646EA0806FDF729FD0D9BD3
:10A8680004460D461E434AD02DA3D3E90023FEF724
:10A8780049F900287FF4CCAC204629462AA3D3E91D
:10A888000023FEF75DF9002883D0C1E4049B13B3CD
:10A89800159BB3F1D46F1ED82046294624A3D3E9CB
:10A8A8000023FEF739F990B129462046FEF726FB2A
:10A8B800012838BF0120FDF739FE0D9B04460D46DF
:10A8C800D3B901F1004312901393DDE9126707F140
:10A8D800D663159A9F1ADDE90A0123F0E5F90246C5
:10A8E8000B4630463946FDF79BFEDDE90A23FDF7A6
:10A8F800E1FC8046894697E7CDE91245E5E70EA3D6
:10A90800D3E90023FEF7FEF8BDE7652A3FF448AB1C
:10A91800452A3FF445AB0123FFF77EBBAFF3008028
:10A928009535A094FFFFDF3F35E5AF350000E03FE8
:10A938000000C0FFFFFFDF419535A094FFFFCF3F28
:10A948002DE9F04F144697B01D46476A8346239E6B
:10A95800CDE904457FB9102021F0D4FD0246CBF89B
:10A96800240020B9A24BEA21A24823F043FEC0E903
:10A9780001770760C760DBF82430196859B15A6855
:10A988000123584693404A608B6022F0BDFEDBF8F5
:10A99800243000221A602B1EB7BF23F00043002387
:10A9A80001220593A8BF3360059F934BB8BF32605F
:10A9B800BB4319D142F20F73229A1360C7F31303F2
:10A9C800234300F0E085249B53B98C4B21E08C4B4A
:10A9D80008930833249A1360089817B0BDE8F08FDD
:10A9E800864B08930333F5E7DDE90423CDE90C230F
:10A9F800DDE90C0100220023FEF77AF8804650B109
:10AA08000123229A1360249B13B17E4B249A13606E
:10AA18007D4B0893E0E714ABC7F30A5658460193F9
:10AA280015AB0093DDE90C2323F0A8F90390002E61
:10AA380078D00D9BA6F2FF36CDF84C80C3F31303F4
:10AA480043F07F53DDE90C0143F44013194600221B
:10AA58006E4BFDF72DFC60A3D3E90023FDF7E0FD65
:10AA68005FA3D3E90023FDF725FC04460D463046D5
:10AA7800FDF76CFD5CA3D3E90023FDF7D1FD024689
:10AA88000B4620462946FDF715FC04460D46FEF701
:10AA980077F800220746002320462946FEF732F8B9
:10AAA80040B13846FDF752FD22462B46FEF720F806
:10AAB80000B9013F162F54D8554B03EBC703DDE906
:10AAC8000C01D3E90023FEF71DF800284BD0013F05
:10AAD80000231293149B9B1B5A1E4CBFC3F1010306
:10AAE80000230A9245BF0693002306930A93002F7A
:10AAF8003BDB0A9B0F973B440A9300230B93209B55
:10AB0800092B00F28980052BC5BF043B00240124D2
:10AB18002093209B023B032B00F28980DFE803F09F
:10AB28002D3A3859DDE914631E4406F23243202BCE
:10AB3800C9BFC3F14003C3F120039F4006F212438B
:10AB4800D8BF04FA03F006F1FF36C4BF24FA03F3B2
:10AB580047EA0300FDF7EAFC0122A1F1F87313921A
:10AB680074E70123B5E71290B4E7069BDB1B069355
:10AB78007B420B9300230F93C1E700230E93219B85
:10AB8800002B57DC012399461A46099321920CE0C1
:10AB98000123F3E700230E93219BFB1803F101091E
:10ABA80009934B46012BB8BF0123DBF82400002191
:10ABB800042202F114059D4240D94160584622F012
:10ABC80063FD089000283CD1124B02464FF4D57122
:10ABD800CAE60123DFE700BF61436F63A787D23F5F
:10ABE800B3C8608B288AC63FFB799F501344D33F74
:10ABF8003D200400542004000000F07F39200400A8
:10AC0800302004009FEA03009EEA03000000F83F9A
:10AC1800987C0300C8200400012400230E9420938C
:10AC28004FF0FF330022994609931223AEE7012320
:10AC38000E93F5E7219B99460993B6E70131520037
:10AC4800B7E7DBF82430B9F10E0F089A1A606FD80D
:10AC5800002C6DD0002F36DD07F00F02A04BF80551
:10AC680003EBC203D3E90034CDE910344FEA2714CB
:10AC780017D59C4B04F00F044FF00308D3E90823C1
:10AC8800DDE90C01FDF7F6FDCDE90401954D5CB950
:10AC9800DDE91023DDE90401FDF7ECFDCDE9040150
:10ACA8002BE04FF00208F1E7E10709D508F10108A8
:10ACB800DDE91001D5E90023FDF7B2FCCDE910016B
:10ACC80064100835E3E700F007817C42844B854D2A
:10ACD8004FF0020804F00F02241103EBC203DDE970
:10ACE8000C01D3E90023FDF79BFC0023CDE9040107
:10ACF800002C40F0E580002BD0D1129BDDE9044503
:10AD0800002B00F04C810022774B20462946FDF7A6
:10AD1800F9FE002800F04381B9F1000F00F03F81EF
:10AD2800099B002B00F3E480DDE90C34CDE9043401
:10AD3800159B002B02DB0E2F40F342820E9A002A4D
:10AD480040F067820B9C0025DDF81880B8F1000FF1
:10AD58000DD00A9B002B0ADD4345069AA8BF43463F
:10AD6800D21AA8EB030806920A9AD31A0A930B9BE5
:10AD78000BB30E9B002B00F0A682002C00F0A182E2
:10AD880029462246584622F033FE039A01460546D4
:10AD9800584622F083FD03990646584622F0B4FC33
:10ADA8000B9B1B1B0B9300F091820B9A3146584664
:10ADB80022F01EFE03900121584622F059FD0F9BF8
:10ADC8000446002B00F084821A460146584622F0B9
:10ADD8000FFE209B0446012B03DC049B002B00F094
:10ADE8007C820026236904EB830318692BF089FF12
:10ADF800C0F120000F960A9B184410F01F0000F0C5
:10AE08009182C0F12003042B40F38182C0F11C0021
:10AE1800069B0344804406930A9B03440A93069BBB
:10AE2800002B05DD1A460399584622F03BFE039095
:10AE38000A9B002B05DD21461A46584622F032FEB1
:10AE48000446129B002B00F07682214603982BF0D3
:10AE5800A7FF002880F26F8200230A220399584630
:10AE680022F074FC0E9B7E1E0390002B00F05C8287
:10AE7800002329460A22584622F068FC099B054609
:10AE8800002B03DC209B022B00F35E82B8F1000F3D
:10AE980005DD29464246584622F004FE05460F9B2A
:10AEA800002B00F0D0826968584622F0EDFB074677
:10AEB800002840F07F820D4B024640F2EA2153E51C
:10AEC800E20706D508F10108D5E90023FDF7A8FB3C
:10AED8000123641008350BE74FF002080DE700BFA7
:10AEE800987C0300707C03000000F03FC820040039
:10AEF80020460022AC4B2946FDF792FB7E1E08F146
:10AF08000108099CCDE904014046FDF71FFBDDE976
:10AF18000423FDF785FBA54B0022FDF7CBF9A1F132
:10AF28005073CDE910011193002C3BD10022A04BA6
:10AF3800DDE90401FDF7BCF902460B46CDE904231F
:10AF4800DDE91023FDF7FCFD002840F05781DDE91D
:10AF5800102101F10043DDE90401FDF7D3FD0028CC
:10AF68003FF4E2AE00242546219BDDF820A0DE4315
:10AF78004FF000082146584622F0C6FB002D00F08D
:10AF8800A980B8F1000F05D0A84503D0414658461E
:10AF980022F0BAFB2946584622F0B6FB9AE03E4614
:10AFA8004C46B1E7834B03EBC40353E90201089B0A
:10AFB8001C440E9B002B4AD002460B4600207E49BB
:10AFC800FDF758FCDDE91023FDF772F9DDF820A044
:10AFD800CDE91001DDE90401FDF7D2FD0546FDF7D5
:10AFE800B5FA024630350B46DDE90401FDF760F994
:10AFF8000AF8015B02460B46CDE90401DDE91001C0
:10B00800FDF79EFD002865D100206C49DDE9042389
:10B01800FDF74EF902460B46DDE91001FDF790FDFC
:10B02800002840F00D81A24500F0EA8000225E4B26
:10B03800DDE91001FDF7F4FA00225B4BCDE91001C0
:10B04800DDE90401FDF7ECFACDE90401C2E7DDE929
:10B058001023FDF7E5FAA046DDF820A0CDE91001A0
:10B06800DDE90401FDF78CFD0546FDF76FFA0246A0
:10B0780030350B46DDE90401FDF71AF90AF8015BE2
:10B0880002460B46A245CDE904234FF0000223D126
:10B09800494BDDE91001FDF70DF902460B46DDE9E4
:10B0A8000401FDF74DFD002840F0CA800020424908
:10B0B800DDE91023FDF7FCF802460B46DDE9040143
:10B0C800FDF720FD70B1C24608F1FF381AF8013CBF
:10B0D800302BF8D0374655E0334BFDF7A1FACDE9D0
:10B0E8000401BDE7DDE90C34CDE90434159B002BE0
:10B0F800FFF628AE0E2F3FF725AE2E4B03EBC70306
:10B10800D3E90034CDE90634219B002B02DAB9F1EA
:10B11800000F64D0DDF820A0DDE90445DDE9062351
:10B1280020462946FDF7A6FBFDF72AFD0646FDF752
:10B138000DFADDE90623FDF773FA0246204606F10B
:10B1480030040B462946FDF7B3F80AF8014B089C72
:10B1580002460B46AAEB0404A14540F08280FDF7A5
:10B16800A9F804460D46DDE90623FDF7E9FC0028A9
:10B1780065D120462946DDE90623FDF7B9FC08B16B
:10B18800F3075CD40399584622F0BEFA002301372E
:10B198008AF80030229B1F60249B002B3FF41CACD4
:10B1A800C3F800A018E400BF0000244000001C40C1
:10B1B80000001440987C03000000E03F0000F03FCE
:10B1C800A24B03EBC703D3E90034CDE90634219B36
:10B1D800002B9FDAB9F1000F9CDC7FF4C3AE00228C
:10B1E8009B4BDDE90601FDF71BFADDE90423FDF7BA
:10B1F8009DFC044600287FF4B5AE3E462546B4E0E3
:10B20800DDE90C34CDE90434159B002B01DB0E2F4E
:10B21800D6DD209A012A36DC139A82B303F233432F
:10B228000B9CDDF81880069A012158461A440692AC
:10B238000A9A1A440A9222F01BFB054686E53E4606
:10B2480053469A4613F8012D392A06D1089A9A428C
:10B25800F7D13022089901360A701A7801321A702B
:10B2680038E700227B4BFDF7DBF900220023044678
:10B278000D46FDF73DFC00283FF450AF82E7149BD4
:10B28800C3F13603CCE709F1FF340B9BA34208DB7B
:10B29800B9F1000FA3EB04040EDBDDF818804B4670
:10B2A800C1E70B9B0F9AE31A0B94DDF81880002472
:10B2B8001A444B460F92B6E7069BA3EB09080023F6
:10B2C800B1E7039E71E50B9A039970E5039672E561
:10B2D800209B012B17DC049BABB9059BC3F313031D
:10B2E8009BB9059B23F00046360D360536B1069B03
:10B2F8000126013306930A9B01330A930F9B002B07
:10B308007FF470AD0F96012075E50026F6E73FF44F
:10B3180086AD1C33069A1A44984406920A9A1A442F
:10B328000A927CE50346F4E7099B002B2BDC209B63
:10B33800022B09DC27E0B9F1000F1DDC209B022B52
:10B348001ADD3E46CDF82490099B002B7FF40CAE05
:10B3580021460522584622F0F9F901460446039889
:10B368002BF01EFD00287FF7FFADDDF820A031236C
:10B3780001360AF8013BFBE50E9B3E46CDF82490CA
:10B38800002B7FF483AD089F214603982BF0F3FA36
:10B39800089B00F13009099A07F8019BFB1A9A42A9
:10B3A80040F3CB8000230A220399584622F0CEF9B5
:10B3B8000390E9E72A6905F10C010C30023292008A
:10B3C8002BF0AEF801223946584622F06BFB089B59
:10B3D800A846054603F1010ADDE9082313440A9348
:10B3E800049B03F001030B930AF1FF3321460398F2
:10B3F80006932BF0C0FA4146099000F130090398F2
:10B408002BF0CEFC2A4621460746584622F0B6FBCA
:10B41800C268014602B3584622F076F9002F3ADA9C
:10B4280001220399584622F03DFB214603902BF058
:10B43800B7FC002803DC29D119F0010F26D0B9F197
:10B44800390F1DD132E02846C1E700BF987C0300C0
:10B4580000001440000024400E9003982BF0A0FC3C
:10B468000E990C90584622F04FF90C9A5ABB209B23
:10B4780053B90B9B43B9B9F1390F17D0002F05DD2C
:10B48800099B03F1310901E0002F2ADADDF818A041
:10B498000AF8019B6EE5209B3B4304D1049B03F013
:10B4A8000103002BBCD0B9F1390F36D1069F3923DF
:10B4B80007F8013BBA46013F1AF8013C392B5AD02C
:10B4C80001333B7056E5002F06DB209B3B4306D13A
:10B4D800049B03F0010313B9002AA1DCD6E7002A74
:10B4E800E1DC0A9B57460AF8019C53452ED00023FD
:10B4F8000A220399584622F029F9A84503904FF0EB
:10B5080000034FF00A02414658460BD122F01EF9BB
:10B51800804605460AF1010A66E7DDF818A009F138
:10B528000109B5E722F012F92946804600230A22CC
:10B53800584622F00BF90546ECE7099B4FF0000846
:10B54800002BCCBF1F460127089B1F4401220399EB
:10B55800584622F0A7FA214603902BF021FC002838
:10B56800A8DC02D119F0010FA4D1BA4617F8013DA1
:10B57800302BFAD0FEE4089BBB429BD13123089ABA
:10B5880001361370F6E4249B002B7FF420AA014BAC
:10B59800FFF73FBA30200400F8B502F1080323F0A2
:10B5A800070300AFADEB030D0546684614462AF0C5
:10B5B800B7FF00236E460DF804308AB06A46084B80
:10B5C800D661C2E90535074B4FF423511362064B88
:10B5D800064842F8103F23F0A0FBBD46F8BD00BF67
:10B5E8001C8B030000020103040000028879030099
:10B5F8002DE9F043B7B00B7806460C4616AF092B79
:10B6080000F2BF81DFE813F00A0048005500670127
:10B61800BD01BD01BD017401BD01B401CB694BB1D0
:10B628006C4688B016AAB649C2E90513032342F846
:10B63800103F4DE16D46B34B07F12802FB62022330
:10B648004FF48651BB62B04823F067FBAF4B07F15C
:10B65800180493E80700AE4B8AB084E807003C6002
:10B668007B6016AAAB4B4FF413515361AA4BA64803
:10B6780093613023D3614FF400731384A74B42F8CE
:10B68800103F23F04AFB3946AD46304628F0B7FA5A
:10B698008437BD46BDE8F0836C4688B0CB6916AAEE
:10B6A8009F49C2E9051303234FF4C65142F8103FDE
:10B6B8004DE06D4688B0C969636916AAD361042351
:10B6C8009848C2E905014FF403518F4842F8103FEA
:10B6D80023F023FBD4F81480AD46B8F1800F12D9BB
:10B6E800DFF8449249463046A8F1800228F034FB3E
:10B6F800051E31D032DBA8EB0508B8F1800FF1D870
:10B708006FF0790901E04FF000094246304686495A
:10B7180028F025FB054608BB237B012B06D1238B8C
:10B7280030463B8307F1180128F01BFAB9F1000FE6
:10B7380021D063696C4688B016AA7C49C2E9051312
:10B748008023D36104234FF4015142F8103F6E481F
:10B7580023F0E3FAA5469BE76FF00405237B012B52
:10B7680006D1238B30463B8307F1180128F0F9F9FD
:10B77800002DC0F2828062696B496D48FFF70CFFAB
:10B78800694823F03BFB054658B96A4B4FF4825190
:10B79800FB6202235C48BB6207F1280223F0BDFA72
:10B7A80076E7654923F02EFB064600285ED023F095
:10B7B8002CFB00285AD0D6F81080B8F1000F55D0CD
:10B7C800DFF8789140464946FDF71DFD064688B9E1
:10B7D80002234D484FF48651C7F82C90BB6207F1FD
:10B7E800280223F09AFA304629F01FFB284601F078
:10B7F8003FFD4DE7DFF8489140464946FDF703FD18
:10B80800064670B902234FF486513F48C7F82C907A
:10B81800BB6207F1280223F080FA304629F008FBC2
:10B82800E4E7002362697B76642A3A76BB7611D80E
:10B838003D4907F11B002AF073FE07F1180407F1D0
:10B848002801572268462AF06BFE94E80F0001F0A1
:10B8580059FBCBE73B4B07F110027B6102233B61AD
:10B868004FF48251284823F058FABFE7364B07F1C6
:10B878002802FB620223BB62F2E715F17A0F3FF45C
:10B8880058AF6C4688B016AA304B4FF4C251C2E983
:10B89800053503251C4842F8105F23F03EFAA546FB
:10B8A8002B4B1948FB6202234FF48651BB6207F108
:10B8B800280223F032FA304628F079F900283FF4BC
:10B8C800E7AE88B016AA234BC2E9053042F8105FEC
:10B8D8004FF4C2513BE7CB6923B16C4688B016AA36
:10B8E8001D49A1E66C4688B08B8816AA1B49D8E684
:10B8F800CB69BBB36C4688B016AA194994E600BF59
:10B90800218B0300398B030088790300F07A030048
:10B918000100D2044F8B0300698B0300040000016F
:10B928009A8B0300B78B0300A0EF0020D58B030090
:10B93800248C03002F8C03009A8C03004C8C03008A
:10B94800538C03005B8C0300888C03009E8C0300DF
:10B95800BE8C0300DB8C0300F48C03000A8D03000B
:10B968001F8D03006C4688B08B8816AA074998E695
:10B97800CB69002B3FF48CAE6C4688B016AA0449FC
:10B9880052E66C4688B016AA02498AE6358D03004D
:10B998004A8D0300628D03002DE9F0434FF02F0814
:10B9A80087B0DFF8689000AF064614461D46C7E921
:10B9B80003233972C7F80090C7F8048007F0E8FE3F
:10B9C800BB7D2A462146B88223F0030310486C4603
:10B9D800BB75FFF7E1FD8AB06A460E4BC2F81C80C2
:10B9E800C2E905394FF4007313840B4B4FF413511C
:10B9F80042F8103F094823F090F93946A5463046E9
:10BA080028F06BF81C37BD46BDE8F083808D030035
:10BA1800B08D0300BD8D0300040000018879030088
:10BA28002DE9F04F9DB002AF07F11808044627F042
:10BA3800FBFF5022002140462AF092FD0123424696
:10BA4800C7E90833002152483B1D24F0FFF805469A
:10BA580000B36C4688B002AA4E4B4FF4C251C2E9FB
:10BA6800053003234C4842F8103F23F056F9A54609
:10BA78004A4B6FF00905FB6202234FF48251464896
:10BA8800BB6207F1280223F048F928466C37BD4607
:10BA9800BDE8F08F4FF0080A7E68DFF804913E4851
:10BAA8002EB37369082B54D1B3693E495B680120F2
:10BAB8004B6045F6073308804B8007F108061023D2
:10BAC8003246043112F04EFEE94688B002AB364ADF
:10BAD8004FF4E651C3E905264FF400729A831A46DB
:10BAE800324B2D4842F8103F23F017F9CD467868BD
:10BAF80024F0AEF82B4B172163632D4B40462D4A9B
:10BB0800A3641BF089FB002836D06E4688B002AAD1
:10BB1800294B4FF4C251C2E9053003231E4842F8AD
:10BB2800103F23F0FAF8B5462448E062FDF775FBAC
:10BB3800042284F85E20224A0023E26480222149FC
:10BB4800C4E90E33C4E915122063226584F8243051
:10BB58009BE7EB468AB002AAC2E905931823136251
:10BB68000523C2F81CA04FF4215142F8103F23F0DE
:10BB7800D4F8DD46366892E787F827000F231421AA
:10BB8800114ACDF800800D4821F0ECF8CCE700BF51
:10BB9800D28D0300DE8D030088790300F58D030044
:10BBA800328E030050EF00201C8E030003000001BA
:10BBB800F9B50000558E03005D8E03008CEF002060
:10BBC800A0F0002020F000207E8E030070B5114DFB
:10BBD8001148124B29781B88027821F00C041C4369
:10BBE80082F0010264B2027043F307237AB11C4366
:10BBF800E4B28C4203D0204629F014F92C704FF49B
:10BC08008042BDE87040002305481EF0E1B924EAEF
:10BC18000304EDE721F1002020F1002068EF002067
:10BC280018D2002098B5012100AF5E230A4A0B48BC
:10BC3800FFF7B2FE70B16C4688B06A46084B4FF405
:10BC4800C651C2E905300323064842F8103F23F0E5
:10BC580073F8A546BD4698BD878E0300D8E100203D
:10BC6800E68E03008879030098B5037800AF1BB10E
:10BC7800032B1FD0BD4698BD037A012B18D0052B86
:10BC8800F8D1194B6C4688B06A4618491848C2E979
:10BC980005134FF400739383164B4FF4E65142F8A3
:10BCA800103F23F049F8A54613481DF0F9FCE1E7D9
:10BCB800124BE7E7017A124A124B6C4688B0012909
:10BCC80008BF13466A4610490948C2E905134FF4EC
:10BCD80000739383074B4FF4E65142F8103F23F06B
:10BCE8002BF8A546C6E700BF1A8F03003D8F030057
:10BCF800887903000300000140CF0020018F030072
:10BD08002E8F0300388F03005D8F0300F0B587B0D6
:10BD180000AF0224AD4B4FF48651AD487B6107F16B
:10BD280010023C6123F008F816F09CFC48B1A94BBE
:10BD38004FF48251C7E90443A54807F1100222F0E5
:10BD4800FBFF6D460224A44B4FF48651A0487B614B
:10BD580007F110023C6122F0EFFF15F091FBE0B112
:10BD680088B06A469D4B4FF4C251C2E9053003239F
:10BD780042F8103F964822F0DFFFAD46984B4FF44B
:10BD880082517B61022392483B6107F1100222F045
:10BD9800D3FF00201C37BD46F0BD924B8C484FF4B2
:10BDA8008651C7E9044307F1100222F0C5FF8E4807
:10BDB80029F0ACF950B188B06A468C4B4FF4C651A3
:10BDC800C2E90530032342F8103FD3E74FF0FF32B2
:10BDD8004FF0FF3386481DF0A7FC864B7C48C7E927
:10BDE800044307F110024FF4865122F0A5FF042204
:10BDF800814B82481A8016F071FC48B1804B4FF491
:10BE08008251C7E90443724807F1100222F094FFF7
:10BE18007C48FFF705FE78B16C4688B06A467A4BD5
:10BE2800C2E9053003234FF4C251694842F8103F74
:10BE380022F082FFA546ACE7744975481EF026F843
:10BE48004FF48042002372481EF0C2F871497248CC
:10BE58001EF01CF84FF4A02200236F481EF0B8F81B
:10BE68006E496F481EF012F84FF4A02200236C4868
:10BE78001EF0AEF800F080FD044600283AD06D466A
:10BE880088B06A46674B4FF4C251C2E905300323B4
:10BE98004F4842F8103F22F04FFFAD4679E7013492
:10BEA80014D06E4688B06A465F4B4FF4C651536152
:10BEB8003C2393610323464842F8103F22F03CFF9D
:10BEC800B5464FF4F01000211FF03CFA4D4827F01A
:10BED800C2FD88B16E4688B06A46544BC2E9053047
:10BEE80003234FF4C2513A4842F8103F22F024FF8E
:10BEF800B546D4E74E4DE9E72946424822F010FFFF
:10BF080088BB404E304627F0EFFE02460121284606
:10BF180023F0B3FF00282BDA24F004FF6E4688B024
:10BF280003686A464349C2E9051303234FF4C25123
:10BF3800274842F8103F22F0FFFEB5466E463E4BBA
:10BF480023487B6102234FF486513B6107F11002BD
:10BF580022F0F2FE2B4827F02AFE00289FD088B056
:10BF68006A46364BBAE76C4688B06A46344B57E7A0
:10BF7800304627F094FE48B110F10B0F06D06E46FC
:10BF880088B06A462F4BC2E90530CEE7EB88D9075F
:10BF980008D5304627F0BFFE20B16E4688B06A4605
:10BFA800294BF0E7B5F906301A070BD5274B7B610B
:10BFB80002234FF4825106483B6107F1100222F038
:10BFC800BBFEBBE79B069DD5214BF0E76A8F0300BC
:10BFD800887903008C8F0300B18F0300CC8F030096
:10BFE8005A900300FE8F030071BC000018900300F4
:10BFF80040CF00204190030068EF002047ED020089
:10C0080078900300D8E10020A1900300D5BB000080
:10C0180018D20020D1CC0000E8D1002055CC000077
:10C02800B8D10020C6900300E390030001910300FB
:10C03800D0E1002031910300859103009F91030016
:10C048001B910300459103005C9103007491030068
:10C058007C91030080B500AF88B06A46064B07485C
:10C06800C2E9053103234FF4C45142F8103F0023BD
:10C0780022F070FEBD4680BDCF9103008879030091
:10C088007FB5074B4FF4825105930223054804936B
:10C0980004AA002322F05EFE07B05DF804FB00BF8F
:10C0A800FB910300887903007FB5074B4FF4825159
:10C0B800059302230548049304AA002322F04AFEAC
:10C0C80007B05DF804FB00BF0D92030088790300F8
:10C0D80030B5044687B00D460B4B04AA05930223DE
:10C0E8004FF4865104930948002322F033FE294671
:10C0F800204605F013FF284605F0D4FF204607B078
:10C10800BDE8304024F0D5B82892030088790300B0
:10C1180080B500AF88B06A46064B4FF4C451C2E9F7
:10C1280005300323044842F8103F002322F012FE92
:10C13800BD4680BD44920300887903007FB50B4655
:10C1480061B9094A4FF486510592022207480492C0
:10C1580004AA22F0FFFD07B05DF804FB084607B00B
:10C168005DF804EBFFF7D4BF6392030088790300FE
:10C17800F0B587B000AF3A1D05461646134B03F1DC
:10C18800100C144618685968083303C463452246DE
:10C19800F7D11B783146237028460D4B0D4A05F020
:10C1A80011FC78B16C4688B06A460B4B4FF4C2510B
:10C1B800C2E905300323094842F8103F002322F062
:10C1C800C9FDA5461C37BD46F0BD00BFBC7B0300BA
:10C1D80040E20020E8C70020879203008879030026
:10C1E800034B1B68834201D1FFF7C2BF704700BFF2
:10C1F80088E200202DE9F043B1B0884616AF144616
:10C208006E464FF002092D4B4FF486517B612C4846
:10C218000023C7F8109007F1100222F09BFD002CB4
:10C2280047D088B016AA274B21055361264B2448CE
:10C2380093614FF400739383244B41F4E65142F821
:10C24800103F434622F086FDB546214B4FF48651F8
:10C25800C7E904931A48002307F1100222F07AFD77
:10C26800642C22464FF0000928BF642241463A70E8
:10C2780087F8019087F80290F81C2AF051F95722A4
:10C2880007F1100168462AF04BF997E80F0000F013
:10C298006BFD70B188B016AA0E4B4FF4C251C2E9BB
:10C2A80005300323064842F8103F4B4622F052FD62
:10C2B800B54601206C37BD46BDE8F083BF92030048
:10C2C8008879030078F50300D89203000300000181
:10C2D800E792030000930300B0B586B00C4600AFA8
:10C2E8006D46114B4FF486517B6102230F483B6129
:10C2F80007F11002002322F02DFD0D481DF0D0F9A2
:10C3080074B188B06A460B4B4FF4C451C2E9053486
:10C318000323064842F8103F002322F01BFDAD46D8
:10C328001837BD46B0BD00BF2B93030088790300C2
:10C3380058CF00203D93030070B503788AB00446B7
:10C348000E4607AD032B20D8DFE803F002191B1DAA
:10C35800114928462AF070FA059563781E2104933E
:10C36800A37830460393E3780C4A02932379019328
:10C3780063790093A37922F051FE0AB070BD084991
:10C38800E7E70849E5E70849E3E70A212846074AB5
:10C3980022F044FEE0E700BF5493030076930300C5
:10C3A8005B930300629303006C93030059D8030066
:10C3B80080B588B0036800AF39461868FFF7BCFF3E
:10C3C80088B06A46084B4FF4E651C2E905374FF486
:10C3D80000739383054B064842F8103F002322F070
:10C3E800B9FC2037BD4680BD9993030003000001C6
:10C3F8008879030090B589B000AF0C4625F060F845
:10C408003946FFF799FF8AB06A46094BD461C2E9F9
:10C4180005374FF400731384064B4FF4125142F85A
:10C42800103F0548002322F095FC2437BD4690BDF7
:10C43800AA930300040000018879030090B589B02D
:10C4480000AF0C4625F03CF83946FFF775FF8AB077
:10C458006A46094BD461C2E905374FF40073138467
:10C46800064B4FF4135142F8103F0548002322F0C1
:10C4780071FC2437BD4690BDCD9303000400000134
:10C488008879030080B588B000AF25F019F83946DF
:10C49800FFF752FF88B06A46084B4FF4E651C2E9ED
:10C4A80005374FF400739383054B064842F8103F55
:10C4B800002322F04FFC2037BD4680BDEF930300D8
:10C4C80003000001887903002DE9F041144688B083
:10C4D80000AF0D46064624F0F3FF3946FFF72CFF60
:10C4E800E846CCB98AB06A46144BD561C2E905372B
:10C4F8004FF400731384124B4FF4135142F8103F5A
:10C508002346104822F026FC3046C546FFF768FE51
:10C518002037BD46BDE8F0818AB06A460A4BC2E9B9
:10C528000754C2E905374FF400739384074B4FF45F
:10C53800325142F8103F0023E3E700BF059403009F
:10C54800040000018879030023940300050000011A
:10C558002DE9F0418EB000AF07F118080E460546E8
:10C5680024F0AEFF4146FFF7E7FE6C468AB06A4604
:10C578001E4BD661C2E905384FF4007313841C4B77
:10C588001C4E42F8103F4FF4135100231A4822F072
:10C59800E1FB3368A5469D4223D1284600250AF0D1
:10C5A8006DFB0120356005F07BFC70B188B06A46F0
:10C5B800124B4FF4C251C2E9053003230E4842F82A
:10C5C800103F2B4622F0C6FBA5460D4B4FF4865173
:10C5D8007B61022308483B6107F11002002322F027
:10C5E800B9FB3837BD46BDE8F08100BF479403006A
:10C5F8000400000188E200208879030064940300A5
:10C60800869403002DE9F04F0C468FB000AF07F178
:10C618001806804624F054FF3146FFF78DFE002CA3
:10C628004AD06D468AB06A46914BDFF84892C2E913
:10C6380005364FF4007313848F4B9048D4614FF440
:10C64800115142F8103F002322F084FBD9F8000072
:10C65800AD46404518D14FF000080AF00FFB012005
:10C66800C9F8008005F01CFC70B188B06A46844B9C
:10C678004FF4C251C2E905300323804842F8103F05
:10C68800434622F067FBAD466D468AB06A467D4B4D
:10C69800D461C2E905364FF400731384764B4FF426
:10C6A800115142F8103F7548002322F053FBAD4664
:10C6B8003C37BD46BDE8F08FE94688B06D46724B01
:10C6C800AA46C5E905364FF40073AB836F4B4FF4A8
:10C6D800E6514AF8103F52462346684822F03AFB92
:10C6E800CD4602266A4B4FF486517B616348234648
:10C6F8003E6107F1100222F02DFBDFF898B1664B7E
:10C70800CBF80030654B4FF48651C7E904635B48AA
:10C71800234607F1100222F01DFBAD46DBF800307E
:10C7280003265F4A4FF4C651C5E9052353482346FB
:10C7380052462E6122F00EFBCD46AD46594B4FF4C2
:10C74800C651C5E905384D48234652462E6122F0A8
:10C7580001FB5946CD4640460EF078F968B1AD4622
:10C768006A46514B4FF4C451C2E905302346434849
:10C7780042F8106F22F0EEFACD466C464B4B4FF460
:10C7880086517B6102233D483B6107F1100200237B
:10C7980022F0E0FA0121404624F01BFE88B188B05F
:10C7A8006A46434B4FF4C451C2E90530032333486A
:10C7B80042F8103F002322F0CDFA4046A546FFF785
:10C7C8000FFD02243B4B4FF486517B612B4800231D
:10C7D8003C6107F1100222F0BDFA374B07F1100255
:10C7E800C7E904434FF486510023244822F0B2FAE3
:10C7F8003A46324B03F11005144618685968083355
:10C8080003C4AB422246F7D11B7839462370404611
:10C818002B4B2C4A05F0D6F828B36C4688B06A46EC
:10C82800294B4FF4C251C2E905300323134842F89B
:10C83800103F002322F08EFAA54623F06BFD034635
:10C8480000287FF435AF6C4688B06A461F49C2E9B4
:10C8580005100321094842F8101F4FF4C25122F075
:10C8680079FAA54624E74046FFF7BAFCE5E700BF9A
:10C87800AC94030088E200200400000188790300DA
:10C8880064940300C9940300E694030003000001C4
:10C89800F49403003CE2002045C100001195030018
:10C8A8002D950300529503006D9503008A950300AA
:10C8B800A3950300BE950300E2950300BC7B03002B
:10C8C80040E20020E8C70020FB95030025960300FE
:10C8D800014B1868704700BF88E200202DE9F0433B
:10C8E80087B0804600AF0C4615466E464FF00209E9
:10C8F8001C4B4FF486517B611B480023C7F81090EE
:10C9080007F1100222F026FA74B16DB1B8F1000FE8
:10C918000DD1164B4FF48651C7E90493124843468C
:10C9280007F1100222F016FA6FF0150415E02146FF
:10C938000F48AAB205F0C4FA044670B188B06A4636
:10C948000C4B4FF4C251C2E905300323064842F8A4
:10C95800103F002322F0FEF9B54620461C37BD469D
:10C96800BDE8F083429603008879030055960300DA
:10C9780040E20020799603002DE9F04796B06E4614
:10C9880000AF0225844B4FF4865184487B6507F13C
:10C99800500200233D6522F0DDF981480AF01CFFB2
:10C9A800044658B17F4B4FF48251C7E91453002312
:10C9B80007F15002794822F0CDF907E07A480AF0E9
:10C9C80025FF044638B1794822F01BFB204658372A
:10C9D800BD46BDE8F08708F02FFD044678B188B061
:10C9E8006A46734B4FF4C251C2E9053003236B48C2
:10C9F80042F8103F002322F0ADF9B546E6E76D4B4B
:10CA08004FF48651C7E9145307F1500203466348AF
:10CA180022F0A0F907F12C0523F04DFA2146142243
:10CA2800284629F09DFD012387F82C303B633B7491
:10CA38004FF0C873604A07F10C007A635F4AFD60E3
:10CA4800C7E901233B1D7B6105F0F8F95C4805F057
:10CA5800B9F807F1180216465A4B03F1100C1446A0
:10CA680018685968083303C463452246F7D11B7810
:10CA780031462370032005F0B5F80446E0B1524B67
:10CA88004FF482517B65022344483B6507F150020D
:10CA9800002322F05FF96D4688B06A464B4B4FF48D
:10CAA800C251C2E9053403233C4842F8103F002331
:10CAB80022F050F9AD4689E70146042005F0F4F864
:10CAC800044680B16D4688B06A46414B4FF4C25166
:10CAD800C2E905300323314842F8103F002322F011
:10CAE80039F9AD46D7E73B4B7863FB623A4B0646CC
:10CAF80029463A483B6323F043FC044608B3E94619
:10CB080088B06D464FF0030AA846354B4FF4C25122
:10CB1800C5E9053048F810AF334642461F4822F0B1
:10CB280019F9CD46AD462F4B4246C5E905344FF4B9
:10CB3800C25133461948C5F810A022F00BF9CD466A
:10CB480044E7E8460225284B4FF486517B6507F1F8
:10CB5800500203463D65114822F0FCF8012005F01B
:10CB68009FF9044678B188B06A46204B4FF4C25109
:10CB7800C2E905300323094842F8103F334622F042
:10CB8800E9F8C54622E71A4B4FF48651C7E9145312
:10CB980007F1500203460DE7A496030088790300C5
:10CBA800C8C70020BD960300B8C70020E996030057
:10CBB8001B9703003A970300000150001800280053
:10CBC800E0C70020BC7B030050970300A697030032
:10CBD80081970300FDC10000E1C2000040E200208F
:10CBE800C0970300EA9703001B98030041980300CD
:10CBF800629803000346084611465A781AB1012A7A
:10CC080005D000207047034A033320F0ABB8024A2E
:10CC18000333FAE76E98030080980300034608463A
:10CC2800114623B118B15A781AB1012A05D000204B
:10CC38007047034A033320F095B8024B024AFAE7DB
:10CC48006E98030096980300AD9803002DE9F04113
:10CC58000546194FDFF86480194EECB007A800F0BC
:10CC6800D5F8044640B140F6CD42002328461DF0D1
:10CC780029FA6CB0BDE8F0814FF4967221A907A893
:10CC8800FFF7CCFF034650B90E4A059202220492E0
:10CC98004FF48251304604AA03F0C8FADEE70121B6
:10CCA800384621AAFEF778FE0028D7D00223CDF80F
:10CCB800148004932346EBE7D8E10020E0980300B2
:10CCC80088790300C09803002DE9F0410546ECB0CF
:10CCD800224EDFF88C8000AF07F11C0000F0C4F88A
:10CCE80050B140F6CD42002328461DF0EBF907F578
:10CCF800D877BD46BDE8F0814FF4967207F18401FC
:10CD080007F11C00FFF776FF044658B902237E613D
:10CD18003B614FF48251034607F11002404603F08D
:10CD280085FAD9E7B87FFFF7D3FD034680B96C468B
:10CD380088B06A46B97F0B48C2E90501032142F869
:10CD4800101F4FF4C251064803F070FAA546C3E716
:10CD5800224607F18401FFF7C1FDBDE7F7980300FC
:10CD6800887903002099030084B070B504AC84E886
:10CD78000F004FF02003EFF3118683F31288BFF3FF
:10CD88006F8F1C4D2B680C2B07D06C2029F095FB5E
:10CD98000446C8B96FF00B0023E0002200231648B0
:10CDA8001CF014FC044660B914492E23144A154893
:10CDB80022F004FB144822F001FB2E21104822F037
:10CDC800F6FA2B68013B2B60672204A9201D29F085
:10CDD800A7FB0948214629F0AEF900202B6801334A
:10CDE8002B6086F31188BFF36F8FBDE8704004B0E5
:10CDF800704700BF90E20020F8CF00207C99030024
:10CE08004799030095990300B299030070B5054648
:10CE180018B34FF02003EFF3118683F31288BFF3A2
:10CE28006F8F002200230E481CF0D0FB044688B107
:10CE38006722011D284629F073FB204629F036FB9E
:10CE48000020084A1368013B136086F31188BFF37A
:10CE58006F8F70BD6FF03C00F7E76FF01500F8E7D3
:10CE6800F8CF002090E200202DE9F041044600AF01
:10CE7800002839D0002200231D481CF0A7FB0546D6
:10CE880078B34FF02003EFF3118683F31288BFF3D2
:10CE98006F8F6722011D204629F042FBE84688B0C3
:10CEA8006A46144B033453614FF400739383124B57
:10CEB800946142F8103F00234FF4E6510F4803F005
:10CEC800B5F92846C54629F0F1FA00200C4A13683E
:10CED800013B136086F31188BFF36F8FBD46BDE831
:10CEE800F0816FF03C00F5E76FF01500F6E700BF42
:10CEF800A4CF0020D1990300030000018879030022
:10CF08008CE2002084B02DE9F04186B000AF07F133
:10CF1800300484E80F004FF02003EFF3118683F309
:10CF28001288BFF36F8F2E4B7B6102233B612D4D1F
:10CF380000234FF486512C4807F1100203F076F9CC
:10CF48002B680C2B07D06C2029F0B7FA0446C8B917
:10CF58006FF00B0039E00022002324481CF036FB58
:10CF6800044660B922499123224A234822F026FA2E
:10CF7800224822F023FA91211E4822F018FA2B6841
:10CF8800013B2B60672207F13001201D29F0C8FA08
:10CF9800E84688B06A461A4B536107F13303936138
:10CFA8004FF400739383174B42F8103F00234FF45C
:10CFB800E6510D4803F03AF90C48C546214629F0D8
:10CFC800BAF800202B6801332B6086F31188BFF371
:10CFD8006F8F1837BD46BDE8F04104B0704700BFF9
:10CFE800ED9903008CE2002088790300A4CF00208B
:10CFF8007C9903004799030095990300B2990300AF
:10D008000C9A0300030000012DE9F0470A688B68B9
:10D0180006465C1CD018D35C0F46222B144440F003
:10D02800E18025460023D1F804C0A91A614580F0A3
:10D03800D9802978222919D1C3F10103281A3A691C
:10D04800184490478146002800F0CC808046AC42C6
:10D0580016D3002388F8003010230120C6E90339CD
:10D068003B68ED1A0135BD60BDE8F0875C2905D144
:10D078000135A91A614580F0B58001330135D4E73F
:10D0880023785C2B06D0013408F1010288F80030BF
:10D098009046DCE76378752B0AD86D2B0FD8622B86
:10D0A8002AD023D82F2B39D05C2B37D0222B35D040
:10D0B80048467B6998473B68E41ABC6095E06E3B3C
:10D0C800072BF5D801A252F823F000BF0DD10000BC
:10D0D800B9D00000B9D00000B9D0000015D10000C7
:10D0E800B9D000001DD100002BD10000662BDFD184
:10D0F8000C2308F1010202E0082308F101020221D1
:10D108000C44C3E70A2308F10102F8E70D2308F1EC
:10D118000102F4E7092308F10102F0E708F101022E
:10D12800EDE72B1B052BC3DDA01C21F015FEA0F598
:10D138005C43B3F5806F8246BAD3A0F55843B3F584
:10D14800806F2CD2A31DEB1A052BB1DDA3795C2BC4
:10D15800AED1E379752BABD104F1080021F0FCFDC9
:10D16800A0F55C43B3F5806FA2D20C21204BC0F32D
:10D17800090003EA8A23034303F5803AF0200422D6
:10D1880002F1FF3C58FA8CFCE0455FFA8AF320D1A3
:10D19800012A14BF034303F07F034244B0E77F280A
:10D1A8000BD9B0F5006F0CD3B0F5803F0DD3B0F5B7
:10D1B800881FBFF47DAF0621E0E706210020012289
:10D1C800DEE70621C0200222DAE70621E02003225A
:10D1D800D6E703F03F0363F07F030CF801394FEA09
:10D1E8009A1AD1E7002C7FF466AF00203CE700BF15
:10D1F80000FC0F00F8B50D460446002834D000297D
:10D2080031D08468FAB9194E74B3236AC3B1AB42FA
:10D2180021D005F1FF3C013B1CF8011F0F46725C51
:10D2280002F00302012A13F8012F08BF01F12007B9
:10D23800B05C00F00300012808BF203297420FD0ED
:10D248002468E1E724687CB1216A21B12846FBF70C
:10D25800DAFF0028F6D1236A002B08BF002403E078
:10D268000029D9D1F7E70C462046F8BD021F040073
:10D2780070B504460F4D04B970BDE3682668D9053A
:10D2880004D4A06870B920696B6888B9E3689B0505
:10D2980003D4206A08B16B68984720466B689847A2
:10D2A8003446E8E7FFF7E4FFE368DA05EBD5EDE796
:10D2B8009847EBE7F4C700202DE9F04305464FF007
:10D2C800000989B02F4F0C46164600211C2201A8E0
:10D2D800984629F045F9C7E9009925B90024204660
:10D2E80009B0BDE8F083002C3DD0274BCDE90154AF
:10D2F80093E8070008AB03E9070021F063FD044643
:10D30800002830D0019850B1039BE3B9029B042B4D
:10D3180004D903221D4929F097FA88B101A821F000
:10D328003AFD01462046FBF783FFC8B1B8F1000F6C
:10D338000BD1002ED3D0019B039A13443360CEE760
:10D3480003230393EAE74846E9E701A821F023FD10
:10D35800DDE90223934203D2019AD35C002BE8D083
:10D368002046FFF785FFDDE90223934201D332B15E
:10D37800531E0EB1EA183260C7E90053AEE71346F0
:10D38800F7E700BF94E20020F4C700204A9A0300A0
:10D398002DE9F04F91B0009302F004030193C2F31A
:10D3A800C20301330493830705460E46DDF86890EF
:10D3B800029240F0FE81041D30B1072909D86FF0B0
:10D3C8001B0011B0BDE8F08F01F00706341DC6F14F
:10D3D80008064FF000084FF0040B009B4746591E03
:10D3E8004FF0FF324346DA46CDF80C800DB1009875
:10D3F80020600498002800F3E1809C48DDF800C014
:10D40800844503D39A488445C0F0D880DDF808C025
:10D41800A4EB050E1CF0020F4FEA9E0000F0E98015
:10D428004FF0000CD3E07A2864D84B280FD847284F
:10D4380060D829282FD825285BD05BD820287FD012
:10D44800A0F12309D9F1000343EB090378E0A0F127
:10D458004C0EBEF12E0F4DD8DFE80EF0724C4C4C3E
:10D468004C4C4C4C4C4C4C4C4E4C4C4C4C4C4C4CF2
:10D478004C5C4C4E4E5C5C5C724E6F4C724C184E61
:10D48800184C4C817E4E4C4C4E4C7E0000200023A4
:10D498004FF0040B3CE0A0F12A0E01205FFA8EFE4B
:10D4A80000FA0EFE4FF6DA701EEA000F48D11EF0A1
:10D4B80062502FD11EF0010342D0013C5C44CBF1F5
:10D4C800000E04EA0E04002D5ED0AAEB050EA64459
:10D4D8007645FFF474AF002868D1BAF1040F43D140
:10D4E800E14659F8040B2060CC464FF0040A043496
:10D4F80026E0013A002323E011F8013C6C2B30D1DF
:10D50800002011F8023C6C2B0346C1D14FF0080BE8
:10D51800DA46D2E70CF1070929F0070C073424F0A2
:10D528000704FCE802AB35B105982044B0423FF649
:10D5380046AFC4E900AB002308344FF0080BDA46C5
:10D5480011F8010F002800F0BC80002B7FF46BAFAE
:10D558002528F5D1012301324FF0040BEFE71846D7
:10D5680095E700200346A8E7BAF1080F40F09B8032
:10D578000CF1070929F0070CFCE8029AC4E9009AA3
:10D588004FF0080A0834DBE780B9BAF1040F02D17A
:10D598000CF10409A8E7BAF1080F40F084800CF1F7
:10D5A800070929F0070909F1080CE9E7E146049899
:10D5B8000138049059F8040B009017E70298800787
:10D5C80048D54FF0010CA4EB050E4FEA9E00BEF5BE
:10D5D800007F1DD3274940F27B23274A274821F0A3
:10D5E800EDFE274821F0EAFE40F27B21224821F097
:10D5F800DEFE0F2F0ED8002D46D007F1400CEC446C
:10D608000CF8200C0CF8102C03980130039020E043
:10D618000F2F0CD917494FF42073174A174821F0D8
:10D62800CDFE184821F0CAFE4FF42071DEE7BDB1E7
:10D6380007F1400EEE44C0B20EF8200C0EF8102C84
:10D64800BCF1000FE0D060F07F000EF8200C08F16C
:10D6580001080137C5F10800CC46043405906FE78E
:10D66800BCF1000F10D00136F3E700BF3C74030093
:10D67800502204009EEA03004E9A03009599030085
:10D688007C9A03009D9A0300019802360028E0D195
:10D698000098CDE906310592FBF7BFFDDDE90631BB
:10D6A800059A0644D5E740F2C523434A434944480E
:10D6B80021F084FE5146434821F080FE40F2C52106
:10D6C80094E7631BB3F5806F0CD33C4940F2D12338
:10D6D800394A3B4821F072FE3B4821F06FFE40F288
:10D6E800D12183E71DB9A6F10804E01869E6019A7B
:10D6F8009B0828602B709DF80C30C2B1EB7085F840
:10D708000280B8F1000F05D0002208A8C5F1010C6D
:10D7180097420ED14FF0000AC5F101030DF120091F
:10D7280002930DF1300B574512D1601B49E66B701F
:10D73800E5E710F8013B190608D504EB0C0E764511
:10D7480003F07F03FFF43BAE04F8013B0132DFE74F
:10D75800B8F1000F03D099F90020002A17DB019BCC
:10D76800D3B11AF80B2004F8012B0022029B981859
:10D7780020448642FFF423AE99F80000009904F88B
:10D78800010B2046039228F0CBFE039A14440AF1B9
:10D79800010A09F10109C6E799F8002055F8223075
:10D7A8000093019B009845F82230FBF736FD421C98
:10D7B800DCE76FF00D0004E64E9A03009EEA0300D2
:10D7C80095990300B79A0300CC9A03002DE9F04F0E
:10D7D80095B000AF8A4604467A62BB6158B9A84939
:10D7E8004FF46573A74AA84821F0E8FD4FF4657126
:10D7F800A44821F0DCFDBB6F90F802B0C3F3C0036E
:10D808003B6141B9457800780BEB800020445545D1
:10D8180017D8A0EB040AE3787B61BBF1000F02D0B4
:10D82800BB6FD80716D47B6953BB7B6A1BB15146C3
:10D838002046BA699847554628465437BD46BDE83C
:10D84800F08F461C3046FBF7E8FC013030440AF103
:10D85800010ADCE7237862683B629B00FB603B6A55
:10D86800FA6104EB83097B6A002B40F00081C8460B
:10D878000026554609EB0B0AC24551D1D94413E09D
:10D88800BB6F9907D1D5237899463B629B00FB6013
:10D89800636804EB8909FB617B6A002B7AD15546E2
:10D8A800BBF1000F4FD15E46BB6F13F0050F0CBFE5
:10D8B8004FF0020B4FF0010B7B6909EB430ABB6F7A
:10D8C80003F002037B62D145B6D019F8021B19F8A0
:10D8D800013C54F823806D4B984502D36C4B984516
:10D8E80038D33B69002B42D0F86921F0C6FA0028EA
:10D8F8003DD0E8468AB06A46664B5361FB69C2E987
:10D9080006314FF400731384634B42F8103F002331
:10D918004FF41251614802F089FC023DC546D2E736
:10D9280018F8013B54F82300FBF777FCFB6F013034
:10D938003BB1D7F880309E423EBFFB6F23F81600FC
:10D948000136054498E7BB6F13F004061CBF7E6AD6
:10D95800D944A9E73B6923B1F86921F08EFA002878
:10D96800C7D1BB6FDA0705D4A5EB0B05ABE77B6A1C
:10D97800002BA8D04046FBF750FCFB6F43B1D7F80B
:10D9880080309E423FBFFA6F431C22F816300136A2
:10D99800054498E7BBF1000F6FD0BB6F13F0040686
:10D9A8007ED0D846002607F140005A46494628F05E
:10D9B800B7FD7B69D9445B007B607B6909EB430356
:10D9C800BB60BB6F03F002033B60BB68994569D13C
:10D9D800B96F6378B86F890748BF002106EB030267
:10D9E80058BF4FEA5801C507D2B200F1DF8010F0E6
:10D9F800040F14BF40460020FB616270A070E17004
:10DA08002046BA69F9687B6A9847051EFFF614AF85
:10DA18003B6A41462370FB69BA6963707B6984F885
:10DA280002B0E37007F140007B6A9847B0F1000844
:10DA3800C0F2E980FB68AAEB0B01C91A7B6848466B
:10DA4800C91ABA697B6A98470028C0F2DE804FF08D
:10DA5800000BA84408EB000507F1300AB345C0F0F5
:10DA6800A7800021BA6908467B6A9847E4E65E46C3
:10DA78004FF0000807F1300097E75E46D84698E770
:10DA8800E39A03004E9A0300959903003C7403003F
:10DA980050220400FE9A03000400000138790300B4
:10DAA800B04686E719F8021B594B19F8015C54F87F
:10DAB8002500984202D3574B984216D33B692BB1A5
:10DAC800F86921F0DAF900287FF47FAF3B68002B72
