:020000040001F9
:10020000F80B00208908010041080100F9270100CE
:10021000032801000D2801002128010017280100F2
:10022000000000000000000000000000291901008B
:100230004308010000000000ED180100450801001E
:10024000000000000000000000000000470801005E
:10025000000000004908010000000000000000004C
:100260004B0801004D0801004F0801005108010032
:100270000000000053080100550801005708010064
:10028000590801005B0801000000000000000000A8
:100290005D0801005F080100000000000000000090
:1002A0006108010000000000000000006308010078
:1002B0006508010067080100690801006B0801007A
:1002C0006D0801006F08010071080100730801004A
:1002D0007508010000000000770801000000000020
:1002E00079080100000000007B0801000000000008
:1002F0007D08010000000000000000000000000078
:10030000000000007F080100000000000000000065
:1003100000000000000000000000000000000000DD
:100320000000000081080100000000000000000043
:1003300000000000000000000000000000000000BD
:1003400083080100207C0100801D00203C0000008B
:1003500060260100400C0020000000006026010023
:10036000200C002000000000801E00202F0600004E
:10037000400C002050040000200C00200800000069
:10038000000C00200800000000015F5F000000007A
:10039000FE070000A9190100000400000000000091
:1003A000000000000000000000000000000000004D
:1003B000A01F00200000000001015F5F030100009A
:1003C0001F01000099050100000800000000000066
:1003D000010000000100000000000000000000001B
:1003E000781500200000000070000000984B01000C
:1003F00080000000000F0000010000006D060100F9
:100400000100000001015F5F040100001F01000006
:10041000750501000005000000000000000000005C
:10042000010000000000000000000000400C00205F
:1004300000000000A34B0100400000000507000081
:0C04400001000000610401000100000048
:10046000F0B503680546B3F57D7FA7B007D040F22D
:10047000F532934207D06FF0850027B0F0BD00F051
:10048000CDFC0020F9E700243C22214607A8CDE955
:100490000244CDE90444069402F0C5F93C22214609
:1004A00017A8169402F0BFF9EA69019405F11C033C
:1004B00002B30426EA6A05F12C033AB30424731E3E
:1004C000012B52D8012C50D80423002168680DEB71
:1004D000030204F07CFC04281AD06FF08000CCE703
:1004E000002EE7D053F8041D3246013E0029F7D014
:1004F0001646DFE70326F5E7002CE0D053F8041D8D
:100500002246013C0029F7D01446D8E70324F5E73A
:10051000022E16D16E69402E29D806AF33463A46D0
:100520000121686804F053FC8642D6D1CDE90276F9
:1005300002A944B92246019800F082FC04462046F4
:100540009BE70021F5E72B6A402BC6D816AACDE918
:100550000423019804AA00F073FCDDE90423044697
:100560000021686804F03BFCE9E7012085E76FF0B3
:10057000890082E70020704738B50025054C2946E0
:100580002046D4F80024C4F8045402F04CF9C4F80E
:10059000005438BD4411002010B500F01FF9044686
:1005A00068B90121074802F003FB02F087FB04460B
:1005B00028B902F0CFF9002818BF6FF08304204655
:1005C00010BD00BF4011002013B511460022CDE937
:1005D000002242680346302A04683ED194F82C2059
:1005E000022A18D01AB900F01BF902B010BD1E483B
:1005F0002468D0F80404013ACDE90040072A2FD836
:10060000DFE802F004090D12171C21266A4618467D
:1006100000F003F9E9E7184600F0EDF8E5E76A466F
:10062000184600F0EBF8E0E76A46184600F0E0F8FC
:10063000DBE76A46184600F0E4F8D6E76A46184653
:1006400000F0E2F8D1E76A46184600F0E0F8CCE79F
:100650006A46184600F0DEF8C7E76FF08000C4E78E
:100660006FF08500C1E700BF441100202DE9F04F75
:10067000056804469FB0002D40F0AA80202229463C
:1006800002A802F0D0F812AF202229460AA802F0F0
:10069000CAF830222946384602F0C5F8E26904F16A
:1006A0001C039846B2B10426E26A04F12C03EAB1B5
:1006B0000425EEB96FF0830630461FB0BDE8F08F19
:1006C000002EF1D053F8041D3246013E0029F7D028
:1006D0001646E9E70326F5E7002DEAD053F8041D96
:1006E0002A46013D0029F7D01546E2E70325F5E744
:1006F00030233A460021606804F069FB3028D9D1E4
:100700004FF00109CDE90270334F0DF1080A04F1F1
:10071000100B4E45D7F800141CD10DF128094B469B
:10072000002008EB850EC64533D108B1C7F8001488
:10073000A3683146C7F804340AAA2B4602A8FFF77B
:1007400043FF00270646BD4209F1080938D1FFF7EB
:1007500013FFB1E75BF8043FC1F58062D81C20F0BD
:100760000300904204D9FFF707FF6FF08C06A3E760
:100770000844CA19C7F8000449466068019204F0A9
:1007800026FB019ACAF80C0009F101094AF8082F62
:10079000BFE758F804CFC1F5806A0CF1030222F0DC
:1007A0000302524503F1080305D8781843E9020C07
:1007B00011440120B7E70028D5D0C7F80014D2E7CC
:1007C000394659E90223606804F009FB0137BAE7AA
:1007D0006FF0850670E700BF4411002008B528229D
:1007E0000021024802F01FF8002008BD4C1500202F
:1007F0006FF0850070476FF0850070476FF08500DF
:1008000070476FF0850070476FF0850070476FF09C
:10081000850070476FF0850070476FF08500704766
:10082000D1E9000102F02ABA000000000000000037
:1008300000000000000000000000000000000000B8
:10084000FEE7FEE7FEE7FEE7FEE7FEE7FEE7FEE780
:10085000FEE7FEE7FEE7FEE7FEE7FEE7FEE7FEE770
:10086000FEE7FEE7FEE7FEE7FEE7FEE7FEE7FEE760
:10087000FEE7FEE7FEE7FEE7FEE7FEE7FEE7FEE750
:10088000FEE7FEE70000000008B572B6002383F320
:100890001488BFF36F8F83F30A8883F30B88BFF349
:1008A0005F8F254B5A6A22F480325A62D3F8942023
:1008B00022F00102C3F89420BFF34F8FBFF36F8F74
:1008C0001E4A9A6000F04AF81D4B83F309881D4BBD
:1008D00083F30A8883F30B881B4B15A1D1E9000130
:1008E000C3E9000100F0B4F8184B19498B4212D348
:1008F0000020184B18498B4218D301F03DFF1868AF
:1009000050F82240586840F82240013298688242EC
:10091000F5D30C33EAE70022F8E71C6844F822001C
:1009200001325C68A242F8D30833E4E70022F8E71A
:10093000A5EDF5FEA5EDF5FE00ED00E000020100DD
:10094000F80B002000040020F80B002044030100F5
:1009500068030100680301008803010038B572B61E
:10096000002383F3138883F311884FF0FF30274A65
:1009700003F120010133102B42F82100F8D10023AC
:100980004FF0FF34214A03F160010133102B42F88C
:100990002140F8D1012200251D4B29465A60C3F899
:1009A0004843C3F8084303F580535A60C3F84843EB
:1009B000C3F80843A3F55043C3F800558022C3F899
:1009C0000843144801F02FFF29468022124801F005
:1009D0002AFF124B2946C3F800558022C3F808436A
:1009E0000F4801F020FF802229460E4801F01BFF2E
:1009F0000D4BC3F808454FF05023C3F8084362B6C7
:100A0000BFF34F8FBFF36F8F38BD00BF00E100E031
:100A100000400150808000508081005000900050C4
:100A20008090005080910050007001504FF47F0280
:100A3000D2F83031D2F83401BFF34F8FC3F30B0338
:100A4000092B03D1431E584258417047002070477C
:100A50005D4A08B5D2F8D03043F00203C2F8D03076
:100A60004FF47F02D2F83031D2F83421BFF34F8FE8
:100A7000C3F30B03092B01BF4FF050230022C3F82F
:100A80001421C3F81821FFF7D1FF28B101224F4BE1
:100A9000C3F8382AC3F878254FF47F02D2F83031F2
:100AA000D2F83421BFF34F8FC3F30B03092B05D1C9
:100AB000012A1EBF0122454BC3F87825FFF7B6FF78
:100AC00018B10E22424BC3F8E42E4FF47F02D2F845
:100AD0003031D2F83421BFF34F8FC3F30B03092B0E
:100AE00006D10022394BC3F80C270122C3F8102786
:100AF0000022D30003F57F03D3F80013BFF34F8F19
:100B0000013108D0D3F800130132D3F80433B2F521
:100B1000807F0B60EDD12F4BDA69BFF34F8FD10788
:100B200045D5BFF34F8F2C4BD3F80024012AFBD1BE
:100B3000C3F80425D3F80024012AFBD1254BDA6938
:100B4000BFF34F8FD2070AD5DA6922F00102DA61CA
:100B5000BFF34F8F204AD2F80034012BFBD11D4A3E
:100B6000136ABFF34F8F01330CD1136A23F0FF03D5
:100B700043F020031362BFF34F8F174AD2F80034BB
:100B8000012BFBD10022144BC3F80425D3F8002419
:100B9000012AFBD1BFF34F8F0B49104BCA6802F4F7
:100BA000E0621343CB60BFF34F8F00BFFDE71B6ACA
:100BB000BFF34F8F0133B4D0034AD2F88C3043F4E3
:100BC0004063C2F88C3008BD00ED00E000400050EA
:100BD00000A003500080FF00009003500400FA05BD
:100BE000003A18BF0122003918BF012103688900AB
:100BF000074841EA4201186359605A6842F001020D
:100C00005A60BFF34F8FBFF36F8F0020704700BF54
:100C100004AAFF004B6830B513F01F052DD1026800
:100C20000C681068C0F30720844226D250685560D3
:100C300094600C7C23F01F0304F001041C438B7CA4
:100C4000DB0003F018031C434B7C5B0003F006033E
:100C50002343D3608B68013B23F01F04CB685B0008
:100C600003F00E03234343F0010313615060BFF30D
:100C70004F8FBFF36F8F284630BD0120FCE703681C
:100C800000205A68C9B258609960D86018615A60EB
:100C9000704770B50546002403681E68C6F3072632
:100CA000B44201D1002070BD21462846FFF7E7FF7E
:100CB0000134F5E70722024BC3F80423704700BF55
:100CC00000300050002317200C49012B03F10102D2
:100CD00001D81346F9E703F5C073202A41F8230031
:100CE0001346F2D100231720044A03F5E0710133C3
:100CF000202B42F82100F8D1704700BF003000508F
:100D000010B540F20714064AC00BC90B884200D93F
:100D100010BDC3B203F5C07342F823400130F5E7BC
:100D20000030005010B540F2071400F1604001F1AE
:100D30006041064A400B490B884200D910BDC3B23E
:100D400003F5E07342F823400130F5E7003000502E
:100D5000C0F30E03C3F50043B3FA83F3C3F11B03DF
:100D6000064AC0F3C730DBB240F4807043F48073AE
:100D7000C2F80005C2F80435704700BF00300050CB
:100D8000C0037047C00300F5FF407F30704700206C
:100D900070471F2070474FF40040704700F57F40B8
:100DA000C0304003704700004303014818447047B7
:100DB000FF1FF81F402070475F2070474FF400501E
:100DC00070470000044BC0F30730090200F50070C3
:100DD00043F82010704700BF0030005008B501F004
:100DE000DDFB68B901F0C2FF58B9074AD36823F0A8
:100DF00008031B041B0C43F0BF6343F40033D360B0
:100E000008BD45F22350FBE700ED00E000207047ED
:100E1000002070470020704770470000BFF34F8FDD
:100E20000549064BCA6802F4E0621343CB60BFF386
:100E30004F8F00BFFDE700BF00ED00E00400FA05A2
:100E40000346084611460BB900F014B8032070475A
:100E5000BFF34F8F0549064BCA6802F4E0621343A3
:100E6000CB60BFF34F8F00BFFDE700BF00ED00E098
:100E70000400FA05F8B543680C2B26D14B68042B07
:100E800023D14FF0FF3304680E6821683360E1B16D
:100E9000A268D2B10623012000F0D1FDA8B9616893
:100EA0000B4BD3E9005CA9420AD3A26865448F18B2
:100EB000AF4205D8206801F0D5FC00203060F8BDB5
:100EC0000130042803F10803EBD10220F7E700BF4B
:100ED000F4250100FFF7BCBF08B5114B83F30A8866
:100EE000104800F0CDFE58B9FFF778FF40B9FFF782
:100EF0008DFF28B9FFF78CFF28B1FFF78BFF20B1DA
:100F0000FFF7E8FF05E0FFF787FF00F04BFD01F07A
:100F100011F800F033FD00F04DFC002008BD00BFCB
:100F200000040020A0230020084B094A1B6810B5CC
:100F30005B68044619615A61D1E90223D1E90001D5
:100F4000A047044600F03CF8204610BDBC2300201A
:100F5000EDEEEEEE10B5094C23685B685A69084B5C
:100F60009A4208BF086000F027FC2368834203D040
:100F7000BDE8104001F00CB810BD00BFBC2300203C
:100F8000EDEEEEEE70B505460C46EFF30583C3F3C8
:100F900008030BB1FFF79EFF084B1A689368A34242
:100FA00002D2D168A14206D2126821462846BDE885
:100FB000704000F071BC00231A46F6E7A823002019
:100FC0008230012808B506D801F048F918B9BDE803
:100FD0000840FFF77FBF08BD0020704740F20110B6
:100FE000704770B5054601F039F90646284601F00C
:100FF00079F8044608B9002070BD014632462846FB
:1010000001F098F80028F6D12368D868F4E70000CA
:101010002DE9F04F0D469DB008930446914601F02E
:101020001DF9684B80461B68C5F307265F68EBB265
:1010300007932B14A7F11C07099304D56FF08000C8
:101040001DB0BDE8F08F079BF318042BF6D8002CD9
:10105000F4D001F013F963000A90EFD514F0E00F1B
:10106000E2B2EBD1584B53F82250002DE6D02B685A
:1010700042462946586801F05DF8002840F09B8000
:10108000C4F30721284601F043F804460028D5D1CF
:10109000EFF3108872B600F0D3FF069088F3108843
:1010A000069B002B00F08A801C6000F0B1FF4FEA25
:1010B000C60B0B9002235A464946F86800F0BFFC65
:1010C0000028BBD1079B08994FEAC30A5246062362
:1010D000F86800F0B4FC04460028AFD10DF13008E8
:1010E00001462022404601F09EFB2022214614A802
:1010F00001F099FB5A464946404601F0B3FB52467F
:10110000089914A801F0AEFBC146C346A246B245F9
:101110001DD1002301339E423DD80DF15009079B9C
:101120009C423BD1089B2946CDE9044314ABCDE951
:1011300002630A9B069800930B9A099BCDF80480E2
:1011400001F01CF82846069900F07CF978E7DBF8F6
:10115000042002235BF8081BF86800F070FC0028EC
:101160007FF46CAF0AF1010AD1E7D2F808E0D06849
:10117000D9F800107044814205D2D9F80400014426
:101180008E45FFF45BAF0CF1010C0832B445ECD195
:1011900009F10809BEE74A469C46F7E7D9F804205A
:1011A000062359F8081BF86800F049FC00287FF472
:1011B00045AF0134B3E76FF0810041E76FF0820083
:1011C0003EE700BFBC2300205C2800200C4B70B51C
:1011D0001B6804465D680E4655F80C3C1C3D1BB16F
:1011E000034201D1FFF776FE002E05DA214628469C
:1011F000BDE8704000F0D8B9A869204070BD00BFBC
:10120000BC23002070B50E46044610B1431E0342B5
:1012100001D0FFF75FFE134B30221B6831465D683B
:10122000062355F8100C1C3D00F009FC08B1FFF72F
:1012300051FEAB690BB9FFF74DFEAB69234201D1FB
:10124000FFF748FE2146284600F026FF38B100F19E
:1012500014013022304601F005FB002070BD6FF014
:101260008B00FBE7BC2300202DE9F04799461C4B7F
:101270000E461B689046D3F804A000F0DBFF04463E
:1012800008B9FFF727FE6369002B01DAFFF722FE9A
:10129000032E01D9FFF71EFE04EB86077D6ADDB140
:1012A00006234A4641465AF8100C00F0C8FB08B124
:1012B000FFF710FE7B6A4D46994528BF1D4604EB9B
:1012C000C6042A464046616C01F0CCFA636C2B449C
:1012D00063647B6A5B1B7B622846BDE8F08700BFC6
:1012E000BC23002070B50E46154600F0A3FF04464F
:1012F00008B9FFF7EFFD6369002B01DAFFF7EAFD9C
:10130000032E01D9FFF7E6FD04EB8601486A58B1C8
:1013100085422A4628BF024604EBC604636C801A45
:10132000134463644862104670BD00002DE9F84321
:101330001D461B4B0F461B6890465B68A3F11C09BA
:1013400000F078FF044608B9FFF7C4FD6369002B7D
:1013500001DAFFF7BFFD032F01D9FFF7BBFD04EB57
:10136000C70604EB8704636BB26E9B1AAB4201D2D3
:10137000FFF7B0FD02232A464146D9F80C0000F0E1
:101380005EFB08B1FFF7A6FDD6E919032A4618440B
:10139000414601F067FAB36E2B44B366BDE8F883AB
:1013A000BC230020F8B506460D4600F043FF044676
:1013B00008B9FFF78FFDE7680FB9FFF78BFD636989
:1013C000991C20D05A1C21D1A5B315F1820F13D13D
:1013D00002236360EFF3108672B62946204600F0C0
:1013E00063F8054686F310886368022B24D12046F3
:1013F00000F044FE2846F8BD15F1830FEAD0FFF750
:1014000069FD0025E6E702236360FAE7002BF6DBBF
:10141000204600F07DFF3B689B689B0501D50223B9
:10142000636015F1810FD5D1E369002BD2DBFFF7A3
:1014300051FDCFE73546F4E700236360DAE7FFF7B5
:1014400007BD0000F8B50D4641B338B303682BB3B0
:1014500044681CB35E69EFF3108772B6636CC1F821
:101460008830A36961643343A3616369334209D05F
:10147000A16904F13400194000F0FAF9636923EA24
:101480000603636187F31088064B05F110001968A5
:1014900000F0E2F9012300206B60F8BD6FF08000DE
:1014A000FBE700BFBC23002008B5103000F0E0F9D6
:1014B000002008BD036902680B430021F0B51469E0
:1014C0000361936A95681C44073324F0070423F0F2
:1014D0000703C0E90934224B416341640162C162E0
:1014E00015F40071036314BF0823D369966904BF20
:1014F0009B000833073323F00703E31AD468C36162
:101500001C6000245C6059B94FF0180C02F13004E3
:10151000D76904EB860403F10806B94218D1596073
:1015200083600023690580F83930438700F11C038C
:1015300080F83850C36303D552680AB9094A13606A
:101540006FF00102BDE8F0400749383000F054B9AF
:101550000CFB014EDEF810E0013146F804EBDCE74D
:10156000EDEEEEEEA8230020C928010038B50B4BA4
:101570000B4D1A680B4B28461A6000F05FF92B6878
:1015800004465B6853F8101C53F81C0C00F049FA31
:1015900008B1FFF79FFC204638BD00BF901D00201A
:1015A000BC230020A423002038B5EFF3108572B6C9
:1015B00084690C4005D1054B41611968343000F055
:1015C0004BF985F31088204638BD00BFBC230020AE
:1015D0002DE9F84300F0F0F81A4F04463B68A0F1FB
:1015E00038065D68184B29461B68012B21D000B3D3
:1015F000A5F11C08B0451CD0EFF30982AB6820337D
:10160000934201D9FFF766FCEFF3108972B6F168D7
:10161000D8F80C0000F049FB38B1F16854F8380CE8
:1016200000F0FFF908B1FFF755FC61683C6089F3F1
:101630001088064B1B6813B1B26802B11A602846C5
:10164000BDE8F883BC230020C0230020A423002091
:1016500001F00C032DE9F0410C2B14BF0546154693
:101660004B0604460E4601F008071AD5AB6913F87D
:10167000028CB7FA87F35B09B3EBD81F01D0FFF7F1
:1016800029FCB8F1400F24D0B8F1410F25D100F06A
:1016900005FE06460146454800F06CFC3046BDE8B4
:1016A000F081FFF717FCDFF804810FB9FFF712FC98
:1016B000A04501D0FFF70EFCFFF790FC04462C601C
:1016C00000F07AF83A4B1B688342E7D000F060FCE8
:1016D000E4E7284600F034FCE0E7344B9C4201D0BC
:1016E000FFF7F8FBB8F1100F5DD801A353F828F00D
:1016F000B916010035170100A71701003D170100B9
:10170000A71701009D17010089170100A717010005
:1017100053170100611701006D17010093170100B5
:10172000A7170100A7170100A71701007D170100E7
:10173000831701002868FFF754FCBFE7D5E90223AF
:10174000D5E90001FFF764FC04462046FFF738FCAA
:10175000B5E7D5E90223D5E90001FFF785FDADE73F
:101760002868D5E90112FFF7BDFDA7E7D5E90223F7
:10177000D5E90001FFF7DAFD0024E6E7FFF75FFE99
:10178000FAE7FFF729FC99E7D5E90001FFF73AFDF1
:1017900094E7D5E90001FFF705FEEDE7D5E9000183
:1017A000FFF714FD8AE76FF0830488E7F80B002049
:1017B000BC23002041DF7047044B186810B1437808
:1017C000012B00D170478068F8E700BFB4230020E8
:1017D000C9B20129064B417005D11A682AB10178B6
:1017E0001278914201D3034A10681860704700BF15
:1017F000B4230020B823002070B50F4D044628689C
:10180000134618B12278067896420BD3A0602C605C
:101810006068002200F0C8FB2046BDE8704001214E
:10182000FFF7D6BF0546806810B106789642F9D317
:10183000A060AC60ECE700BFB823002038B50546D7
:10184000FFF7BAFF044600F0A3FB05B12C60606807
:10185000BDE8384000F0D2BB022301604B70024B60
:101860001A68024B1A607047B8230020B423002086
:1018700038B5044600680D4660B14378022B09D1A3
:101880000121FFF7A5FF23682946586800F076FB81
:101890000023236038BD000070B572B61446EFF324
:1018A0000B855FF0000C002A1FBF8CF30B886C4681
:1018B000954683F30B880C4A0123136062B60E46EB
:1018C000FFF732FB72B63146FFF744FB5FF0000CC6
:1018D000002C1EBF8CF30B88A54685F30B88024CA9
:1018E0000025256062B670BDC0230020402010EAAC
:1018F0000E0017D001B5FFF76BFEBDE8044088422B
:1019000010D072B6EFF3098222E9F00F80E80440AC
:10191000B1E804400B68B2E8F00F82F3098883F362
:101920000B8862B670470000EFF308807146EFF352
:101930000982EFF30B830CB406B4FFF789FE8646E9
:1019400006BC0CBC00F0080001F00801401A01DCE4
:101950000DDB70470CB42DE9F00F074C25462646E9
:101960002746A046A146A246A34630B4704730BCE5
:10197000BDE8F00F06BC7047A5EDF5FE084BDA6830
:1019800082F07F4282F47F0242F48042DA600022D9
:101990001A765A76DA76DA77602283F82220704750
:1019A00000ED00E07047000000F0E8FD009A0A4BEF
:1019B0009A420FD101229043014602460346044653
:1019C000054606460746804681468246834684464B
:1019D00086460447FEE70000A5EDF5FEF0B510B918
:1019E00043F6DA30F0BD0029FAD000220C24182585
:1019F0008368C3F3802343F002030B60016A8A42C9
:101A000001D10020EEE704FB02F3D0E9067603EBF8
:101A1000870305FB063303449B6B1B07E0D40132AD
:101A2000EDE7EFF3148381F00201C1F3400161F3AC
:101A3000000383F31488BFF36F8F002070472DE9F4
:101A4000F0410E461546002A4AD0C4074BD480F018
:101A50000204C4F34004A40003F00602062A4AD19B
:101A600044F0010422462946304603F023F8B8BB6F
:101A700046E800F205EB0608100E120208F1FF37E7
:101A800047E800F34FEA136166D51B0264D588422C
:101A900062D046E800F547E800F7FFF778F92D0E29
:101AA00085424FEA176734D3FFF773F9874230D87E
:101AB0002846FFF767F92246C6F101010144304686
:101AC00002F0F8FF002847D00135AF4218D8384659
:101AD000FFF756F92246A8EB000102F0EBFFD8B35E
:101AE0000020BDE8F081EFF39484A40004F0040426
:101AF00044F01204B0E7990731D544F00804B1E787
:101B00002846FFF73DF90646FFF745F9224601460C
:101B1000D5E7FFF74FF985421ED3FFF74DF987420E
:101B20001AD82846FFF740F92246C6F101010144C0
:101B3000304602F0BFFF78B10135AF4203D83846D6
:101B4000FFF72CF9C6E72846FFF728F90646FFF706
:101B500035F922460146EBE76FF07F00C1E74CF212
:101B6000DA20BEE7F0B53B4C87B03B48FFF791F871
:101B7000236801255A1C0193384B2260DA681B69DF
:101B80004FF4407603930023334801A90292049551
:101B9000ADF814608DF81630FFF73CF818B143F635
:101BA000DA3007B0F0BD23688DF816005A1C019397
:101BB0002B4B294802932B4B01A9CDE90335226019
:101BC000ADF81460FFF726F80028E8D123688DF8F7
:101BD00016005A1C0193244B1F480293234B01A962
:101BE000CDE903352260ADF81460FFF713F8002843
:101BF000D5D1022740F2011623688DF816005A1C31
:101C000001931B4B144802931A4B01A922600393C2
:101C10000497ADF81460FEF7FDFF0028BFD12368DC
:101C20008DF816005A1C0193134B0B480293134B6B
:101C300001A92260CDE90337ADF81460FEF7EAFF91
:101C400004460028ABD12A4629460348FEF7C8FFC0
:101C50002046A6E7C4230020801D00201426010092
:101C600060260100A04D010040080100400801006D
:101C7000200C0020400C0020000C0020200C002034
:101C800010B5044600F05AF800F068F810B143F6B9
:101C9000DA3010BD00F08AF80028F8D1FFF762FFB3
:101CA0000028F4D102232360F3E7884206D083079B
:101CB00006D581F00200C0F3400070470020704755
:101CC000012070470020034BD8765A6A42F47022F4
:101CD0005A62704700ED00E00349044BCA680020D7
:101CE00092B21343CB60704700ED00E00800FA05A4
:101CF0000020704700224FF0FF30094B02F1A00195
:101D00000132102A43F82100F8D1D3F880220020B4
:101D100022F00802C3F88022D3F88032704700BF57
:101D200000E100E008B5FEF7C5FF0822024BC3F84A
:101D300080211A60002008BD00E100E0064BD3F8C6
:101D4000D02022F00102C3F8D020D3F8D02042F0F6
:101D50000202C3F8D020704700ED00E010B50E4C31
:101D6000FEF7B0FFD4E90101FEF7CAFF0B490C48AA
:101D7000FEF7D8FF2169E0680139FEF7E9FF4FF46B
:101D800000200849FEF7BCFF4FF478200649FEF713
:101D9000B7FF002010BD00BF14260100FFFF032085
:101DA00000800020FFFF0E00FF9F0F0010B50021F4
:101DB0004448FFF707F800214FF05020FFF702F8E2
:101DC00000214148FEF7FEFF00214048FEF7FAFFE0
:101DD00000213F48FEF7F6FF00213E48FEF7F2FFE4
:101DE00000213D48FEF7EEFF00213C48FEF7EAFFE8
:101DF00000213B48FEF7E6FF00213A48FEF7E2FFEC
:101E000000213948FEF7DEFF00213848FEF7DAFFEF
:101E100000213748FEF7D6FF00213648FEF7D2FFF3
:101E200000213548FEF7CEFF00213448FEF7CAFFF7
:101E300000213348FEF7C6FF00213248FEF7C2FFFB
:101E400000213148FEF7BEFF00213048FEF7BAFFFF
:101E50002F4C00212F48FEF7B5FF00212E48FEF73A
:101E6000B1FF20460021FEF7ADFF20460021FEF71E
:101E7000A9FF00212948FEF7A5FF00212848FEF709
:101E8000A1FF04F5B03400212648FEF79BFF204651
:101E90000021FEF797FF00212348FEF793FF002162
:101EA0002248FEF78FFF01220020214BC3F8800457
:101EB000C3F88424C3F8C004C3F8C424C4F840257C
:101EC00010BD00BF00400050008000500090005046
:101ED00000A0005000B0005000E0005000F00050A2
:101EE000000001500010015000400150005001500E
:101EF000007001500080015000B0015000C001503E
:101F000000D0015000E0015000F0015000000250EC
:101F100000300250001002500020025000600250B9
:101F20000080025000A0025000A003500025845001
:101F3000003000500122014B1A607047C823002076
:101F400010B50446094B22891B686168586806234E
:101F500050F8100CFFF773FD28B9054B1B68012BD7
:101F600001D100F057F90323236010BDBC230020EA
:101F7000C823002004460D46A5462847036923B11F
:101F800019604FF0EE334361704703681962704780
:101F900004484FF080510160BFF34F8FBFF36F8F44
:101FA0007047000004ED00E02DE9F84304461E46AA
:101FB0000068114B9046A268A0F1080540E9023381
:101FC000483890420F4601D2FEF784FFA5F1400940
:101FD00040220021484600F026FC4FF0807345F86F
:101FE000043C6FF0020345E9036745F8208CC4E91F
:101FF0000093BDE8F88300BFA5EDF5FE836883F389
:102000000B880368203383F3098840687047000019
:10201000054A1368013303F007031360034A0133D1
:10202000801A03EBC0007047CC230020D02300208F
:1020300018B1024B013803EBD0007047D0230020C9
:1020400010B5064800F06DFA044628B18C22002134
:1020500000F0E9FB00236360204610BDD023002080
:10206000014608B5044800F06DFA00280CBF6FF077
:10207000FC00002008BD00BFD0230020014610B5A1
:10208000EFF3108472B6034800F056FA84F3108818
:1020900010BD00BFD0230020F0B50346EFF310863B
:1020A00072B60024426C00F1440520466AB948B17A
:1020B0000568012CD5F888200260284602BF9A697D
:1020C0008A439A6186F31088F0BDD7683F687F69BC
:1020D0008F4204BF2846013402F18805D2F88820D7
:1020E000E4E7000030B5094C024661680023084669
:1020F00040B105686D68954205D11BB1826860608A
:102100009A60816030BD03468068F1E7DC280020DA
:1021100003689A68DB6812F4806F05D18B422CBF8C
:1021200000206FF0FA0070478B420CBF00206FF068
:10213000FA00704738B504462AB10B689B68DB0586
:1021400015D5002038BD0C4B1B685D681C2D01D1D6
:10215000FEF7C0FE002255F81C3C99692C338A42D8
:1021600003D053F8040FA04204D19142E9D16FF09B
:10217000FC00E7E70132F2E7BC2300202DE9F84A32
:102180000446894617460021302214309B46099E9A
:102190000B9D00F048FB00231D4AC4E9039312681D
:1021A000301D526804F1440C1C3AA2600D9AC4F828
:1021B00014B0C4F88420089AE26104F120020A995C
:1021C0008B4210D10023184604F1300204F164015F
:1021D0002E1DDDF830C0083163450ED12368A7619C
:1021E0002362BDE8F88A50F8331042F8041F56F80D
:1021F00033104CF833100133E1E756F833C042F89E
:1022000004CF55F833C0013341E902C0E1E700BF14
:10221000BC230020064B1B685B681C2B04D053F8C2
:102220001C3C0BB1586870474FF0FF30704700BF3F
:10223000BC23002010B5FFF7FBFE0446FFF710FF9C
:1022400050B9FFF7E7FFE3685B681B685B68834290
:1022500018BF0024204610BD0024FBE7064B10B534
:102260001B685C681C2C01D1FEF734FE54F81C3C42
:102270009868C0F3802010BDBC23002038B5054607
:1022800048B100F076F9B5EBD07F044601D0FEF7F7
:1022900021FE204638BDFFF7BDFFF4E72DE9F041F0
:1022A00008238C2240F28C41154800F00EF90023DF
:1022B000144E154F73607B6000F05EF9DFF84C80C0
:1022C000304600F037F80446A8B13946802342462C
:1022D00000F098F80546204600F0F6F8206804F172
:1022E0000C01FFF77BFB08B1FEF7F4FD2946204601
:1022F000FFF7E0F8E4E7BDE8F041FFF737B900BFCA
:10230000D0230020AC230020DC2800205C28002003
:10231000002330B500F13002444252F8041F29B1C5
:10232000D0F8841054F8125019444D600833202B13
:10233000F3D130BDF8B5054608B9FEF7CBFD2C4EFC
:10234000346814F1290F50D82A4B196804F1280376
:102350008B424AD2D4E9063206200C3300FB02330A
:10236000226A02EB42021344626A02EB82021344C5
:102370009B00E31801D2994201D2FEF7ABFD23681E
:102380001D4A1B0C1B04934201D0FEF7A3FD2388BA
:10239000B3F5817F01D3FEF79DFD6368002B01DA61
:1023A000FEF798FD154A176807F14C031360144AAD
:1023B0001268934201D9FEF78DFDD4E90632062159
:1023C0000C3301FB0233226A3C6002EB42021344ED
:1023D000626A02EB82021344326802EB83026B688A
:1023E0003260BB646F603846F8BD0027FBE700BF72
:1023F0008C1D00204026010000005F5F881D00202A
:102400003C2601002DE9F04F85B0884691460746ED
:10241000029300B109B9FEF75DFDD7F800A0DAF824
:1024200018100AF1300303EB81030193DAF81C4022
:10243000234B1D6854B10C2101FB04541C60214B3B
:102440001B689C4201D9FEF745FD2C460026254617
:10245000B346DAF81C305B4500D91CB9304605B0EC
:10246000BDE8F08F1822019B02FB0B310023AB600B
:102470004B69C5E900171E438B689A0516D5B9F15B
:10248000000F02D0029A802A03D00393FEF722FDA8
:10249000039B13F0E00FD9B202D159F821301BB1E0
:1024A0000391FEF717FD039949F82150D8F804303D
:1024B0000BF1010BAB60C8F804500C35C9E700BF45
:1024C000841D00203826010070472DE9F041164692
:1024D0001D46044610B30BB302F1040803FB08F7D2
:1024E00007F10C028A4219D1002100F09CF900206A
:1024F00004F10C031A46014601318D42106002EBD3
:10250000080C104608D10020A7EB08073B44C4E99B
:102510000036A560BDE8F0816246EDE76FF0F80097
:10252000F8E7034638B1006828B102681A60002352
:1025300040F8043B7047704702680B1F41F8042CB9
:102540000360704700F10C02914210D34368806829
:10255000043300FB0320814209D20439881AB0FBFE
:10256000F3F203FB1200B0FA80F04009704700203C
:1025700070474FF0FF3070477047000008B500F01B
:1025800027F8054B986000F029F880F38888BDE8AB
:10259000084000F029B800BF00ED02E008B5FFF7E1
:1025A00091FB10B143F6DA3008BDFFF795FB002828
:1025B000F8D1FFF79DFB0028F4D162B6FFF79AFB34
:1025C0000028EFD1FFF7AEFB0028EDD0EAE70000CE
:1025D000014B1868704700BF14260100014B1B68AF
:1025E0001868704714260100014B1B685868704733
:1025F0001426010000000100000200000002FF009C
:102600002C0000003001FF00080000004001FF0026
:102610000C0000000080010000800100FFFF0700A7
:10262000007C01000080010000000800FFFF0E0098
:1026300000800F00FF9F0F007C1F0020641F002000
:042640004C04010045
:10266000009A1D4B9A420CD110B50FB41B48694615
:10267000FEF788FC0FBC00F0B9F806BC96460C4685
:1026800074470FDFFEE7009A134B9A420CD110B546
:102690000FB413486946FEF775FC0FBC00F0A6F8AE
:1026A00006BC96460C4674470FDFFEE70CB4029A50
:1026B000094B9A420DD10CBC10B50FB409486946BC
:1026C000FEF760FC0FBC00F091F806BC96460C4685
:1026D00074470FDFFEE70000A5EDF5FEDD0F0100FA
:1026E000E30F0100111001000348044B834202D0A4
:1026F000034B03B118477047701E0020701E002066
:10270000000000000548064B1B1AD90F01EBA3017E
:10271000491002D0034B03B118477047701E0020C8
:10272000701E00200000000010B5064C237843B94D
:10273000FFF7DAFF044B13B10448AFF30080012325
:10274000237010BD7C1F002000000000904D010090
:1027500008B5044B1BB104490448AFF30080BDE841
:102760000840CFE700000000801F0020904D0100CE
:10277000A3F5803A704700BF174B002B08BF134BDF
:102780009D46FFF7F5FF00218B460F461348144A7C
:10279000121A00F048F80E4B002B00D098470D4B52
:1027A000002B00D098470020002104000D000D48A8
:1027B000002802D00C48AFF3008002F03DF9200061
:1027C0002900FEF789FB02F023F900BF0000080092
:1027D0000000000000000000F80B0020801E002018
:1027E0003C3700200000000000000000002383F3BD
:1027F00000887047FEF76EBBFFF7FCFFFEE7FEF7B1
:1028000069BBFFF7FCFFFEE7FEF764BBFFF7FCFFC9
:10281000FEE7FEF75FBBFFF7FCFFFEE7FEF75ABBE4
:10282000FFF7FCFFFEE70346F0B5C9B252B99408C2
:1028300003EB84041344A34211D1F0BD03F8011B40
:10284000013AF3E79C07F9D14FF0013514464D43A7
:10285000D618032CEBD9371B3D60043CF9E704F88C
:10286000011BE8E770B504463AB141EA040313F0EE
:1028700003030CD1D518032D0FD822F003031C44F9
:102880001944002302F0030293420CD170BD11F8E9
:10289000013B013A04F8013BE6E7CD1A2E68E51A40
:1028A0002E60043BE6E75D5CE5540133ECE7000095
:1028B000034B1B685A680AB918687047014870478B
:1028C000000C0020D1280100FFF7F2FF00470000B4
:1028D0002DE9F04F01251E4B8DB0D3F80090D9E9BA
:1028E00000329540013D1BB1984708B102F07FFAD4
:1028F0004FF0010A4FF00041284602F060FA00262E
:10290000044609F10807002CF4D0D9F80430B3428A
:1029100002D802F06CFAEDE70AFA06F814EA080F9A
:1029200012D03B680BB902F062FA6946404602F0E9
:102930004AFA3B686846DDF804B0984701465846B5
:1029400002F051FA24EA080401360437DBE700BF3D
:10295000000C00200020704701680E4A0346914297
:1029600015D1C169A2F11022A2F1EF1291420ED14C
:102970008268012A0BD8C26812B101698A4206D066
:10298000586928B19B691B1A584258417047012069
:10299000704700BF55AA00FF0D4B70B59E68A6B1E9
:1029A0003046FFF7D9FF044678B9F3686BB935694B
:1029B0000DB9204670BD2846FFF7CEFF28B9EB6859
:1029C000B34202D12E462D69F2E70124F1E700BFA0
:1029D000E42800202DE9F041394E3468F368D4B181
:1029E000B468C4B1002861D000295FD001FB00F5B4
:1029F000B5FBF0F0884259D1291D57D8AA070DD050
:102A000025F0030204321C4603E0616891424FD274
:102A1000A469002CF9D12046BDE8F0812A46F2E7EE
:102A2000891A232904F12007D4E9050C1AD80123B7
:102A3000A360A0B1C0F818C0A36903B15861002316
:102A4000C4E905333369DB0702D5FFF7A5FFA0BB57
:102A50002A46002138463C46FFF7E5FEDBE7C6F88C
:102A60000CC0E9E702F1200804EB08032039C3E9B0
:102A7000011E2169DFF84CE0DC60196144F808E0D0
:102A8000AEF1102EAEF1EF1EC3F81CE001B1CB6029
:102A9000C3E9050C40B18361996901B14B61012122
:102AA0002361C4E90121CAE7F360F5E70024B2E736
:102AB000D4F808E0BEF1000FB2D0012001F0A8FF69
:102AC000E428002055AA00FFF8B5054600283AD0B2
:102AD000364E3368002B36D0B268002A33D083429A
:102AE00003D872681344984202D3012001F090FF8A
:102AF000A0F120042046FFF72FFF0028F5D155F85C
:102B0000183C012BF1D145F8180C55E90570DFB1DF
:102B1000BB68CBB955F81C2C7B68203213447B6012
:102B2000386100B1C760202200212046FFF77BFEFC
:102B3000386908B183682BB333699B0703D5FFF766
:102B40002BFF0028D1D1F8BD40B3836833BB426866
:102B500063681344203363600369D4E9052123616A
:102B600092B9B9B9426981696261A161A2B1946106
:102B7000A26902B1546103B1DC6020220021FFF799
:102B800052FED9E73C46E2E79161A1690029E9D00C
:102B90004A61E7E7F160F8E7F460E9E7F36845F8D0
:102BA000083C03B15C61F460C6E700BFE428002084
:102BB00038B50D461422002104461248FFF733FEB3
:102BC0001149124800F030F8232D1AD914F00303EC
:102BD0001FBF043DED18C3F10403E4182A46002189
:102BE0002046FFF720FE074B094AC3E900459C60D9
:102BF0002260A2F11022203DA2F1EF126560E26195
:102C0000DC6038BDE4280020C92A0100D529010074
:102C100055AA00FF0020704770470000014B1B6859
:102C2000184700BF941D0020024B1860024B002083
:102C300019607047981D0020941D002010B50446AF
:102C4000406A10B1A16A00F00FF9606AFFF7E6FF71
:102C50000020C4E9090010BD38B50446FFF7EEFFB7
:102C6000236A2C22012B0CBF05466FF0960500212C
:102C70002046FFF7D8FD284638BD0000054B0A4620
:102C80001978C90703D50146181D00F05CB86FF02C
:102C900088007047F828002010B5074C00F038F87D
:102CA000204600F061F8201F082100F0DDF8BDE8A3
:102CB000104000F045B800BFFC28002038B50D4D8D
:102CC0002B78DB0710D4281D00F03BF8044670B9C0
:102CD00000F012F8044650B900F030F8044630B95C
:102CE0002B7843F001032B700024204638BDFFF7FA
:102CF000D3FFFAE7F8280020044A002092F8803534
:102D000043F0010382F88035704700BF002900209E
:102D1000F8B5094C20252646012720462762FFF7F3
:102D20009BFF013D04F12C04F7D196F8803565F343
:102D3000000386F88035F8BD002900200020704788
:102D400070470020704713B5002001AB144600F017
:102D50005FF830B9019BA34218BF6FF0930002B037
:102D600010BD6FF09200FAE70020704710B50C4CD0
:102D7000236813B10B4B1B682BB900F089FC30B9E9
:102D80000122084B1A6001232360002010BD013886
:102D9000062801D9044810BD044B53F8200010BD8B
:102DA000882E0020842E0020FE8FFFFFB84B0100EC
:102DB000144B2DE9F043002814BF04461C46124F63
:102DC000236883B0BB4219D016460D4620464FF407
:102DD000147104F1040900F047F804F58E784846B0
:102DE00000F040FB404600F0CDF82B464A464046F6
:102DF0000649009600F0E8F908B92760002003B002
:102E0000BDE8F0838C2E0020A5BCC95AE93401002E
:102E100070B50D4C1D46002814BF064626460B4BC8
:102E2000306882B098420DD106F58E700026334688
:102E30000096144600F0F2F9002818BF34462C60C2
:102E400002B070BD0248FBE78C2E0020A5BCC95A19
:102E5000E88FFFFF38B131B1002201440346013051
:102E600081421A70FAD1704738B131B10022014461
:102E70000346013088421A70FAD1704770B590B09D
:102E800000287AD03E4C0D46402236210646204688
:102E9000FFF7C9FC40225C21A018FFF7C4FC2B1DE2
:102EA000A34203D904F144039D4252D32B68226804
:102EB000534023602B68226C534023646B68626824
:102EC000534063606B68626C53406364AB68A26894
:102ED0005340A360AB68A26C5340A364EB68E26804
:102EE0005340E360EB68E26C5340E3642B69226972
:102EF00053402361226D2B695340236562696B69DE
:102F0000534063616B69626D53406365AB69A2694D
:102F10005340A361AB69A26D5340A365EB69E269BD
:102F20005340E361EB69E26D5340E36500213046B5
:102F300001F0F2F8044628B940223046104901F069
:102F4000FFF8044640216846FFF78EFF204610B088
:102F500070BD631E04F13F01013D1F3415F8010FE0
:102F600013F8012F42401A7011F8012F2878A3425C
:102F700082EA00020A70F1D1D8E76FF07304E5E746
:102F8000DC30002010B54FF49A7200210446FFF7A0
:102F90004AFC42F21072044BC4F8202104F59670EA
:102FA0001B68BDE810401847B81D00202DE9F04F00
:102FB00004468846914695B0002900F0A780002A73
:102FC0000CBF0126022600238DF80C30002C00F0E7
:102FD0009F80DFF844A104AF0AF1400B0021204696
:102FE00001F09AF8034648B1384620210193FFF7D3
:102FF0003BFF019B184615B0BDE8F08F40225146BB
:10300000204601F09DF803460028EDD104F1F405B7
:1030100020222946204601F093F803460028E3D1F8
:103020000122204603A901F08BF803460028DBD1DA
:10303000022E62D020460CA901F0ACF8034600280D
:10304000D2D10146204601F067F803460028CBD1D3
:1030500040225946204601F073F803460028C3D1A8
:10306000202220460CA901F06BF803460028BBD1B2
:103070003946204601F08EF803460028B4D139467F
:103080002046FFF7FBFE03460028ADD1202229464B
:10309000204601F055F803460028A5D120460CA98A
:1030A00001F078F8034600289ED10146204601F041
:1030B00033F80346002897D140225946204601F0B4
:1030C0003FF8034600288FD1202220460CA901F0AA
:1030D00037F80346002887D12946204601F05AF8E0
:1030E0000346002880D19DF80C200132D2B2B242B2
:1030F0008DF80C20FFF472AF76E74A464146204631
:1031000001F01EF80346002894D06DE701265AE727
:103110006FF0730304AF67E7DC3000202DE9F04166
:103120000446884615461F46D0F81801E0B013B192
:1031300000EB40004008B5F5807F3ED82844B0F54C
:10314000C07F3AD84FF4C07200216846FFF76BFB8E
:103150006946D4F82431D4F81821D4F828019847C6
:1031600070BBD4F8186157B1D4E9493072080DEB3F
:103170000601984720BBD4F8183106EB5306B8F186
:10318000000F00D08DB9324669462046FFF70EFF8A
:10319000054610B90123C4F8143131466846FFF7DB
:1031A00063FE284660B0BDE8F0810DEB06004146A5
:1031B0002A462E44FFF756FBE5E76FF00405F0E7DB
:1031C0006FF00805EDE700BF2DE9F047044604F174
:1031D000F4050F4691461E46DDF8208000F082FF80
:1031E00029462046FFF74AFE08B1BDE8F087284689
:1031F00020220121FFF717FBD4F81831C4F82471FD
:10320000C4F8289113B92023C4F818314246314636
:103210002046BDE8F0470123FFF780BFB2F5806F7D
:1032200000F295802DE9F04F89B09A46129BB3F5D4
:10323000807F00F29080D0F82431164604460F4675
:103240004BB3D0F81C31012B05D0D0F81421D0F8A5
:1032500020319A421FDD514600232046129AFFF783
:103260005DFF014698B900231293002E5ED0DFF86F
:10327000EC9009F1400B0021204600F04DFF202E7C
:103280003546014628BF202504F1F40890B10846D0
:1032900009B0BDE8F08FBAF1000FE6D0129B002B09
:1032A000E1D051461A462046FFF780FE014600282D
:1032B000DBD0ECE749464022204600F041FF0146C2
:1032C0000028E4D141462022204600F039FF014683
:1032D0000028DCD16946204600F05CFF014600284A
:1032E000D5D1204600F018FF01460028CFD159461D
:1032F0004022204600F024FF01460028C7D169463D
:103300002022204600F01CFF01460028BFD1414684
:10331000204600F03FFF01460028B8D138462A4633
:103320004146FFF79FFA761B2F44A4D15146204611
:10333000129AFFF73BFE01460028A8D10846D4F8B0
:1033400014310133C4F8143109B0BDE8F08F6FF0C7
:103350000201084670476FF0040198E7DC30002056
:103360002DE9F043202B1D460646884691468BB03A
:1033700026D8DBB202AF8DF80480B04658F8041BA3
:103380008DF8053021B9404600F0C6FE044640B92C
:10339000012302224046336001A900F0D1FE044619
:1033A00038B138462021FFF75FFD20460BB0BDE85D
:1033B000F0832A464946404600F0C2FE0446F0E744
:1033C00002AF1946104600233A4601F03FF8044682
:1033D0000028E6D12023B9461D46CCE72DE9F0416F
:1033E000D0F8F830A6B0002BD8BF02AE31DD0546CC
:1033F0000027D0F80C4102AEA4F101089022D5F8C4
:10340000FC403146D0F8000101AB0197B8FA88F8CA
:10341000A0474FEA5818044620B9019B53B9B8F1A8
:10342000000F16D030469021FFF71EFD204626B033
:10343000BDE8F081014632462846FFF791FF58B9B2
:10344000D5F80431019A1344C5F80431B8F1000FDE
:10345000E8D16FF03C04E5E70446204626B0BDE81D
:10346000F08100BF70B500250446142204F588766B
:103470002946C0F8F850FC30FFF7D5F90822294654
:103480003046FFF7D0F9144B30461B68984720466A
:1034900040F8045B00F026FE104B30461B6898474E
:1034A000C8B9D4F8F830AB420FDC03EB830204EB6D
:1034B00082022021C2F800010120C2E9421008491D
:1034C0000133C2F8FC10C4F8F830064B3046BDE8B2
:1034D00070401B68184770BDB81D0020B41D002047
:1034E000E93F0100B01D00202DE9F047202A88B0F7
:1034F0007AD83F4B00F5887904461B684846174642
:10350000884698470546F8B940F20116D4F8F830D5
:10351000002B65D02046FFF761FF054638B9D4F887
:10352000F830002B14DC013EF2D16FF03B056E4603
:1035300020213046FFF798FC2E4B48461B689847E1
:10354000002818BF6FF01D05284608B0BDE8F087B9
:10355000D4E94132934203D3D4F80C21012A02D09A
:10356000013ED7D1E1E71F2BFAD96E460146202252
:10357000304604F1040AFFF756F93146504600F090
:1035800009FE05460028D3D1504600F0BFFD504645
:1035900000F0A8FD2946504600F0BEFD0546002873
:1035A000C6D150462022314600F0CAFD054600280B
:1035B000BED1034632462021304600F047FF054683
:1035C0000028B5D1D4F8F8303A46002BC8BF002304
:1035D00040463146C8BFC4F80431FFF743F9A7E7B6
:1035E0006FF03F056E46A3E76FF03B05ACE700BF09
:1035F000B41D0020B01D0020002130B58DB0282260
:1036000002A80191FFF70FF902A800F047FF044656
:1036100010B120460DB030BD174D4FF0FF31286876
:1036200000F042F9044620B1144800F0D3F9012C0F
:1036300018D0002000F068F9D0B9114A02A901A8F9
:1036400000F0C4FC0446012000F05EF960B928686F
:1036500000F032F90028DCD00A4800F0BBF920461F
:103660000DB030BD0524F2E7074800F0B3F9EEE7EE
:10367000064800F0AFF9E0E79C1D0020D44B0100A4
:103680005C3100202C4C01000C4C0100EC4B010083
:1036900030B583B000F05CF828B100F0ABF803243B
:1036A000204603B030BD00F077F8D8B900F02CF90F
:1036B000E0B9224CD4F828391B0EF02B0AD1D4F8EB
:1036C000242A1F4B9A4231D000F044F8072400F01E
:1036D00091F8E5E7062400F03DF800F08BF820466D
:1036E00003B030BD0424204603B030BD00F032F8F2
:1036F00000F080F8FFF780FF044698B9114D2B6861
:10370000002BCDD102460146FFF752FB50B968228B
:103710000D4901ABFFF77CFB20B920460B4B2B601A
:1037200003B030BD0524204603B030BD012000F0B9
:10373000EBF80028DAD1C4F80C0ADBE7001084505B
:103740000000E0207C330020803300205AEA5A5ADF
:103750000020704700207047430504D54FF0FF322A
:10376000034BC3F80821024BC3F8080A704700BF97
:1037700000108450014BC3F8040A704700108450B5
:1037800008B100F06BB84FF47500704708B100F055
:103790004FB84FF47500704710B5114800F070F83D
:1037A00000B110BD0F4800F06BF80028F9D10E4CA5
:1037B000204600F065F80028F3D10C4B0C481C6043
:1037C00000F05EF801460028EBD100F02DF8044629
:1037D00008B1204610BD00F079F82046FAE700BF96
:1037E000AC1D0020A81D0020A41D00209C1D002051
:1037F000A01D002008B5084800F04CF8074800F06C
:1038000049F8074800F046F8064800F043F8BDE8DC
:10381000084000F00BB800BFAC1D0020A81D002020
:10382000A41D0020A01D002000207047704700BF8D
:10383000024610B4084CD4F8003A1342FBD021B130
:10384000D4F804310B60C4F80831034B0020C3F8EE
:10385000082A10BC704700BF00108450044AD2F8F8
:10386000003A1842FBD0C2F8080A0020704700BF97
:103870000010845001F004B90A460021FEF7D3BFBE
:1038800008B5034B02681B6810689847002008BD04
:10389000D81D002008B5034B02685B681068984784
:1038A000002008BDD81D0020024B02689B681068EC
:1038B000184700BFD81D002008B5034B0268DB681D
:1038C00010689847002008BDD81D002070B5094C2D
:1038D000094D2069AB68984718B1084B08485B68E8
:1038E00098470021074AEB6811602069BDE87040E5
:1038F000184700BFC41D0020D81D0020BC1D00209B
:10390000444C0100E8330020F8B51A4D1A4E044625
:10391000B26828699047E8B9184F3B684CB1A3B129
:10392000012B19D0013B3B602869F36898470020C0
:10393000F8BD43B90121124AC2F800151149D1F866
:103940001029002AFBD101333B60F36828699847AE
:103950000020F8BD0C48F8BD0A4AD2F81039002BF7
:10396000FBD1074A6FF07E40C2F80035FFF702FF37
:103970003B68D7E7C41D0020D81D0020E833002095
:103980000000845000108450E98FFFFF014B1B683A
:10399000184700BFD81D0020014B9B68184700BF87
:1039A000D81D0020014BDB68184700BFD81D002040
:1039B000BFF34F8F0549064BCA6802F4E062134318
:1039C000CB60BFF34F8F00BFFDE700BF00ED00E00D
:1039D0000400FA0530B44FF0FE320025074B084CC6
:1039E00008494968C3F80024C3F80424C3F808242C
:1039F000C3F80C24C4F8005530BC084700108450AC
:103A000000008450BC1D002010B5044650B163680E
:103A100013F0685F05D0064A934202D0002362602B
:103A2000236010BD034B04485B689847EFE700BF75
:103A30002C5F5CA9BC1D0020644C0100C8B1436828
:103A40000D4A934213D013F0685F0ED0012350E863
:103A5000002F194640E8001C9CF0000FF7D1012A06
:103A6000F5D0BFF35F8F00207047044870470448CB
:103A700070476FF4E04070472C5F5CA9E98FFFFF4F
:103A8000EA8FFFFF034680B1426809498A420AD0A3
:103A900012F0685F05D0BFF35F8F002210461A60F6
:103AA000704704487047044870476FF4E04070471F
:103AB0002C5F5CA9E98FFFFFEA8FFFFF10B504467A
:103AC00020B10023034A2360626010BD0248FFF763
:103AD00081FFF6E73A00003A8C4C01002DE9F047EF
:103AE000002878D00C46002975D01D46002B72D0D6
:103AF00007461AB1012200232A6003602B68002BBD
:103B000064D02946204600F0B7FD804600285FD1EA
:103B10002146286800F096FD8046002858D12B6881
:103B2000082B6CD0042B6DD0A3F10209B9FA89F9E6
:103B30004FEA59190121354EC6F8C411C6F8401193
:103B4000C6F8C411636AC6F83031D6F83021934202
:103B5000F6D14FF0000A4FF0FF30C6F82CA1FFF766
:103B6000FBFD6FF01B035046C6F80031FFF702FE65
:103B7000C6F80C91D6F8040A40F48060FFF7FAFD0D
:103B80000A23C6F83831089B012B29D02369204A23
:103B9000A2FB03231B09626A404602FB03F303EB0B
:103BA00043031A4ADB039B09C2F8D8310123C2F848
:103BB0002C313B682A6823F07F4343EA02633B6071
:103BC0002A6843EA02233B60BDE8F087DFF84480BF
:103BD0004046BDE8F087DFF840804046BDE8F0870A
:103BE0004FF47F03D3F80C2C013206D0D3F80C3CF1
:103BF000074AA2FB03231B09CDE71623CBE74FF0AF
:103C0000030997E74FF0020994E700BF00108450C2
:103C1000ABAAAAAA310CF100350CF10058B34B1E27
:103C2000B3F5047F27D230B54FF0000ECD007446B7
:103C300071464B0901F01F0C50F82330BCF11F0FE7
:103C400023FA0CF306D003F0010319B901211C4635
:103C50008E46EEE79C4201F1010106D01C464FF072
:103C6000010EA942E5D1002030BD0EF1010E9645AE
:103C7000F7D1024830BD0148704700BF360CF10053
:103C8000C0B32DE9F0434C1EB4F5047F1DD2E3B15F
:103C9000DAB100252E46A8462C46CF0003F1FF39A5
:103CA0004FEA541C04F01F0E50F82C10BEF11F0FE9
:103CB00021FA0EFC0CD00CF0010C4CB90126E046A8
:103CC00034463546ECE7964216D90C48BDE8F083F9
:103CD000AB420BD0C44508BF0136A945F3D001352E
:103CE0000134BC42DCD10020BDE8F0830125E04670
:103CF0002E46F5E7014870471D46F1E7370CF10005
:103D00002DE9F04F91B08346DDE91B460D46002EAC
:103D10006ED10F691C6000231A990B60002A00F015
:103D20002F819D4B6A6AD3F83811D3F830319A420B
:103D300069D10A2967D19BF80330089304F108037D
:103D4000079304230593954B934CA3FB07239B08F0
:103D500003EB4303A7EB4303039306971A9B069ECB
:103D60001E60002E00F0EA8000F096FC002309930C
:103D7000BBF1000F00F0D58098464FF0010ADDF846
:103D80001C90002D00F0CD80089B002B3DD02846D4
:103D900008A900F071FC002839D0814B984220D04E
:103DA000089B082B00F0E48000225B000893294662
:103DB00008AB58460092FFF791FE7A4B984200F00C
:103DC000D38070B9DBF80020130A03F47F03134398
:103DD00023F07F43CBF80030059B013B0593BDD119
:103DE0000020039000F058FC039811B0BDE8F08F5C
:103DF0004FF47F01D1F80C0C01300CBF4FF4047765
:103E0000D1F80C7C86E76848EBE76648C5E72946A9
:103E1000089800F017FC0028BFD1089B082B00F081
:103E2000A980042B00F0A980A3F10203B3FA83F365
:103E30005B090493C4F8C4A1C4F840A1C4F8C4A1A8
:103E40006B6AC4F83031D4F830219342F6D10023A4
:103E50004FF0FF30C4F82C31FFF77EFC00231846EA
:103E60006FF01B03C4F80031FFF784FC049B4B4F39
:103E7000C4F80C31D4F8040A40F48060FFF77AFCEF
:103E80000A23C4F838312B6909A8A7FB03236A6AFF
:103E90001B0902FB03F303EB4303DB039B09C4F899
:103EA000D831C4F82CA1DBF80030089923F07F4208
:103EB0000B0243EA01631343CBF8003000F0B2FB7E
:103EC000099B03F01A0303437FF46AAFA7FB06378D
:103ED000D4F81431B8EB970F0A93D4F818310B9338
:103EE000D4F81C310C93D4F820310D93D4F824313C
:103EF0000E93D4F828310F9301D1039B9BB9484608
:103F000018220AA9183EFFF7B5FC09F1180908F1B3
:103F100001089EB100F0C0FB00230993002D7FF43F
:103F200033AF224839E748461A46F61A0AA9994497
:103F300008F10108FFF79EFC002EEBD1069F079EBB
:103F40006A6939463046FFF769FEAA6940B94FF4FD
:103F5000806339463046FFF793FE00283FF440AFB8
:103F600000231A9A136018E72B6A002B3FF439AF2D
:103F70000F4836E7032304935CE70223049359E7D1
:103F8000012229465846009608ABFFF7A7FD0028F6
:103F90003FF4D4AE25E700BF00108450ABAAAAAA14
:103FA000020CF100310CF100300CF100350CF10085
:103FB000320CF10010B4DDE9013401940024DDF885
:103FC0000CC0CDE902C410BCFFF79ABE30B515464F
:103FD000012487B005AB00930022CDE9015404AB66
:103FE000FFF78EFE07B030BDF0B587B0002966D070
:103FF0001E46002B63D01446002A60D0314F0D4678
:1040000038684FF0FF31FFF74FFC00284DD10020FA
:10401000FFF77AFC002844D12B4800F03FFAD8B1D2
:1040200001204FF0FF35FFF76FFC002835D14FF42A
:1040300008712648FEF70EFF04212548FEF70AFF07
:1040400021482821FEF706FF3868FFF735FC0028D5
:104050002FD1284607B0F0BD1C4A0346029205AA9C
:10406000019204AA03900092174902461848FFF7EC
:10407000A1FF03460028D3D128461D46059B2246B2
:104080009C4228BF1A46049932600831FFF7F2FBC0
:104090000120FFF739FC0028C9D00E48FFF79AFC31
:1040A000C5E70D48FFF796FCB6E70C48FFF792FC12
:1040B000ADE70B48FFF78EFC284607B0F0BD4FF088
:1040C000FF35C6E79C1D0020003400202834002066
:1040D000FC3300200C4C0100EC4B0100D44B0100E0
:1040E000B04C010010B5044628B12046BDE8104090
:1040F000F421FFF7C1BB0448FFF76CFC2046BDE884
:104100001040F421FFF7B8BBC84C010010B1F421F6
:10411000FEF7A0BE704700BF08B521B1012908D045
:104120006FF0360008BD012100F058F80028F7D1E3
:1041300008BD022100F052F80028F9D0F0E700BFD6
:1041400030B505468818B0F5801F0B461446A1B05F
:1041500001D8802A0CD9B3F5801F17D922461946F9
:10416000284600F07DF8044684B9204621B030BDD1
:104170006846FFF77FFB22466946284600F070F844
:10418000802104466846FFF777FBEDE76FF03604C1
:10419000EBE700BF70B5E8B10E46D9B1044600F0B8
:1041A00031F80546B0B92368012B0BD0022B01D0A2
:1041B000284670BD1C22304604F10801FFF75AFB67
:1041C000284670BD2022304604F10801FFF752FB5B
:1041D000284670BD6FF03605EAE700BF78B138B504
:1041E0000D46F0210446FFF747FB4023204625609B
:1041F000E36500F091FA003818BF012038BD0120B6
:10420000704700BFF0B5056EA5B0044604AEE5B931
:1042100000230127019330466760294602AA0093D4
:1042200000F046FA10B1012025B0F0BD2A46204624
:1042300002A900F099FA0028F5D1204600F0AAFB67
:104240000028F0D1206625B0F0BD802D2A463046EA
:1042500028BF802204F16401FFF70CFB256ED7E72D
:10426000002800F0AE802DE9F04F1446A5B0002ADA
:104270003DD00F46002949D0B2F5803F0546006E7B
:1042800020D34FF6FF7805F1640AEB6D1A1AB2FBE2
:10429000F3F103FB1122002A65D18342B9464FF6A0
:1042A000FF7672D0B6FBF3FB03FB0BFBBBF1000FF9
:1042B00030D1002E45D1A4F57F44FF3CB4F5803FBA
:1042C0004744E2D2EA6D161AB6FBF2F302FB13661C
:1042D000A64228BF2646002E75D1824200F08D806E
:1042E000B4FBF2F602FB06F62EB9002C79D10020C1
:1042F00025B0BDE8F08F002331463846CDE90033C4
:1043000002AA00F0D5F9002800F09580012025B020
:10431000BDE8F08F002359464846CDE9003302AA94
:1043200000F0C6F90028F1D15A46284602A900F04B
:104330001BFA0028EAD1A6EB0B06286ED944002E02
:10434000B9D019304946324605EB8000FFF792FAA2
:10435000A4F57F44286EFF3C3044B4F5803F4744C9
:10436000286692D2AEE7424528BF424616463946F5
:104370005044FFF77FFA286EEB6D3044834207EB21
:1043800006092866A8EB06068CD1802B28BF80235F
:1043900051461A4604A8FFF76DFA0023E96D02AAF8
:1043A000CDE9003304A800F083F90028AED12846F7
:1043B000EA6D02A900F0D8F90028A7D1EB6D2866B4
:1043C00070E70120704705F164033946324618440E
:1043D000FFF750FA286EEA6D3044A41B3744286674
:1043E0007BE72B6E2246193305EB83003946FFF736
:1043F00041FA2B6E23442B6679E7802A28BF80225E
:1044000005F1640104A8FFF735FA0023E96D04A85B
:10441000CDE9003302AA00F04BF900287FF476AF13
:104420002846EA6D02A900F09FF900287FF46EAFDC
:10443000EA6D286654E73246284602A900F094F94E
:1044400000287FF463AF3744A41B4EE7F8B51C4641
:104450000546114816460F46FFF744FE21460E4812
:10446000FFF75AFE044620B10B48FFF74FFE2046E7
:10447000F8BD3A4629460848FFF762FE0446002880
:10448000F2D131460448FFF785FE04460248FFF7A3
:104490003DFE2046F8BD00BF483600201C2370B505
:1044A00082B001A90546019300F032F8044638B9FC
:1044B000019B1C2B07D0144C1C212846FFF7DCF96C
:1044C000204602B070BDD5E90112131E18BF0123AA
:1044D000003918BF0121012628689B00EA6843EAD9
:1044E0004103002818BF43F00103EE612AB9C5E972
:1044F0000834002BE4D1054CDEE7204643F00803E6
:10450000C5E9083402B070BD370CF0000E0CF000A5
:104510000346002866D0002964D00A681C2A61D1AD
:104520004FF47F023B49D2F8100C88425CD0D2F89D
:10453000101C013158D0D2F8101C4FF47F021960C2
:10454000D2F8140C3449884260D0D2F8141C0131DE
:104550005CD0D2F8141C4FF47F025960D2F8181CBA
:1045600011F5947F4FD0D2F8181C01314BD0D2F8FE
:10457000181C4FF47F029960D2F81C0C274988421E
:104580003ED0D2F81C1C01313AD0D2F81C1C4FF49A
:104590007F02D960D2F8001C70312FD0D2F8001CF5
:1045A00001312BD0D2F8001C4FF47F021961D2F8F0
:1045B000041CAF3120D0D2F8041C01311CD0D2F839
:1045C000041C4FF47F025961D2F8080C1449884248
:1045D0000DD0D2F8081C013109D0D2F8082C0020E7
:1045E0009A6170470120704740F6FC01A5E740F250
:1045F000373200209A6170475121E2E79021D3E7DA
:1046000042F60411C3E740F6D861B2E742F2D001A6
:10461000A1E700BFFCF8FFFFD020FFFF0429FFFF48
:1046200037F3FFFF014608B54FF48060FFF7AEF89F
:104630000022034BC3F8C821C3F82C2108BD00BFDA
:10464000001084500138072805D8DFE800F0100E6C
:10465000040A0404040607487047CB6800204B6234
:1046600070478B6800204B6270474B68F6E70B6819
:10467000F4E700BF310CF1000B6802E0082B0B607F
:1046800006D8026A13424FEA4303F7D0002070476E
:1046900000487047310CF1000022044B4FF4806059
:1046A000C3F82C21C3F8C421FFF756B8001084507A
:1046B000F0B5002483B0B0F1005F8DF8074025D33A
:1046C0008C468444BCF1804F04461FD817461D46D3
:1046D00001220DF1070300F097F90646B0B99DF8E5
:1046E0000730099A3C603B7192B14DB1024608997E
:1046F00028460DF1070300F087F938B99DF8073017
:104700003046099A1560137103B0F0BD4FF4750679
:10471000304603B0F0BD00BFD8B108B50368012B27
:1047200004D0022B0FD043B10B4808BD20220B4907
:104730000830FFF79FF8002008BD14220849083010
:10474000FFF798F8F7E7202206490830FFF792F8BC
:10475000F1E74FF4730070470100F300D84C0100FB
:10476000184D0100F84C01002DE9F843002900F034
:10477000F9800446002800F0F98003680F4690464F
:10478000002B00F0C380013B012B00F2D7804FF0DB
:10479000FF3178484FF00209FFF786F8002840F013
:1047A000BF800020FFF7B0F80646002840F0C28026
:1047B000714AD2F81C39002BFBD16F4DD5F8203C43
:1047C000002BFBD14FF0FF30FEF7C6FFD5F8040AEF
:1047D00020F04000FEF7CEFF01230722C5F818386D
:1047E000C5F80029C5F8C437A36CC5F8CC37E36C0D
:1047F000C5F8D037C5F8C09723685BB1013B012BE2
:1048000018D8636AC5F85C36236AC5F85836E36978
:10481000C5F85436A269584BC3F850266269C3F8EC
:104820004C262269C3F84826E268C3F84426A268E9
:10483000C3F84026504AD2F81039002BFBD1B8F10A
:10484000000F5FD063684020012B08BFC2F8843698
:104850003A68494BC3F8282CC3F82C8CFEF790FF1C
:104860000646454AD2F81039002BFBD1424AD2F80D
:10487000203C002BFBD123685BB1013B012B18D8F6
:10488000D2F85C366362D2F858362362D2F85436D6
:10489000E361394BD3F85026A261D3F84C2662610C
:1048A000D3F848262261D3F84426E260D3F8403694
:1048B000A36000230121304AD2F8CC07A064D2F8CB
:1048C000D007E064C2F8C417C2F88436C2F8C8370B
:1048D000D2F81039002BFBD1C2F81838002E3BD18A
:1048E000254BD3F8040A40F04000FEF743FF0120B7
:1048F000FFF70AF860BB1F48FEF7DEFF10BB30462B
:10490000BDE8F8830423C2F8C837AAE74FF0FF31A7
:1049100018484FF00109FEF7C7FF00283FF441AFE8
:104920001648FFF757F80020FEF7EEFF064600286E
:104930003FF43EAF1248FFF74DF839E7114E3046CD
:10494000BDE8F8831048FFF745F83046BDE8F88326
:104950000E48FFF73FF8CEE7102104F10800FEF7FC
:104960008BFFBDE70A4E3046BDE8F8834FF473066F
:10497000C5E700BFAC1D002000108450D44B0100DF
:10498000EC4B01000100F3002C4C01000C4C010029
:104990000300F300A0B3034670B4D0E90240D3E9AA
:1049A000041226BA05BA0CBA10BAC3E90440D3E916
:1049B0000612986A09BAC3E9026512BA996100BA87
:1049C000D3E9084125BA0CBAC3E90725D3E90B128C
:1049D000C3E9094009BAD86B12BAD962D3E90D41CB
:1049E00025BAC3E90C250CBA00BAD3E9101209BAEA
:1049F00012BAC3E90E40196400205A6470BC7047B3
:104A00004FF47300704700BF00201870704700BF5C
:104A100008B5074B044613B10021AFF30080054BE6
:104A20001868836A03B19847204600F0A7F800BFD2
:104A3000000000002C4D010070B50D4D00260D4CFE
:104A4000641BA410A64209D10B4D00260B4C00F0AC
:104A500097F8641BA410A64205D170BD55F8043B1D
:104A600001369847EEE755F8043B01369847F2E7E0
:104A7000681E0020681E0020681E00206C1E00209A
:104A8000884210B501EB020402D98442234607D8BC
:104A9000431EA14208D011F8012B03F8012FF8E7BB
:104AA000024401468A4200D110BD13F8014D02F8BC
:104AB000014DF7E7431810B501D21F2A01D9002094
:104AC00010BD013902F014030144102B80EA0104E7
:104AD0003CD009DC8BB1042BF1D11F2C40E840F312
:104AE00015D941E840F10EE0142BE8D11F2C40E825
:104AF000C0F30CD941E8C0F105E01F2C40E800F3F9
:104B000005D941E800F11C460B468C42D7D122F072
:104B10001402013A0A2AD2D801A151F822F000BFAA
:104B20006F4B0100694B01005B4B0100BF4A010064
:104B3000BF4A0100BF4A0100BF4A0100754B010096
:104B40006F4B0100634B01005B4B01001F2C40E8E1
:104B500080F3DCD941E880F1D5E713F4001FAFD131
:104B6000ADE713F4801FFAE75B02A9D5A7E713F4BA
:104B7000002FF4E713F4802FF1E700BFFEE700BF3A
:104B8000F8B500BFF8BC08BC9E467047F8B500BF3A
:104B9000F8BC08BC9E46704754464D5F435259507E
:104BA000544F0054464D5F504C4154464F524D5F58
:104BB0005345525649434500FF8FFFFFFF8FFFFFCC
:104BC000FE8FFFFFFE8FFFFFFD8FFFFFFC8FFFFFBC
:104BD000FC8FFFFF4661696C20746F206163717503
:104BE000697265206D757465780A00004661696CAC
:104BF00020746F20696E63726561736520504D206B
:104C0000636F756E7465720A000000004661696C1E
:104C100020746F20646563726561736520504D2058
:104C2000636F756E7465720A000000004661696CFE
:104C300020746F2072656C65617365206D75746595
:104C4000780A0000436F756C64206E6F74206C6F7F
:104C5000636B20706F7765722073617665206D7568
:104C6000746578006D757465785F6672656520633C
:104C7000616C6C65642077697468204E554C4C20DB
:104C8000706172616D6574657200000043616E272A
:104C90007420696E697469616C697A65206D7574D8
:104CA00065782C20776173204E554C4C0D0A00001E
:104CB0004661696C20746F20756E6C6F636B206D3C
:104CC000757465780A0000000A637478206973209F
:104CD0004E554C4C0A00000067E6096A85AE67BB7A
:104CE00072F36E3C3AF54FA57F520E518C68059BCE
:104CF000ABD9831F19CDE05BD89E05C107D57C36A3
:104D000017DD703039590EF7310BC0FF1115586897
:104D1000A78FF964A44FFABE0123456789ABCDEF95
:104D2000FEDCBA9876543210F0E1D2C3081E00209F
:104D30000000000000000000000000000000000073
:104D40000000000000000000000000000000000063
:104D50000000000000000000000000000000000053
:104D60000000000000000000000000000000000043
:104D70000000000000000000000000000000000033
:104D80000000000000000000000000000000000023
:104D90000000000000000000000000000000000013
:104DA000FCF7F0F81FBD1FB515486946F8E71FB5B9
:104DB00014486946F4E71FB513486946F0E71FB584
:104DC00012486946ECE71FB511486946E8E71FB588
:104DD00010486946E4E71FB50F486946E0E71FB58C
:104DE0000E486946DCE71FB50D486946D8E71FB590
:104DF0000C486946D4E71FB50B486946D0E7000068
:104E0000DD0F0100E30F010011100100CD110100C1
:104E10000512010069120100E51201002D130100C5
:104E2000A51301003F140100D90F010044D9FF7FF1
:044E3000010000007D
:107C00007FE97FE9FAF72CBD7FE97FE9FAF73BBD11
:107C10007FE97FE9FAF74ABD00000000000000009C
:107C200090ED00E0641F0020801E0020880301000A
:107C3000000C0020192C0100152C0100A41D0020AF
:107C4000D41D0020CC1D0020C81D0020C41D002014
:107C5000A5390100993901008D39010000000000AB
:107C6000B1390100001E0020F81D0020F01D002089
:107C700000000000E81D0020BD3A0100093A0100A3
:107C80003D3A0100853A0100EC3300203A00003A09
:107C9000F03300203A00003AF43300203A00003A72
:107CA000F83300203A00003A00000000704D010057
:107CB000504D0100304D01000000000000000000A8
:107CC00000000000000000000000000000000000B4
:107CD00000000000000000000000000000000000A4
:107CE0000000000000000000000000000000000094
:107CF0000000000000000000000000000000000084
:107D000000000000000000005127010029270100A9
:10800000F04E012069410200DB3204003D410200D4
:108010003D4102003D4102003D4102003D41020060
:10802000000000000000000000000000A139020074
:108030003D41020000000000413902003D410200C4
:10804000293A0200293A0200293A0200293A02009C
:10805000293A0200293A0200293A0200293A02008C
:10806000293A0200293A0200293A0200293A02007C
:10807000293A0200293A0200293A0200293A02006C
:10808000293A0200293A0200293A0200293A02005C
:10809000293A0200293A0200293A0200293A02004C
:1080A000293A0200293A0200293A0200293A02003C
:1080B000293A0200293A0200293A0200293A02002C
:1080C000293A0200293A0200293A0200293A02001C
:1080D000293A0200293A0200293A0200293A02000C
:1080E000293A0200293A0200293A0200293A0200FC
:1080F000293A0200293A0200293A0200293A0200EC
:10810000293A0200293A0200293A0200293A0200DB
:10811000293A0200293A0200293A0200293A0200CB
:10812000293A0200293A0200293A0200293A0200BB
:10813000293A0200293A0200293A0200293A0200AB
:10814000293A0200FFFFFFFF4FF0FF0C1CEAD0525C
:108150001EBF1CEAD15392EA0C0F93EA0C0F6FD0AA
:108160001A4480EA010C400218BF5FEA41211ED088
:108170004FF0006343EA501043EA5111A0FB013174
:108180000CF00040B1F5000F3EBF490041EAD37149
:108190005B0040EA010062F17F02FD2A1DD8B3F1C5
:1081A000004F40EBC25008BF20F00100704790F034
:1081B000000F0CF0004C08BF49024CEA502040EA86
:1081C00051207F3AC2BFD2F1FF0340EAC25070474C
:1081D00040F400004FF00003013A5DDC12F1190F8A
:1081E000DCBF00F000407047C2F10002410021FAFC
:1081F00002F1C2F1200200FA02FC5FEA310040F114
:10820000000053EA4C0308BF20EADC70704792F08C
:10821000000F00F0004C02BF400010F4000F013AC4
:10822000F9D040EA0C0093F0000F01F0004C02BFBF
:10823000490011F4000F013BF9D041EA0C018FE72E
:108240000CEAD15392EA0C0F18BF93EA0C0F0AD034
:1082500030F0004C18BF31F0004CD8D180EA01005A
:1082600000F00040704790F0000F17BF90F0004FF3
:10827000084691F0000F91F0004F14D092EA0C0FD5
:1082800001D142020FD193EA0C0F03D14B0218BF68
:10829000084608D180EA010000F0004040F0FE40AE
:1082A00040F40000704740F0FE4040F4400070474A
:1082B00081F0004102E000BF83F0004330B54FEA97
:1082C00041044FEA430594EA050F08BF90EA020F04
:1082D0001FBF54EA000C55EA020C7FEA645C7FEA97
:1082E000655C00F0E2804FEA5454D4EB5555B8BFBA
:1082F0006D420CDD2C4480EA020281EA030382EA2B
:10830000000083EA010180EA020281EA0303362DBC
:1083100088BF30BD11F0004F4FEA01314FF4801C8F
:108320004CEA113102D0404261EB410113F0004FA1
:108330004FEA03334CEA133302D0524263EB430358
:1083400094EA050F00F0A780A4F10104D5F1200EF6
:108350000DDB02FA0EFC22FA05F2801841F1000151
:1083600003FA0EF2801843FA05F359410EE0A5F125
:1083700020050EF1200E012A03FA0EFC28BF4CF056
:10838000020C43FA05F3C01851EBE37101F000450C
:1083900007D54FF0000EDCF1000C7EEB00006EEB19
:1083A0000101B1F5801F1BD3B1F5001F0CD34908A3
:1083B0005FEA30004FEA3C0C04F101044FEA4452FA
:1083C00012F5800F80F09A80BCF1004F08BF5FEA81
:1083D000500C50F1000041EB045141EA050130BD61
:1083E0005FEA4C0C404141EB0101013C28BFB1F573
:1083F000801FE9D291F0000F04BF01460020B1FABE
:1084000081F308BF2033A3F10B03B3F120020CDA90
:108410000C3208DD02F1140CC2F10C0201FA0CF06E
:1084200021FA02F10CE002F11402D8BFC2F1200CD3
:1084300001FA02F120FA0CFCDCBF41EA0C01904089
:10844000E41AA2BF01EB0451294330BD6FEA0404D2
:108450001F3C1CDA0C340EDC04F11404C4F12002BD
:1084600020FA04F001FA02F340EA030021FA04F3CF
:1084700045EA030130BDC4F10C04C4F1200220FA26
:1084800002F001FA04F340EA0300294630BD21FA64
:1084900004F0294630BD94F0000F83F4801306BF2A
:1084A00081F480110134013D4EE77FEA645C18BF1E
:1084B0007FEA655C29D094EA050F08BF90EA020FB5
:1084C00005D054EA000C04BF1946104630BD91EAAD
:1084D000030F1EBF0021002030BD5FEA545C05D1B0
:1084E0004000494128BF41F0004130BD14F58004EF
:1084F0003CBF01F5801130BD01F0004545F0FE4163
:1085000041F470014FF0000030BD7FEA645C1ABF97
:10851000194610467FEA655C1CBF0B46024650EACE
:10852000013406BF52EA033591EA030F41F40021FA
:1085300030BD00BF90F0000F04BF0021704730B580
:108540004FF4806404F132044FF000054FF0000155
:1085500050E700BF90F0000F04BF0021704730B516
:108560004FF4806404F1320410F0004548BF4042EB
:108570004FF000013EE700BF42004FEAE2014FEA40
:1085800031014FEA02701FBF12F07F4393F07F4F1B
:1085900081F06051704732F07F4208BF704793F01E
:1085A0007F4F04BF41F40021704730B54FF4607431
:1085B00001F0004521F000411CE700BF50EA010234
:1085C00008BF704730B54FF000050AE050EA0102DD
:1085D00008BF704730B511F0004502D5404261EB4D
:1085E00041014FF4806404F132045FEA915C3FF48E
:1085F000D8AE4FF003025FEADC0C18BF03325FEA2B
:10860000DC0C18BF033202EBDC02C2F1200300FADB
:1086100003FC20FA02F001FA03FE40EA0E0021FA00
:1086200002F11444BDE600BF70B54FF0FF0C4CF4EE
:10863000E06C1CEA11541DBF1CEA135594EA0C0FA0
:1086400095EA0C0F00F0DEF82C4481EA030621EADB
:108650004C5123EA4C5350EA013518BF52EA033516
:1086600041F4801143F4801338D0A0FB02CE4FF0C8
:108670000005E1FB02E506F00042E0FB03E54FF0F8
:108680000006E1FB03569CF0000F18BF4EF0010EF0
:10869000A4F1FF04B6F5007F64F5407404D25FEAEC
:1086A0004E0E6D4146EB060642EAC62141EA55519F
:1086B0004FEAC52040EA5E504FEACE2EB4F1FD0CE1
:1086C00088BFBCF5E06F1ED8BEF1004F08BF5FEA5F
:1086D000500E50F1000041EB045170BD06F0004611
:1086E00046EA010140EA020081EA0301B4EB5C04BE
:1086F000C2BFD4EB0C0541EA045170BD41F48011B6
:108700004FF0000E013C00F3AB8014F1360FDEBFDA
:10871000002001F0004170BDC4F10004203C35DAB6
:108720000C341BDC04F11404C4F1200500FA05F339
:1087300020FA04F001FA05F240EA020001F00042DA
:1087400021F0004110EBD37021FA04F642EB060150
:108750005EEA430E08BF20EAD37070BDC4F10C047A
:10876000C4F1200500FA04F320FA05F001FA04F23E
:1087700040EA020001F0004110EBD37041F100012A
:108780005EEA430E08BF20EAD37070BDC4F1200535
:1087900000FA05F24EEA020E20FA04F301FA05F29D
:1087A00043EA020321FA04F001F0004121FA04F245
:1087B00020EA020000EBD3705EEA430E08BF20EA15
:1087C000D37070BD94F0000F0FD101F0004640004F
:1087D00041EB010111F4801F08BF013CF7D041EAD1
:1087E000060195F0000F18BF704703F000465200D5
:1087F00043EB030313F4801F08BF013DF7D043EAA6
:108800000603704794EA0C0F0CEA135518BF95EA5B
:108810000C0F0CD050EA410618BF52EA4306D1D1E2
:1088200081EA030101F000414FF0000070BD50EA01
:10883000410606BF1046194652EA430619D094EA8B
:108840000C0F02D150EA013613D195EA0C0F05D175
:1088500052EA03361CBF104619460AD181EA0301C9
:1088600001F0004141F0FE4141F470014FF0000081
:1088700070BD41F0FE4141F4780170BD70B54FF01C
:10888000FF0C4CF4E06C1CEA11541DBF1CEA13559C
:1088900094EA0C0F95EA0C0F00F0A7F8A4EB05047E
:1088A00081EA030E52EA03354FEA013100F0888075
:1088B0004FEA03334FF0805545EA131343EA12633E
:1088C0004FEA022245EA111545EA10654FEA0026F3
:1088D0000EF000419D4208BF964244F1FD0404F5AC
:1088E000407402D25B084FEA3202B61A65EB030508
:1088F0005B084FEA32024FF480104FF4002CB6EBC5
:10890000020E75EB030E22BFB61A754640EA0C0044
:108910005B084FEA3202B6EB020E75EB030E22BF84
:10892000B61A754640EA5C005B084FEA3202B6EBC5
:10893000020E75EB030E22BFB61A754640EA9C0084
:108940005B084FEA3202B6EB020E75EB030E22BF54
:10895000B61A754640EADC0055EA060E18D04FEA12
:10896000051545EA16754FEA06164FEAC30343EAB2
:1089700052734FEAC2025FEA1C1CC0D111F4801F7F
:108980000BD141EA00014FF000004FF0004CB6E778
:1089900011F4801F04BF01430020B4F1FD0C88BF17
:1089A000BCF5E06F3FF6AFAEB5EB030C04BFB6EB22
:1089B000020C5FEA500C50F1000041EB045170BD15
:1089C0000EF0004E4EEA113114EB5C04C2BFD4EB42
:1089D0000C0541EA045170BD41F480114FF0000EC6
:1089E000013C90E645EA060E8DE60CEA135594EA42
:1089F0000C0F08BF95EA0C0F3FF43BAF94EA0C0F45
:108A00000AD150EA01347FF434AF95EA0C0F7FF4B9
:108A100025AF104619462CE795EA0C0F06D152EA0D
:108A200003353FF4FDAE1046194622E750EA4106F1
:108A300018BF52EA43067FF4C5AE50EA41047FF402
:108A40000DAF52EA43057FF4EBAE12E74FF0FF3C67
:108A500006E000BF4FF0010C02E000BF4FF0010C38
:108A60004DF804CD4FEA410C7FEA6C5C4FEA430CB1
:108A700018BF7FEA6C5C1BD001B050EA410C0CBF00
:108A800052EA430C91EA030F02BF90EA020F002062
:108A9000704710F1000F91EA030F58BF994208BFC9
:108AA00090422CBFD8176FEAE37040F00100704786
:108AB0004FEA410C7FEA6C5C02D150EA013C07D1DD
:108AC0004FEA430C7FEA6C5CD6D152EA033CD3D028
:108AD0005DF8040B704700BF8446104662468C4622
:108AE0001946634600E000BF01B5FFF7B7FF002855
:108AF00048BF10F1000F01BD4DF808EDFFF7F4FF7E
:108B00000CBF012000205DF808FB00BF4DF808ED08
:108B1000FFF7EAFF34BF012000205DF808FB00BF2B
:108B20004DF808EDFFF7E0FF94BF012000205DF84D
:108B300008FB00BF4DF808EDFFF7CEFF94BF012002
:108B400000205DF808FB00BF4DF808EDFFF7C4FFFB
:108B500034BF012000205DF808FB00BF4FEA410C44
:108B60007FEA6C5C02D150EA013C0AD14FEA430C27
:108B70007FEA6C5C02D152EA033C02D14FF0000064
:108B800070474FF0010070474FEA410212F50012A2
:108B900015D211D56FF47873B3EB625212D94FEA44
:108BA000C12343F0004343EA505311F0004F23FA2E
:108BB00002F018BF404270474FF00000704750EA83
:108BC000013005D111F0004008BF6FF00040704740
:108BD0004FF00000704700BF4A0011D212F500129A
:108BE00011D20DD56FF47873B3EB62520ED44FEA05
:108BF000C12343F0004343EA505323FA02F0704785
:108C00004FF00000704750EA013002D14FF0FF30C2
:108C100070474FF0000070474FEA4102B2F1E04365
:108C200024BFB3F5001CDCF1FE5C0DD901F0004C53
:108C30004FEAC0024CEA5070B2F1004F40EB8300A3
:108C400008BF20F00100704711F0804F21D113F1CF
:108C50003872BCBF01F00040704741F480114FEA08
:108C60005252C2F11802C2F1200C10FA0CF320FA91
:108C700002F018BF40F001004FEAC1234FEAD323AE
:108C800003FA0CFC40EA0C0023FA02F34FEA430318
:108C9000CCE77FEA625307D150EA01331EBF4FF0A1
:108CA000FE4040F44000704701F0004040F0FE40BC
:108CB00040F40000704700BF80F0004002E000BFB9
:108CC00081F0004142001FBF5FEA410392EA030FB7
:108CD0007FEA226C7FEA236C6AD04FEA1262D2EB01
:108CE0001363C1BFD218414048404140B8BF5B4206
:108CF000192B88BF704710F0004F40F4000020F09F
:108D00007F4018BF404211F0004F41F4000121F0B4
:108D10007F4118BF494292EA030F3FD0A2F10102FE
:108D200041FA03FC10EB0C00C3F1200301FA03F13C
:108D300000F0004302D5494260EB4000B0F5000F5F
:108D400013D3B0F1807F06D340084FEA310102F11E
:108D50000102FE2A51D2B1F1004F40EBC25008BFD0
:108D600020F0010040EA03007047490040EB00009A
:108D7000013A28BFB0F5000FEDD2B0FA80FCACF19B
:108D8000080CB2EB0C0200FA0CF0AABF00EBC250C8
:108D900052421843BCBFD0401843704792F0000FB6
:108DA00081F4000106BF80F400000132013BB5E709
:108DB0004FEA41037FEA226C18BF7FEA236C21D07F
