:020000040000FA
:10000000F03F0020591D0000835D00002D1D000001
:100010002D1D00002D1D00002D1D00002D1D0000B8
:10002000000000000000000000000000311A000085
:100030002D1D0000000000002D1D00002D1D0000E2
:10004000911A0000911A0000911A0000911A000004
:10005000911A0000911A0000911A0000911A0000F4
:10006000911A0000911A0000911A0000911A0000E4
:10007000911A0000911A0000911A0000911A0000D4
:10008000911A0000911A0000911A0000911A0000C4
:10009000911A0000911A0000911A0000911A0000B4
:1000A000911A0000911A0000911A0000911A0000A4
:1000B000911A0000911A0000911A0000911A000094
:1000C000911A0000911A0000911A0000911A000084
:1000D000911A0000911A0000911A0000911A000074
:1000E000911A0000911A0000911A0000911A000064
:1000F000911A0000911A0000911A0000911A000054
:10010000911A0000911A0000911A0000911A000043
:10011000911A0000911A0000911A0000911A000033
:10012000911A0000911A0000911A0000911A000023
:10013000911A0000911A0000911A0000911A000013
:10014000911A000053B94AB9002908BF00281CBF02
:100150004FF0FF314FF0FF3000F00CB8ADF1080C5C
:100160006DE904CE00F008F8DDF804E0DDE90223D3
:1001700004B07047704700BF2DE9F04786468C46B3
:100180000846089E154674461946002B40F0C1806B
:100190008542B2FA82F245D94AB1C2F1200300FA8F
:1001A00002FC954094402EFA03F343EA0C0C4FEA0C
:1001B000154EA8B2230CBCFBFEF80EFB18CC08FBB6
:1001C00000F943EA0C43994528D9EB1808F1FF37A9
:1001D00004D2994502D9A8F102072B44A3EB0903E5
:1001E000A4B2B3FBFEFC0EFB1C330CFB00F044EA94
:1001F0000344A04214D92C190CF1FF3304D2A042BD
:1002000002D9ACF102032C44241A43EA07401EB180
:10021000D440002334607360BDE8F0874746DDE7D3
:100220006346F1E792BB431B01214FEA154EAFB283
:10023000200CB3FBFEFC0EFB1C330CFB07F840EA62
:100240000343984561D9EB180CF1FF3004D298456F
:1002500002D9ACF102002B44A3EB0803A4B2B3FB18
:10026000FEFC0EFB1C330CFB07F744EA0344A742D9
:100270004DD92C190CF1FF3304D2A74202D9ACF1AD
:1002800002032C44E41B43EA0040C0E7C2F1200310
:100290009540944020FA03F12EFA03F34FEA154EED
:1002A0009040AFB20343B1FBFEFC0EFB1C10190CD7
:1002B0000CFB07F841EA0041884522D969180CF186
:1002C000FF3004D2884502D9ACF102002944A1EBE9
:1002D00008019BB2B1FBFEFC0EFB1C110CFB07F7E7
:1002E00043EA01439F420ED9EB180CF1FF3104D2CF
:1002F0009F4202D9ACF102012B44DB1B41EA0041D1
:1003000093E76046E3E76146F7E76046A4E76346A4
:10031000B8E7834206D916B9002108467CE7C6E94A
:1003200000E0F9E7B3FA83F78FB9834201D372454E
:1003300008D8BEEB020460EB030301209C461EB903
:10034000002169E73846FAE7C6E9004CF8E7C7F14B
:10035000200CBB400EFA07F522FA0CF42EFA0CF131
:10036000BA401C4320FA0CF3B8404FEA1449014349
:100370001FFA84FEB3FBF9F809FB18300B0C08FBDD
:100380000EFA43EA00439A4540D9E31808F1FF30DA
:1003900004D29A4502D9A8F102002344A3EB0A0330
:1003A00089B2B3FBF9F809FB183308FB0EFE41EAEA
:1003B00003418E452CD9611808F1FF3304D28E45D4
:1003C00002D9A8F10203214443EA0040A1EB0E0147
:1003D000A0FB02984145CE46434602D306D14D4587
:1003E00004D20138B9EB020E68EB0403002EA7D04B
:1003F000B5EB0E0261EB030101FA0CFC22FA07F3E4
:10040000F9404CEA0303C6E9003199E74046C5E7E5
:100410004346D9E7F0B5284B284A85B0C3F80026F3
:10042000C3F80426C3F80826C3F80C26C3F8102620
:10043000C3F81426C3F81826C3F81C2604F001FFDD
:1004400000F010FA054601A800F058FC04462846C2
:1004500000F018FA1A4B1B68A34201D005F009F806
:100460004FF48031002002F0FDFB044600B1FEE7AE
:1004700069469DF8080004F0BAFE009B039D1D44E8
:10048000019B1E8902F0D6FBAF1900F013FE00F0AD
:10049000F5FD01F0A3FC84F30B8884F30A88AB59C3
:1004A00083F3088884F31488BFF36F8FBFF36F8FD3
:1004B0007B689847FEE700BF008001503546526ECA
:1004C000080000202DE9F04F1D46844BDBB0144698
:1004D000DDE966781E68DDF890B1DDF8A0A100F0D6
:1004E00097FD01227E4B3AA8C3F8002503F0B8FD22
:1004F0003FB1B8F1000F04DD424639463AA805F095
:10050000BBFA4FF00008638927891F44E3681F4442
:10051000474557D80DA93AA803F014FE0022704BA6
:10052000C3F80025C3F80025BAF1000F04D020223B
:1005300050460DA905F043FC00232A4600932146AE
:100540004FF6FF7307A804F07DFE804600284AD1CD
:1005500028460C9C04F07EFF844244D84FF0FF34C0
:10056000DFF884B1DFF878910DF1160305AA06A92A
:1005700007A804F0B5FE002835DB40F0A680BDF8E2
:100580001670102F39D1BDF81480B8F1200F2AD180
:100590004346284606993AAA05F074FB18BB00F0BA
:1005A00061F9424607463AA90DA800F023F98046B2
:1005B000384600F067F94B4B1B68434513D14FF0A9
:1005C0000108D1E7659BA7EB0809994528BF994623
:1005D0005A464B464146284605F054FB30B10022AE
:1005E0003F4BC3F800253D4B1E6871E04A46594613
:1005F0003AA805F041FAC8448AE7012F3FD1BDF877
:100600001430202BEFD8284606993AAA05F03AFB79
:1006100004460028E7D19DF81430202B02930AD815
:10062000DBF80030DFF8C4A00393039B9C4205DB9A
:100630000023C9F800354FF0FF3495E700F0E8FCDF
:10064000C9F800751DA803F00BFDDAF804201DA8F9
:1006500012685AF8081B05F00FFA15A91DA803F037
:1006600071FD0022C9F80025029A3AA915A805F0E3
:1006700096FB10B9C9F8000576E70134D5E7222FBB
:100680007FF472AF631C3FF46FAFDBF80030A3421E
:10069000D1DDBDF81430802BA5D8284606993AAA9A
:1006A00005F0F0FA00289ED100F0DCF8E4B207462D
:1006B0002021BDF814303AAA00940DA800F018F8D3
:1006C0000646384600F0DEF8B5E7B8F1000F8AD0EC
:1006D00000F0D0F830465BB0BDE8F08F0400002099
:1006E0000000845008000020786900007C69000048
:1006F0002DE9F04796B016461D469DF87820384BF8
:10070000074653F8321003EBC2035B680191186887
:10071000DFF8DC800144302302AA01A8D8F8009059
:1007200005F038F9002851D1DDE901431C44214688
:1007300006AB03AA01A805F055F9002846D1049A92
:10074000072A43D12749059805F029FB00283DD108
:10075000079A082A3AD12449089805F020FBA8BB3B
:10076000214602AA01A805F029F978BBDDE901A319
:100770000AEB0302944229D1412B27D1354430237F
:10078000294603AA02A8029605F004F9E0B9DDE9BA
:10079000023213449D4217D32A4602A906A804F048
:1007A000EBFD88B92A4602A90EA804F0E5FD58B968
:1007B0009AF80030042B07D12023384606AA0AF104
:1007C000010100F03DFC38B1D8F8009000F052F87B
:1007D000484616B0BDE8F087044BD3F80090F5E723
:1007E0007C6900002D6D0000246D000008000020D1
:1007F0000400002070B5094B04461D680023934295
:1008000005D1074B1D6800F035F8284670BDE65C41
:10081000C85C8642F7D10133F1E700BF0400002035
:10082000080000201FB503200C4601F00BF850B95A
:100830002068102381686A46103905F023FA28B130
:10084000206805F01EFA4FF0FF3006E010226846DF
:10085000034905F0A4FA0028F2D104B010BD00BF8E
:100860000C6D0000024B1868421C1A60704700BFF4
:10087000D0010020024A1368013B1360704700BF9B
:10088000D0010020034B1B68834201D004F0F1BD6E
:10089000704700BFD00100202DE9F04F3D4B8BB0D9
:1008A000064600200D461C6804F0A7FC08A9C0B24B
:1008B00000F0C8FF28B1FFF7DDFF20460BB0BDE810
:1008C000F08F294604F099FC4FF02C0B09A9C0B217
:1008D0000BFB056B00F0B6FF00283FD02C276F43C1
:1008E00006EB0708D8F8104014F0100447D1FFF7C2
:1008F000B9FF089B81460793FFF7B4FF4FF480725E
:100900000192254A21468246CDE90344079B029481
:10091000009220465A46FFF7D5FD04465046FFF7A1
:10092000B1FFFFF7A7FF4846FFF7ACFF1B4BF2599B
:1009300008989A420CD1D8F80C20B8F808309B18C7
:1009400006D28268934203D2154B1B68A3421DD086
:10095000D5B10021826805F0BFF915E0099805F0CE
:10096000D8F90446099805F08CF90BF1FF330BF127
:10097000030213F8011FA142B0D19342F9D11DB176
:100980003046089904F04AFE064B1C68089805F0AA
:1009900078F990E704000020E40E00203DB8F396BB
:1009A00008000020000000207FB50D46002104460D
:1009B0002846CDE9021104F0F0FDE8B1154E236898
:1009C000B34203D1204603AA04F07CFDE36AB3429C
:1009D00004D10121204602AA04F074FDDDE90232AF
:1009E000934288BF0393039BAB6029462046039A3A
:1009F00000F02CFA04B070BD01A9FFF713FF0198B5
:100A000005F1080104F001FDAB680198039305F0BE
:100A100038F9EAE73DB8F3962DE9F84F8846914654
:100A20009A460026DFF870B0194C1A4D0B9B9E4277
:100A300001D300200FE00B9B40469F1BB7F5806F52
:100A400028BF4FF48067144A3B4606EB0A0105F0C5
:100A500019F910B10120BDE8F88F0A993B465A46B2
:100A60004846711805F023F90028F3D1C4F8005660
:100A70003E44C4F80456C4F80856C4F80C56C4F8EA
:100A80001056C4F81456C4F81856C4F81C56CDE7CE
:100A9000008001503546526ED40900202DE9F04106
:100AA0000E460021904B86B04362904B044603658E
:100AB000084604F0A2FB04F12001C0B200F0C2FE1F
:100AC0000121002004F099FB04F14C01C0B200F0B8
:100AD000B9FE204604F037FD002849D10022204607
:100AE000114604F0D9FC002859D1204604F0C2FE7A
:100AF000002854D002A804F047FD0146204604F027
:100B0000E2FD00284BD102A804F047FD80F001016E
:100B100002AA2046C9B204F0BFFC024600283ED11A
:100B200002A804F03AFD0546E8BB204602A9FFF7FB
:100B30003BFF9DF80F3084F85830033B012B06D85B
:100B4000284604F00FFE10B1FF2384F858309DF8BA
:100B50000F30023B022B06D8002004F0F1FD10B14B
:100B6000FF2384F8583094F85830FF2B12D1FEE759
:100B70000123984284F85830B0D194F85830042BAF
:100B80008DF80F3045D8012B49D85BD0FF2384F86E
:100B9000583057E00021204602AA04F07DFC0123D2
:100BA00084F85830E9E79DF80F70012F1ED11046E8
:100BB00002F0ECF8831E022B054614D8FFF752FE14
:100BC000394680462046FFF767FE07464046FFF756
:100BD00059FE474B1B689F4205D0464B1D68AF42EC
:100BE00014BF0525012584F85850C6E7FFF73AFEE3
:100BF000012107462046FFF74FFE05463846FFF71E
:100C000041FE3B4B1B689D4214BF05239DF80F30EE
:100C1000C6E7052BBAD1002004F0A4FD10E0204661
:100C200002A9FFF7C1FE94F85830DA1E012A2DD828
:100C3000002004F097FD0028A8D1002004F080FDDA
:100C40000028A3D194F85830FF2B01D104F011FCF7
:100C5000002194F85830284F012B019119D02046DB
:100C600002AA04F019FCA0B13D681022002102A8DC
:100C700005F0B0F8E06C05F004F8206A05F001F822
:100C8000FFF7F8FD284606B0BDE8F081022BD9D168
:100C9000D3E7FFF7E7FD002180462046FFF7FCFD84
:100CA00005464046FFF7EEFDDFF84480D8F80030F7
:100CB0009D42D9D13B689D42D6D00E4B1B689D42C8
:100CC000D2D0019B01330193019B012B01D004F091
:100CD000D0FB206A04F09AFA3071236A5B683460B2
:100CE000D8F80050B360C0E7D4050020D40100203C
:100CF00008000020000000200400002070B50B4E0A
:100D0000044660220021304605F064F8FFF7AAFD92
:100D1000214605463046FFF7C1FE04462846FFF748
:100D2000B1FDFFF7A7FD204670BD00BFD40D002028
:100D30002DE9F34106460C4617461D460BB9002621
:100D400028E0184604F029FC0028F8D16946FFF78E
:100D500069FD009838B90124009804F092FF2046FC
:100D600002B0BDE8F08101A904F04FFB0028F2D1E8
:100D7000009804F086FF3046019904F011FD736A73
:100D80005E686B79012B21D1002CD8D12B6883426E
:100D900098BF00262146002004F02FFA6946C0B211
:100DA00000F050FD0028D6D120233A463146009865
:100DB00004F068FF04460028CDD1002DCCD03C685B
:100DC0000D4BE41A18BF4FF0FF34C5E7022BB6D124
:100DD0002B68012B05D98342B1D8B4FA84F4640995
:100DE000ADE7ACD1002CD5D0012CA8D12C79023C98
:100DF00018BF0124A3E700BF3DB8F39673B54B6855
:100E00001446114A03F0FF23934206460D4618D1BB
:100E10000B68012B15D16946204601F061FF9DF852
:100E20000030032B0DD12146304604F0F7FB20465D
:100E300005F098FA2046A96804F0FDFA204601F072
:100E40002FFF02B070BD00BF000100042DE9F04F7C
:100E5000054689B00C46114604F0A2FC6B6A03906B
:100E600020465E6804F099FB90B1E86D04F0B0FA9A
:100E70000022AB6A013B3244904201D9013BFAE7C0
:100E8000039A9A4204D30123E37109B0BDE8F08FBD
:100E900006A9032000F0D6FC07A9092000F0D2FC27
:100EA00021462846079AFFF7A9FF6379012B4BD10A
:100EB000039FDFF858B141E022680399C2F10103B2
:100EC0000B449F4239D86B6A012A196853F83700DE
:100ED00003EBC70353F8083CA0EB0109A3EB010A9D
:100EE00011D1079B0493E368022B08D041462846A2
:100EF00004F094FB22464146284604F0C5FB2846F0
:100F0000049904F08BFB32464946404604F084FBCA
:100F10005346424641462846CDE90096FFF77CFD00
:100F20002146284604F046FB23680133236020B1A4
:100F3000DBF800300133CBF80030013FDDF81880DA
:100F4000002FB9D101232360022301276371039B82
:100F5000DDF81890BB4206D2484604F092FE07988E
:100F600004F08FFE91E723689F424DD36A6AFB002D
:100F700052F83710083BD2F800B00491D1582A6DCE
:100F8000DDF81CA0D0581368A0EB03082379012BCF
:100F900038D1A1EB0B0132464846059104F03CFBE9
:100FA000059943464A460091284651460196FFF767
:100FB00033FD2146284604F0FDFA0223237118B1BF
:100FC000124A13680133136032464146504604F01A
:100FD00023FB049B5246A3EB0B0349462846CDE96D
:100FE0000086FFF719FD2146284604F0E3FA23683E
:100FF000013323600123237130B1044A13680133A4
:10100000136001E0022BDFD00137A0E7340E00208F
:1010100070B5094D2B780BB1002070BD0126074C2F
:10102000C4F8006503F0BEF818B92E70C4F80005C6
:10103000F2E74FF0FF30F0E7E40F002000008450AB
:101040002DE9F041ACB01F4606460C461546FFF7A9
:10105000DFFF0123DFF820802A46C8F8003521464B
:101060003346009703A805F0A1FA0023C8F800351D
:101070002CB0BDE8F08100BF00008450BFF36F8F3B
:1010800072B600234FF0FF30094A03F1200101330B
:10109000102B42F82100F8D100234FF0FF30044A12
:1010A00003F160010133102B42F82100F8D17047A1
:1010B00000E100E038B501224FF0FF3400251A4B63
:1010C00029465A60C3F84843C3F8084303F58053E0
:1010D0005A60C3F84843C3F80843A3F55043C3F824
:1010E00000558022C3F80843104804F073FE8022A4
:1010F00029460F4804F06EFE0E4B8022C3F80055BF
:101100002946C3F808430C4804F064FE80222946AF
:101110000A4804F05FFE0A4BC3F808454FF050231D
:10112000C3F8084338BD00BF004001508080005024
:1011300080810050009000508090005080910050BD
:1011400000700150014B1B68184700BF0C000020C5
:10115000014B1860704700BF0C00002007B50B461C
:10116000002102460091034800F014F903B05DF835
:1011700004FB00BF451100002DE9F047058B044634
:101180002807904611D4022905F0070540F0CD80CC
:10119000204604F09BFC78B10138218B042811D83B
:1011A000DFE800F0C3106D85950001290CBF45F004
:1011B000100545F02005258388F31188BFF36F8F54
:1011C000BDE8F08701F0070AAA4500F0A6800027D5
:1011D000B9463E46A368002B00F0BD8041F00801EF
:1011E000218388F31188BFF36F8FA168002900F075
:1011F000BB800D68002900F0B78033465246204678
:10120000D1F80480C047002D76D02B6829461D46B2
:10121000F0E701F007035A1F012A1BD8002221F032
:101220000701062B276889B2C4E9002209D13B4691
:1012300003E0628B013262831B68002BF9D141F01D
:1012400002012046218304F041FC00287BD041F0BC
:10125000200177E0042B0AD121F0070189B2204652
:10126000218304F033FC10B141F020012183218B54
:1012700001F0070AAA4550D00027B946AAE723691A
:1012800021F0070141F00601062DD3F800902183DB
:101290002DD1B9F1000F40D041F00801218388F32E
:1012A0001188BFF36F8F20463949C84729E021F0E4
:1012B0000701236941F0040189B2042DD3F8049099
:1012C0002183E6D000274FF0040A3E4682E721F052
:1012D0000701236941F0050189B2052DD3F8089073
:1012E0002183D6D000274FF0050A3E4672E700273B
:1012F0004FF0060A3E466DE72B4687E7B9F1000F2F
:10130000D1D14FF02003EFF3118883F31288BFF39C
:101310006F8F238B23F008032383258BEA062ED5BA
:1013200025F01003238305F007056669218B002E45
:10133000BFF66FAF00232768C4E9003321F007012F
:1013400041F001012183218B4FF0000901F0070AD0
:10135000AA457FF43FAF002F9BD041F008012183C5
:1013600088F31188BFF36F8F002FC7D03D683946CF
:1013700033465246204604F0D5FB2F46F4E7AB0631
:101380007FF51AAF25F02003238305F00705FFE65C
:10139000515B00002DE9F04F82464FF000098DB0FF
:1013A0001D46531E01910393039B58785C1C25280E
:1013B00019D100204FF0FF381E464446034602363E
:1013C000029031780396392955D81F2914D800295D
:1013D00000F0EE8101992520D04701993078D0475F
:1013E00009F10209E0E7002800F0E2810199D04705
:1013F00009F101090394D7E7A1F12002192AE9D8DC
:1014000001A757F822F000BF71140000D5130000A7
:10141000D513000071140000D5130000F114000072
:10142000D5130000D5130000D5130000D51300001C
:101430003D15000071140000D51300005115000087
:10144000FD140000D51300000B1500002B15000043
:101450002B1500002B1500002B1500002B1500008C
:101460002B1500002B1500002B1500002B1500007C
:1014700008460136A5E7582900F0EB80A1F1630288
:10148000D7B2172FA6D8172AA4D801A757F822F049
:10149000F916000077150000D5130000D5130000E1
:1014A000D51300005715000077150000D513000074
:1014B000D513000057150000D5130000D513000008
:1014C000D51300002D160000D5130000D513000021
:1014D000CD160000D513000077150000D5130000CD
:1014E000D51300002D160000D5130000571500007D
:1014F00025200199D04709F1010955E7029A4FF0DB
:10150000000802F0FE020292B3E7002C0DDAB8F1F7
:10151000000F0DDA029A002A00F042810A2224EA22
:10152000E47402FB0414303CA3E7B8F1000FF5DBD0
:101530000A2202FB0812A2F130089AE7B8F1000F64
:1015400055F8042B80F22E81002A80F22D8154421E
:10155000022202928DE7682903D1682B06D1482325
:1015600087E76C2902D16C2B00F02081002B7FF4DF
:1015700031AF0B467DE77A2B06D1752955F8046B00
:1015800014D14FF0000B0CE06C2BF6D04C2BF4D1A7
:10159000073525F00703752903F10805D3E9006B2A
:1015A00006D120283BD1844F013C09E04FEAE67B7D
:1015B000BBF1000FF5DA7642804F6BEB4B0B013C31
:1015C0000DF12D03059300230493304659460A225A
:1015D0000023FEF7B7FD049B8E46591E0491059922
:1015E000B446303201F8012D5A46BCF10A0F72F1AF
:1015F00000020646F3460591E7D2C3F1010B3033F2
:101600000DEB0306B8F1000FA6F104066DDA029B9C
:10161000D9077CD4A8EB0B03A4EB0B0413E02B2815
:101620000ABF674F674F04F1FF34C9E770290FD134
:1016300055F8042B0023FAB96FF004034FF0050BA3
:10164000614E053C5F4F029A92076FD4A04665E059
:1016500078216C2B03D1002355F8042B08E04C2B88
:10166000F9D1073525F007031D465B6855F8082BAF
:10167000232825D1880621D5544F023C002601F0AD
:101680006001A1F1390B0DF12D0E02F00F010929B6
:1016900088BF594430310EF8011D102A4FEA12114B
:1016A00041EA03714FEA131073F1000306F1FF3CA6
:1016B00008D2C6F1010B06F13003A1E7444FDCE785
:1016C000404FDBE766460A460346DEE755F8046B03
:1016D000304604F05DFBB8F1000F834602DB404565
:1016E000A8BFC3464FF00008364FA8EB0B03002BF2
:1016F00092DDA4EB0804A6E755F8043B4FF0010B7C
:101700008DF81830013C4FF0FF3306AE9AE7A04643
:10171000EBE7029320200199D047029BB8F1010822
:10172000F7D524EAE472013C9144A41AB84606E0D5
:10173000049302920199D047029A049B9046424634
:1017400012F8010B0028F3D11A46013A15D5002BE7
:10175000ACBFC7EB03077F425B46013B15D5BBF12E
:10176000000FA8BF5F4426464F44013E14D5002C0D
:10177000A8BF3F1907EB080916E604930292302030
:101780000199D047049B029ADFE70293019916F86A
:10179000010BD047029BE0E701992020D047E4E706
:1017A0000122D6E6904664E6144662E64C2360E6E3
:1017B00048460DB0BDE8F08FA36D0000A16D00009C
:1017C000A56D0000D06E0000AD6D0000A76D00009B
:1017D000AA6D0000044608B54FF02002EFF3118314
:1017E00082F31288BFF36F8F01F024FA204600F0D5
:1017F000E3FA034804F05DF900F088F8FCE700BF65
:10180000B36D00004FF02002EFF3118382F31288D2
:10181000BFF36F8F0121044AC2F8401583F311888A
:10182000BFF36F8F002070470090035020B1034B2F
:10183000800143F001031847704700BF7069000042
:1018400001F0EEBA70B5114B0D461C68DCB1104BBF
:10185000196800238B4202DB6FF0010070BD224645
:1018600012F8106B864202D014460133F2E7E068AA
:1018700010B96FF01200F1E704F06FFE0028F8D005
:1018800000202C60EAE76FF00C00E7E71000002072
:101890008869000070B588B005460C46C0B269463C
:1018A0001646FFF7CFFF00281BDB0098C8B143683E
:1018B0002268029383680195CDE903360023CDE9C0
:1018C00006230593C56804F0DCF96DB12846084984
:1018D00001AA04F09DFB079808B9059B236008B096
:1018E00070BD6FF01500FAE76FF01200F7E700BF68
:1018F000215D0000014802F0FBB800BF6C6A0000E7
:10190000014910220A60704710ED00E072B64040B5
:1019100080F31188BFF36F8FBFF34F8F30BF62B674
:10192000BFF36F8F704700BF72B6494081F31188D3
:10193000BFF34F8F20BF80F3118862B6704700BF9E
:1019400040B2002807DB01234109034A00F01F00D1
:10195000834042F82130704700E100E040B20028A7
:101960000CDB01220649430900F01F0082402033AE
:1019700041F82320BFF34F8FBFF36F8F704700BF35
:1019800000E100E0054B420953F82220012300F05A
:101990001F0003FA00F01040704700BF00E100E0B4
:1019A00040B2002801F10101ACBF00F16040064BDC
:1019B0004FEA4111C9B2ABBF00F5614000F00F0022
:1019C00080F800131954704714ED00E030BFFFF7A2
:1019D000FDBF00BF144A08B5144B22F07F029A6085
:1019E000BFF34F8FBFF36F8FD3F8882022F47002BC
:1019F000C3F88820D3F8882042F4A002C3F88820D6
:101A00004FF04042C3F83422BFF34F8FBFF36F8FC4
:101A10000023E1EE103A01F011FF01F053FF00F056
:101A20008FF901F017FF00BF0000000000ED00E09B
:101A30001EF0040F0CBFEFF30880EFF309808169FB
:101A400011F8021C0229FFD001B504F092F901BD82
:101A50000446084611461A460023E1EE103A83F385
:101A60000B880A4B2025A3F5205686F30B8883F3B9
:101A7000098863B64FF0000383F31188BFF36F8FBB
:101A8000A04785F31188BFF36F8FFEE7F03F00207A
:101A900001B5EFF30580A0F110004FEAC000044942
:101AA000014409C99847BDE80140024908470000C0
:101AB000D4660000B91A0000704700BF154B9A6A3F
:101AC00012F0007F9A6A14BF1E201D2012F0807F42
:101AD0009A6A18BF1F2012F4801F9A6A18BF02204A
:101AE00012F4002F9A6A18BF212012F4802F9A6AEC
:101AF00018BF222012F4003F9A6A18BF232012F464
:101B0000803F9A6A18BF24206FEA02426FEA1242AD
:101B10009A62704700ED00E010B5194B0246986AD2
:101B20009C6A10F4805F14BF1720162014F4006F15
:101B30009C6A18BF1820A40509D5986B986A000400
:101B400004D51AB19A6A22F400429A6219200C4B09
:101B50009A6A12F4806F9A6A18BF1A20D2050CD4C0
:101B60009B6A13F4005F18BF1C20054A936A43F474
:101B70007F43936200230B7010BD1B20F5E700BF6D
:101B800000ED00E010B51C4B0246986A9C6A10F00C
:101B9000100F14BF1120102014F0080F9C6A18BFFA
:101BA0001220A40709D5586B986A000604D51AB10B
:101BB0009A6A22F080029A6213200F4B9A6A12F0FE
:101BC000010F9A6A18BF142012F0200F9A6A18BFEA
:101BD0001520D40658BF9B6A074B9A6A920642BFEB
:101BE0005A6A22F400525A629A6A42F0FF029A62DA
:101BF00000230B7010BD00BF00ED00E070B5444B3A
:101C000006465B6800258AB0C3F3080385F3118894
:101C1000BFF36F8F02F07F40B0F17F4F11D102F020
:101C20000C0008280DD010074CBF0E4601250022DD
:101C3000033B8DF80720032B05D8DFE803F01E5C7B
:101C400060592E46F3E700249DF807309BB9202207
:101C5000314602A804F0B3F8099B002D53D0C3F31A
:101C6000080222B96FEA53236FEA432309932046FF
:101C700002A904F07CF80AB070BD254BDA6A91071E
:101C8000E1D4DA6A002ADEDBDA6A5200DBD55A696F
:101C9000B16942F480725A61BFF34F8FBFF36F8F07
:101CA0005A6931F8021C22F480725A61BFF34F8FD7
:101CB000BFF36F8F4DF60272914209D09A6AD2B289
:101CC00042B101200DF10701FFF75CFF0446BBE7BD
:101CD0003468B9E79A6A12F47F4F05D001200DF1FC
:101CE0000701FFF719FFF1E79B6AB3F5803FAAD31D
:101CF000FFF7E4FEEAE700200DF10701E4E700202A
:101D00000DF10701EDE723F4FF7323F00103ADE7C5
:101D100000ED00E0044B5A6942F010025A615A6922
:101D200042F480625A61704700ED00E0EFF30880F2
:101D3000EFF3098101B57246FFF760FF01BD00BFF7
:101D4000002320210348C2180133412B82F80013DD
:101D5000F9D1704700E100E0002080F31488BFF360
:101D60006F8F002080F30A8880F30B88FFF768FDEF
:101D700000200E490860BFF34F8F0D4880F308889C
:101D800000F03EF8202080F311880A484FF40061EB
:101D9000401880F30988EFF314800221084380F390
:101DA0001488BFF36F8FFFF715FE000094ED00E07D
:101DB000F03F0020F00F0020BFF34F8F0549064B86
:101DC000CA6802F4E0621343CB60BFF34F8F00BFD9
:101DD000FDE700BF00ED00E00400FA05002318460F
:101DE0000649D1F89020C2F30722934200DB7047E6
:101DF000C1F89830C1F8A0000133F6E700ED00E02B
:101E000010B572B6002484F31388FFF7E7FF23466A
:101E10004FF0FF300C4A03F120010133102B42F840
:101E20002100F8D100234FF0FF30074A03F1600191
:101E30000133102B42F82100F8D162B6BFF34F8F67
:101E4000BFF36F8F10BD00BF00E100E0014B1860D1
:101E5000704700BF14000020084B70B5C31A0D4630
:101E600007499B10044659434022064803F0DAFF15
:101E70002B4601462046BDE8704018474C0E002016
:101E8000B76DDBB65C660000402373B50B4C009366
:101E9000041B0B460D460A49A41061430646094A35
:101EA000094803F0EBFF011E05DA30462B4602B06D
:101EB000BDE87040184702B070BD00BF4C0E002056
:101EC000B76DDBB6ED5E00005C66000010B54FF04C
:101ED0002003EFF3118483F31288BFF36F8F074A57
:101EE000136823F00201DB07116002D4012004F023
:101EF00028FB84F31188BFF36F8F10BD9C0E002068
:101F000070B50022012104460520FFF749FD0F4866
:101F100001F08AF80E4B984215D104F0C4FA2669F4
:101F20000C49304603F023FE00280BDB0125356405
:101F30002469084904F11C0003F019FE002801DBA4
:101F40000020E56470BD6FF00400FBE78D1F00000A
:101F50000000AD0B746A000001460C2300224B43C5
:101F600070B50848C41840331844D4E90E56A2632B
:101F700003F045FF2DB132462B46BDE870400248C4
:101F8000184770BD4C0E00205C66000010B101289F
:101F900004D07047034B1B6C5B0701D1FFF7DCBF1C
:101FA000704700BF4C0E002008B54FF02003EFF340
:101FB000118183F31288BFF36F8F124A136843F0C5
:101FC00002001060DA0708D481F31188BFF36F8F25
:101FD000BDE80840012004F074BA4FF05023D3F854
:101FE0000C24D3F80C34D307EED5074803F007FFD1
:101FF00081F31188BFF36F8FBDE808400020FFF721
:10200000ABBF00BF9C0E00208C0E00202DE9F843D2
:10201000012207463449D1E8EF3FC1E8E02F00280C
:10202000F9D133B9314932484B60CB608A6003F053
:10203000B1FD7B1E012B2DD8012F07D14FF050236E
:10204000D3F81C3403F00303022B23D004F0A4FACA
:10205000054608BB274B1B78F3B14FF050230222F3
:102060000646C3F808234FF050244FF00008DFF86D
:102070008890D4F81834D4F81824D20316D503F075
:102080000303022B01D0012F10D13DB386F3118839
:10209000BFF36F8FBDE8F8834FF02003EFF3118695
:1020A00083F31288BFF36F8F0125DCE73046FFF71B
:1020B0003BFCD4F81835DBB2012BDAD1D4F804217B
:1020C000002AD6D0C4F80481D4F804210222C4F82E
:1020D00018252022C9F88021A360CAE74FF05023B9
:1020E0000222C3F80423D5E7480E0020380E002052
:1020F000680E0020E90F002000E100E008B5074865
:1021000004F02BFA38B10648FFF7A0FE0448FFF7A9
:102110001FF8002008BD6FF01200FBE7A466000066
:10212000252100000A2838B50446074D04D1AB68C4
:102130000D2128465B689847AB6803485B68E1B2AD
:102140009847204638BD00BFA4660000024B0B60D4
:1021500001231360704700BFA00E002000487047A5
:10216000C86A000010B504F0F4F9034C206004F0D4
:10217000EDF96060002010BDA00E0020F8B50E46FD
:102180001946304617461D4603F0C0FEB8B146EA70
:10219000050414F0030412D14DB12B19032BA6EB47
:1021A000040006D8074AD2F80034DB07FBD500202C
:1021B000F8BD3B1B196801F0F5FA043CEDE76FF040
:1021C0001500F5E70090035030B5406801F01F049A
:1021D000057BB2F5001F85B044EA451405D12046C1
:1021E00001F0B8F9002005B030BD0025B2F5800F30
:1021F000CDE9025514D1B3F1007F0CBF04230523B0
:102200008DF8083000232046194602AA00F0D8FFB6
:102210001C4B984233D10121204601F057F9E1E7E8
:10222000B3F1C06F20D0B3F1007F14BF01230223AC
:102230008DF808308368CB40D907E3D4B2F1A07F92
:10224000E0D1114A04F01F03803352F82330DB073A
:10225000D8D40DF107052946204601F0E3F80B4BD1
:10226000984203D00395CDE70323E1E7284601F028
:1022700027F9044B9842F5D06FF00B00B3E76FF0ED
:102280001500B0E70000AD0B002584500400AD0B35
:1022900010B501F005F9044668B901F0D9F8084B0A
:1022A00098420AD12146074801F0B6F82246052196
:1022B0000D20FFF775FB002010BD6FF00400FBE759
:1022C0000000AD0BC9220000430970B507D10B4BCC
:1022D000596821B101250C68094E854001B970BDCE
:1022E0008A682A4002D030464B6898471CB1236860
:1022F00021461C46F2E72346FAE700BFA80E00205D
:10230000746600002DE9FF41476801F01F053B7B23
:10231000144645EA43150E4628460DF1030101F027
:1023200081F814F4403F80460BD1284601F03AF979
:102330003C4B984503D19DF8030001F0BBF8002009
:102340000CE000232846194602AACDE9023300F02A
:1023500037FF344B984204D06FF0150004B0BDE84D
:10236000F081804503D19DF8030001F0A3F8A30399
:1023700049D540F206332340B3F5837F19D00CD8FA
:10238000062B17D004D8ABB1022BE5D1042311E002
:10239000B3F5807FE0D101230CE040F202229342AA
:1023A00026D0B3F5407F25D0B3F5007FD4D10223EA
:1023B00000E007238DF8043084F48033C3F3004336
:1023C000E0068DF805304CBF0323C4F3401321030E
:1023D0008DF8063010D501237A68B340936000224F
:1023E000284601A900F098FF0E4B9842A7D0B3E70A
:1023F0000523DFE70323DDE7620341BF01237A689A
:10240000B340D360EBE7E3064FF000034CBF032477
:10241000C4F340141A46284601A98DF8044000F080
:10242000CFFEE1E70000AD0B2DE9F04101273F4E63
:1024300000EB8101814202D10020BDE8F0810568F6
:1024400005F07F03C5F343247F2B4FEA154508BFF2
:102450004FF0FF33192D66D8DFE805F00D161B1E6F
:10246000212D1E6565656531516565656565656527
:102470006565545C5F62C2F80C3503F01F0507FA0E
:1024800005F5B560012502E0C2F814350025AC461B
:102490001CE0C2F80835F0E7C2F81035F6E7002571
:1024A000C2F8083503F01F0C07FA0CFCC6F80CC084
:1024B0004FF0010C0AE0C2F80C350125F2E7C2F832
:1024C0000835002CE2D100250624AC4650F804EB78
:1024D00024020EF40058B8F1000F1CBF4FF0000C9E
:1024E0000125CEF3C11E44EA8E0403F01F0344EA23
:1024F0000C0444EA4504803346F823409AE7C2F8C6
:102500000C35DEE7C2F860350568C5F38035002D6F
:10251000D3D0B2E7C2F86435F6E7C2F86835F3E71E
:10252000C2F86C35F0E76FF0850086E7002584502F
:10253000F8B504460D46076904F02EF890B92C4B07
:102540001B787BB16426606803F011FEE0B90120BE
:1025500003F04DFF013EF6D1F4E786F31188BFF397
:102560006F8FEFE74FF02003EFF3118683F31288AC
:10257000BFF36F8F6068314603F0F9FD90B986F3C1
:102580001188BFF36F8FEDE74FF02003EFF3118653
:1025900083F31288BFF36F8F6068314603F0E7FD65
:1025A0000028DAD03B691D70626838691368C3F887
:1025B00044050120C3F848050020C3F82001D3F8E2
:1025C0002051C3F858015268D3F85801D20608D5F3
:1025D000082062681268C2F800054FF48002C3F850
:1025E000042301229A6081F31188BFF36F8FF8BD35
:1025F000E90F0020F0B54B79012B26D0032B21D118
:1026000010258B79032B1DD1CE790EB1012E19D156
:102610000A7912B1022A15D10E220B684468B3F56B
:10262000164F276867D02DD8B3F5165F66D016D839
:10263000B3F5966F64D00AD8B3F5967F63D0B3F53F
:10264000167F63D06FF0850054E00025D9E7B3F51D
:10265000166F5ED0B3F5965FF4D1384B3CE0B3F51E
:10266000E14F59D007D8B3F5615F57D0B3F5964F16
:10267000E8D1334B30E047F61224A342E2D14FF4C5
:10268000000329E0B3F5613F4AD013D8B3F5963F74
:1026900049D009D84DF6C024A34246D0B3F5614FC6
:1026A000D0D14FF46B0317E0B3F5E13FCAD14FF03F
:1026B000EB7311E0B3F5612F3AD008D8214CA34257
:1026C00039D0B3F5E12FBDD14FF0E86304E01E4CE3
:1026D000A342B7D14FF080530469C7F8243543684B
:1026E00035431B682A43C3F86C25231D03C983E8BF
:1026F00003000020F0BD4FF41D03EDE7134BEBE7A3
:102700004FF49E23E8E74FF4A033E5E74FF41C3382
:10271000E2E74FF41D23DFE70D4BDDE70D4BDBE771
:102720004FF06C73D8E70C4BD6E74FF46503D3E753
:102730004FF07063D0E74FF08063CDE700B0130037
:1027400000A04E0090D0030040420F000050270030
:1027500000C0750000F03A0000903A012DE9F743FF
:102760000021476806693C688046C4F8001530605F
:10277000D7F80C9001AA484603F0C3FC051E4DDBB8
:10278000019BD9F8002019791868FFF74DFE051E46
:1027900044DB4046311DFFF72DFF054600283DD1A3
:1027A0007B68990713D506F1180000F081FC1F4BD8
:1027B000984237D1337E43F00043C4F8A031C4F8C7
:1027C0008C300123327E9340194AC2F80435082325
:1027D000C4F800353B7A53B9C4F81031D4F810313D
:1027E0007369C4F834350123C4F8383523607B6835
:1027F0009A075CBF4FF48073C4F804337B68DB0630
:1028000044BF4FF48003C4F804333369C4F844353B
:102810000023C4F848350123A360E360284603B0D1
:10282000BDE8F0836FF00405F8E700BF0000AD0BD2
:10283000007001500123834070B5DC430B4AD2E89D
:10284000EF1F01EA0405C2E8E65F002EF7D14FF45E
:10285000803282400648C0F80823BFF35F8FBFF381
:102860006F8F0B4214BF0120002070BDB80E0020F6
:102870000050015070B40E4922F07F46D1E9003477
:10288000D01AC31844F10004C1E90034A6F50013BE
:10289000B3F5400F09D2074B1B681A0A1B069C1997
:1028A000054B42F10005C3E9004570BC01F06AB870
:1028B00038010020BC0E002040010020D9B10123C6
:1028C0000D4A8340D2E8EFCF4CEA030CC2E8E1CFD7
:1028D0000029F7D14FF48033084A8340C2F804330B
:1028E000074BD3E8AF3FC340DB0742BF4FF40012B2
:1028F000044BC3F800217047B80E0020005001506F
:10290000B40E002000E100E00D4B1868010A00063B
:10291000BFF35F8F0B4BD3F80435181841F100015A
:10292000B3F5801F0AD2084BD3E90023904271EB24
:10293000030303D210F1807041F10001704700BF22
:10294000BC0E002000500150400100202DE9F74F3F
:1029500016461F460446FFF76DFF0090FFF7D4FFB1
:10296000B04271EB070351D2384B301A67EB0101CB
:10297000984271F1000166D2354B03EB0413D3E9A1
:1029800002239F4208BF96424AD04FF48039314912
:1029900009FA04F9204626F07F4BC1F8489303F06A
:1029A0004DFC4FF0030A584604F15005AD00ADB29E
:1029B00005F1502504F5A873DFF8A0C005F58035B2
:1029C0000193019A20F07F4341F82230C1F84493EB
:1029D000D1F80485A0EB0800033820F07F40604563
:1029E0001ED9286868B1D1F80485A8EB0B0020F047
:1029F0007F40B0F5000F13D9204603F01FFCDFF82D
:102A00005CC00AEB08000AF1010ADAE70123124A66
:102A1000A340D2E8EF0F1843C2E8E10F0029F8D134
:102A200000250B490C98230101EB0412C850C2E9A0
:102A300002670D9B536020460099FFF73FFF284631
:102A400003B0BDE8F08F6FF01505F4E701008000DA
:102A50002801002000500150B40E0020FDFF7F002F
:102A600073B500254FF0FF304FF0FF31184C194B74
:102A70000226C4F80833C4F84833174BC4F8085585
:102A8000C3E902014FF480334FF40012C4F8043359
:102A9000124B0121C4F804631520C3F880212A4693
:102AA000FEF77EFF1520FEF74BFF01230C4AA360C3
:102AB000236013600B4B0C4A0093284600230195BA
:102AC000FFF744FF3046FFF7A1FA284602B070BD79
:102AD0000050015003000F002801002000E100E039
:102AE000B80E002075280000FFFF7F002DE9F74396
:102AF0002E4BD3F8042390070BD5D3F8042142B111
:102B00000022C3F804212A4AD3F8043113680133A0
:102B10001360264AD2F80433D90327D5254BD3E8CE
:102B2000EF1F21F00100C3E8E40F002CF7D1CB0721
:102B300002D4D2F84031CBB100251C4CC4F840512E
:102B4000D4F84031FFF7E0FE4FF02003EFF311829D
:102B500083F31288BFF36F8F174BD3E90267B0423C
:102B6000B94106D282F31188BFF36F8F03B0BDE87D
:102B7000F0834FF0FF38D3E900104FF0FF391D60AC
:102B8000C3E902894FF48033C4F84833C4F8405194
:102B9000D4F8403182F31188BFF36F8F0029E5D05C
:102BA000009032463B4628468847DFE700500150F8
:102BB000BC0E0020B40E002028010020431C13B5D9
:102BC00021D0012821DD124A124B9042D4BF044685
:102BD0001C46FFF799FE104B0E49D3E90023801ADB
:102BE000B0F5000F28BF002404448C4228BF0C46D7
:102BF00000200A49A2180190009143F10003FFF759
:102C0000A5FE02B010BD034CE3E70124E1E700BFDD
:102C1000FEFF7F00FFFF7F003801002075280000C5
:102C200008B5FFF771FE024B1B68C01A08BD00BF54
:102C300038010020012310B5074C15206360FEF712
:102C40008DFE4FF40012054BC4F80833C4F8483326
:102C5000034BC3F8802110BD0050015003000F004A
:102C600000E100E040EA0103C3F30E0330B58BB985
:102C700040F21515094CC90BC0F3C730994201D178
:102C8000002030BDC218D2B202F5C07244F8225002
:102C90000133F3E76FF01500F3E700BF0030005099
:102CA00030B5816885B0103921F00704054603F07E
:102CB00030F810220146684603F08CF8102268466E
:102CC000064903F07CF810236A462146284602F0A4
:102CD000EEFF003818BF012005B030BD0C6D0000BC
:102CE00030B50D46816887B0102302AA103904461A
:102CF00002F0C8FF002802DA012007B030BD102220
:102D0000204602A903F0C9FA00283AD110221E4930
:102D100002A803F044F800280CBF012302232B7003
:102D2000204603F0A6FA012301460DF107022046D2
:102D300002F0A8FF0028DFDB9DF80730204603F0F3
:102D40000F021B096A702B7101220DF1070103F0BC
:102D5000A4FA10B96B78042B03D901236B700023FC
:102D60002B71A2682046183A22F00702083AA91CE3
:102D700003F0A6FA0028BFD12046E91C03F0F9FAB7
:102D8000BBE70323CBE700BF0C6D00007FB503203A
:102D9000694603F0F4FA98BB092002A903F0EFFAA0
:102DA00001282BD103238DF808308DF80B30002437
:102DB0009DF800509DF80860184A2946107803F0E5
:102DC0005EFA18B33146507803F059FAF0B19378AF
:102DD000042B03D09DF80310994217D1D378042B0C
:102DE00003D09DF80B10994210D11379042B09D10F
:102DF0005079831E022B03D804B070BD0028D6D0B2
:102E0000FF20F9E79DF802109942F1D00134032C1C
:102E100002F10602D1D10120EEE700BF626E000090
:102E20004FF47F0208B5D2F83031D2F83421BFF325
:102E30004F8FC3F30B03092B01BF4FF05023002228
:102E4000C3F81421C3F8182103F0BEFA28B10122F7
:102E5000534BC3F8382AC3F878254FF47F02D2F8D1
:102E60003031D2F83421BFF34F8FC3F30B03092B5A
:102E700005D1012A1EBF0122494BC3F8782503F072
:102E8000A3FA18B10E22474BC3F8E42E4FF47F0289
:102E9000D2F83031D2F83421BFF34F8FC3F30B0394
:102EA000092B06D100223E4BC3F80C270122C3F8A0
:102EB00010270022D30003F57F03D3F80013BFF3DC
:102EC0004F8F013108D0D3F800130132D3F8043307
:102ED000B2F5807F0B60EDD1334BDA69BFF34F8FD2
:102EE000D10745D5BFF34F8F304BD3F80024012ACB
:102EF000FBD1C3F80425D3F80024012AFBD12A4BC7
:102F0000DA69BFF34F8FD2070AD5DA6922F00102DE
:102F1000DA61BFF34F8F254AD2F80034012BFBD181
:102F2000214A136ABFF34F8F01330CD1136A23F088
:102F3000FF0343F020031362BFF34F8F1B4AD2F805
:102F40000034012BFBD10022184BC3F80425D3F821
:102F50000024012AFBD1BFF34F8F1549154BCA68D6
:102F600002F4E0621343CB60BFF34F8F00BFFDE775
:102F70001B6ABFF34F8F0133B4D00D4BD3F88C20B5
:102F800042F44062C3F88C20D3F8882042F47002E7
:102F9000C3F88820BFF34F8FBFF36F8F08BD00BF0A
:102FA0000040005000A003500080FF00009003503C
:102FB00000ED00E00400FA0570B501250268B2FAE0
:102FC00082F3C3F11F03DBB205FA03F422EA04041F
:102FD000D0E8EF6F964204D1C0E8EC4FBCF1000F8F
:102FE000F6D1EBD101480B7070BD00BF0000AD0BF6
:102FF00010B50368CB40DB0710D401238B40026877
:1030000043EA0201D0E8EF4F944204D1C0E8EC1F3C
:10301000BCF1000FF6D1F2D1014810BD0148FCE728
:103020000000AD0B0400AD0B044B1A7922B901224C
:1030300018601A710248704702487047C00E00209D
:103040000000AD0B0C00AD0B4FF0502310B5D3F8C2
:10305000002152B10020C3F80001D3F80021012261
:10306000C3F80823114B1B6898474FF05023D3F83F
:1030700004218AB10022C3F80421D3F80421D3F833
:103080001824D3F8181402F00302012A4FF00201A9
:1030900003D1C3F818159A6010BDC3F80813034B89
:1030A0000120BDE810401B68184700BFC00E00207B
:1030B00001460148FFF780BF50000020064A00F09B
:1030C0001F0002EB8002D2F8003223F4403343EABF
:1030D0000143C2F80032704700258450034B08308A
:1030E00033F81000C0F34010704700BF54000020B8
:1030F00070B50D4C00F1080334F813300546DA05BD
:103100000E4607D5C3F3432304EBC302526854F8B9
:1031100033309847A3682BB131462846E268BDE8B2
:103120007040184770BD00BF5400002010B4134A0F
:10313000083032F81030D9051CD5C3F3432123F4ED
:10314000F85322F81030002002F10E0434F8023F48
:1031500013F4807F03D0C3F3432399420AD0013094
:103160002028F3D1002342F8313005485DF8044BA4
:10317000FFF73EBF5DF8044B704700BF54000020CE
:10318000A800002038B50246FFF7A8FF0B4C02F15B
:10319000080560B1002134F815305B0B9B0003F18A
:1031A000A04303F55043C3F81015C3F8101510469B
:1031B000FFF7BCFF002324F8153038BD5400002071
:1031C0002DE9F34104461D4609B34E4F00F10808AE
:1031D00037F81860B30706D5FFF780FF18B14A48E3
:1031E00002B0BDE8F081494804F01F0300EB830002
:1031F000D0F80032097823F00F0326F0020643EAE4
:10320000810346F00106C0F8003227F818609AB131
:103210003C4E04F1080736F81710137811F0020F2E
:1032200050680CD00028DAD136F8172022F01C02A2
:1032300042EA830326F81730D5BB3548D0E721F0A2
:103240002001C904C90C26F817100028ECD0032B64
:10325000C5D8526892F800C06246920002F1A042BE
:1032600002F5504223B9C2F81035C2F81035DBE739
:10327000D2F8100541EA4C3120F00300C2F81005E5
:10328000D2F8100541F0200120F4473020F44070BE
:10329000C2F810052002D2F810E500F4F85040EA18
:1032A000034040EA0E00C2F8100526F81710BBE7ED
:1032B0002046D5E90067FFF739FF002EBDD0114D3C
:1032C000D5E90023964201D19F4218D011480DF153
:1032D0000701FFF771FE0E4B984281D19DF8072040
:1032E00005EBC20308345F6035F8143045F83260EE
:1032F00043EA422343F4807325F814309DE700220B
:10330000EEE700BF540000200400AD0B0025845000
:103310000000AD0BA8000020F8B5044679B33A4E82
:1033200000F1080736F81750AB0704D4FFF7D6FEB4
:1033300008B13648F8BD15F01C0F4B7822D104F0C7
:103340001F00DFF8CCC000F1800E5CF82EC091F8B1
:1033500002E05B002CF4E16C097843EA8E032CF068
:10336000070C43EA0C0343EA0123294943F0010314
:10337000803045F0030541F8203026F8175022B977
:103380002448D7E7012BDAD1D3E71F4E04F1080711
:1033900036F817008307CCD592F800C000236146A9
:1033A00020F02000890001F1A041C00401F5504146
:1033B000C00CC1F8103526F81700C1F81035557843
:1033C000002DDDD0D1F81035927823F4981323F432
:1033D000F853C1F81035D1F810E5230203F4F8537F
:1033E0002D0443EA0E0305F4403512052B4302F485
:1033F000801240EA4C30134340F02000C1F81035F1
:1034000026F81700BCE700BF540000200400AD0BF5
:10341000002584500000AD0B014BC3E90201704749
:103420005400002008B50246FFF758FE38B1054B9E
:10343000083233F8123004485B0B0B7008BD0348A8
:10344000FCE700BF540000200000AD0B0400AD0BF2
:1034500038B50F4C94F85850BDB94022294604F1B4
:10346000100002F0B7FC0D20FEF76AFA094B0A487B
:10347000C3F87C51D3F87C214FF00042C3F80423F9
:10348000012384F85830636538BD0448FCE700BF69
:103490005400002000D000500000AD0B0500AD0B23
:1034A000034B93F85800003818BF0120704700BF45
:1034B0005400002001460148FFF79ABDA4000020F7
:1034C00001460148FFF778BDA4000020024610B570
:1034D000FFF704FE1C4B02F1080433F81430E0B18E
:1034E00013F0020419D15B0B9A0002F1A04000F521
:1034F000514002F1A042046002F550420068D2F847
:10350000100540F00100C2F8100529B1012202FAAD
:1035100003F30E4AC2F8043310BDC3F38203042B35
:103520000ED0052B0ED00A4B196902F01F03D940AB
:1035300001F0010102311046BDE81040FFF7BEBDA9
:103540000321F8E70221F6E75400002000D00050E4
:103550000025845008B50246FFF7C0FDC0B10F4BEF
:1035600002F1080133F81130990711D401225B0BE5
:103570009A400B499B0003F1A043C1F8082303F5CF
:103580005043D3F8102522F00302C3F8102508BDDC
:103590000021BDE808401046FFF790BD5400002010
:1035A00000D0005010B50C4B00F1080233F8123077
:1035B0000446DB070DD5FFF7CDFF2046FFF7E2FD00
:1035C0000222064B04F01F048034054843F82420EF
:1035D00010BD0448FCE700BF5400002000258450C3
:1035E0000000AD0B0400AD0B2DE9F04F00250122CA
:1035F0002C464D4B4D484E4985B01E6836B1D0F82B
:10360000046316421EBF1C601E68154304338B42C0
:103610004FEA4202F1D1454FD7F87C3193B1454E84
:10362000336A039333624FF0010A0DF10C090398DA
:1036300070B9C7F87C01D7F87C31336A03933362E1
:10364000002BF0D10124002D56D105B0BDE8F08F3C
:1036500090FAA0FBBBFA8BFB374A0BF108034FEA49
:10366000DB0C32F813100BF0070419F80C300AFACF
:1036700004F423EA040309F80C3006EB8B03D3F8B7
:103680000042C1F38202C9069046C4F3014418D532
:10369000114658460193FFF72BFD019BE4B2D3F886
:1036A0000032C3F301439C4207D100215846FFF783
:1036B00005FD21465846FFF701FD0AFA0BF030627E
:1036C000B5E7022C0CD103215846FFF7F7FC08F0B0
:1036D0000503012BF1D141465846FFF709FDECE700
:1036E000022158460192FFF7E9FC019A032AF2D021
:1036F000032CE2D18A42EDE795FAA5F3B3FA83F3FE
:1037000004FA03F29B0003F1A04303F55043D3F8FE
:103710001005D3F81015C0F30420C1F3014125EAC8
:103720000205FFF7E5FC8EE700D1005000D0005005
:1037300020D1005000258450540000200022034B6B
:10374000C3F88425C3F80425704700BF00900350D8
:10375000044AD2F80834DB07FBD50160BFF35F8F62
:10376000704700BF0090035008B5C0F30B0383B946
:103770000222094BC3F88425C3F804254FF0FF3219
:103780000260D3F80024D207FBD5FFF7D7FF034828
:1037900008BD0348FCE700BF009003500000AD0BDC
:1037A0000A00AD0B012208B5054BC3F88425C3F808
:1037B0000425FFF7CDFFBDE80840FFF7BFBF00BFFE
:1037C00000900350104B70B553F82040013053F86F
:1037D0002060A64200D870BDD4E900358DB12846DE
:1037E000984738B10028B8BF4042FF28A8BFFF2043
:1037F000EB681870EA68537843F00103537008349B
:10380000E7E79847FBE700BF806B0000012208B59F
:10381000084B03201A70FFF7D5FF00F01BF90420B6
:10382000FFF7D0FFFCF7F6FD034A137B23F00103FB
:10383000137308BDE90F00204801002008B50348B4
:10384000034A0021121A02F0A3FE08BD280100203D
:10385000EC0F002008B50020FFF7B4FF164B03F56E
:10386000006282F3088883F30A880025E023134C62
:1038700084F82230E57725766576A57684F82050A1
:10388000636A43F4E023636284F82350FEF742FA4C
:10389000FEF736F84FF0FF33A362E36202F05CFEFE
:1038A0000120FFF78FFF0220FFF78CFF2B462A46EF
:1038B00029460348FEF7CCF8F00F002000ED00E0A9
:1038C0000D38000008B50648064A0749121A02F0EA
:1038D00061FEBDE80840054A0549064802F05ABEA7
:1038E0000000002022010020D46E00000000000033
:1038F000D46E000000000020034B1B680BB9FFF7DB
:103900008FB90020704700BFC80E002010B50E4BC5
:103910001C689C4204D1FFF7EFFF6FF0004010BD20
:10392000FFF7EAFF002CF8D0D4E904321B1A62EB4F
:10393000E072B3F1004F72F10001EEDA002AACBF81
:1039400018460020EBE700BFB000002030B570B192
:103950000B4B5B6898420AD0036843B1D3E904215A
:10396000D0E90445121941EB0501C3E90421D0E96E
:10397000003213605A600023C0E9003330BD00BF3D
:10398000B00000202DE9F84F4FF02003EFF311872E
:1039900083F31288BFF36F8FDFF8B4902A4E4FF095
:1039A000000A3060D9F800004FF0000B484508BF0E
:1039B0000020264C3D46D4E9001E336888B3D0E988
:1039C00004874FEAE37C43457CEB070206DAB8EB59
:1039D000030267EB0C07C0E9042722E018EB0101A2
:1039E0004EEBE873C0E904ABC4E90013FFF7AEFF88
:1039F00085F31188BFF36F8F836898474FF02003DA
:103A0000EFF3118583F31288BFF36F8F3368D9F812
:103A10000000A3EB080348452F463360CAD1D4E920
:103A2000001E59184EEBE373C4E900130024346000
:103A3000FFF76CFF2146FFF7C1F885F31188BFF34C
:103A40006F8FBDE8F88F00BFC80E0020C8010020AE
:103A5000B0000020014802F02CB800BFA16E0000A9
:103A600010B50A4C23681BB101232360002010BD50
:103A700000F050F80028F7D00138062803D8044B8E
:103A800053F8200010BD034810BD00BFCC0E00202D
:103A9000986B0000FE8FFFFFBFF34F8F0549064B69
:103AA000CA6802F4E0621343CB60BFF34F8F00BFDC
:103AB000FDE700BF00ED00E00400FA0530B44FF070
:103AC000FE320025074B084C08494968C3F800241A
:103AD000C3F80424C3F80824C3F80C24C4F8005520
:103AE00030BC08470010845000008450B80000200B
:103AF000024BD0E90012C3E900127047B800002061
:103B000038B131B1002201440346013088421A70B5
:103B1000FAD1704738B500F02FF820B1032400F037
:103B200063F8204638BD00F031F898B900F0ACF8E1
:103B300098B90F4DD5F828391B0EF02B08D1D5F8C0
:103B4000242A0C4B9A420AD0072400F017F8E6E723
:103B50000624FAE70424204638BD0024F5E70120B6
:103B600000F092F804460028F7D1C5F80C0AD8E70F
:103B7000001084500000E0200020704700207047B3
:103B8000014BC3F8040A70470010845010B5114867
:103B900000F048F800B110BD0F4800F043F80028CD
:103BA000F9D10E4C204600F03DF80028F3D10C4B23
:103BB0000C481C6000F036F801460028EBD100F0FC
:103BC0002DF8044608B1204610BD00F03FF820460D
:103BD000FAE700BFD0000020CC000020C800002081
:103BE000C0000020C400002008B5084800F024F8F8
:103BF000074800F021F8074800F01EF8064800F0DA
:103C00001BF8BDE8084000F00BB800BFD000002052
:103C1000CC000020C8000020C40000200020704715
:103C2000704700BF08B5034B02681B6810689847CF
:103C3000002008BDE800002008B5034B02685B685F
:103C400010689847002008BDE800002070B5094CB6
:103C5000094D2069AB68984718B1084B08485B6864
:103C600098470021074AEB6811602069BDE8704061
:103C7000184700BFD4000020E8000020B800002052
:103C8000B46B0000D00E0020F8B51A4D1A4E044651
:103C9000B26828699047E8B9184F3B684CB1A3B1A6
:103CA000012B19D0013B3B602869F368984700203D
:103CB000F8BD43B90121124AC2F800151149D1F8E3
:103CC0001029002AFBD101333B60F368286998472B
:103CD0000020F8BD0C48F8BD0A4AD2F81039002B74
:103CE000FBD1074A6FF07E40C2F80035FFF748FF6E
:103CF0003B68D7E7D4000020E8000020D00E002069
:103D00000000845000108450E98FFFFF10B5044676
:103D100050B1636813F0685F05D0064A934202D041
:103D200000236260236010BD034B04485B68984722
:103D3000EFE700BF2C5F5CA9B8000020D46B000047
:103D4000C8B143680D4A934213D013F0685F0ED098
:103D5000012350E8002F194640E8001C9CF0000F9A
:103D6000F7D1012AF5D0BFF35F8F002070470448D8
:103D70007047044870476FF4E04070472C5F5CA9BF
:103D8000E98FFFFFEA8FFFFF034680B142680949D0
:103D90008A420AD012F0685F05D0BFF35F8F00221D
:103DA00010461A60704704487047044870476FF423
:103DB000E04070472C5F5CA9E98FFFFFEA8FFFFFAF
:103DC00010B5044620B10023034A2360626010BD91
:103DD0000248FFF773FEF6E73A00003AFC6B00007A
:103DE00030B10268034B04489A4208BF0020704774
:103DF00002487047DD55AABB8208F0007108F00048
:103E000038B50D460446B0B1A0220021043002F0BE
:103E1000E6FB95B10822294604F1640002F0E5FBB7
:103E2000082205F1200104F1840002F0DEFB0020ED
:103E3000034B236038BD0348FCE70348FAE700BFA3
:103E4000DD55AABB7108F0008308F0002DE9F743A7
:103E500005460E4699461146FFF7C2FF0446002864
:103E600040F08480002E00F08580002900F08480DE
:103E7000B9F1200F40F0828005F14404082205F1D9
:103E80000408204602F0B1FB05F124070822314660
:103E9000404602F0AAFB06F120010822384602F053
:103EA000A4FB02A941F8049D4FF4807002F091FB3D
:103EB000002865D14FF48073324A0121136093606A
:103EC0000823314A00F034FB0121052308462F4A1C
:103ED00000F02EFB0823424601211C2000F028FBA5
:103EE00008233A460121032000F022FB2246082342
:103EF0000121022000F01CFB0823254A01211A2081
:103F000000F016FB0523234A01211B2000F010FBC3
:103F10000823214A0121142000F00AFB08231F4A2C
:103F20000121152000F004FB082305F164020121A2
:103F3000162000F0FDFA082305F184020121172064
:103F400000F0F6FA0823164A01210B2000F0F0FADF
:103F500000F04AFB0446019800F0D8FA114B002CFF
:103F600018BF1C46A421284602F03BFB204603B0A4
:103F7000BDE8F0830C4CF9E70C4CF7E70C4CF5E787
:103F8000084CEFE790108450606C0000D86C000083
:103F9000206C0000C46C0000846C0000A46C000065
:103FA000406C00008408F0007608F0008008F00003
:103FB0008108F000C2690C4B1A60826943F8042C36
:103FC000426943F8082C026943F80C2CC26843F894
:103FD000102C826843F8142C426843F8182C0268AD
:103FE00043F81C2C704700BF5C1684500C4B1B68B8
:103FF000C3610C4B1B6883610B4B1B6843610B4B0C
:104000001B6803610A4B1B68C3600A4B1B68836013
:10401000094B1B684360094B1B680360704700BF76
:104020005C16845058168450541684505016845090
:104030004C168450481684504416845040168450C0
:1040400030B10268034B04489A4208BF0020704711
:1040500002487047DD55AABB0202F0000002F000E2
:1040600038B5044668B1051D7021284602F0B9FA3A
:1040700028462022044902F0B0FA0020034B2360B6
:1040800038BD0348FCE700BFEC6C0000DD55AABB5F
:104090000002F0002DE9F04385B015466F46274B2E
:1040A00004460E460FCB87E80F002DB94FF00009EC
:1040B000484605B0BDE8F0832046FFF7C1FF8146C2
:1040C0000028F5D1231D0193636AA3BB236F8BB135
:1040D000C3F14008A84528BFA84604F13000314686
:1040E0001844424602F079FA236F4644434423675A
:1040F000A5EB0805226F402A06D104F130013846AD
:1041000000F0B4FB0023236705F03F0835F03F05BE
:1041100005D031462A46384600F0A8FB2E44B8F1B7
:10412000000FC3D04246314604F1300002F055FA88
:10413000C4F87080BCE7DFF80890B9E76069000058
:104140000C02F0002DE9FF4104466F46134B0E466A
:104150000FCB87E80F002046FFF772FF8046B0B90B
:10416000CEB1636A251D01953BB90123226F6362BD
:1041700004F13001384600F079FB2B46043E24342C
:1041800053F8042B12BAA34246F8042FF8D1404644
:1041900004B0BDE8F081DFF80880F8E7606900004E
:1041A0000502F000084B1B681B0EF02B08D1074BD3
:1041B0001A68074B9A4205D10020064B18607047D9
:1041C000052070470620704728198450241A84500F
:1041D0000000E0200C1A8450002230B5134640F64F
:1041E000FC754900023802F1A15404F58234904272
:1041F0004FEA840402F10102CABF236025605B1804
:104200001E2AF0D1034A13600B445360024B034A49
:104210001A6030BD781084508410845020F80F004C
:104220001E4B30B51A4685B0196800910099CC072D
:10423000FAD500F1A15000F58230800001681368C2
:104240000193019BD807FAD5154B164C186820230B
:104250001F3090FBF3F0144D0138002810DA0023D2
:104260000130400153B14FF00042A0F12001134250
:1042700004D1013888424FEA5202F8D105B030BD6E
:1042800013680393039BDB07FAD5431823602B685D
:104290000293029B002BE3D10138DEE7B410845077
:1042A000AC108450E4108450DC108450F0B51D68CC
:1042B00085B001F01F040DB91F2C28D1174D2E46D3
:1042C0002F680197019FFF07FAD500F1A15000F573
:1042D00082308000006835680395039DED07FAD5AC
:1042E0001F2C00EB611018BFC9430D4D18BF01F022
:1042F0001F0128600B480068029002981CBF00FA5A
:1043000001F111604FF0000108BF106019601068E2
:104310004300C00F136005B0F0BD00BFB41084505F
:10432000E4108450DC1084500C4B890118603F303D
:1043300020F03F004030586099600948D960196109
:10434000596199611C3382B0196002680192019A27
:10435000D207FAD5196002B0704700BF90108450A0
:10436000B410845038B5A0F12003B3F5426F054670
:104370002CD88F2826D800F1470300F16604DB060D
:104380004FEA541400D0013464013F34A4090134CD
:1043900011B1A1421AD30C464FF48050E300B0FB98
:1043A000F3F0202828BF202002B110600122084B22
:1043B00021461A60FFF710FF28462146FFF7B4FF99
:1043C000002038BD00F11F046409DDE70148F8E76B
:1043D0001C1884502221F000464BF0B51D4689B0D0
:1043E0001C680194019CE407FAD5434B0024134454
:1043F0009B001A680B181E2B88BFC0F11E011F32CC
:104400000B1852095343B3F5806F84BF4FF480619A
:10441000B1FBF2F1274688BF091ADFF8E4E000F1AA
:10442000A150DFF8E0C000F58230A14233DC2B68F8
:104430000493049BDB07FAD5304B1B682968059170
:104440000599CF07FAD52E4C2E49236000231E462E
:10445000934203F1010040D11946002620F00102E9
:1044600028488A423CD8296806910699CE07FAD591
:1044700025490968286807900798C007FAD5216080
:1044800000210C461F488B422DD100201D499A4225
:104490002CD809B0F0BD2B680293029BDB07FAD53C
:1044A00003199B001B682E680396039EF607FAD536
:1044B000CEF800300023934203F1010306D11646E3
:1044C00023F00103B34204D80134AEE7CCF8007006
:1044D000F1E7CCF800700136F4E70E600346B7E769
:1044E00006600131BDE704600131CCE708600133AB
:1044F000CDE700BFB4108450240421147C108450F4
:10450000D4108450D81084507810845008B540B12D
:10451000202801464FF0070228BF20210020FFF786
:104520005BFF0022014B1A6008BD00BF1C188450BD
:10453000F0B5294D85B02C462E680096009EF607F2
:10454000FAD500F1A15000F582308000056820689E
:1045500001900198C707FAD52048214F056002EB6A
:104560008306B24229D100275A1C1D4E22F00102B7
:104570009A4227D823680293029BDE07FAD5194B8B
:104580000B449B001B681F335B099A4213D22168BE
:1045900003910399C907FAD500211544056008461F
:1045A0009B1A0F4A8B4210D800205A1C0C4922F04B
:1045B00001029A420CD805B0F0BD52F804CBC7F8FE
:1045C00000C0CEE737600133D2E710600131E9E780
:1045D00008600133EDE700BFB4108450D41084505C
:1045E000D8108450240421142DE9F041814BA0B04F
:1045F0001D68986820331E461A680192019AD707F1
:10460000FAD57D4B7D4A1A6032680292029AD4072D
:10461000FAD57B4A1A607B4A1446116803910399C4
:10462000C907FAD5784A1168C1F340213768049761
:10463000049FFF07FAD5754F1F6027680597059FF0
:10464000FF07FAD51768002900F0CF80B90540F1BF
:10465000CC80316806910699CF07FAD56C4919606C
:10466000216807910799C907FAD51168C1F340215C
:1046700037680897089FFF07FAD5664F1F602768BD
:104680000997099FFF07FAD51268002900F0AF804B
:10469000910540F1AC8032680A920A9AD207FAD5A5
:1046A000564A1A6032680B920B9AD707FAD55A4AC3
:1046B0001A6031680C910C99CC07FAD557491960EA
:1046C00031680D910D99C907FAD5554919603168BE
:1046D0000E910E99CF07FAD55249196031680F91A2
:1046E0000F99CC07FAD550491960504B1E461968EE
:1046F00010911099C907FAD53F4C4D4B2360336890
:104700001193119BDB07FAD54A4B23603368129350
:10471000129BDF07FAD5484B23603A4B984619683D
:1047200013911399C907FAD5324F3860336814933F
:10473000149BDB07FAD5226033681593159BD807C5
:10474000FAD53E4B236033681693169BD907FAD5EA
:104750003B4B236033681793179BDA07FAD5394B25
:10476000236033681893189BDB07FAD5364B236018
:1047700033681993199BD807FAD5344B23603368F3
:104780001A931A9BD907FAD5314B236033681B93D0
:104790001B9BDA07FAD52F4B236000F01DFC08BBEA
:1047A000D8F800301C931C9BDB07F9D53D603368BB
:1047B0001D931D9BD907FAD5274B236033681E93A1
:1047C0001E9BDA07FAD5254B2360D8F800301F93DB
:1047D0001F9BDB07F9D50C4B1B6813F4805F204B44
:1047E00008BF184620B0BDE8F0811E48FAE71E4811
:1047F000F8E700BF901084508010845000100251E0
:10480000C01F7229B410845088108450C0CF012971
:10481000C01F0E29C03F002940010249003184A871
:1048200000001649400108A180440888B010845057
:10483000C044708880077A41C0077E4100006A4901
:104840008006164940006E490002002100822021A6
:10485000408220218082242140A161A100C86151B1
:104860000308F1000108F1000208F100324B2DE9C4
:10487000F74F80469246994644681A68002AFCD150
:104880002E4B9B461A68002AFCD14FF0FF30019155
:1048900000F094FC802000F097FC01230720284AB8
:1048A000284DA2F59E722B60C2F83C011360636A2A
:1048B000254F264E3B60A36A20463360D8F800306F
:1048C00042F8043CD8F8083098470199D9F80030EC
:1048D000002BFBD1BAF1000F20D104221C4B1A602F
:1048E000D9F80030002BFBD1DBF800A0BAF1000FA3
:1048F000FAD1D8F80C30204698473B686362336899
:10490000A362144BC3F800A0C3F844A1D9F8003047
:10491000002BFBD12B6003B0BDE8F08F236A402051
:10492000012B04BF0B4A13600B4B1960C3F804A0A2
:1049300000F050FCD4E700BF10198450201C8450B4
:104940000019845018188450CC178450D017845004
:10495000C817845084168450281C8450544B10B5BA
:10496000194698B01A680192019AD207FAD5514BAC
:10497000514A1A600A680292029AD407FAD54F4A3D
:104980001A600A680392039AD007FAD54C48186057
:104990000A680492049AD207FAD54A4A1A600A6849
:1049A0000592059AD407FAD5474A1A600A68069212
:1049B000069AD207FAD5454A1A600A680792079AFA
:1049C000D407FAD5424A1A600A680892089AD207B0
:1049D000FAD5404A1A600A680992099AD407FAD5AA
:1049E0003D4A1A600A680A920A9AD207FAD53B4AE7
:1049F0001A600A680B920B9AD407FAD5384A1A60E3
:104A00000A680C920C9AD207FAD5364A1A600A68DC
:104A10000D920D9AD407FAD5334A1A600A680E929D
:104A20000E9AD207FAD5314A1A600A680F920F9A85
:104A3000D407FAD52E4A1A600A681092109AD20743
:104A4000FAD52C4A1A601A4B19461C681194119C0D
:104A5000E407FAD5174B1860086812901298C4073B
:104A6000FAD51A600A681392139AD007FAD5124A37
:104A70001A600A681492149AD207FAD51E4A1A606C
:104A80000A681592159AD407FAD51C4A1A600A6862
:104A90001692169AD007FAD5194A1A600A68179220
:104AA000179AD207FAD5174A1A6018B010BD00BF7E
:104AB000B010845080108450009365210004319020
:104AC000409665900083612100C3302100C364904B
:104AD0000081619000461021008111210041442194
:104AE00000C320290C4610C80086312100C3602174
:104AF00040C1282940966521001331904096252910
:104B0000594614C840043249494B10B5194694B06F
:104B10001A680092009AD207FAD5464B464A1A60A4
:104B20000A680192019AD407FAD5444A1A600A68C1
:104B30000292029AD007FAD5414818600A68039297
:104B4000039AD207FAD53F4A1A600A680492049A77
:104B5000D407FAD53C4A1A600A680592059AD2072A
:104B6000FAD53A4A1A600A680692069AD407FAD524
:104B7000374A1A600A680792079AD207FAD5354A67
:104B80001A600A680892089AD407FAD5324A1A605D
:104B90000A680992099AD207FAD5304A1A600A6857
:104BA0000A920A9AD407FAD52D4A1A600A680B921B
:104BB0000B9AD207FAD52B4A1A600A680C920C9A03
:104BC000D407FAD5284A1A600A680D920D9AD207BE
:104BD000FAD5264A1A600A680E920E9AD407FAD5B8
:104BE000234A1A600A680F920F9AD207FAD5214A0F
:104BF0001A600F4B19461C681094109CE407FAD5F4
:104C00000C4B1860086811901198C407FAD51A6007
:104C10000A681292129AD007FAD5174A1A600A68DF
:104C20001392139AD207FAD5144A1A6014B010BD21
:104C3000B010845080108450809065210004099049
:104C400040966590808061218020082180206490BA
:104C50000081619000461021008111210041442112
:104C600080202029024610C800860921802060216A
:104C7000402128294096652140962529594614C887
:104C8000504B10B51C4696B01A680192019AD20793
:104C9000FAD54D4B4D4A1A6022680292029AD20709
:104CA000FAD54B4A1A604B4A42EA80402268039286
:104CB000039AD207FAD5186022680492049AD007A2
:104CC000FAD5454A1A60A2F5800242EA814122687B
:104CD0000592059AD207FAD5196022680692069ABB
:104CE000D007FAD53D4A1A6022680792079AD10781
:104CF000FAD53B4A1A6022680892089AD207FAD578
:104D0000384A1A6022680992099AD007FAD5364AB9
:104D10001A6022680A920A9AD107FAD5334A1A60B1
:104D200022680B920B9AD207FAD5314A1A60226890
:104D30000C920C9AD007FAD52E4A1A6022680D926E
:104D40000D9AD107FAD52C4A1A6022680E920E9A53
:104D5000D207FAD5294A1A6022680F920F9AD00713
:104D6000FAD5274A1A60216810911099C907FAD517
:104D70001A60144B1A46196811911199C807FAD58F
:104D8000114B20491960116812911299C907FAD57F
:104D90001D491960116813911399CC07FAD50B4975
:104DA0001960116814911499C807FAD51749196048
:104DB000116815911599C907FAD5154A1A6016B0E8
:104DC00010BD00BFB010845080108450400441904A
:104DD00000862929D81001C8401441904014212987
:104DE000401465210034409000310C90C0400C907C
:104DF000C030202940960D9000416090031645C8B0
:104E00000086112100416021594644C84014459054
:104E100040142D90264870B5054688B0046800946B
:104E2000009CE607FAD5234C23480460234C44EA4F
:104E300083432C680194019CE407FAD50360930135
:104E400043EA824242F0104444F4C0442B68029387
:104E5000029BDE07FAD504602B680393039BDB07F4
:104E6000FAD5174B03608B0143EA814141F01043AF
:104E700043F4C0432E680496049EF607FAD50360F7
:104E80002B680593059BDE07FAD5046041F0584175
:104E90002B680693069BDC07FAD5016042F0584266
:104EA0002B680793079BDB07FAD5026008B070BD3B
:104EB000B0108450C0210229801084508071009865
:104EC00080611890354B8EB019461A680092009A8E
:104ED000D207FAD5324B334A1A600A680192019A16
:104EE000D007FAD5304A1A600A680292029AD207AD
:104EF000FAD52E4A1A600A680392039AD007FAD5A7
:104F00002B4A1A600A680492049AD207FAD5294AF1
:104F10001A600A680592059AD007FAD5264A1A60DF
:104F20000A680692069AD207FAD5244A1A600A68D5
:104F30000792079AD007FAD5214A1A600A680892A0
:104F4000089AD207FAD51F4A1A600A680992099A84
:104F5000D007FAD51C4A1A600A680A920A9AD20740
:104F6000FAD51A4A1A6008680B900B98C007FAD550
:104F70001A600A680C920C9AD007FAD5144A1A6083
:104F80000A680D920D9AD207FAD5124A0E211A60BC
:104F900000200D230F220EB0FFF73CBFB01084504D
:104FA0008010845080430129406339218070012999
:104FB0008020542100D13490C0403490C03020294A
:104FC000C0530D9000413890832308C880E310211E
:104FD00000413821CF4308C801232DE9F04192B0A8
:104FE000CDE90333624B1D461A680592059AD20734
:104FF000FAD5604B604C2360604B19461A680692E4
:10500000069AD707FAD55E4B1A68D60400F1A88035
:105010002A680792079AD007FAD55A4A22600A6886
:105020000892089AD207FAD51E68C6F30036002EF9
:1050300040F098801220FFF7F3F807461320FFF79F
:10504000EFF887428CBF12201320FFF7E9F8471EC4
:10505000FFF738FF03AB01AA39461220FFF726F904
:1050600004AB804602AA39461320FFF71FF900EB74
:105070004800022832D003283ED0012874D12B6882
:105080000993099BDB07FAD53F4B23602B680A93F2
:105090000A9BD807FAD53D4B23602B680F930F9BD3
:1050A000D907FAD53A4B23602B681093109BDA0787
:1050B000FAD5384B23602B681193119BDB07FAD587
:1050C000354B2360013F25D51023192218210020DC
:1050D000FFF7A0FE304612B0BDE8F0812B680B93BD
:1050E0000B9BD907FAD52D4B23602B680C930C9B97
:1050F000DA07FAD52A4BCFE72B680D930D9BDB0718
:10510000FAD5284B23602B680E930E9BD807FAD54F
:10511000254BC1E703AB01AA39461220FFF7C6F8B9
:1051200004AB044602AA39461320FFF7BFF810EB80
:10513000440402D1FFF712FCC4E7FFF7E5FC022CA0
:1051400008D0032C09D0012C10D117211620FFF70D
:1051500097FDB7E715211420F9E70F210E20F6E798
:10516000124EB7E7124EB5E7124EB3E7124EB1E753
:10517000B010845000084A5180108450B4108450FC
:105180008810845000084E5100065A4940065E4976
:10519000000442410014424940042E49000652498D
:1051A0004006564900063A4940063E490608F100C5
:1051B0000708F1000408F1000508F100014B186030
:1051C000704700BF081A8450014B1860704700BF39
:1051D000041A8450034A13681842FCD0024A106033
:1051E00018467047001A8450081A8450704708B94E
:1051F000086070476FF01500704729B101290CBF96
:1052000009206FF015007047032070470020704799
:1052100030B5836804468B42154685B00ED9636865
:10522000C068194401AA00F0EFFE28B96268019B2A
:105230009B1A2B60029B6B6005B030BD6FF02100A4
:10524000FAE770472DE9F7430E461746994604469C
:1052500028B94FF0FF38404603B0BDE8F08300297D
:10526000F7D0002AF5D0CB680D8938461D440423B9
:1052700029460DEB030200F005FD80460028E8D129
:1052800046F60812BDF804107389914225D1BDF885
:1052900006109942DDD1042338460DEB0302294460
:1052A00000F0F0FC0028D4D146F60713BDF8042026
:1052B0009A42CED1C4E900679DF82830A4F808903E
:1052C000A3727389BDF806202B44E36073891344ED
:1052D0002B44043563612561BDE7002BE4D0B8E7BA
:1052E0002DE9F3410E4617461D46044620B94FF0FE
:1052F000FF3002B0BDE8F0810368002BF7D04368AF
:10530000002BF4D04FF6FF78D4E904239A4216D24A
:1053100023685B8923B1E368934204BF04332361AC
:105320000423216960680DEB030200F0ABFC002848
:10533000DDD1A37A2BB1D4E903329A4201D3012003
:10534000D7E72389BDF80610434501F1040203D0D5
:10535000BDF804C09C450BD115B1BDF804302B80BD
:105360002369043333603980236913442361C0E720
:10537000236913442361C7E773B50C4606461146FB
:105380000223204601AA00F005FB0546E8B9019A70
:105390001F2A0ED9A2F12001304620222368194489
:1053A00000F00DFD2368019A13442360284602B0E3
:1053B00070BD0146C2F12002304600F00BFD019A9B
:1053C0002168C2F120003044EAE76FF00205EDE702
:1053D0004FF4C0735843303070470B78032B06D01E
:1053E000092B14BF4FF0FF304FF4C07070474FF4DB
:1053F000C070704710B5044600F084FC4FF4C072D2
:10540000A368303B02FB103010BD70B50D4604465A
:1054100000F02FFF2A46A0F1080104232046BDE832
:10542000704000F02FBC81680122183921F007017B
:10543000083900F08DBF13B50446019100F019FF43
:105440000423A0F108010DEB0302204600F054FFF5
:1054500002B010BD13B50446FFF7CCFF6A46014603
:105460002046FFF7D5FE10B9009802B010BD00200D
:10547000FBE7FFF7FEBFFFF7FCBFFFF7FABFFFF741
:10548000F8BFFFF7F6BFFFF7F4BFFFF7F2BFFFF774
:10549000F0BFFFF7EEBF704770B513460E461546D6
:1054A000002102460446FBF743FC50B92B4601217C
:1054B000204604F12C02FBF73BFC10B1002E08BF84
:1054C000002070BD73B5044600200D461646FFF758
:1054D00094FE6946C0B2FCF7B5F930BB2C2303FB40
:1054E0000544E368258900981D44042329460DEBF3
:1054F000030200F0C7FBC0B946F60813BDF804204C
:1055000064899A42009815D1BDF806309C420CD1AE
:10551000042361190DEB030200F0B4FB28B946F631
:105520000713BDF804209A4207D0009800F0A9FBA9
:1055300002B070BD002CF2D0F7E7BDF80610214490
:1055400029443160F1E737B580250446426A01A954
:1055500003200195FCF79EF958B9019B0920226DA3
:10556000A36201A90195FCF795F9054628B1092523
:1055700000E00125284603B030BD019B206A636529
:1055800000F0C0FBE065F5E70123036003F10123B0
:1055900043600023C0E9023370474379012B07D1F0
:1055A0000368012B04D10079431E584258417047CB
:1055B000002070477FB506460D46032001A9FCF781
:1055C00041F938BB0198FFF715FFF16D04462846F5
:1055D00000F03DF90444019800F094FB0646019860
:1055E00000F097FB082201460DEB020000F0F2FBF1
:1055F0002B7921468DF808300198334602AA00F035
:1056000056FB041E019818BF012400F03AFB204607
:1056100004B070BD0124FAE700F05EBB2DE9F84349
:105620000E46002107460846FFF7E7FD0446012124
:105630000020FFF7E2FD33789C4221D0984221D12F
:1056400001252C2303FB0575F86DAC6AFFF7C0FE3E
:105650004FF000080746013C6B6A304603EBC4027A
:1056600053F83410D2F804901B684A46C91AC8444B
:10567000FFF7D2FFB84504F1FF34EDD3BDE8F8835E
:105680000025DEE70120F9E737B515460C4609206D
:10569000694600F074FEE979012903D00022204612
:1056A00000F081FE9DF80330012B02D1204600F06E
:1056B00059FEA9682046FFF7BEFE2046FDF7F0FA26
:1056C000002003B030BD73B50D46064600F0FAF871
:1056D0000446E86058B302282ED1032001A9FCF744
:1056E000B1F858BB2A463146019800F063F80446E9
:1056F000D0B9019800F0BDFD012301460DF1030270
:10570000019800F0BFFA0446A0B9012201980DF1FA
:10571000030100F0C2FD10B101238DF803309DF8A4
:10572000033003F00F03EB71019800F0AAFA204652
:1057300002B070BD0124F7E70724F8E70124F6E77B
:1057400013B5032001A9FCF77DF848B90198FFF7CC
:105750006AFE0446019800F094FA204602B010BD9B
:105760000124FAE71FB5032001A9FCF76BF8A8B9DB
:10577000019802A9FDF7B4FA044668B99DF80B3008
:10578000032B03D1019800F0EDFD0446019800F0D1
:1057900078FA204604B010BD0124F7E70124F8E7A9
:1057A000436A00205A68034613448B4200F101000B
:1057B000FAD370472DE9F34707460C46014600200F
:1057C0001646FFF70AFE051E3DDB3846E46DFFF77F
:1057D00011FE5FFA84F94FF0FF346B1E09FB0308DA
:1057E00065B9631C06D07F2C22DC40F20113013422
:1057F0003460B380284602B0BDE8F08701234146FB
:1058000038460DF1070200F03DFA002805F1FF3A95
:105810001BDB012238460DF1070100F03EFD18B9EF
:10582000B4F1FF3F08BF2C465546A8EB0908D7E75F
:105830000223803C7371631004F0010401330134CE
:1058400033603471D6E70725D4E70125D2E710B5D8
:1058500043790279012B06BF00230C46CB0102F1EC
:10586000FF3201FB0233026818BF4C00013A04FB0F
:10587000023010BD30B5816A426D8A4202D0531C9D
:105880008B421BD1802919D800231C469A4209D18A
:10589000914215D9436A03EBC2035868031B58426F
:1058A000584130BD446A056D04EBC30405EBC305E4
:1058B00064686D68AC4201D10133E7E70020F0E78E
:1058C0000120EEE71FB50320694600F058FD0920CE
:1058D00002A900F054FD9DF80030012B0CD19DF879
:1058E0000230032B08D19DF80800013818BF0120B1
:1058F000400005B05DF804FB0020FAE770B50368CE
:10590000CD1A002D02DC6FF05F0070BD93F90060CE
:105910001C78002E0ADB5C1C04601B781360036893
:10592000C91A13688B42EED80020EEE704F07F041A
:10593000013C032C2BD8DFE804F0020A1421012DCE
:10594000E1D05B781360036802330360E7E7022D60
:10595000D9DDB3F801305BBA9BB21360036803333F
:10596000F3E7032DCFDD9C785D782402DB7844EAF1
:1059700005442343136003680433E6E7042DC2DDC6
:10598000D3F801301BBA136003680533DDE76FF00D
:105990006300BAE770B404680E1B002E07DD26789A
:1059A0009E4208D10134046070BCFFF7A7BF6FF0BE
:1059B0005F0070BC70476FF06100FAE738B50323F1
:1059C0000446FFF7E7FF18B9136813B96FF06700D3
:1059D00038BD013B136023681A78002AF6D10133E1
:1059E0002360F5E72DE9F34190461F4601AA3023D5
:1059F00005460E46FFF7CEFF0446F0B92B68F61AAF
:105A0000002E34DD42461B78284642F8043B2E68BF
:105A1000019B1E4431460623FFF7BCFF044660B9D4
:105A20002B68D8F80420C8F808309918B1422960CA
:105A300007D10C213846FEF763F8204602B0BDE8D6
:105A4000F0819B5C3A4642F8043B2B6831460133B7
:105A500028462B60FFF752FF60B92B687A68BB605D
:105A60001344B34218BF6FF065042B60E5E76FF095
:105A70005F04E2E70446E0E7F8B5B1F1005F0546F0
:105A8000144600AF10D26E46D31D23F00703ADEBD2
:105A9000030D684600F093F9694622462846FEF752
:105AA000F9FAB546BD46F8BDFEF7F4FAFAE700206C
:105AB00070470FB407B504A951F8040B0191FBF727
:105AC0004DFB03B05DF804EB04B07047038B13F09B
:105AD000070305D10368002B0CBF0020032070478B
