:020000040001F9
:10800000485B0120914D0200C1510400654D020002
:10801000654D0200654D0200654D0200654D020090
:10802000000000000000000000000000C945020040
:10803000654D02000000000069450200654D020028
:1080400051460200514602005146020051460200CC
:1080500051460200514602005146020051460200BC
:1080600051460200514602005146020051460200AC
:10807000514602005146020051460200514602009C
:10808000514602005146020051460200514602008C
:10809000514602005146020051460200514602007C
:1080A000514602005146020051460200514602006C
:1080B000514602005146020051460200514602005C
:1080C000514602005146020051460200514602004C
:1080D000514602005146020051460200514602003C
:1080E000514602005146020051460200514602002C
:1080F000514602005146020051460200514602001C
:10810000514602005146020051460200514602000B
:1081100051460200514602005146020051460200FB
:1081200051460200514602005146020051460200EB
:1081300051460200514602005146020051460200DB
:1081400051460200FFFFFFFF4FF0FF0C1CEAD05228
:108150001EBF1CEAD15392EA0C0F93EA0C0F6FD0AA
:108160001A4480EA010C400218BF5FEA41211ED088
:108170004FF0006343EA501043EA5111A0FB013174
:108180000CF00040B1F5000F3EBF490041EAD37149
:108190005B0040EA010062F17F02FD2A1DD8B3F1C5
:1081A000004F40EBC25008BF20F00100704790F034
:1081B000000F0CF0004C08BF49024CEA502040EA86
:1081C00051207F3AC2BFD2F1FF0340EAC25070474C
:1081D00040F400004FF00003013A5DDC12F1190F8A
:1081E000DCBF00F000407047C2F10002410021FAFC
:1081F00002F1C2F1200200FA02FC5FEA310040F114
:10820000000053EA4C0308BF20EADC70704792F08C
:10821000000F00F0004C02BF400010F4000F013AC4
:10822000F9D040EA0C0093F0000F01F0004C02BFBF
:10823000490011F4000F013BF9D041EA0C018FE72E
:108240000CEAD15392EA0C0F18BF93EA0C0F0AD034
:1082500030F0004C18BF31F0004CD8D180EA01005A
:1082600000F00040704790F0000F17BF90F0004FF3
:10827000084691F0000F91F0004F14D092EA0C0FD5
:1082800001D142020FD193EA0C0F03D14B0218BF68
:10829000084608D180EA010000F0004040F0FE40AE
:1082A00040F40000704740F0FE4040F4400070474A
:1082B00081F0004102E000BF83F0004330B54FEA97
:1082C00041044FEA430594EA050F08BF90EA020F04
:1082D0001FBF54EA000C55EA020C7FEA645C7FEA97
:1082E000655C00F0E2804FEA5454D4EB5555B8BFBA
:1082F0006D420CDD2C4480EA020281EA030382EA2B
:10830000000083EA010180EA020281EA0303362DBC
:1083100088BF30BD11F0004F4FEA01314FF4801C8F
:108320004CEA113102D0404261EB410113F0004FA1
:108330004FEA03334CEA133302D0524263EB430358
:1083400094EA050F00F0A780A4F10104D5F1200EF6
:108350000DDB02FA0EFC22FA05F2801841F1000151
:1083600003FA0EF2801843FA05F359410EE0A5F125
:1083700020050EF1200E012A03FA0EFC28BF4CF056
:10838000020C43FA05F3C01851EBE37101F000450C
:1083900007D54FF0000EDCF1000C7EEB00006EEB19
:1083A0000101B1F5801F1BD3B1F5001F0CD34908A3
:1083B0005FEA30004FEA3C0C04F101044FEA4452FA
:1083C00012F5800F80F09A80BCF1004F08BF5FEA81
:1083D000500C50F1000041EB045141EA050130BD61
:1083E0005FEA4C0C404141EB0101013C28BFB1F573
:1083F000801FE9D291F0000F04BF01460020B1FABE
:1084000081F308BF2033A3F10B03B3F120020CDA90
:108410000C3208DD02F1140CC2F10C0201FA0CF06E
:1084200021FA02F10CE002F11402D8BFC2F1200CD3
:1084300001FA02F120FA0CFCDCBF41EA0C01904089
:10844000E41AA2BF01EB0451294330BD6FEA0404D2
:108450001F3C1CDA0C340EDC04F11404C4F12002BD
:1084600020FA04F001FA02F340EA030021FA04F3CF
:1084700045EA030130BDC4F10C04C4F1200220FA26
:1084800002F001FA04F340EA0300294630BD21FA64
:1084900004F0294630BD94F0000F83F4801306BF2A
:1084A00081F480110134013D4EE77FEA645C18BF1E
:1084B0007FEA655C29D094EA050F08BF90EA020FB5
:1084C00005D054EA000C04BF1946104630BD91EAAD
:1084D000030F1EBF0021002030BD5FEA545C05D1B0
:1084E0004000494128BF41F0004130BD14F58004EF
:1084F0003CBF01F5801130BD01F0004545F0FE4163
:1085000041F470014FF0000030BD7FEA645C1ABF97
:10851000194610467FEA655C1CBF0B46024650EACE
:10852000013406BF52EA033591EA030F41F40021FA
:1085300030BD00BF90F0000F04BF0021704730B580
:108540004FF4806404F132044FF000054FF0000155
:1085500050E700BF90F0000F04BF0021704730B516
:108560004FF4806404F1320410F0004548BF4042EB
:108570004FF000013EE700BF42004FEAE2014FEA40
:1085800031014FEA02701FBF12F07F4393F07F4F1B
:1085900081F06051704732F07F4208BF704793F01E
:1085A0007F4F04BF41F40021704730B54FF4607431
:1085B00001F0004521F000411CE700BF50EA010234
:1085C00008BF704730B54FF000050AE050EA0102DD
:1085D00008BF704730B511F0004502D5404261EB4D
:1085E00041014FF4806404F132045FEA915C3FF48E
:1085F000D8AE4FF003025FEADC0C18BF03325FEA2B
:10860000DC0C18BF033202EBDC02C2F1200300FADB
:1086100003FC20FA02F001FA03FE40EA0E0021FA00
:1086200002F11444BDE600BF70B54FF0FF0C4CF4EE
:10863000E06C1CEA11541DBF1CEA135594EA0C0FA0
:1086400095EA0C0F00F0DEF82C4481EA030621EADB
:108650004C5123EA4C5350EA013518BF52EA033516
:1086600041F4801143F4801338D0A0FB02CE4FF0C8
:108670000005E1FB02E506F00042E0FB03E54FF0F8
:108680000006E1FB03569CF0000F18BF4EF0010EF0
:10869000A4F1FF04B6F5007F64F5407404D25FEAEC
:1086A0004E0E6D4146EB060642EAC62141EA55519F
:1086B0004FEAC52040EA5E504FEACE2EB4F1FD0CE1
:1086C00088BFBCF5E06F1ED8BEF1004F08BF5FEA5F
:1086D000500E50F1000041EB045170BD06F0004611
:1086E00046EA010140EA020081EA0301B4EB5C04BE
:1086F000C2BFD4EB0C0541EA045170BD41F48011B6
:108700004FF0000E013C00F3AB8014F1360FDEBFDA
:10871000002001F0004170BDC4F10004203C35DAB6
:108720000C341BDC04F11404C4F1200500FA05F339
:1087300020FA04F001FA05F240EA020001F00042DA
:1087400021F0004110EBD37021FA04F642EB060150
:108750005EEA430E08BF20EAD37070BDC4F10C047A
:10876000C4F1200500FA04F320FA05F001FA04F23E
:1087700040EA020001F0004110EBD37041F100012A
:108780005EEA430E08BF20EAD37070BDC4F1200535
:1087900000FA05F24EEA020E20FA04F301FA05F29D
:1087A00043EA020321FA04F001F0004121FA04F245
:1087B00020EA020000EBD3705EEA430E08BF20EA15
:1087C000D37070BD94F0000F0FD101F0004640004F
:1087D00041EB010111F4801F08BF013CF7D041EAD1
:1087E000060195F0000F18BF704703F000465200D5
:1087F00043EB030313F4801F08BF013DF7D043EAA6
:108800000603704794EA0C0F0CEA135518BF95EA5B
:108810000C0F0CD050EA410618BF52EA4306D1D1E2
:1088200081EA030101F000414FF0000070BD50EA01
:10883000410606BF1046194652EA430619D094EA8B
:108840000C0F02D150EA013613D195EA0C0F05D175
:1088500052EA03361CBF104619460AD181EA0301C9
:1088600001F0004141F0FE4141F470014FF0000081
:1088700070BD41F0FE4141F4780170BD70B54FF01C
:10888000FF0C4CF4E06C1CEA11541DBF1CEA13559C
:1088900094EA0C0F95EA0C0F00F0A7F8A4EB05047E
:1088A00081EA030E52EA03354FEA013100F0888075
:1088B0004FEA03334FF0805545EA131343EA12633E
:1088C0004FEA022245EA111545EA10654FEA0026F3
:1088D0000EF000419D4208BF964244F1FD0404F5AC
:1088E000407402D25B084FEA3202B61A65EB030508
:1088F0005B084FEA32024FF480104FF4002CB6EBC5
:10890000020E75EB030E22BFB61A754640EA0C0044
:108910005B084FEA3202B6EB020E75EB030E22BF84
:10892000B61A754640EA5C005B084FEA3202B6EBC5
:10893000020E75EB030E22BFB61A754640EA9C0084
:108940005B084FEA3202B6EB020E75EB030E22BF54
:10895000B61A754640EADC0055EA060E18D04FEA12
:10896000051545EA16754FEA06164FEAC30343EAB2
:1089700052734FEAC2025FEA1C1CC0D111F4801F7F
:108980000BD141EA00014FF000004FF0004CB6E778
:1089900011F4801F04BF01430020B4F1FD0C88BF17
:1089A000BCF5E06F3FF6AFAEB5EB030C04BFB6EB22
:1089B000020C5FEA500C50F1000041EB045170BD15
:1089C0000EF0004E4EEA113114EB5C04C2BFD4EB42
:1089D0000C0541EA045170BD41F480114FF0000EC6
:1089E000013C90E645EA060E8DE60CEA135594EA42
:1089F0000C0F08BF95EA0C0F3FF43BAF94EA0C0F45
:108A00000AD150EA01347FF434AF95EA0C0F7FF4B9
:108A100025AF104619462CE795EA0C0F06D152EA0D
:108A200003353FF4FDAE1046194622E750EA4106F1
:108A300018BF52EA43067FF4C5AE50EA41047FF402
:108A40000DAF52EA43057FF4EBAE12E74FF0FF3C67
:108A500006E000BF4FF0010C02E000BF4FF0010C38
:108A60004DF804CD4FEA410C7FEA6C5C4FEA430CB1
:108A700018BF7FEA6C5C1BD001B050EA410C0CBF00
:108A800052EA430C91EA030F02BF90EA020F002062
:108A9000704710F1000F91EA030F58BF994208BFC9
:108AA00090422CBFD8176FEAE37040F00100704786
:108AB0004FEA410C7FEA6C5C02D150EA013C07D1DD
:108AC0004FEA430C7FEA6C5CD6D152EA033CD3D028
:108AD0005DF8040B704700BF8446104662468C4622
:108AE0001946634600E000BF01B5FFF7B7FF002855
:108AF00048BF10F1000F01BD4DF808EDFFF7F4FF7E
:108B00000CBF012000205DF808FB00BF4DF808ED08
:108B1000FFF7EAFF34BF012000205DF808FB00BF2B
:108B20004DF808EDFFF7E0FF94BF012000205DF84D
:108B300008FB00BF4DF808EDFFF7CEFF94BF012002
:108B400000205DF808FB00BF4DF808EDFFF7C4FFFB
:108B500034BF012000205DF808FB00BF4FEA410C44
:108B60007FEA6C5C02D150EA013C0AD14FEA430C27
:108B70007FEA6C5C02D152EA033C02D14FF0000064
:108B800070474FF0010070474FEA410212F50012A2
:108B900015D211D56FF47873B3EB625212D94FEA44
:108BA000C12343F0004343EA505311F0004F23FA2E
:108BB00002F018BF404270474FF00000704750EA83
:108BC000013005D111F0004008BF6FF00040704740
:108BD0004FF00000704700BF4A0011D212F500129A
:108BE00011D20DD56FF47873B3EB62520ED44FEA05
:108BF000C12343F0004343EA505323FA02F0704785
:108C00004FF00000704750EA013002D14FF0FF30C2
:108C100070474FF0000070474FEA4102B2F1E04365
:108C200024BFB3F5001CDCF1FE5C0DD901F0004C53
:108C30004FEAC0024CEA5070B2F1004F40EB8300A3
:108C400008BF20F00100704711F0804F21D113F1CF
:108C50003872BCBF01F00040704741F480114FEA08
:108C60005252C2F11802C2F1200C10FA0CF320FA91
:108C700002F018BF40F001004FEAC1234FEAD323AE
:108C800003FA0CFC40EA0C0023FA02F34FEA430318
:108C9000CCE77FEA625307D150EA01331EBF4FF0A1
:108CA000FE4040F44000704701F0004040F0FE40BC
:108CB00040F40000704700BF80F0004002E000BFB9
:108CC00081F0004142001FBF5FEA410392EA030FB7
:108CD0007FEA226C7FEA236C6AD04FEA1262D2EB01
:108CE0001363C1BFD218414048404140B8BF5B4206
:108CF000192B88BF704710F0004F40F4000020F09F
:108D00007F4018BF404211F0004F41F4000121F0B4
:108D10007F4118BF494292EA030F3FD0A2F10102FE
:108D200041FA03FC10EB0C00C3F1200301FA03F13C
:108D300000F0004302D5494260EB4000B0F5000F5F
:108D400013D3B0F1807F06D340084FEA310102F11E
:108D50000102FE2A51D2B1F1004F40EBC25008BFD0
:108D600020F0010040EA03007047490040EB00009A
:108D7000013A28BFB0F5000FEDD2B0FA80FCACF19B
:108D8000080CB2EB0C0200FA0CF0AABF00EBC250C8
:108D900052421843BCBFD0401843704792F0000FB6
:108DA00081F4000106BF80F400000132013BB5E709
:108DB0004FEA41037FEA226C18BF7FEA236C21D07F
:108DC00092EA030F04D092F0000F08BF08467047E4
:108DD00090EA010F1CBF0020704712F07F4F04D1B2
:108DE000400028BF40F00040704712F100723CBFC5
:108DF00000F50000704700F0004343F0FE4040F4EF
:108E0000000070477FEA226216BF08467FEA2363AC
:108E10000146420206BF5FEA412390EA010F40F497
:108E2000800070474FF0000304E000BF10F00043E3
:108E300048BF40425FEA000C08BF704743F09643CA
:108E400001464FF000001CE050EA010208BF7047E5
:108E50004FF000030AE000BF50EA010208BF70476C
:108E600011F0004302D5404261EB41015FEA010C81
:108E700002BF84460146002043F0B64308BFA3F179
:108E80008053A3F50003BCFA8CF2083AA3EBC2535B
:108E900010DB01FA02FC634400FA02FCC2F120027A
:108EA000BCF1004F20FA02F243EB020008BF20F0B1
:108EB0000100704702F1200201FA02FCC2F1200217
:108EC00050EA4C0021FA02F243EB020008BF20EA0C
:108ED000DC70704753B94AB9002908BF00281CBF8D
:108EE0004FF0FF314FF0FF3000F02AB8ADF1080C21
:108EF0006DE904CE00F03DF8DDF804E0DDE9022381
:108F000004B07047D0B500220B4B06460F46FFF762
:108F10008BFBFFF761FE0446FFF70CFB0022074BBB
:108F2000FFF782FB02460B4630463946FFF7C4F98D
:108F3000FFF752FE2146D0BD0000F03D0000F04199
:108F4000704700BF38B50022002304460D46FFF7E6
:108F5000DDFD28B920462946BDE83840FFF7D2BFDD
:108F6000204605F10041FFF7CDFF404261EB410192
:108F700038BD2DE9F04786468C460846089E1546C2
:108F800074461946002B40F0C1808542B2FA82F245
:108F900045D94AB1C2F1200300FA02FC9540944041
:108FA0002EFA03F343EA0C0C4FEA154EA8B2230C39
:108FB000BCFBFEF80EFB18CC08FB00F943EA0C439F
:108FC000994528D9EB1808F1FF3704D2994502D901
:108FD000A8F102072B44A3EB0903A4B2B3FBFEFCE8
:108FE0000EFB1C330CFB00F044EA0344A04214D9EE
:108FF0002C190CF1FF3304D2A04202D9ACF10203C8
:109000002C44241A43EA07401EB1D44000233460A4
:109010007360BDE8F0874746DDE76346F1E792BB42
:10902000431B01214FEA154EAFB2200CB3FBFEFCEF
:109030000EFB1C330CFB07F840EA0343984561D94B
:10904000EB180CF1FF3004D2984502D9ACF10200C4
:109050002B44A3EB0803A4B2B3FBFEFC0EFB1C33B2
:109060000CFB07F744EA0344A7424DD92C190CF135
:10907000FF3304D2A74202D9ACF102032C44E41B13
:1090800043EA0040C0E7C2F120039540944020FA33
:1090900003F12EFA03F34FEA154E9040AFB20343AB
:1090A000B1FBFEFC0EFB1C10190C0CFB07F841EA8F
:1090B0000041884522D969180CF1FF3004D2884557
:1090C00002D9ACF102002944A1EB08019BB2B1FB2B
:1090D000FEFC0EFB1C110CFB07F743EA01439F4209
:1090E0000ED9EB180CF1FF3104D29F4202D9ACF13A
:1090F00002012B44DB1B41EA004193E76046E3E7B2
:109100006146F7E76046A4E76346B8E7834206D9BD
:1091100016B9002108467CE7C6E900E0F9E7B3FA92
:1091200083F78FB9834201D3724508D8BEEB02049E
:1091300060EB030301209C461EB9002169E7384615
:10914000FAE7C6E9004CF8E7C7F1200CBB400EFA7D
:1091500007F522FA0CF42EFA0CF1BA401C4320FA5F
:109160000CF3B8404FEA144901431FFA84FEB3FBE5
:10917000F9F809FB18300B0C08FB0EFA43EA004320
:109180009A4540D9E31808F1FF3004D29A4502D934
:10919000A8F102002344A3EB0A0389B2B3FBF9F858
:1091A00009FB183308FB0EFE41EA03418E452CD91A
:1091B000611808F1FF3304D28E4502D9A8F10203E9
:1091C000214443EA0040A1EB0E01A0FB0298414577
:1091D000CE46434602D306D14D4504D20138B9EB01
:1091E000020E68EB0403002EA7D0B5EB0E0261EB74
:1091F000030101FA0CFC22FA07F3F9404CEA0303DD
:10920000C6E9003199E74046C5E74346D9E710F87B
:10921000012B11F8013B012A28BF9A42F7D0D01A3E
:109220007047034613F8012B002AFBD1181A0138A6
:1092300070470000000000002DE9F04FADF5497DBA
:109240000B7880460E463EAF092B00F27183DFE8B3
:1092500013F00A0072007F000D036F036F036F03AA
:1092600059036F036603CE697EB16C4688B03EAA8F
:10927000B74BC2E9053603234FF4C25142F8103F01
:10928000B44829F00EFFA54650E04FF0020A07F55A
:1092900090794C46B04BB14DC9F8143007F598722F
:1092A0004FF48651AB48C9F810A029F0FAFE0FCD53
:1092B0000FC40FCD0FC495E80F0084E80F00A84B32
:1092C000C7F810907B61A74BDFF89CB2C7E90EA3EB
:1092D000A04DDFF898A24FF486519E4807F138025E
:1092E00029F0DFFE0C2373436C468AB059F8033033
:1092F0003EAAD36140F20133C2E905B613844FF4AC
:109300001351284642F810AF013629F0CAFE042E48
:10931000A546E7D1964A4046136807F1100123F4A9
:10932000007343F4806313602FF06CF907F50B773B
:10933000BD46BDE8F08F6C4688B0CB693EAA8D492A
:10934000C2E9051303234FF4C65142F8103F97E7D3
:109350008948D1E901212AF0BFF87469802C11D91C
:10936000864D29464046A4F180022FF0F8F9B0F16D
:1093700000092DD010DBA4EB0904802CF1D86FF08C
:10938000790901E04FF00009224640467B492FF061
:10939000E9F9002818BF8146337B07F59074012B4B
:1093A00005D1338B2146404623802FF0DDF87348EA
:1093B00029F050FF054670B9714B636102234FF4E9
:1093C00082516448236107F5987229F06AFEADE77F
:1093D0006FF00409E0E7B2686A49706832F0BEF9DC
:1093E000002865D1B9F1000FC0F28D80664928468A
:1093F00029F03AFF65498246284629F035FF834621
:10940000BAF1000F73D0504629F06AFF00286ED0E1
:10941000DAF81030002B6AD005F0DCFBDAF8102007
:109420005949814629F040FFBBF1000F5DD0DBF8C0
:1094300010205649484629F037FF43A3D3E90023BB
:109440005349484629F01AFF484629F007FF82464B
:1094500040B30021102207F5947031F0CAFF0123B8
:1094600023724C4B504623602823C4F80CA0636041
:10947000FFF7D7FE2146206140462FF031F870B14A
:10948000EB4688B03EAA444B4FF4C251C2E90530C6
:109490000323304842F8103F29F003FEDD465046D2
:1094A00027F0C2F9484605F0EDFA284605F0EAFA39
:1094B00028463A4929F0DBFE002800F02781374989
:1094C000284629F0CEFE36498146284629F0C9FEB5
:1094D0008246484629F0FDFE00286DD1314B63617C
:1094E000022307F5987223618DE02F4AA1E72F4BE5
:1094F0004FF48251636102231648236107F5987285
:1095000029F0CFFDD1E719F17A0F0BD1284B4FF499
:109510008251636102230F48236107F5987229F095
:10952000C0FDC5E7EA4688B03EAA224B4FF4C251BF
:10953000C2E905390323074842F8103F29F0B1FD7D
:10954000D546B5E7AFF300800000000000449F401F
:10955000BCDD0400B0C80400D4DD040060CA04000F
:109560000400D204EADD040009DE04000400000166
:1095700044E9002016DE040033DE0400A4FA0020D3
:1095800054DE040071DE040099DE04009DDE040058
:10959000A0DE0400A4DE0400CDDE040059DF0400D8
:1095A0006DDF040078DF040025FF0400ECDE04001A
:1095B00013DF04003BDF0400504629F091FE002831
:1095C0008CD000236370DAF81030F7210093D9F8BB
:1095D0001430AE4A07F5947027F07AFED6E901B64A
:1095E0004FF0FF33207032465846A949636032F08D
:1095F000B5F8E8B9A74A13785BB1A74BFB63022320
:10960000BB6307F138024FF48251A44829F049FDA9
:1096100078E0D9F81400A249A37008600121117004
:10962000A04A136823F0080343F00403136026E004
:10963000324658469C4932F091F858BB9B4B1A78F9
:109640000AB19B4BDAE7D9F814209A4940460A60E0
:109650000121197093490B6843F400630B60DAF839
:109660001030914902F006FC934B4FF48651FB6396
:1096700002238A48BB6307F1380229F012FD07F57F
:109680009871F422684631F094FE94E80F0004F0DB
:1096900005FD37E032465846884932F05FF8E8B9B0
:1096A000874B1A780AB1874BA8E70126D9F814101E
:1096B000854A1E701160854B07F13802FB63022357
:1096C0004FF48651BB63754829F0EBFC754AA670D0
:1096D000136823F0800343F04003A7E76C468AB089
:1096E0003EAA7B4BC2F81CB0C2E9053640F20133FA
:1096F0001384784B4FF41251684842F8103F29F018
:10970000D0FCA546284605F0BDF90FE6284672496B
:1097100029F0ADFD002800F0A78028466F4929F008
:10972000A6FD002800F0A08028466D4929F09FFD85
:10973000002800F099806849284629F092FD674981
:109740008146284629F08DFD65498246284629F044
:1097500088FDD0E906234846C7E9002329F0B9FD72
:1097600008B9604BBBE6504629F0BAFD0028F8D096
:10977000D7E90001FFF730FA009083465346404690
:10978000D9F81420716802F009FC08B1564BA6E61E
:10979000022372696370F72A02D9544AFA632FE7E9
:1097A0003169227007F5947031F003FED6E9018625
:1097B000D9F814303246404635496360C4F800B1E8
:1097C00031F0CCFF68B9A07007F59871F4226846B3
:1097D00031F0EFFD94E80F0004F060FC02F0D2FBE2
:1097E00090E732464046304931F0B8FF28BBDAF8FE
:1097F00010402046FFF715FD23460090F72107F1A2
:109800000C0207F1280005F0B1FA30B1384B7B6249
:10981000022307F120023B62F5E6484605F0E6F92F
:10982000FFF7B2F9FA6807F1280105F023FA08B149
:10983000304BECE702F0ACFB64E7324640461F4990
:1098400031F08CFF00287FF45DAF012307F598719C
:10985000A370F422684631F0ACFD94E80F0004F0E8
:109860001DFC02F089FB4DE7234BA6E5CB6933B124
:109870006C4688B03EAA2149C2E90513FBE46C4658
:1098800088B08B883EAA1E495AE500BF9BDF0400C2
:10989000B6DF040029FC0020C4DF0400B0C80400C7
:1098A00050EB002044E90020DEDF04002BFC002008
:1098B000EBDF040058EB002004E0040027E0040084
:1098C0002AFC00203BE0040054EB00205BE0040095
:1098D00085E0040004000001AE65050096E8040080
:1098E000B82F0500AEE00400D0E00400EBE0040077
:1098F000FEDC04000CE1040036E1040052E1040047
:1099000068E10400CB6923B16C4688B03EAA0B49DC
:10991000B2E76C4688B08B883EAA094910E5CB694E
:10992000002B3FF403AD6C4688B03EAA0549A3E77F
:109930006C4688B03EAA044902E500BF7DE1040000
:1099400093E10400A8E10400C0E10400000000006D
:109950002DE9F04706460C4692B0002900F0BD8084
:109960000F68002F00F0B9808D68D1F8048005F1F0
:109970000409C1450AD80422AB49781931F0EEFE3A
:10998000A8B90423F360A36804331DE06B1D984558
:1099900010D2454580F0A1807B5D7819222B24D11F
:1099A0002146304612B0BDE8F04704F0FBBB6B1D0A
:1099B00098450ED305229D49781931F0CFFE30B974
:1099C0000123F360A36805330120A36086E0C1454D
:1099D000DFD804229649781931F0C0FE0028D8D18A
:1099E0000223F36001237361CDE72D2B03D0A3F194
:1099F0003002092A53D800230DF1080C67464FF0B6
:109A0000010EA8EB0505DFF82C82019310F8012B5D
:109A1000452A3CD82A2A10D9A2F12B01C9B20EFA44
:109A200001F111EA080F01D12E2A06D101333F2B93
:109A30000CF8012B01D0AB42E8D1002548336B4430
:109A4000384601A903F8405C27F0C0FCDDF804A00B
:109A50008046BA45894640D071A3D3E90023FFF779
:109A600069F8B0B9002240464946734BFFF758F8F1
:109A700090B940464946FFF787F80823C6E90689AA
:109A80007061F360A368AAEB070A53449CE7652A58
:109A9000CBE76FF00040F0E74FF00040EDE75B2BC5
:109AA00058D1D4F80C90B9F57A7F16D209F1010398
:109AB000E3607B5D5B2B10D101352046A56029F06A
:109AC00036FBA368984506D9FA5C5D2A09D10027C0
:109AD000C4F80C9036E0013BA360002012B0BDE852
:109AE000F08700252F46013BA360206929F096FBF3
:109AF000A8460546002800F0A3804FB3C8F8000030
:109B0000C0F80480A36820460133A36029F00FFB4E
:109B100021462846FFF71CFF002800F091802046D0
:109B200029F005FBD4E90123934280F08C80226860
:109B3000D35C2C2BD9D05D2B40F08580E368013BB2
:109B4000E3607D602023C6E90273A36801333BE72D
:109B50000746D7E77B2BC0D1D4F80C90B9F57A7FB4
:109B6000BBD209F10103E3607B5D7B2BB5D10135ED
:109B70002046A56029F0DBFAA3689845ABD9FA5CCA
:109B80007D2A03D10027C4F80C9047E000252F461A
:109B9000A846013BA360206929F040FBA946054681
:109BA00000284DD0002F49D0C9F80000C0F804901B
:109BB000A36820460133A36029F0B9FA214628465C
:109BC00004F0F0FA00283BD0204629F0B0FA2B69C7
:109BD000C5F810802B62D4E90123934230D2226869
:109BE000D25C3A2A2CD101332046A36029F09FFA97
:109BF00021462846FFF7ACFE10B3204629F097FA1D
:109C0000D4E9012393421ED22268D35C2C2BC2D00C
:109C10007D2B18D1E368013BE3607D60402392E730
:109C20000000C0FFFFFFDF4175F204007AF204007C
:109C300080F20400E57F00040000E0C10746B7E7BA
:109C4000002F3FF44AAF384604F01CFF45E700BF41
:109C5000D0B5174B064618680F4629F0DFFA0446C0
:109C600070B10823C0E90667C36039460EA3D3E983
:109C700000233046FEF75EFF20B16FF000436361C2
:109C80002046D0BD0022304639460A4BFEF748FF39
:109C900010B14FF00043F2E730463946FEF774FF4B
:109CA0006061EDE7AFF300800000C0FFFFFFDF4120
:109CB0000CC800200000E0C1F0B589B0694D00AFCC
:109CC000D5F86031996811F001011DD140F60340CB
:109CD0003A1D0CF045FB0446002840F0BE807C682D
:109CE000E3681B786BB90EF023F805F1D403D3E8D1
:109CF000AF2F02F00902D3E8EF1FC3E8E02F0028DE
:109D0000F9D1204617F010FB002141F203003A1D63
:109D10000CF026FB0446002840F09F807B68524EE2
:109D2000DA68D2F80100D2F8051003C6184617F019
:109D3000FBFA214641F201003A1D0CF011FB0446EA
:109D4000002840F08A807868C3685A7885F87020C7
:109D50005A88A5F872201A7985F87120B3F807207F
:109D6000A5F87420B3F80530A5F8763017F0DCFAC2
:109D7000214641F202003A1D0CF0F2FA0446002896
:109D80006BD1D7F804C0DCF80C20531C41323446A8
:109D900018685968083303C493422646F7D16046D1
:109DA00017F0C2FA0EF002FA0446002855D195F8D1
:109DB0008A3099061CD42D4B4FF48451FB61022349
:109DC0002B48BB6107F118022BF04FFB95F87C3054
:109DD0005A0651D4274B4FF48251FB610223244889
:109DE000BB6107F118022BF040FB6FF0120434E066
:109DF000072140F633400CF065FA0646002800F0D3
:109E0000488107210C3017F051FC6FF004030370F8
:109E10000423C0F802408471447004712246C37068
:109E2000314640F633400CF09BFA0446A8B90121B4
:109E300040F631400CF046FA0646002800F0298131
:109E400001210C302DF0A1FE2246314640F6314072
:109E50000CF086FA04460028B8D020462437BD46C8
:109E6000F0BD00BF80C50020F8C50020F419050032
:109E700018C80400221A0500002142F2030007F16D
:109E800008020CF06DFA04460028E6D1BB68AC4E1F
:109E9000DA68D2F80100D2F8051003C6184617F0A8
:109EA00043FA214642F2020007F108020CF058FA88
:109EB00004460028D1D1BC68E368B3F8012091B210
:109EC00049B1D97839B1A5F80421DA78114606F1FB
:109ED000280031F092F8204617F026FA95F87C60B9
:109EE00016F0200618D1022140F66D400CF0EAF978
:109EF0000446002800F0CD8002210C3017F0D6FB7C
:109F00000123214603704670324640F66D400CF046
:109F100027FA04460028A0D195F89C301B0713D5DA
:109F2000002142F21C0007F108020CF019FA044665
:109F3000002892D1B868C368D3F80120D3F805305F
:109F4000C5E9382317F0F0F995F8D8309E0622D5E8
:109F5000391DB81C0CF084FA044600287FF47DAF4C
:109F6000042142F224000CF0ADF90646002800F06E
:109F7000908004210C3017F099FB7B8822460380E7
:109F8000BB883146438042F224000CF0E9F90446D4
:109F900000287FF462AF95F8D8305C0611D5002117
:109FA00042F22A0007F108020CF0DAF90446002810
:109FB0007FF453AFB868C3685B7885F8203117F039
:109FC000B3F9082142F201000CF07CF904460028A4
:109FD0005FD008210C3017F069FB95F8D81040F2DB
:109FE000022311F0400F08BF0323024688074CBF2D
:109FF00043F02C0043F00C008B0695F8D93048BF95
:10A0000040F0400013F0090F95F8A23018BF40F45B
:10A01000006003F00603CE0748BF40F01000062B97
:10A0200008BF40F4C07000212BF02AFA214600221C
:10A0300042F201000CF094F9044600287FF40DAFC1
:10A0400095F87C30B5F80411980625D4D1B941F2C1
:10A05000050007F108020CF083F9044600287FF49C
:10A06000FCAEB5F80431BC684BB9E368B3F8012025
:10A07000A5F804219A883348114630F0BEFF2046E7
:10A0800017F052F9082140F601400CF01BF9044684
:10A0900090B96FF06804E0E60029F3D12A4B4FF441
:10A0A0008251FB6102232948BB6107F118022BF0A2
:10A0B000DCF96FF00404D0E608210C3017F0F6FA52
:10A0C00095F8D8300246D90730D44FF000512048D7
:10A0D0002BF0D6F92146002240F601400CF040F961
:10A0E000044600287FF4B9AE01463A1D4FF6014000
:10A0F0000CF036F980B3174BFB6102234FF4845107
:10A100001248BB6107F118022BF0AFF92BF012FBDC
:10A11000044600287FF4A1AE0FF06CFB0446002833
:10A120007FF49BAE0DF0ECF8044696E602A1D1E96F
:10A130000001CDE7AFF3008090880002008000208E
:10A1400058C6002088C60020461A050018C804001A
:10A1500010880002691A05007B686D46DC688AB0C9
:10A16000B4F80130032B96BF424A434952F82310FA
:10A170006A46D3614FF4007340481384404BC2E9F0
:10A18000050142F8103F4FF413513E482BF06DF992
:10A19000B4F80120AD46022AB4F8033048D1032BAD
:10A1A00046D8394A52F823106D468AB06A46D361C0
:10A1B0004FF4007335481384314BC2E9050142F86E
:10A1C000103F4FF413512F482BF04FF9AD466379F0
:10A1D000A679032B98BF2E4AB4F80750D4F809008B
:10A1E0006C468CB094BF52F8231023496A46C2E9EA
:10A1F00007364FF40073DFF89CC09385264BC2E905
:10A2000005C1C2E909504FF4735142F8103F1D488F
:10A210002BF02BF9A546786817F086F800214FF649
:10A2200002403A1D0CF09CF8044618B11B4B63E742
:10A230001149B9E778681A4DC368B3F80130A5F839
:10A24000C13017F071F895F8C1305B077FF55EAF4C
:10A2500021464FF603403A1D0CF082F808B1114B2D
:10A260004AE77868C3685B7885F8C03017F05CF817
:10A270004CE700BF30D004004C1405008D1A0500D7
:10A280000400000118C8040020D00400A61A05002C
:10A2900010D00400BE1A050007000001EB1A0500EB
:10A2A00080C50020141B05000023F0B58DB000AF61
:10A2B000C7E9043304230D4606467B60002800F0FE
:10A2C000E080002900F0DD80062107F110002FF06A
:10A2D0004FFC044690B16D4688B06A466C4B4FF413
:10A2E000C251C2E9053003236A4842F8103F2FF0FB
:10A2F0008FFDAD4620463437BD46F0BD014607F11F
:10A30000100230462FF031FC044698B16D4688B0FB
:10A310006A46614BC2E9053403234FF4C2515D48DC
:10A3200042F8103F2FF074FDAD4607F110002FF0FA
:10A3300032FCDFE73A46012107F110002FF0DFFC85
:10A34000044620B16D4688B06A46544BE2E73C684B
:10A35000ACB1042C18D0052C0CBF0923FF232B70A3
:10A3600003213B1D07F1080207F110002FF0F5FC57
:10A37000044658B16D4688B06A46494BCAE7002387
:10A380002C706B60AB60B5E70723E8E77B6801469C
:10A3900030333B4403F8280C022207F1080027F071
:10A3A000B9F92B78C0B2072B25D0092B15D10F286E
:10A3B00042D96C4688B06A463A4B53616FF0150338
:10A3C000936103234FF4C251324842F8103F2FF0FB
:10A3D0001FFDA5466FF01504A7E7334B4FF48451DA
:10A3E000FB6202232B4807F12802BB626FF07F0457
:10A3F0002FF00EFD99E70F28DBD82C4B2C4E33F8AD
:10A400001000F0B1FEF7A6F81FA3D3E90023FEF772
:10A410000BF9FEF701FC042168607B1807F10802C4
:10A4200007F1100079602FF098FC044658B16D4692
:10A4300088B06A461F4B6DE71F4B204E33F8100063
:10A44000DFE71F48E7E77B68014630333B4403F80A
:10A45000280C022207F1080027F05CF9C0B20F288F
:10A4600006D96C4688B06A46164BC2E90530A8E7A3
:10A470000130C0B2FEF7DAFC3146FDF765FEA86098
:10A4800053E76FF0150435E77B14AE47E17A2440BB
:10A49000AA5A0500C0C80400D35A0500FF5A050097
:10A4A000215B0500755B05004D5B050000DC0400C9
:10A4B0000AD7A33F995B0500E0DB04000AD72340DD
:10A4C0000AD7A340C45B05002DE9F04F1F469DB09D
:10A4D00000230C4682460E9218934FF00008974BCB
:10A4E0004FF000091D682846FEF79BFE2246834672
:10A4F000179213782B2B3BD02CD80D2B26D8082B5A
:10A5000026D8002B2FD000230C93179E3378302BA6
:10A5100072D1737803F0DF03582B63D10C9B17A91A
:10A52000874A5046019318AB0297009319AB27F066
:10A5300033FB10F00705044635D0062D1AD10E9BCB
:10A540000BB101361E604046494637E0202BDAD178
:10A550000132CDE72D2BD6D101230C93531C179339
:10A560005378002BD1D10E9B002BECD01C60EAE776
:10A570000023F2E7189A3AB135211AA831F0DFFC2E
:10A580001899504627F0DAFD013D199A042D06D896
:10A59000DFE805F0170320231700DDE91A892107FA
:10A5A00001D549F000490E9B13B1179B0E9A136019
:10A5B0000C9B002BC7D0404609F100411DB0BDE8FF
:10A5C000F08FDDE91A8302F2334223F4801343EA69
:10A5D0000259E4E7DFF86C91E1E76FF000494FF0D2
:10A5E000FF38DCE7179B5A1C17925B78302BF9D0A9
:10A5F000002BD8D0012300E00023002704930A2277
:10A60000179BCDE905770A9317980678A6F13003D2
:10A61000D9B2092924D95A46294631F09FF8002891
:10A620002DD000203246059D83460346652A01D081
:10A63000452A13D11DB9049A024394D00025179CD2
:10A64000621C179262782B2A6ED02D2A72D04FF09E
:10A65000000CA2F1300109297AD91794002699E05B
:10A660000599013008291790D7BF069902FB0737D3
:10A6700002FB01330693059B01330593C4E7179B47
:10A6800003EB0B02179213F80B20059BA3B3834631
:10A690001D46A2F13003092B12D90123C6E7179BEF
:10A6A00001305A1C17925A78302AF8D0A2F131039F
:10A6B000082B00F2EA8483460020179B05460A9384
:10A6C000303A00F1010311D09B4400EB050C2B46FE
:10A6D0000A21634512D12B180135082B054419DCDA
:10A6E00006990A2303FB012306930023179A1846B1
:10A6F000511C17915278CCE70598D5E7082B03F148
:10A70000010303DC069E4E430696E2E7102BD8BFFA
:10A710004F43DEE70F2BDCBF0A2303FB0727E4E7E9
:10A720004FF0000B012386E74FF0000CA21C17929C
:10A73000A2788EE74FF0010CF8E700BFC8DB0400F9
:10A7400054DB04000000F07F179A511C17915278D7
:10A75000302AF9D0A2F1310108293FF67FAF303A13
:10A760000792179A0D92179A561C17965278A2F1D3
:10A77000300EBEF1090F38D90D99761A082E44F61D
:10A780001F6603DC07998E42A8BF0E46BCF1000F7E
:10A7900000D07642002D4FD1049908437FF403AFD7
:10A7A000002B7FF4E0AE692A29D026DC492A26D086
:10A7B0004E2A7FF4D8AE9D4917A831F026FA00281A
:10A7C0003FF4D1AE179B1B78282B2FD11AAA98499A
:10A7D00017A831F02EFA052828D11B9BDDF86880D8
:10A7E00043F0FF4949F4E009DDE6079E0A2101FB39
:10A7F0000621A1F130020792B5E76E2AD9E78D490B
:10A8000017A831F002FA00283FF4ADAE179B17A845
:10A810008949013B179331F0F8F910B9179B0133BF
:10A820001793DFF818924FF00008BCE6844828F030
:10A83000F5FB80468946B6E6A6EB0B0306982C4648
:10A840000F93059B002B08BF2B46102D0593A8BF27
:10A850001024FDF76FFE092D8046894614DCA6EB17
:10A860000B03002B3FF49FAEA6EB0B0379DD162BF9
:10A8700045DC0F9B4246734901EBC3014B46D1E9CE
:10A880000001FDF7D1FED4E76E4B03EBC40353E99F
:10A890001223FDF7C9FE804689463846FDF74AFE79
:10A8A00002460B4640464946FDF708FD0F2D8046FF
:10A8B0008946D4DD2C1BA6EB0B031C44002C26DCA4
:10A8C00000F0A380644214F00F020AD05D4B4046B2
:10A8D000494603EBC203D3E90023FDF7CFFF8046CF
:10A8E0008946241100F091801F2C40F3B38022236D
:10A8F0004FF000084FF00009CAF8003053E6C5F1E8
:10A900002503A6EB0B02934219DA2C1B144414F016
:10A910000F030AD04B49424601EBC3014B46D1E934
:10A920000001FDF781FE8046894634F00F046CD0AB
:10A93000B4F59A7F41DD2223CAF8003071E7C5F1F2
:10A940000F05404C42464B4604EBC501D1E90001DE
:10A95000FDF76AFE0F9B5D1B04EBC504D4E90023E1
:10A960008FE71633A6DBABEB0602364B4046494673
:10A9700003EBC203D3E90023FDF780FF59E700236F
:10A9800006932223DFF8B4904FF00008CAF8003095
:10A990001899504627F0D2FB0699504627F0CEFB77
:10A9A0000599504627F0CAFB1099504627F0C6FB80
:10A9B0000799504627F0C2FBF5E5002324114046D5
:10A9C0004946214F0493012C22DC0BB18046894675
:10A9D000049BA9F154791C49424601EBC3014B4643
:10A9E000D1E90001FDF720FE144B0A4680460B40DA
:10A9F00016498B429FD8A1F580118B4286BFDFF8A4
:10AA000050904FF0FF3802F15479002304934CE04A
:10AA1000E20704D5D7E90023FDF706FE0123049AD7
:10AA20006410083701320492CDE700BF032505000A
:10AA300040DB040000FE0400358305000000F07FC9
:10AA400025FF040028CC040000CC04000000A07CFA
:10AA5000FFFFEF7F14F0100340464946AB4F18BF8D
:10AA60006A2304930023E20704D5D7E90023FDF706
:10AA7000DBFD0123641007F10807F4D10BB1804618
:10AA80008946049B43B1C9F30A524946C2F16B039C
:10AA9000002B50DC6A2304930022002340464946E1
:10AAA000FEF72AF800287FF422AF069B5046059A4D
:10AAB00000932B460A9927F0ABFB109000283FF437
:10AAC0003AAF0F9BABEB060B002BB4BF5B460023EA
:10AAD00011930F9B23EAE3731493002307930593C9
:10AAE000109B5046596827F0E9FA069000283FF479
:10AAF00048AF109B0C301A6903F10C01023292002E
:10AB000030F057FC1AAB42465046019319AB009304
:10AB10004B46CDE90A8927F04BFE189000283FF4F8
:10AB200030AF0121504627F0BDFB03460590D0B958
:10AB30000023059325E71F2B0EDD342B4FF0000873
:10AB4000DBBF4FF0FF33C2F14B024FF05C79934013
:10AB5000D8BF03EA01099DE74FF0FF3202FA03F381
:10AB600003EA080896E7199C1A9A002CA9BF119BC2
:10AB7000149BE718149EB8BF1E1B049BB8BF119FFF
:10AB8000E41A634B1444C2F13602013C9C4280F249
:10AB9000B0801B1B01251F2BA2EB0302CDBFC4F10C
:10ABA0007F449D40002404F57F04C2BF04F57B442C
:10ABB000E23405FA04F407EB020B049B16445F45EC
:10ABC0001E443B46A8BF5B46B342A8BF3346002B9A
:10ABD000C2BFABEB030BF61AFF1A119B002B16DD5D
:10ABE0001A460599504627F01DFC059000289FD075
:10ABF0000146189A504627F06BFB0D9000283FF451
:10AC0000C0AE1899504627F099FA0D9B1893BBF1E6
:10AC1000000F71DC0F9B002B08DD149A504606993B
:10AC200027F000FC069000283FF4A9AE002E08DDB6
:10AC300032460699504627F04FFC069000283FF414
:10AC40009EAE002F08DD3A460599504627F044FC99
:10AC5000059000283FF495AE069A5046189927F0C3
:10AC6000A7FC079000283FF48CAEC36805990D93AC
:10AC70000023C36031F018F900284BDA0D9B53EA2A
:10AC8000080340F0BC80C9F31303002B40F0B780E9
:10AC900029F000431B0D1B05B3F1D66F40F2AF80C6
:10ACA000079B5B6923B9079B1B69012B40F3A780B6
:10ACB00001220799504627F00FFC0599079031F0C3
:10ACC000F3F8002840F39B8029F00043049A1B0D01
:10ACD0001B05002A79D0B3F1D66F6DD8B3F15C7F34
:10ACE00046D84FF000084FF000092223CAF8003080
:10ACF0004EE6002401255EE75A461899504627F093
:10AD0000EBFB1890002885D13BE600BFD8CB0400B0
:10AD100002FCFFFFCB4640F0A3800D9AC9F313035A
:10AD2000002A40D0964A934258D1049B42467BB9B0
:10AD3000B8F1FF3F40F08980924B99453FF421AE36
:10AD4000914BDDF8108009EA030303F580191FE633
:10AD50008D4B09EA0303B3F1D46F16D918F1010141
:10AD60001BD1884A91453FF40CAE03F5801980460B
:10AD7000864B404649460022FDF756FC0B4680466E
:10AD8000894603437FF404AEAFE71E0D4FF0FF3159
:10AD9000C6F16B06B1408845E7D0002C5ED014EABE
:10ADA0000B0FE5D01EE0002B4AD1B8F1000F8BD07D
:10ADB00064B314EA0B0F2BE0A3F580134FF0FF38B8
:10ADC0006FEA13596FEA0959D2E7A3F580134FF0E0
:10ADD000FF386FEA13596FEA0959D9E59CB114EAB3
:10ADE000090F0CD0049A4046494630F0FEFC02465A
:10ADF0000B46DDE90A01FDF761FA80468946049BAE
:10AE0000002BB5D1C4E515EA080FEAE718EA050FEB
:10AE1000F5D0049A4046494630F0E7FC02460B461E
:10AE2000DDE90A01FDF748FA0022002304460D4639
:10AE3000FDF762FE00287FF454AFA046A946DEE786
:10AE4000002CB6D115EA080FE2E724B114EA090F85
:10AE50003FF49EADC6E718EA050FF9E72A42A0E7DE
:10AE60000599079831F03BF800224FF080430446E3
:10AE70000D46FDF755FE00286DD00D9B002B78D1B7
:10AE8000B8F1000F56D1C9F31303002B59D100229A
:10AE90003F4B20462946FDF739FE002858D1204671
:10AEA000294600223B4BFDF7BFFB04460D4605F14A
:10AEB000004308940993344B334A0BEA03030BEA2B
:10AEC00002021593344B9A42DDE9086740F09E80F8
:10AED000ABF154794046494627F000FCDDE90823F0
:10AEE000FDF7A2FB42464B46FDF7E8F90B46264923
:10AEF00080462A4A1940914254D90B9A214B9A42D2
:10AF000003D10A9B01333FF43CADDFF878904FF05A
:10AF1000FF381899504627F011F90699504627F046
:10AF20000DF90599504627F009F90799504627F081
:10AF300005F9D5E5B8F1010F03D1B9F1000F3FF4E0
:10AF4000D0AE174C0023124DCDE908340024B2E7EF
:10AF50000024104DABE70F4B204629460022FDF799
:10AF600063FB0D9B04460D46002BA0D0CDE90845A0
:10AF7000A1E7074C00232546CDE908341C469AE793
:10AF8000FFFF0F00FFFFEF7F0000F07F0000503950
:10AF90000000F03F0000E03F0000E07FFFFF9F7CEB
:10AFA0000000F0BF03F15479049B4E46002BB0D152
:10AFB00029F00043159A1B0D1B059A42A9D1204682
:10AFC0002946FDF7BFFFC9F31306FDF7FFFA0B464D
:10AFD00002462946204646EA0806FDF76DF90D9B14
:10AFE00004460D461E434AD02DA3D3E90023FDF7A6
:10AFF0008DFD00287FF4CCAC204629462AA3D3E956
:10B000000023FDF7A1FD002883D0C1E4049B13B306
:10B01000159BB3F1D46F1ED82046294624A3D3E94B
:10B020000023FDF77DFD90B129462046FDF7D4FDB4
:10B03000012838BF0120FDF77DFA0D9B04460D461F
:10B04000D3B901F1004312901393DDE9126707F1C0
:10B05000D663159A9F1ADDE90A0127F03FFB0246E5
:10B060000B4630463946FDF7DFFADDE90A23FDF7E6
:10B0700025F98046894697E7CDE91245E5E70EA315
:10B08000D3E90023FDF742FDBDE7652A3FF448AB55
:10B09000452A3FF445AB0123FFF77EBBAFF30080A9
:10B0A0009535A094FFFFDF3F35E5AF350000E03F69
:10B0B0000000C0FFFFFFDF419535A094FFFFCF3FA9
:10B0C0002DE9F04F144697B01D46476A8346239EEC
:10B0D000CDE904457FB9102025F09EFB0246CBF850
:10B0E000240020B9A24BEA21A24825F065FBC0E963
:10B0F00001770760C760DBF82430196859B15A68D6
:10B100000123584693404A608B6027F017F8DBF81C
:10B11000243000221A602B1EB7BF23F00043002307
:10B1200001220593A8BF3360059F934BB8BF3260DF
:10B13000BB4319D142F20F73229A1360C7F3130372
:10B14000234300F0E085249B53B98C4B21E08C4BCA
:10B1500008930833249A1360089817B0BDE8F08F5D
:10B16000864B08930333F5E7DDE90423CDE90C238F
:10B17000DDE90C0100220023FDF7BEFC804650B142
:10B180000123229A1360249B13B17E4B249A1360EF
:10B190007D4B0893E0E714ABC7F30A56584601937A
:10B1A00015AB0093DDE90C2327F002FB0390002E82
:10B1B00078D00D9BA6F2FF36CDF84C80C3F3130375
:10B1C00043F07F53DDE90C0143F44013194600229C
:10B1D0006E4BFDF771F860A3D3E90023FDF724FA65
:10B1E0005FA3D3E90023FDF769F804460D46304616
:10B1F000FDF7B0F95CA3D3E90023FDF715FA024689
:10B200000B4620462946FDF759F804460D46FDF742
:10B21000BBFC00220746002320462946FDF776FCAA
:10B2200040B13846FDF796F922462B46FDF764FCFF
:10B2300000B9013F162F54D8554B03EBC703DDE986
:10B240000C01D3E90023FDF761FC00284BD0013F3E
:10B2500000231293149B9B1B5A1E4CBFC3F1010386
:10B2600000230A9245BF0693002306930A93002FFA
:10B270003BDB0A9B0F973B440A9300230B93209BD5
:10B28000092B00F28980052BC5BF043B0024012453
:10B290002093209B023B032B00F28980DFE803F020
:10B2A0002D3A3859DDE914631E4406F23243202B4F
:10B2B000C9BFC3F14003C3F120039F4006F212430C
:10B2C000D8BF04FA03F006F1FF36C4BF24FA03F333
:10B2D00047EA0300FDF72EF90122A1F1F87313925A
:10B2E00074E70123B5E71290B4E7069BDB1B0693D6
:10B2F0007B420B9300230F93C1E700230E93219B06
:10B30000002B57DC012399461A46099321920CE041
:10B310000123F3E700230E93219BFB1803F101099E
:10B3200009934B46012BB8BF0123DBF82400002111
:10B33000042202F114059D4240D94160584626F08E
:10B34000BDFE089000283CD1124B02464FF4D57147
:10B35000CAE60123DFE700BF61436F63A787D23FDF
:10B36000B3C8608B288AC63FFB799F501344D33FF4
:10B370003F830500568305000000F07F3B830500F6
:10B3800032830500F64A0500F54A05000000F83F43
:10B3900028CC0400CA830500012400230E942093C6
:10B3A0004FF0FF330022994609931223AEE70123A1
:10B3B0000E93F5E7219B99460993B6E701315200B8
:10B3C000B7E7DBF82430B9F10E0F089A1A606FD88E
:10B3D000002C6DD0002F36DD07F00F02A04BF805D2
:10B3E00003EBC203D3E90034CDE910344FEA27144C
:10B3F00017D59C4B04F00F044FF00308D3E9082342
:10B40000DDE90C01FDF73AFACDE90401954D5CB98F
:10B41000DDE91023DDE90401FDF730FACDE904018F
:10B420002BE04FF00208F1E7E10709D508F1010828
:10B43000DDE91001D5E90023FDF7F6F8CDE91001AB
:10B4400064100835E3E700F007817C42844B854DAA
:10B450004FF0020804F00F02241103EBC203DDE9F0
:10B460000C01D3E90023FDF7DFF80023CDE9040147
:10B47000002C40F0E580002BD0D1129BDDE9044583
:10B48000002B00F04C810022774B20462946FDF727
:10B490003DFB002800F04381B9F1000F00F03F812F
:10B4A000099B002B00F3E480DDE90C34CDE9043482
:10B4B000159B002B02DB0E2F40F342820E9A002ACE
:10B4C00040F067820B9C0025DDF81880B8F1000F72
:10B4D0000DD00A9B002B0ADD4345069AA8BF4346C0
:10B4E000D21AA8EB030806920A9AD31A0A930B9B66
:10B4F0000BB30E9B002B00F0A682002C00F0A18263
:10B5000029462246584626F08DFF039A01460546F5
:10B51000584626F0DDFE03990646584626F00EFEF4
:10B520000B9B1B1B0B9300F091820B9A31465846E4
:10B5300026F078FF03900121584626F0B3FE0F9BBA
:10B540000446002B00F084821A460146584626F035
:10B5500069FF209B0446012B03DC049B002B00F0B9
:10B560007C820026236904EB8303186930F04DFCCC
:10B57000C0F120000F960A9B184410F01F0000F045
:10B580009182C0F12003042B40F38182C0F11C00A2
:10B59000069B0344804406930A9B03440A93069B3C
:10B5A000002B05DD1A460399584626F095FF0390B7
:10B5B0000A9B002B05DD21461A46584626F08CFFD3
:10B5C0000446129B002B00F076822146039830F04F
:10B5D0006BFC002880F26F8200230A2203995846F0
:10B5E00026F0CEFD0E9B7E1E0390002B00F05C82A9
:10B5F000002329460A22584626F0C2FD099B05462B
:10B60000002B03DC209B022B00F35E82B8F1000FBD
:10B6100005DD29464246584626F05EFF05460F9B4B
:10B62000002B00F0D0826968584626F047FD074697
:10B63000002840F07F820D4B024640F2EA2153E59C
:10B64000E20706D508F10108D5E90023FCF7ECFF75
:10B650000123641008350BE74FF002080DE700BF27
:10B6600028CC040000CC04000000F03FCA83050091
:10B6700020460022AC4B2946FCF7D6FF7E1E08F17F
:10B680000108099CCDE904014046FCF763FFDDE9B0
:10B690000423FCF7C9FFA54B0022FCF70FFEA1F124
:10B6A0005073CDE910011193002C3BD10022A04B27
:10B6B000DDE90401FCF700FE02460B46CDE9042358
:10B6C000DDE91023FDF740FA002840F05781DDE95D
:10B6D000102101F10043DDE90401FDF717FA00280C
:10B6E0003FF4E2AE00242546219BDDF820A0DE4396
:10B6F0004FF000082146584626F020FD002D00F0AE
:10B70000A980B8F1000F05D0A84503D0414658469E
:10B7100026F014FD2946584626F010FD9AE03E46D4
:10B720004C46B1E7834B03EBC40353E90201089B8A
:10B730001C440E9B002B4AD002460B4600207E493B
:10B74000FDF79CF8DDE91023FCF7B6FDDDF820A03D
:10B75000CDE91001DDE90401FDF716FA0546FCF715
:10B76000F9FE024630350B46DDE90401FCF7A4FD85
:10B770000AF8015B02460B46CDE90401DDE9100140
:10B78000FDF7E2F9002865D100206C49DDE90423CA
:10B79000FCF792FD02460B46DDE91001FDF7D4F9F6
:10B7A000002840F00D81A24500F0EA8000225E4BA7
:10B7B000DDE91001FCF738FF00225B4BCDE91001F9
:10B7C000DDE90401FCF730FFCDE90401C2E7DDE962
:10B7D0001023FCF729FFA046DDF820A0CDE91001D9
:10B7E000DDE90401FDF7D0F90546FCF7B3FE02469A
:10B7F00030350B46DDE90401FCF75EFD0AF8015B1C
:10B8000002460B46A245CDE904234FF0000223D1A6
:10B81000494BDDE91001FCF751FD02460B46DDE91D
:10B820000401FDF791F9002840F0CA800020424948
:10B83000DDE91023FCF740FD02460B46DDE904017B
:10B84000FDF764F970B1C24608F1FF381AF8013CFF
:10B85000302BF8D0374655E0334BFCF7E5FECDE909
:10B860000401BDE7DDE90C34CDE90434159B002B60
:10B87000FFF628AE0E2F3FF725AE2E4B03EBC70386
:10B88000D3E90034CDE90634219B002B02DAB9F16B
:10B89000000F64D0DDF820A0DDE90445DDE90623D2
:10B8A00020462946FCF7EAFFFDF76EF90646FCF74D
:10B8B00051FEDDE90623FCF7B7FE0246204606F1FD
:10B8C00030040B462946FCF7F7FC0AF8014B089CAC
:10B8D00002460B46AAEB0404A14540F08280FCF727
:10B8E000EDFC04460D46DDE90623FDF72DF90028A1
:10B8F00065D120462946DDE90623FDF7FDF808B1AC
:10B90000F3075CD40399584626F018FC002301374E
:10B910008AF80030229B1F60249B002B3FF41CAC54
:10B92000C3F800A018E400BF0000244000001C4041
:10B930000000144028CC04000000E03F0000F03F6D
:10B94000A24B03EBC703D3E90034CDE90634219BB6
:10B95000002B9FDAB9F1000F9CDC7FF4C3AE00220C
:10B960009B4BDDE90601FCF75FFEDDE90423FDF7F3
:10B97000E1F8044600287FF4B5AE3E462546B4E023
:10B98000DDE90C34CDE90434159B002B01DB0E2FCF
:10B99000D6DD209A012A36DC139A82B303F23343B0
:10B9A0000B9CDDF81880069A012158461A4406922D
:10B9B0000A9A1A440A9226F075FC054686E53E4628
:10B9C00053469A4613F8012D392A06D1089A9A420D
:10B9D000F7D13022089901360A701A7801321A70AC
:10B9E00038E700227B4BFCF71FFE002200230446B1
:10B9F0000D46FDF781F800283FF450AF82E7149B15
:10BA0000C3F13603CCE709F1FF340B9BA34208DBFB
:10BA1000B9F1000FA3EB04040EDBDDF818804B46F0
:10BA2000C1E70B9B0F9AE31A0B94DDF818800024F2
:10BA30001A444B460F92B6E7069BA3EB0908002376
:10BA4000B1E7039E71E50B9A039970E5039672E5E1
:10BA5000209B012B17DC049BABB9059BC3F313039D
:10BA60009BB9059B23F00046360D360536B1069B83
:10BA70000126013306930A9B01330A930F9B002B87
:10BA80007FF470AD0F96012075E50026F6E73FF4D0
:10BA900086AD1C33069A1A44984406920A9A1A44B0
:10BAA0000A927CE50346F4E7099B002B2BDC209BE4
:10BAB000022B09DC27E0B9F1000F1DDC209B022BD3
:10BAC0001ADD3E46CDF82490099B002B7FF40CAE86
:10BAD00021460522584626F053FB014604460398AA
:10BAE00030F0E2F900287FF7FFADDDF820A0312328
:10BAF00001360AF8013BFBE50E9B3E46CDF824904B
:10BB0000002B7FF483AD089F214603982FF0C4FEDD
:10BB1000089B00F13009099A07F8019BFB1A9A4229
:10BB200040F3CB8000230A220399584626F028FBD5
:10BB30000390E9E72A6905F10C010C30023292000A
:10BB40002FF037FC01223946584626F0C5FC089BE9
:10BB5000A846054603F1010ADDE9082313440A93C8
:10BB6000049B03F001030B930AF1FF332146039872
:10BB700006932FF091FE4146099000F13009039899
:10BB800030F092F92A4621460746584626F010FD25
:10BB9000C268014602B3584626F0D0FA002F3ADABE
:10BBA00001220399584626F097FC2146039030F075
:10BBB0007BF9002803DC29D119F0010F26D0B9F157
:10BBC000390F1DD132E02846C1E700BF28CC040060
:10BBD00000001440000024400E90039830F064F9F7
:10BBE0000E990C90584626F0A9FA0C9A5ABB209B45
:10BBF00053B90B9B43B9B9F1390F17D0002F05DDAD
:10BC0000099B03F1310901E0002F2ADADDF818A0C1
:10BC10000AF8019B6EE5209B3B4304D1049B03F093
:10BC20000103002BBCD0B9F1390F36D1069F39235F
:10BC300007F8013BBA46013F1AF8013C392B5AD0AC
:10BC400001333B7056E5002F06DB209B3B4306D1BA
:10BC5000049B03F0010313B9002AA1DCD6E7002AF4
:10BC6000E1DC0A9B57460AF8019C53452ED000237D
:10BC70000A220399584626F083FAA84503904FF00C
:10BC800000034FF00A02414658460BD126F078FADD
:10BC9000804605460AF1010A66E7DDF818A009F1B9
:10BCA0000109B5E726F06CFA2946804600230A22EE
:10BCB000584626F065FA0546ECE7099B4FF0000868
:10BCC000002BCCBF1F460127089B1F44012203996C
:10BCD000584626F001FC2146039030F0E5F8002894
:10BCE000A8DC02D119F0010FA4D1BA4617F8013D22
:10BCF000302BFAD0FEE4089BBB429BD13123089A3B
:10BD000001361370F6E4249B002B7FF420AA014B2C
:10BD1000FFF73FBA32830500014BD3E8AF0F7047FE
:10BD200060EB0020014BD3E8AF0F704764EB0020BD
:10BD3000014BD3E8AF0F70475CEB00202DE9F047D3
:10BD400086B000AFD7F838800546404691461C467D
:10BD50003972C7F80080FDF764FAC7E90394786088
:10BD600009F092FCBB7D6E4623F00303BB7504F122
:10BD7000080323F00703ADEB030D2246B8824946C2
:10BD800068462FF016FB0023EA460DF804308AB00F
:10BD90006A46174B174C5361174B4FF42351C2E9B6
:10BDA000063A164B20461362154B42F8103F27F017
:10BDB00078F9B5464046FDF734FA8AB06A46114B29
:10BDC000D061C2E905384FF4007313840E4B20464E
:10BDD00042F8103F4FF4135127F063F93946B54646
:10BDE00028462CF07DFB1837BD46BDE8F08700BF24
:10BDF00030DC0400B0C8040035DC0400000201039C
:10BE00000400000242DC04000400000170B5C2B06E
:10BE100005460E4602F0DEFE044660B9114B4FF4B3
:10BE2000825107930223104806AA069327F039F996
:10BE3000204642B070BD2B464FF480710B4A0096ED
:10BE400002A825F045FA0A4902AA204627F02CFA52
:10BE5000204627F003FA0546204602F013FE2C4642
:10BE6000E6E700BF57DC0400B0C8040074DC04003F
:10BE70009ADC0400F0B583B005460E46104619461C
:10BE800002AFFFF7C3FF0446D8B1FDF7CAF9224657
:10BE90000346012128460096FFF750FF70B16D461A
:10BEA00088B002AA084B4FF4C251C2E905300323FF
:10BEB000064842F8103F27F0F4F8AD46204602F05D
:10BEC000A3FE0437BD46F0BDA7DC0400B0C80400E3
:10BED00038B5054602F07EFE044668B16B1C0DD1F4
:10BEE0000B4A0C4927F0E0F9204627F0B7F9054640
:10BEF000204602F0C7FD2C46204638BD2846FCF7F8
:10BF000029FB02460B462046034927F0B7F9EBE729
:10BF1000C5DC04006BF10400DADC0400F0B583B08A
:10BF2000054602AF08461646FFF7D2FF0446D8B1D1
:10BF3000FDF777F922460346012128460096FFF7D0
:10BF4000FDFE70B16D4688B002AA094B4FF4C25194
:10BF5000C2E905300323074842F8103F27F0A1F853
:10BF6000AD46204624F060FC0437BD46F0BD00BF5E
:10BF7000E9DC0400B0C80400014827F095B800BF10
:10BF800060EB0020014827F08FB800BF5CEB002079
:10BF9000014827F089B800BF64EB00202DE9F04F7D
:10BFA000D7B002AF07F1280634469E46DFF844C1F9
:10BFB000054689469246BCE80F000FC4BCE80F0056
:10BFC0000FC49CE80F0084E80F00DEF81040204604
:10BFD000FDF727F923460090F72107F10C0207F13E
:10BFE000580002F0C3FE044680B1434B4FF4825127
:10BFF0007B62022341483B6207F1200227F051F89F
:10C00000204607F5AA77BD46BDE8F08FF96807F12D
:10C01000580027F020FC234678600C2202FB03F82E
:10C0200056F808B0BBF1000F0CD1354B07F12002D8
:10C030007B6202234FF4825130483B6227F031F893
:10C040004A4625E058463B60FDF7EBF85946024664
:10C0500048462FF083FB3B680446002848D106EB96
:10C0600008039A681278B2B96C4688B002AA254BC8
:10C070004FF4E251C2E9053B4FF400739383224B26
:10C080001E4842F8103F27F00CF8A54656F8082045
:10C090004FF0FF3112E05B6898475045814613D05E
:10C0A0001A4B4FF482517B62022307F1200213489E
:10C0B0003B6226F0F6FF494656F808202846FFF76F
:10C0C0002DFF4FF0FF349BE7D7F878317A689A421A
:10C0D00096D00F4B4FF482517B62022307F120026E
:10C0E00006483B6226F0DDFF514656F80820E5E79A
:10C0F000013392E730CA0400FEDC0400B0C804003B
:10C1000098DD040018DD04000300000144DD040094
:10C1100087DD04002DE9F04F9DB002AF07F118084C
:10C1200004462CF084F95022002140462FF061F99A
:10C1300001234246C7E90833002152483B1D28F03D
:10C1400041F8054600B36C4688B002AA4E4B4FF446
:10C15000C251C2E9053003234C4842F8103F26F093
:10C16000A0FFA5464A4B6FF00905FB6202234FF47E
:10C1700082514648BB6207F1280226F092FF28460A
:10C180006C37BD46BDE8F08F4FF0080A7E68DFF8D7
:10C1900004913E482EB37369082B54D1B3693E49CC
:10C1A0005B6801204B6045F6073308804B8007F140
:10C1B000080610233246043115F0E2FBE94688B048
:10C1C00002AB364A4FF4E651C3E905264FF400723C
:10C1D0009A831A46324B2D4842F8103F26F061FFF1
:10C1E000CD46786827F0F0FF2B4B172163632D4B6A
:10C1F00040462D4AA3641FF019F9002836D06E4638
:10C2000088B002AA294B4FF4C251C2E9053003237A
:10C210001E4842F8103F26F044FFB5462448E0622D
:10C22000FCF7FFFF042284F85E20224A0023E26428
:10C2300080222149C4E90E33C4E915122063226526
:10C2400084F824309BE7EB468AB002AAC2E9059342
:10C25000182313620523C2F81CA04FF4215142F8A1
:10C26000103F26F01EFFDD46366892E787F827006C
:10C270000F231421114ACDF800800D4825F028F82D
:10C28000CCE700BFDEE10400EAE10400B0C804002E
:10C2900001E204003EE204003CFA002028E204002F
:10C2A000030000013992010061E2040069E2040028
:10C2B00090FA0020A4FB002024FB00208AE2040066
:10C2C00010B52EF048FF4FF47A72A0FB020302FB78
:10C2D0000133394AC00B40EA43411368CB1AF92BAA
:10C2E00005D936481160037883F001030370344A9E
:10C2F0001368CB1AB3F5FA7F05D33248116003787F
:10C3000083F001030370304A1368CB1AB3F57A7FC8
:10C3100005D32E481160037883F0010303702C4B82
:10C320001A68D00702D5254B1B782BBB910702D585
:10C33000244B1B7803BB530702D5244B1B78DBB976
:10C340000023C2F3C000D40619D51C490978B1B145
:10C3500043F00203D40523D51A49097801B343F009
:10C36000040318432DF0D9FBBDE810404FF4804280
:10C370000023184821F086BF00200123E3E791063F
:10C3800003D5104909780029E2D1540603D50F4995
:10C3900009780029DCD1110648BF40F00200D9E736
:10C3A000910503D5054909780029D8D1520548BF20
:10C3B00040F00400D5E700BF40E9002026FC002043
:10C3C0003CE9002025FC002038E9002024FC002066
:10C3D00044E9002098D3002090B50E4B83B0012192
:10C3E00002AF00930C4A5F230C48FFF7A7FC70B123
:10C3F0006C4688B002AA0A4B4FF4C651C2E9053018
:10C400000323084842F8103F26F062FEA546043791
:10C41000BD4690BD23E30400C4E2040050E90020BF
:10C4200053E30400B0C8040098B5037800AF1BB113
:10C43000032B1FD0BD4698BD037A012B18D0052BC6
:10C44000F8D1194B6C4688B06A4618491848C2E9B9
:10C4500005134FF400739383164B4FF4E65142F8E3
:10C46000103F26F035FEA546134821F033FAE1E7E8
:10C47000124BE7E7017A124A124B6C4688B0012949
:10C4800008BF13466A4610490948C2E905134FF42C
:10C4900000739383074B4FF4E65142F8103F26F0A8
:10C4A00017FEA546C6E700BF87E30400AAE3040021
:10C4B000B0C80400030000013CD000206EE304007B
:10C4C0009BE30400A5E30400CAE30400F0B587B0D1
:10C4D00000AF0224B34B4FF48651B3487B6107F1A0
:10C4E00010023C6126F0F4FD19F0B4FE48B1AF4BE8
:10C4F0004FF48251C7E90443AB4807F1100226F01C
:10C50000E7FDAB4D6E462B6843F480732B6002242D
:10C51000A84B4FF48651A4487B6107F110023C619F
:10C5200026F0D6FD18F0A4FDE0B188B06A46A24B13
:10C530004FF4C251C2E90530032342F8103F9A4834
:10C5400026F0C6FDB5469D4B4FF482517B61022318
:10C5500095483B6107F1100226F0BAFD00201C3718
:10C56000BD46F0BD964B90484FF48651C7E9044351
:10C5700007F1100226F0ACFD92482DF03CFC50B1C2
:10C5800088B06A46904B4FF4C651C2E90530032388
:10C5900042F8103FD3E74FF0FF324FF0FF338B48A4
:10C5A00021F0DCF98A4B8048C7E904434FF48651F7
:10C5B00007F1100226F08CFD2B68864823F4807367
:10C5C00043F400732B6019F081FE48B1824B4FF4A5
:10C5D0008251C7E90443744807F1100226F078FD40
:10C5E0007E48FFF797FD78B16C4688B06A467C4B71
:10C5F000C2E9053003234FF4C2516B4842F8103FA3
:10C6000026F066FDA546A9E77649774821F098FD12
:10C610004FF480420023744821F034FE734974487B
:10C6200021F08EFD4FF400420023714821F02AFED4
:10C630007049714821F084FD4FF4004200236E4898
:10C6400021F020FE01F098F920B16C4688B06A46CE
:10C650006A4BCDE702F074FB044600283AD06D46E1
:10C6600088B06A46664B4FF4C251C2E905300323D5
:10C670004D4842F8103F26F02BFDAD466EE70134E1
:10C6800014D06E4688B06A465E4B4FF4C651536173
:10C690003C2393610323444842F8103F26F018FDE1
:10C6A000B5464FF4F010002122F0A6FF4B482BF0C6
:10C6B000D5FE88B16E4688B06A46534BC2E9053054
:10C6C00003234FF4C251384842F8103F26F000FDD2
:10C6D000B546D4E74D4DE9E72946404826F0ECFC45
:10C6E00088BB3E4E30462CF002F802460121284617
:10C6F00027F07FFE00282BDA28F0BBFD6E4688B0BD
:10C7000003686A464249C2E9051303234FF4C25144
:10C71000254842F8103F26F0DBFCB5466E463D4BFF
:10C7200021487B6102234FF486513B6107F11002DF
:10C7300026F0CEFC29482BF03DFF00289FD088B082
:10C740006A46354BBAE76C4688B06A46334B4FE7CA
:10C7500030462BF0A7FF48B110F10B0F06D06E4604
:10C7600088B06A462E4BC2E90530CEE7EB88D90780
:10C7700008D530462BF0D2FF20B16E4688B06A460D
:10C78000284BF0E7B5F906301A074FD5264B7B61E9
:10C7900002234FF4825104483B6107F1100226F056
:10C7A00097FCBBE7D7E30400B0C80400F9E304003A
:10C7B00044E900201EE4040039E40400C7E4040056
:10C7C0006BE4040029C4010085E404003CD000208F
:10C7D000AEE40400D7300400E5E4040050E9002092
:10C7E0000EE50400C1C2010098D300205DDE010007
:10C7F00068D3002009DD010038D3002033E50400B0
:10C8000050E504006DE504008BE5040048E90020D4
:10C81000BBE504000FE6040029E60400A5E50400DA
:10C82000CFE50400E6E50400FEE504009B067FF585
:10C8300059AF014BABE700BF06E6040080B500AF7F
:10C8400088B06A46064B0748C2E9053103234FF416
:10C85000C45142F8103F002326F048FCBD4680BD7D
:10C8600059E60400B0C804007FB5074B4FF482516D
:10C87000059302230548049304AA002326F036FCFE
:10C8800007B05DF804FB00BF85E60400B0C80400F3
:10C890007FB5074B4FF4825105930223054804935B
:10C8A00004AA002326F022FC07B05DF804FB00BFB9
:10C8B00097E60400B0C80400F0B587B0054600AFA5
:10C8C00002262F4B4FF486512E487B6107F1100250
:10C8D00000233E6126F00AFC29462B4807F0C2F9E6
:10C8E000044668B9294B4FF48251C7E9046307F144
:10C8F00010020346234826F0F9FB1C37BD46F0BD65
:10C90000234B4FF48651C7E904631E48002307F107
:10C91000100226F0EBFB1F4B07F11002C7E904637E
:10C920004FF486510023174826F0E0FB3B461A4A95
:10C9300002F1100C1E4610685168083203C66245A9
:10C940003346F7D112782346327039462846134AC7
:10C9500006F0E4FD78B16D4688B06A46104B4FF49E
:10C96000C251C2E905300323064842F8103F0023B4
:10C9700026F0BCFBAD462146034807F0EBF9BCE7C7
:10C98000B2E60400B0C80400F4C70020C7E6040003
:10C99000EAE60400F9E6040050CB0400E8C70020F2
:10C9A00012E70400F0B587B005460C4600AF09BB9E
:10C9B0006E46194B07F110027B61022317483B6159
:10C9C0000B464FF4865126F091FB28462AF06FFB68
:10C9D00088B06A46124B4FF4C651C2E905300323B2
:10C9E0000E4842F8103F234626F080FBB5461C3720
:10C9F000BD46F0BD6D4688B06A460A4B0748C2E99D
:10CA0000053103234FF4C45142F8103F002326F0B0
:10CA10006DFBAD46EBE700BF4AE70400B0C8040079
:10CA20006EE7040086E7040008B508460CF098F8A5
:10CA3000014B186008BD00BF38EB002080B500AF87
:10CA400088B06A46064B4FF4C451C2E9053003234F
:10CA5000044842F8103F002326F048FBBD4680BD45
:10CA6000A5E70400B0C804002DE9F04786B0594E90
:10CA700005465949306800AFFCF7C9FB574C0346DF
:10CA800000285ED1564A1278002A45D12368DFF883
:10CA9000548123F0290343F0020323606C464FF0D6
:10CAA000020A514B4FF4865150487B6107F1100246
:10CAB0000023C7F810A026F019FB336841461D2259
:10CAC00018462EF05DFE4FF0000980F81D9027F00B
:10CAD000C4FE06F0D5FE4846316806F06BFE80467F
:10CAE00000284BD088B033686A464149C2E9051333
:10CAF0004FF4007393833F4B4FF4E25142F8103FE1
:10CB00004B463A4826F0F2FA4FF4A022A5460023FD
:10CB1000284621F031FC10E0374A4FF486517A6103
:10CB2000022232483A6107F1100226F0DFFA236848
:10CB300023F0920343F0200323601837BD46BDE87D
:10CB4000F0872E4B1B783BB92368DFF88C8023F0ED
:10CB5000920343F02003A0E7294B4FF486517B61F9
:10CB6000022322483B6107F11002002326F0BEFA9F
:10CB7000236823F0290343F00203DDE7214B4FF440
:10CB80008651C7E904A307F110020346174826F0AF
:10CB9000ADFA012006F0AEFF58B188B06A461A4BD4
:10CBA0004FF4C251C2E90530032342F8103F434617
:10CBB000A7E788B06A4633681449C2E905134FF401
:10CBC000007393830B4B4FF4E65142F8103F03463A
:10CBD00097E700BF3CEB0020BCE7040044E90020DD
:10CBE00027FC0020C8E7040043E80400B0C80400A4
:10CBF0005CE8040003000001CEE7040028FC0020EC
:10CC000005E804008AE8040098E80400C9E8040084
:10CC10002DE9F043ADF5417D88463EAF15466C46A3
:10CC2000664B4FF48651C7F8143102236448C7F8A5
:10CC3000103107F58872002307F5807626F056FA42
:10CC4000002D6ED088B03EAA5E4B290553615E4B25
:10CC50005B4893614FF4007393835C4B41F4E6515E
:10CC600042F8103F434626F041FAF72D88BFF725DA
:10CC70004FF0000398BF05F1FF3598F8009098BF7A
:10CC8000EDB208F10108A5462A464146F81DBB71E0
:10CC90003D712EF08EFB09F1FF333C1D042B00F299
:10CCA0008680DFE803F0032144466D000025EA2278
:10CCB00007F11401684665702EF07BFB94E80F00C5
:10CCC0006E4601F01DF960B388B03EAA404BC2E940
:10CCD0000530032342F8103F00234FF4C251384877
:10CCE00026F004FAB5461CE00123EA2207F11401FC
:10CCF000684663702EF05DFB94E80F006D4601F00E
:10CD0000FFF870B188B03EAA314B4FF4C251C2E96E
:10CD1000053003232A4842F8103F002326F0E6F9A5
:10CD2000AD46012007F50377BD46BDE8F083022339
:10CD3000DBE701232A467370B3704146357007F56F
:10CD400084702EF036FBF42207F5887168462EF0C9
:10CD500030FB96E80F006C4601F0A0F90028E0D007
:10CD600088B03EAA1A4BC2E9053003234FF4C251E2
:10CD700042F8103F1248002326F0B8F9A546D0E744
:10CD80000325EA2207F11401684665702EF011FBB5
:10CD900094E80F006E4601F0B3F80028C1D088B0C7
:10CDA0003EAA0B4BC2E9053042F8105F94E76C468F
:10CDB00088B03EAA074BC2E90539D6E7DEE8040091
:10CDC000B0C80400B4550500F7E8040003000001F2
:10CDD00006E9040031E9040010B50C46044820F0CF
:10CDE00079FD24B12046BDE81040FFF727BE10BDF5
:10CDF00054D000202DE9F04186B0804600AF0D46AA
:10CE00006E460224924B4FF486517B619148002379
:10CE10003C6107F1100226F069F975B98E4B4FF4A9
:10CE20008251C7E904432B4607F11002894826F0D6
:10CE30005DF91837BD46BDE8F081884B4FF4865147
:10CE4000C7E904438348002307F1100226F04EF996
:10CE5000834B07F11002C7E904434FF486510023C6
:10CE60007C4826F043F92946404606F0D3FF7D4B27
:10CE70004FF48651C7E9044307F1100200237548B7
:10CE800026F034F9284607F089F8774B4FF486519D
:10CE9000C7E9044307F1100200236E4826F026F983
:10CEA000404627F0C2FC714B4FF48651C7E904435A
:10CEB0006848002307F1100226F018F9012006F057
:10CEC00019FE0346002800F0888088B06A460323D4
:10CED0006749C2E9051042F8103F4FF4C2510023E0
:10CEE0005C4826F003F9B546624B4FF486517B61EE
:10CEF000022358483B6107F11002002326F0F6F8A0
:10CF00004FF0FF324FF0FF335B4820F081FA0021F1
:10CF10005A4806F0EFFE0446002800F08A800368B5
:10CF20009D4265D00121554806F0E4FE04460028E4
:10CF30007FD00368AB4243D14FF001082422504B0D
:10CF4000504E02FB0833316818461E222EF018FCA2
:10CF50000522C0F820804C49284606F02DFF0346E4
:10CF6000002848D06D4688B06A4603234749C2E985
:10CF7000051042F8103F4FF4C2510023354826F007
:10CF8000B5F8AD4621683D4806F0E4FE40493068FA
:10CF9000FCF73DF93F4C03460222002837D13E49B9
:10CFA0002C48C7E9042107F110024FF4865126F0FE
:10CFB0009DF80122394B1A70236863F080032360C7
:10CFC0002D4820F0F5FA364B4FF486517B61022351
:10CFD00007F110023B61002328E7324A4FF48651E3
:10CFE000C7E904421B4807F1100226F07FF87BE7EF
:10CFF0004FF00008A2E72C4A4FF486517A610222D2
:10D0000014483A6107F1100226F070F8BAE7274B8E
:10D010004FF48651C7E904230E48002307F110029C
:10D0200026F064F80122224B1A70236863F008038B
:10D03000C5E7204B4FF482517B61022305483B61D9
:10D0400007F11002002326F051F800231B68FFDED1
:10D0500050E90400B0C804006CE904009EE9040033
:10D06000CCE90400EAE904000BEA04002BEA04001E
:10D070004EEA040081EA040024EB0020F4C70020FB
:10D08000B8E9002020EB0020ACEA0400B2EA04007A
:10D09000BCE7040044E90020E5EA040028FC002085
:10D0A0002BEB040070EA0400CEEA0400FBEA040063
:10D0B00027FC00200BEB040070B503788AB004460F
:10D0C0000E4607AD032B20D8DFE803F002191B1D25
:10D0D000114928462EF03AFB059563781E210493EA
:10D0E000A37830460393E3780C4A029323790193A3
:10D0F00063790093A37926F0FCF90AB070BD084962
:10D10000E7E70849E5E70849E3E70A212846074A2F
:10D1100026F0EFF9E0E700BF33EB040055EB040025
:10D120003AEB040041EB04004BEB04007A360500B7
:10D1300080B588B0036800AF39461868FFF7BCFFB8
:10D1400088B06A46084B4FF4E651C2E905374FF400
:10D1500000739383054B064842F8103F002325F0E7
:10D16000C5FF2037BD4680BD78EB040003000001F9
:10D17000B0C8040090B589B000AF0C4628F047FC59
:10D180003946FFF799FF8AB06A46094BD461C2E974
:10D1900005374FF400731384064B4FF4125142F8D5
:10D1A000103F0548002325F0A1FF2437BD4690BD60
:10D1B00089EB040004000001B0C8040090B589B0F8
:10D1C00000AF0C4628F023FC3946FFF775FF8AB004
:10D1D0006A46094BD461C2E905374FF400731384E2
:10D1E000064B4FF4135142F8103F0548002325F039
:10D1F0007DFF2437BD4690BDACEB04000400000168
:10D20000B0C8040080B588B000AF28F000FC3946F3
:10D21000FFF752FF88B06A46084B4FF4E651C2E967
:10D2200005374FF400739383054B064842F8103FCF
:10D23000002325F05BFF2037BD4680BDCEEB040008
:10D2400003000001B0C804002DE9F041144688B085
:10D2500000AF0D46064628F0DAFB3946FFF72CFFF3
:10D26000E846CCB98AB06A46144BD561C2E90537A5
:10D270004FF400731384124B4FF4135142F8103FD4
:10D280002346104825F032FF3046C546FFF714FB11
:10D290002037BD46BDE8F0818AB06A460A4BC2E934
:10D2A0000754C2E905374FF400739384074B4FF4DA
:10D2B000325142F8103F0023E3E700BFE4EB0400E3
:10D2C00004000001B0C8040002EC040005000001E5
:10D2D0002DE9F0438FB000AF07F118060C46054664
:10D2E00028F095FB3146FFF7E7FEE8468AB06A462C
:10D2F000454BDFF81891C2E905364FF400731384EB
:10D30000434BD4614FF4135142F8103F414800237E
:10D3100025F0ECFED9F82030C54601334FF0000669
:10D32000C8460AD109F1240926B9D9F820300126C6
:10D33000013302D14FF0000930E0284628F067FBA6
:10D34000014600200BF054FF04460028EAD00146B5
:10D35000314806F087FC002852D04FF0240909FB21
:10D3600006892E494846FBF752FF002839D12C4B3D
:10D3700018702C4B1B6823F080034FF00109294AD9
:10D38000136024230021734308EB030208F8031001
:10D390004FF0FF33204613620BF00CFC29461E4869
:10D3A00006F00AFC58B1204B4FF484517B610223F4
:10D3B00018483B6107F11002002325F097FE28462C
:10D3C0000BF0F8FB0022194B1A60B9F1000F04D0E2
:10D3D00000220023164820F0CFFF3C37BD46BDE8B1
:10D3E000F08348461349FBF712FF30B9124B18700F
:10D3F0000C4B1B6823F00803BFE74FF00009C0E7A0
:10D4000020460BF0D7FB8DE726EC0400B8E900209E
:10D4100004000001B0C80400F4C70020BCE7040009
:10D4200028FC002044E9002043EC040038EB0020F5
:10D43000C8D30020C8E7040027FC00202DE9F047EE
:10D4400092B005460C4600AF4FF0FF324FF0FF336D
:10D45000C0481FF0DDFFC04BC0491868FBF7D7FE7E
:10D46000DFF8F882BE4BBF4E002808BF434633604A
:10D47000B84820F09DF830684146FBF7C8FEBA4E28
:10D4800003460222002875D1B849B948C7E90E21E0
:10D490004FF4865107F1380225F028FE336823F057
:10D4A000200343F010034FF000083360B14B2846CF
:10D4B0007B60B14B07F12806C7F80C80BB6028F0F1
:10D4C000A6FA3146FFF7F8FD002C64D0E9468AB091
:10D4D0006A46AA4BDFF8A8A2C2E905364FF40073EA
:10D4E0001384A84BD4614FF4115142F8103FA04867
:10D4F000434625F0FBFDDAF80030CD46AB4217D1AC
:10D5000028460BF057FB0120CAF8008006F0F2FA1B
:10D5100070B188B06A469C4B4FF4C251C2E90530E5
:10D520000323934842F8103F434625F0DFFDCD46E4
:10D530006D468AB06A46954BD461C2E905364FF410
:10D54000007313848F4B4FF4115142F8103F8848F9
:10D55000002325F0CBFDAD464FF0FF324FF0FF33F7
:10D560007C481FF055FF7B4820F022F84837BD4625
:10D57000BDE8F087864B4FF48651C7E90E237C48FF
:10D58000002307F1380225F0B1FD336823F00203D0
:10D5900043F0010387E7E84688B06A467D4BDFF831
:10D5A000F8A1C2E905364FF4007393837B4B4FF427
:10D5B000E65142F8103F6E48234625F097FD294674
:10D5C000C546504606F0A6FA064660B9744B4FF4BD
:10D5D00084517B62022366483B6207F120022346A6
:10D5E00025F084FDB8E7DAF8143021461A692DF0E9
:10D5F00000FF391D304627F06AF981463146504612
:10D6000006F0A8FBB9F1000F0BD088B06A46654B55
:10D61000C2E90539032342F8103F23464FF4C251B3
:10D6200056E04FF00209604B4FF486517B62504840
:10D630002346C7F8209007F1200225F057FD5B4BE9
:10D640004FF48651C7E908934948234607F1200261
:10D6500025F04CFDDFF858A1564BCAF80030564B68
:10D6600007F12002C7E908934FF48651234640484A
:10D6700025F03CFD88B06A46DAF8003003264F49B1
:10D680003B48C2E9051342F8106F23464FF4C651D8
:10D6900025F02CFDC54688B06A46494B4FF4C6516B
:10D6A000C2E905353248234642F8106F25F01EFDC9
:10D6B0005146C546284610F045F970B188B06A4613
:10D6C000404B4FF4C451C2E90530234642F8106F75
:10D6D000274825F00BFDC5463EE73B4B4FF48651EE
:10D6E000C7E908932248234607F1200225F0FEFCF3
:10D6F0000121284628F014F988B188B06A46334BD6
:10D700004FF4C451C2E905302346194842F8106F5E
:10D7100025F0ECFC2846C546FFF7CEF81CE72C4B5D
:10D720004FF48651C7E908931148234607F12002B8
:10D7300025F0DCFC2846FFF7BFF827F08EF800281C
:10D740007FF40AAF88B06A46224BC2E9053442F83A
:10D75000106F62E724EB00203CEB0020BCE70400E4
:10D76000C8E7040020EB002044E9002084EC04001A
:10D77000B0C8040011CC0100D9CD0100A2EC040016
:10D7800038EB0020040000014EEA0400BFEC040066
:10D7900096EC0400DCEC0400F4C700200300000158
:10D7A0006CE90400EAEC040014ED040032ED04001E
:10D7B000B4E90020A5C901004FED04006BED0400A1
:10D7C00090ED0400ABED0400C8ED0400E1ED0400B1
:10D7D000FCED04000EEE04002DE9F04F89B0054683
:10D7E0008846914600AF41F234320023554820F07C
:10D7F000B5F8044658B1544B4FF48451FB610223F1
:10D800005248BB6107F11802002325F06FFCB8F104
:10D81000000F28D0B9F1000F25D029464C48FBF75E
:10D82000F6FC4B4E30B1294606F12400FBF7EFFC25
:10D8300030B90120242303FB0066366A731C19D11A
:10D840006C4688B06A46434B4FF4E651C2E9053551
:10D850004FF400739383404B3C4842F8103F002341
:10D8600025F044FCA5466FF0150420462437BD463C
:10D87000BDE8F08FC7F804D04FF0020A374B07F12C
:10D880001802FB614FF4865100233048C7F818A0F6
:10D8900025F02CFCF1B2324806F02CFA0646314B4A
:10D8A0004FF48651C7E906A32848002307F1180260
:10D8B00025F01CFC002ED8D02B4B4FF48651C7E925
:10D8C00006A32248002307F1180225F00FFCD6F822
:10D8D00000B0264B4FF48651C7E906A31B4800232E
:10D8E00007F1180225F002FCBBF1000FBDD04A463B
:10D8F0004146584606F060FA0446A0B188B06A4630
:10D900001B4B4FF4C251C2E90530032342F8103FCC
:10D9100000230E4825F0EAFB1148D7F804D03168FF
:10D9200006F018FAA1E788B06A46124B4FF4E651A8
:10D93000C2E905354FF400739383074B42F8103F5B
:10D940000346E6E754D000202BEE0400B0C80400E4
:10D95000B8E900203CEE04000300000160EE040082
:10D96000F4C700207EEE04009DEE0400C6EE040025
:10D97000B2EA0400D9EE04002DE9F04790B0E84681
:10D9800000AF0225814B07F13802FB634FF486514B
:10D9900000237F48BD6325F0A9FB4FF0FF3200262E
:10D9A0007C4B1A621E705A6483F824607A482DF00A
:10D9B000EBFA7A480BF0E4FE044658B1784B4FF48A
:10D9C0008251C7E90E53334607F13802704825F0FB
:10D9D0008DFB07E073480BF0EDFE044638B172484A
:10D9E00025F07AFD20464037BD46BDE8F08709F0B6
:10D9F000B3FC044678B188B06A466C4BC2E9053482
:10DA000003234FF4C25142F8103F6148334625F0DA
:10DA10006DFBC546E6E7664B4FF4865107F13802C9
:10DA2000C7E90E5303465A4825F060FB26F0FFFC79
:10DA300007F114031422214618462DF0DAFC4FF0AA
:10DA400001094FF0C8735B4AB860FA615A4A1E2058
:10DA5000C7E9002387F81490C7F8189087F80C904E
:10DA60003F612DF073FCDFF854A10346CAF80000B3
:10DA7000E0B9534A6FF00B04C7E90E524FF48251DC
:10DA8000434807F1380225F031FB6D4688B06A46FD
:10DA90004C4B4FF4C251C2E9053403233C4842F8D1
:10DAA000103F002325F022FBAD469BE71E2246498E
:10DAB0002DF066FE1E202DF049FC444A03461060FE
:10DAC00008B9434AD6E7047007F1080005F0E0FF03
:10DAD000404805F05FFE2046DAF8001005F06AFEC7
